{
  "contractName": "ScryProtocol",
  "abi": [
    {
      "inputs": [],
      "payable": false,
      "stateMutability": "nonpayable",
      "type": "constructor"
    },
    {
      "anonymous": false,
      "inputs": [
        {
          "indexed": false,
          "name": "publishId",
          "type": "string"
        },
        {
          "indexed": false,
          "name": "despDataId",
          "type": "string"
        },
        {
          "indexed": false,
          "name": "boardcast",
          "type": "bool"
        },
        {
          "indexed": false,
          "name": "users",
          "type": "address[]"
        }
      ],
      "name": "Publish",
      "type": "event"
    },
    {
      "anonymous": false,
      "inputs": [
        {
          "indexed": false,
          "name": "transactionId",
          "type": "uint256"
        },
        {
          "indexed": false,
          "name": "publishId",
          "type": "string"
        },
        {
          "indexed": false,
          "name": "chosenProofIds",
          "type": "bytes32"
        },
        {
          "indexed": false,
          "name": "supportVerify",
          "type": "bool"
        },
        {
          "indexed": false,
          "name": "boardcast",
          "type": "bool"
        },
        {
          "indexed": false,
          "name": "users",
          "type": "address[]"
        }
      ],
      "name": "TransactionCreate",
      "type": "event"
    },
    {
      "anonymous": false,
      "inputs": [
        {
          "indexed": false,
          "name": "transactionId",
          "type": "uint256"
        },
        {
          "indexed": false,
          "name": "publishId",
          "type": "string"
        },
        {
          "indexed": false,
          "name": "metaDataIdEncSeller",
          "type": "bytes"
        },
        {
          "indexed": false,
          "name": "boardcast",
          "type": "bool"
        },
        {
          "indexed": false,
          "name": "users",
          "type": "address[]"
        }
      ],
      "name": "Purchase",
      "type": "event"
    },
    {
      "anonymous": false,
      "inputs": [
        {
          "indexed": false,
          "name": "transactionId",
          "type": "uint256"
        },
        {
          "indexed": false,
          "name": "metaDataIdEncBuyer",
          "type": "bytes"
        },
        {
          "indexed": false,
          "name": "boardcast",
          "type": "bool"
        },
        {
          "indexed": false,
          "name": "users",
          "type": "address[]"
        }
      ],
      "name": "ReadyForDownload",
      "type": "event"
    },
    {
      "anonymous": false,
      "inputs": [
        {
          "indexed": false,
          "name": "transactionId",
          "type": "uint256"
        },
        {
          "indexed": false,
          "name": "boardcast",
          "type": "bool"
        },
        {
          "indexed": false,
          "name": "users",
          "type": "address[]"
        }
      ],
      "name": "Close",
      "type": "event"
    },
    {
      "constant": false,
      "inputs": [
        {
          "name": "publishId",
          "type": "string"
        },
        {
          "name": "metaDataIdEncSeller",
          "type": "bytes"
        },
        {
          "name": "proofDataIds",
          "type": "bytes32[]"
        },
        {
          "name": "despDataId",
          "type": "string"
        },
        {
          "name": "supportVerify",
          "type": "bool"
        }
      ],
      "name": "publishDataInfo",
      "outputs": [],
      "payable": false,
      "stateMutability": "nonpayable",
      "type": "function"
    },
    {
      "constant": false,
      "inputs": [
        {
          "name": "publishId",
          "type": "string"
        }
      ],
      "name": "prepareToBuy",
      "outputs": [],
      "payable": false,
      "stateMutability": "nonpayable",
      "type": "function"
    },
    {
      "constant": false,
      "inputs": [
        {
          "name": "txId",
          "type": "uint256"
        }
      ],
      "name": "buyData",
      "outputs": [],
      "payable": false,
      "stateMutability": "nonpayable",
      "type": "function"
    },
    {
      "constant": false,
      "inputs": [
        {
          "name": "txId",
          "type": "uint256"
        },
        {
          "name": "encryptedMetaDataId",
          "type": "bytes"
        }
      ],
      "name": "submitMetaDataIdEncWithBuyer",
      "outputs": [],
      "payable": false,
      "stateMutability": "nonpayable",
      "type": "function"
    },
    {
      "constant": false,
      "inputs": [
        {
          "name": "txId",
          "type": "uint256"
        },
        {
          "name": "truth",
          "type": "bool"
        }
      ],
      "name": "confirmDataTruth",
      "outputs": [],
      "payable": false,
      "stateMutability": "nonpayable",
      "type": "function"
    }
  ],
  "bytecode": "0x60806040526000600255602060035534801561001a57600080fd5b506126aa8061002a6000396000f30060806040526004361061006d576000357c0100000000000000000000000000000000000000000000000000000000900463ffffffff16806330544e691461007257806374f1502b146100b7578063b5e759c8146100f0578063ca209dce14610234578063e01e839314610261575b600080fd5b34801561007e57600080fd5b506100b56004803603810190808035906020019092919080359060200190820180359060200191909192939192939050505061029c565b005b3480156100c357600080fd5b506100ee600480360381019080803590602001909291908035151590602001909291905050506108df565b005b3480156100fc57600080fd5b50610232600480360381019080803590602001908201803590602001908080601f0160208091040260200160405190810160405280939291908181526020018383808284378201915050505050509192919290803590602001908201803590602001908080601f016020809104026020016040519081016040528093929190818152602001838380828437820191505050505050919291929080359060200190820180359060200190808060200260200160405190810160405280939291908181526020018383602002808284378201915050505050509192919290803590602001908201803590602001908080601f01602080910402602001604051908101604052809392919081815260200183838082843782019150505050505091929192908035151590602001909291905050506111ff565b005b34801561024057600080fd5b5061025f6004803603810190808035906020019092919050505061158e565b005b34801561026d57600080fd5b5061029a600480360381019080803590602001908201803590602001919091929391929390505050611c01565b005b6102a461240a565b60606001600086815260200190815260200160002061010060405190810160405290816000820160009054906101000a900460ff1660078111156102e457fe5b60078111156102ef57fe5b81526020016000820160019054906101000a900473ffffffffffffffffffffffffffffffffffffffff1673ffffffffffffffffffffffffffffffffffffffff1673ffffffffffffffffffffffffffffffffffffffff1681526020016001820160009054906101000a900473ffffffffffffffffffffffffffffffffffffffff1673ffffffffffffffffffffffffffffffffffffffff1673ffffffffffffffffffffffffffffffffffffffff168152602001600282018054600181600116156101000203166002900480601f0160208091040260200160405190810160405280929190818152602001828054600181600116156101000203166002900480156104385780601f1061040d57610100808354040283529160200191610438565b820191906000526020600020905b81548152906001019060200180831161041b57829003601f168201915b50505050508152602001600382018054600181600116156101000203166002900480601f0160208091040260200160405190810160405280929190818152602001828054600181600116156101000203166002900480156104da5780601f106104af576101008083540402835291602001916104da565b820191906000526020600020905b8154815290600101906020018083116104bd57829003601f168201915b50505050508152602001600482018054600181600116156101000203166002900480601f01602080910402602001604051908101604052809291908181526020018280546001816001161561010002031660029004801561057c5780601f106105515761010080835404028352916020019161057c565b820191906000526020600020905b81548152906001019060200180831161055f57829003601f168201915b50505050508152602001600582015481526020016006820160009054906101000a900460ff1615151515815250509150600115158260e001511515141515610652576040517f08c379a00000000000000000000000000000000000000000000000000000000081526004018080602001828103825260298152602001807f43616e206e6f7420676574207472616e73616374696f6e206279207472616e7381526020017f616374696f6e206964000000000000000000000000000000000000000000000081525060400191505060405180910390fd5b3373ffffffffffffffffffffffffffffffffffffffff16826040015173ffffffffffffffffffffffffffffffffffffffff161415156106f9576040517f08c379a000000000000000000000000000000000000000000000000000000000815260040180806020018281038252600e8152602001807f496e76616c69642073656c6c657200000000000000000000000000000000000081525060200191505060405180910390fd5b83838080601f016020809104026020016040519081016040528093929190818152602001838380828437820191505050505050826080018190525060048260000190600781111561074657fe5b9081600781111561075357fe5b8152505060016040519080825280602002602001820160405280156107875781602001602082028038833980820191505090505b509050816020015181600081518110151561079e57fe5b9060200190602002019073ffffffffffffffffffffffffffffffffffffffff16908173ffffffffffffffffffffffffffffffffffffffff16815250507f432e20200e274397185e681b58f4ba63a66921d9064407bdf9f97ac5fbe5bf67858360a0015160008460405180858152602001806020018415151515815260200180602001838103835286818151815260200191508051906020019080838360005b8381101561085857808201518184015260208101905061083d565b50505050905090810190601f1680156108855780820380516001836020036101000a031916815260200191505b50838103825284818151815260200191508051906020019060200280838360005b838110156108c15780820151818401526020810190506108a6565b50505050905001965050505050505060405180910390a15050505050565b6108e761240a565b6108ef612489565b60606001600086815260200190815260200160002061010060405190810160405290816000820160009054906101000a900460ff16600781111561092f57fe5b600781111561093a57fe5b81526020016000820160019054906101000a900473ffffffffffffffffffffffffffffffffffffffff1673ffffffffffffffffffffffffffffffffffffffff1673ffffffffffffffffffffffffffffffffffffffff1681526020016001820160009054906101000a900473ffffffffffffffffffffffffffffffffffffffff1673ffffffffffffffffffffffffffffffffffffffff1673ffffffffffffffffffffffffffffffffffffffff168152602001600282018054600181600116156101000203166002900480601f016020809104026020016040519081016040528092919081815260200182805460018160011615610100020316600290048015610a835780601f10610a5857610100808354040283529160200191610a83565b820191906000526020600020905b815481529060010190602001808311610a6657829003601f168201915b50505050508152602001600382018054600181600116156101000203166002900480601f016020809104026020016040519081016040528092919081815260200182805460018160011615610100020316600290048015610b255780601f10610afa57610100808354040283529160200191610b25565b820191906000526020600020905b815481529060010190602001808311610b0857829003601f168201915b50505050508152602001600482018054600181600116156101000203166002900480601f016020809104026020016040519081016040528092919081815260200182805460018160011615610100020316600290048015610bc75780601f10610b9c57610100808354040283529160200191610bc7565b820191906000526020600020905b815481529060010190602001808311610baa57829003601f168201915b50505050508152602001600582015481526020016006820160009054906101000a900460ff16151515158152505092506000836020015173ffffffffffffffffffffffffffffffffffffffff1614151515610cb0576040517f08c379a00000000000000000000000000000000000000000000000000000000081526004018080602001828103825260298152602001807f43616e206e6f7420676574207472616e73616374696f6e206279207472616e7381526020017f616374696f6e206964000000000000000000000000000000000000000000000081525060400191505060405180910390fd5b3373ffffffffffffffffffffffffffffffffffffffff16836020015173ffffffffffffffffffffffffffffffffffffffff16141515610d57576040517f08c379a000000000000000000000000000000000000000000000000000000000815260040180806020018281038252600d8152602001807f496e76616c69642062757965720000000000000000000000000000000000000081525060200191505060405180910390fd5b600083606001516040518082805190602001908083835b602083101515610d935780518252602082019150602081019050602083039250610d6e565b6001836020036101000a038019825116818451168082178552505050505050905001915050908152602001604051809103902060e06040519081016040529081600082018054600181600116156101000203166002900480601f016020809104026020016040519081016040528092919081815260200182805460018160011615610100020316600290048015610e6b5780601f10610e4057610100808354040283529160200191610e6b565b820191906000526020600020905b815481529060010190602001808311610e4e57829003601f168201915b5050505050815260200160018201805480602002602001604051908101604052809291908181526020018280548015610ec757602002820191906000526020600020905b81546000191681526020019060010190808311610eaf575b5050505050815260200160028201548152602001600382018054600181600116156101000203166002900480601f016020809104026020016040519081016040528092919081815260200182805460018160011615610100020316600290048015610f735780601f10610f4857610100808354040283529160200191610f73565b820191906000526020600020905b815481529060010190602001808311610f5657829003601f168201915b505050505081526020016004820160009054906101000a900473ffffffffffffffffffffffffffffffffffffffff1673ffffffffffffffffffffffffffffffffffffffff1673ffffffffffffffffffffffffffffffffffffffff1681526020016004820160149054906101000a900460ff161515151581526020016004820160159054906101000a900460ff1615151515815250509150600115158360e0015115151415156110b0576040517f08c379a00000000000000000000000000000000000000000000000000000000081526004018080602001828103825260248152602001807f43616e206e6f742067657420646174612062792074784974656d2e7075626c6981526020017f736849640000000000000000000000000000000000000000000000000000000081525060400191505060405180910390fd5b8160a0015115156111f85783156110c6576110c7565b5b6007836000019060078111156110d957fe5b908160078111156110e657fe5b81525050600160405190808252806020026020018201604052801561111a5781602001602082028038833980820191505090505b509050600081600081518110151561112e57fe5b9060200190602002019073ffffffffffffffffffffffffffffffffffffffff16908173ffffffffffffffffffffffffffffffffffffffff16815250507fa332f85d6f38a0976f840537b79ecff1a59e902c9165a1a30d58cc844de47b3185600183604051808481526020018315151515815260200180602001828103825283818151815260200191508051906020019060200280838360005b838110156111e25780820151818401526020810190506111c7565b5050505090500194505050505060405180910390a15b5050505050565b606060e060405190810160405280868152602001858152602001855181526020018481526020013373ffffffffffffffffffffffffffffffffffffffff1681526020018315158152602001600115158152506000876040518082805190602001908083835b6020831015156112895780518252602082019150602081019050602083039250611264565b6001836020036101000a038019825116818451168082178552505050505050905001915050908152602001604051809103902060008201518160000190805190602001906112d89291906124e1565b5060208201518160010190805190602001906112f5929190612561565b5060408201518160020155606082015181600301908051906020019061131c9291906125b4565b5060808201518160040160006101000a81548173ffffffffffffffffffffffffffffffffffffffff021916908373ffffffffffffffffffffffffffffffffffffffff16021790555060a08201518160040160146101000a81548160ff02191690831515021790555060c08201518160040160156101000a81548160ff02191690831515021790555090505060016040519080825280602002602001820160405280156113d75781602001602082028038833980820191505090505b50905060008160008151811015156113eb57fe5b9060200190602002019073ffffffffffffffffffffffffffffffffffffffff16908173ffffffffffffffffffffffffffffffffffffffff16815250507faabf77ef569fa1fabd0d636cf70fa9cdca9b6acb7c1258ac8bbc70ff8c1bdb1786846001846040518080602001806020018515151515815260200180602001848103845288818151815260200191508051906020019080838360005b8381101561149f578082015181840152602081019050611484565b50505050905090810190601f1680156114cc5780820380516001836020036101000a031916815260200191505b50848103835287818151815260200191508051906020019080838360005b838110156115055780820151818401526020810190506114ea565b50505050905090810190601f1680156115325780820380516001836020036101000a031916815260200191505b50848103825285818151815260200191508051906020019060200280838360005b8381101561156e578082015181840152602081019050611553565b5050505090500197505050505050505060405180910390a1505050505050565b61159661240a565b60606001600084815260200190815260200160002061010060405190810160405290816000820160009054906101000a900460ff1660078111156115d657fe5b60078111156115e157fe5b81526020016000820160019054906101000a900473ffffffffffffffffffffffffffffffffffffffff1673ffffffffffffffffffffffffffffffffffffffff1673ffffffffffffffffffffffffffffffffffffffff1681526020016001820160009054906101000a900473ffffffffffffffffffffffffffffffffffffffff1673ffffffffffffffffffffffffffffffffffffffff1673ffffffffffffffffffffffffffffffffffffffff168152602001600282018054600181600116156101000203166002900480601f01602080910402602001604051908101604052809291908181526020018280546001816001161561010002031660029004801561172a5780601f106116ff5761010080835404028352916020019161172a565b820191906000526020600020905b81548152906001019060200180831161170d57829003601f168201915b50505050508152602001600382018054600181600116156101000203166002900480601f0160208091040260200160405190810160405280929190818152602001828054600181600116156101000203166002900480156117cc5780601f106117a1576101008083540402835291602001916117cc565b820191906000526020600020905b8154815290600101906020018083116117af57829003601f168201915b50505050508152602001600482018054600181600116156101000203166002900480601f01602080910402602001604051908101604052809291908181526020018280546001816001161561010002031660029004801561186e5780601f106118435761010080835404028352916020019161186e565b820191906000526020600020905b81548152906001019060200180831161185157829003601f168201915b50505050508152602001600582015481526020016006820160009054906101000a900460ff1615151515815250509150600115158260e001511515141515611944576040517f08c379a00000000000000000000000000000000000000000000000000000000081526004018080602001828103825260298152602001807f43616e206e6f7420676574207472616e73616374696f6e206279207472616e7381526020017f616374696f6e206964000000000000000000000000000000000000000000000081525060400191505060405180910390fd5b3373ffffffffffffffffffffffffffffffffffffffff16826020015173ffffffffffffffffffffffffffffffffffffffff161415156119eb576040517f08c379a000000000000000000000000000000000000000000000000000000000815260040180806020018281038252600d8152602001807f496e76616c69642062757965720000000000000000000000000000000000000081525060200191505060405180910390fd5b6003826000019060078111156119fd57fe5b90816007811115611a0a57fe5b815250506001604051908082528060200260200182016040528015611a3e5781602001602082028038833980820191505090505b50905033816000815181101515611a5157fe5b9060200190602002019073ffffffffffffffffffffffffffffffffffffffff16908173ffffffffffffffffffffffffffffffffffffffff16815250507f0fbc46e594df1851f28df5833e566c8c7024e215ebf4a4be8ad1b2a7ee4101168383606001518460a001516000856040518086815260200180602001806020018515151515815260200180602001848103845288818151815260200191508051906020019080838360005b83811015611b14578082015181840152602081019050611af9565b50505050905090810190601f168015611b415780820380516001836020036101000a031916815260200191505b50848103835287818151815260200191508051906020019080838360005b83811015611b7a578082015181840152602081019050611b5f565b50505050905090810190601f168015611ba75780820380516001836020036101000a031916815260200191505b50848103825285818151815260200191508051906020019060200280838360005b83811015611be3578082015181840152602081019050611bc8565b505050509050019850505050505050505060405180910390a1505050565b611c09612489565b6000606060008060606000888860405180838380828437820191505092505050908152602001604051809103902060e06040519081016040529081600082018054600181600116156101000203166002900480601f016020809104026020016040519081016040528092919081815260200182805460018160011615610100020316600290048015611cdc5780601f10611cb157610100808354040283529160200191611cdc565b820191906000526020600020905b815481529060010190602001808311611cbf57829003601f168201915b5050505050815260200160018201805480602002602001604051908101604052809291908181526020018280548015611d3857602002820191906000526020600020905b81546000191681526020019060010190808311611d20575b5050505050815260200160028201548152602001600382018054600181600116156101000203166002900480601f016020809104026020016040519081016040528092919081815260200182805460018160011615610100020316600290048015611de45780601f10611db957610100808354040283529160200191611de4565b820191906000526020600020905b815481529060010190602001808311611dc757829003601f168201915b505050505081526020016004820160009054906101000a900473ffffffffffffffffffffffffffffffffffffffff1673ffffffffffffffffffffffffffffffffffffffff1673ffffffffffffffffffffffffffffffffffffffff1681526020016004820160149054906101000a900460ff161515151581526020016004820160159054906101000a900460ff1615151515815250509550600115158660c001511515141515611f21576040517f08c379a00000000000000000000000000000000000000000000000000000000081526004018080602001828103825260288152602001807f43616e206e6f7420676574207075626c6973686564206461746120627920707581526020017f626c69736820696400000000000000000000000000000000000000000000000081525060400191505060405180910390fd5b611f29612381565b94506003546040519080825280601f01601f191660200182016040528015611f605781602001602082028038833980820191505090505b509350602060405190810160405280600081525093506101006040519081016040528060016007811115611f9057fe5b81526020013373ffffffffffffffffffffffffffffffffffffffff168152602001876080015173ffffffffffffffffffffffffffffffffffffffff16815260200189898080601f01602080910402602001604051908101604052809392919081815260200183838082843782019150505050505081526020018581526020018760000151815260200160008152602001600115158152506001600087815260200190815260200160002060008201518160000160006101000a81548160ff0219169083600781111561205e57fe5b021790555060208201518160000160016101000a81548173ffffffffffffffffffffffffffffffffffffffff021916908373ffffffffffffffffffffffffffffffffffffffff16021790555060408201518160010160006101000a81548173ffffffffffffffffffffffffffffffffffffffff021916908373ffffffffffffffffffffffffffffffffffffffff160217905550606082015181600201908051906020019061210d9291906125b4565b50608082015181600301908051906020019061212a9291906124e1565b5060a08201518160040190805190602001906121479291906124e1565b5060c0820151816005015560e08201518160060160006101000a81548160ff0219169083151502179055509050508560a0015115156123775761218d8660400151612399565b925085604001518310151561220a576040517f08c379a000000000000000000000000000000000000000000000000000000000815260040180806020018281038252601b8152602001807f4461746120696e646578206e65656420746f2062652076616c6964000000000081525060200191505060405180910390fd5b85602001518381518110151561221c57fe5b90602001906020020151915060016040519080825280602002602001820160405280156122585781602001602082028038833980820191505090505b5090503381600081518110151561226b57fe5b9060200190602002019073ffffffffffffffffffffffffffffffffffffffff16908173ffffffffffffffffffffffffffffffffffffffff16815250507f18ef72fd77cecc8fd4b61244c6f7bd40148cb71237eaeb896d3cab05825b284f858989858a60a001516000876040518088815260200180602001866000191660001916815260200185151515158152602001841515151581526020018060200183810383528989828181526020019250808284378201915050838103825284818151815260200191508051906020019060200280838360005b8381101561235c578082015181840152602081019050612341565b50505050905001995050505050505050505060405180910390a15b5050505050505050565b60006002600081548092919060010191905055905090565b6000814233604051808381526020018273ffffffffffffffffffffffffffffffffffffffff1673ffffffffffffffffffffffffffffffffffffffff166c010000000000000000000000000281526014019250505060405180910390206001900481151561240257fe5b069050919050565b610100604051908101604052806000600781111561242457fe5b8152602001600073ffffffffffffffffffffffffffffffffffffffff168152602001600073ffffffffffffffffffffffffffffffffffffffff168152602001606081526020016060815260200160608152602001600081526020016000151581525090565b60e06040519081016040528060608152602001606081526020016000815260200160608152602001600073ffffffffffffffffffffffffffffffffffffffff1681526020016000151581526020016000151581525090565b828054600181600116156101000203166002900490600052602060002090601f016020900481019282601f1061252257805160ff1916838001178555612550565b82800160010185558215612550579182015b8281111561254f578251825591602001919060010190612534565b5b50905061255d9190612634565b5090565b8280548282559060005260206000209081019282156125a3579160200282015b828111156125a2578251829060001916905591602001919060010190612581565b5b5090506125b09190612659565b5090565b828054600181600116156101000203166002900490600052602060002090601f016020900481019282601f106125f557805160ff1916838001178555612623565b82800160010185558215612623579182015b82811115612622578251825591602001919060010190612607565b5b5090506126309190612634565b5090565b61265691905b8082111561265257600081600090555060010161263a565b5090565b90565b61267b91905b8082111561267757600081600090555060010161265f565b5090565b905600a165627a7a72305820c64e6c2c760786d9584b15e9e0fa3f4fd080e87eb57939d04d55f94cc12848d70029",
  "source": "pragma solidity ^0.4.24;\n\ncontract ScryProtocol {\n    enum TransactionState {Begin, Created, Voted, Purchasing, ReadyForDownload, Payed, Arbitrating, Closed}\n\n    struct DataInfoPublished {\n        bytes metaDataIdEncSeller;\n        bytes32[] proofDataIds;\n        uint numberOfProof;\n        string despDataId;\n        address seller;\n        bool supportVerify;\n        bool used;\n    } \n\n    struct TransactionItem {\n        TransactionState state;\n        address buyer;\n        address seller;\n        string publishId;\n        bytes meteDataIdEncBuyer;\n        bytes metaDataIdEncSeller;\n        uint buyerDeposit;\n        bool used;\n    }\n\n    mapping (string => DataInfoPublished) mapPublishedData;\n    mapping (uint => TransactionItem) mapTransaction;\n\n    event Publish(string publishId, string despDataId, bool boardcast, address[] users);\n    event TransactionCreate(uint256 transactionId, string publishId, bytes32 chosenProofIds, bool supportVerify, bool boardcast, address[] users);\n    event Purchase(uint256 transactionId, string publishId, bytes metaDataIdEncSeller, bool boardcast, address[] users);\n    event ReadyForDownload(uint256 transactionId, bytes metaDataIdEncBuyer, bool boardcast, address[] users);\n    event Close(uint256 transactionId, bool boardcast, address[] users);\n\n    uint256 transactionSeq = 0;\n    uint256 encryptedIdLen = 32;\n\n    constructor () public {\n    }\n\n    function publishDataInfo(string publishId, bytes metaDataIdEncSeller, bytes32[] proofDataIds, string despDataId, bool supportVerify) public {\n        mapPublishedData[publishId] = DataInfoPublished(metaDataIdEncSeller, proofDataIds, proofDataIds.length, despDataId, msg.sender, supportVerify, true);\n        \n        address[] memory users = new address[](1);\n        users[0] = address(0x00);\n        emit Publish(publishId, despDataId, true, users);\n    }\n\n    function isPublishedDataExisted(string publishId) internal view returns (bool) {\n        DataInfoPublished memory data = mapPublishedData[publishId];\n        return data.used;\n    }\n\n    function prepareToBuy(string publishId) external {\n        //published data info\n        DataInfoPublished memory data = mapPublishedData[publishId];\n        require(data.used == true, \"Can not get published data by publish id\");\n\n        //create transaction\n        uint txId = getTransactionId();\n        bytes memory metaDataIdEncBuyer = new bytes(encryptedIdLen);\n        metaDataIdEncBuyer = \"\";\n        mapTransaction[txId] = TransactionItem(TransactionState.Created, msg.sender, data.seller, publishId, metaDataIdEncBuyer, data.metaDataIdEncSeller, 0, true);\n\n        //do not support verification\n        if (!data.supportVerify) {\n            //choose proof data randomly for buyer \n            uint index = getRandomNumber(data.numberOfProof);\n            require(index < data.numberOfProof, \"Data index need to be valid\");\n\n            bytes32 proofId = data.proofDataIds[index];\n\n            address[] memory users = new address[](1);\n            users[0] = msg.sender;\n\n            //TransactionCreat event\n            emit TransactionCreate(txId, publishId, proofId, data.supportVerify, false, users);\n        }\n    }\n\n    function getTransactionId() internal returns(uint) {\n        return transactionSeq++;\n    }\n\n    function getRandomNumber(uint mod) internal view returns (uint) {\n        return uint(keccak256(now, msg.sender)) % mod;\n    }\n\n    function buyData(uint256 txId) external {\n        //validate\n        TransactionItem memory txItem = mapTransaction[txId];\n        require(txItem.used == true, \"Can not get transaction by transaction id\");\n        require(txItem.buyer == msg.sender, \"Invalid buyer\");\n        \n        //set transaction state\n        txItem.state = TransactionState.Purchasing;\n\n        //event\n        address[] memory users = new address[](1);\n        users[0] = msg.sender;\n        emit Purchase(txId, txItem.publishId, txItem.metaDataIdEncSeller, false, users);\n    }\n\n    function submitMetaDataIdEncWithBuyer(uint256 txId, bytes encryptedMetaDataId) external {\n        //validate\n        TransactionItem memory txItem = mapTransaction[txId];\n        require(txItem.used == true, \"Can not get transaction by transaction id\");\n        require(txItem.seller == msg.sender, \"Invalid seller\");\n\n        txItem.meteDataIdEncBuyer = encryptedMetaDataId;\n        txItem.state = TransactionState.ReadyForDownload;\n\n        //ReadyForDownload event\n        address[] memory users = new address[](1);\n        users[0] = txItem.buyer;\n        emit ReadyForDownload(txId, txItem.metaDataIdEncSeller, false, users);   \n    }\n\n    function confirmDataTruth(uint256 txId, bool truth) external {\n        //validate\n        TransactionItem memory txItem = mapTransaction[txId];\n        require(txItem.buyer != 0, \"Can not get transaction by transaction id\");\n        require(txItem.buyer == msg.sender, \"Invalid buyer\");\n\n        DataInfoPublished memory data = mapPublishedData[txItem.publishId];\n        require(txItem.used == true, \"Can not get data by txItem.publishId\");\n        \n\n        if (!data.supportVerify) {\n            if(truth) {\n\n            } else {\n\n            }\n            \n            txItem.state = TransactionState.Closed;\n\n            //Close event\n            address[] memory users = new address[](1);\n            users[0] = address(0x00);\n            emit Close(txId, true, users);            \n        }\n    }\n\n}",
  "sourcePath": "/home/waitgordor/project/iscap/demo/contracts/contracts/ScryProtocol.sol",
  "compiler": {
    "name": "solc",
    "version": "0.4.24+commit.e67f0147.Emscripten.clang"
  },
  "schemaVersion": "2.0.1",
  "updatedAt": "2019-01-09T09:41:38.525Z"
}