{
  "contractName": "ScryProtocol",
  "abi": [
    {
      "inputs": [],
      "payable": false,
      "stateMutability": "nonpayable",
      "type": "constructor"
    },
    {
      "anonymous": false,
      "inputs": [
        {
          "indexed": false,
          "name": "publishId",
          "type": "string"
        },
        {
          "indexed": false,
          "name": "users",
          "type": "string"
        },
        {
          "indexed": false,
          "name": "despDataId",
          "type": "string"
        }
      ],
      "name": "Published",
      "type": "event"
    },
    {
      "constant": false,
      "inputs": [
        {
          "name": "publishId",
          "type": "string"
        },
        {
          "name": "metaDataIdEncSeller",
          "type": "bytes"
        },
        {
          "name": "proofDataId",
          "type": "string"
        },
        {
          "name": "despDataId",
          "type": "string"
        },
        {
          "name": "supportVerify",
          "type": "bool"
        }
      ],
      "name": "publishDataInfo",
      "outputs": [],
      "payable": false,
      "stateMutability": "nonpayable",
      "type": "function"
    },
    {
      "constant": false,
      "inputs": [
        {
          "name": "publishId",
          "type": "string"
        }
      ],
      "name": "isPublishedDataExisted",
      "outputs": [
        {
          "name": "",
          "type": "bool"
        }
      ],
      "payable": false,
      "stateMutability": "nonpayable",
      "type": "function"
    },
    {
      "constant": false,
      "inputs": [
        {
          "name": "publishId",
          "type": "string"
        }
      ],
      "name": "prepareToBuy",
      "outputs": [],
      "payable": false,
      "stateMutability": "nonpayable",
      "type": "function"
    },
    {
      "constant": false,
      "inputs": [
        {
          "name": "txId",
          "type": "string"
        }
      ],
      "name": "buyData",
      "outputs": [],
      "payable": false,
      "stateMutability": "nonpayable",
      "type": "function"
    },
    {
      "constant": false,
      "inputs": [
        {
          "name": "txId",
          "type": "string"
        },
        {
          "name": "encryptedMetaDataId",
          "type": "bytes"
        }
      ],
      "name": "SubmitMetaDataIdEncWithBuyer",
      "outputs": [],
      "payable": false,
      "stateMutability": "nonpayable",
      "type": "function"
    },
    {
      "constant": false,
      "inputs": [
        {
          "name": "txId",
          "type": "string"
        },
        {
          "name": "truth",
          "type": "bool"
        }
      ],
      "name": "ConfirmDataTruth",
      "outputs": [],
      "payable": false,
      "stateMutability": "nonpayable",
      "type": "function"
    }
  ],
  "bytecode": "0x608060405234801561001057600080fd5b50610916806100206000396000f300608060405260043610610078576000357c0100000000000000000000000000000000000000000000000000000000900463ffffffff168063756eec2d1461007d5780639ce30908146100e6578063d180d67f14610195578063e01e8393146102dc578063f1f93e8014610345578063f89a5cc3146103c6575b600080fd5b34801561008957600080fd5b506100e4600480360381019080803590602001908201803590602001908080601f016020809104026020016040519081016040528093929190818152602001838380828437820191505050505050919291929050505061043b565b005b3480156100f257600080fd5b50610193600480360381019080803590602001908201803590602001908080601f0160208091040260200160405190810160405280939291908181526020018383808284378201915050505050509192919290803590602001908201803590602001908080601f016020809104026020016040519081016040528093929190818152602001838380828437820191505050505050919291929050505061043e565b005b3480156101a157600080fd5b506102da600480360381019080803590602001908201803590602001908080601f0160208091040260200160405190810160405280939291908181526020018383808284378201915050505050509192919290803590602001908201803590602001908080601f0160208091040260200160405190810160405280939291908181526020018383808284378201915050505050509192919290803590602001908201803590602001908080601f0160208091040260200160405190810160405280939291908181526020018383808284378201915050505050509192919290803590602001908201803590602001908080601f0160208091040260200160405190810160405280939291908181526020018383808284378201915050505050509192919290803515159060200190929190505050610442565b005b3480156102e857600080fd5b50610343600480360381019080803590602001908201803590602001908080601f01602080910402602001604051908101604052809392919081815260200183838082843782019150505050505091929192905050506106f7565b005b34801561035157600080fd5b506103ac600480360381019080803590602001908201803590602001908080601f01602080910402602001604051908101604052809392919081815260200183838082843782019150505050505091929192905050506106fa565b604051808215151515815260200191505060405180910390f35b3480156103d257600080fd5b50610439600480360381019080803590602001908201803590602001908080601f01602080910402602001604051908101604052809392919081815260200183838082843782019150505050505091929192908035151590602001909291905050506107c1565b005b50565b5050565b60a0604051908101604052808581526020018481526020018381526020013373ffffffffffffffffffffffffffffffffffffffff1681526020018215158152506000866040518082805190602001908083835b6020831015156104ba5780518252602082019150602081019050602083039250610495565b6001836020036101000a038019825116818451168082178552505050505050905001915050908152602001604051809103902060008201518160000190805190602001906105099291906107c5565b506020820151816001019080519060200190610526929190610845565b506040820151816002019080519060200190610543929190610845565b5060608201518160030160006101000a81548173ffffffffffffffffffffffffffffffffffffffff021916908373ffffffffffffffffffffffffffffffffffffffff16021790555060808201518160030160146101000a81548160ff0219169083151502179055509050507f46a08b125611ec320cc1058dd976ee1adea76edb0e29c87708a4ac583d31bd77858360405180806020018060200180602001848103845286818151815260200191508051906020019080838360005b838110156106195780820151818401526020810190506105fe565b50505050905090810190601f1680156106465780820380516001836020036101000a031916815260200191505b50848103835260018152602001807f2a00000000000000000000000000000000000000000000000000000000000000815250602001848103825285818151815260200191508051906020019080838360005b838110156106b3578082015181840152602081019050610698565b50505050905090810190601f1680156106e05780820380516001836020036101000a031916815260200191505b509550505050505060405180910390a15050505050565b50565b6000806000836040518082805190602001908083835b6020831015156107355780518252602082019150602081019050602083039250610710565b6001836020036101000a0380198251168184511680821785525050505050509050019150509081526020016040518091039020905060008160030160009054906101000a900473ffffffffffffffffffffffffffffffffffffffff1673ffffffffffffffffffffffffffffffffffffffff1614156107b657600091506107bb565b600191505b50919050565b5050565b828054600181600116156101000203166002900490600052602060002090601f016020900481019282601f1061080657805160ff1916838001178555610834565b82800160010185558215610834579182015b82811115610833578251825591602001919060010190610818565b5b50905061084191906108c5565b5090565b828054600181600116156101000203166002900490600052602060002090601f016020900481019282601f1061088657805160ff19168380011785556108b4565b828001600101855582156108b4579182015b828111156108b3578251825591602001919060010190610898565b5b5090506108c191906108c5565b5090565b6108e791905b808211156108e35760008160009055506001016108cb565b5090565b905600a165627a7a72305820f985727891a9c5c22542054cc5fccd23c208df25e80af41707fd4557bcada9ab0029",
  "source": "pragma solidity ^0.4.24;\n\ncontract ScryProtocol {\n\n    struct DataInfoPublished {\n        bytes metaDataIdEncSeller;\n        string proofDataId;\n        string despDataId;\n        address sellerAddr;\n        bool supportVerify;  \n    } \n\n    mapping (string => DataInfoPublished) mapPublishedData;\n\n    event Published(string publishId, string users, string despDataId);\n\n    constructor () public {\n    }\n\n    function publishDataInfo(string publishId, bytes metaDataIdEncSeller, string proofDataId, string despDataId, bool supportVerify) {\n        mapPublishedData[publishId] = DataInfoPublished(metaDataIdEncSeller, proofDataId, despDataId, msg.sender, supportVerify);\n        \n        //'*' means everyone can get despDataId\n        emit Published(publishId, \"*\", despDataId);\n    }\n\n    function isPublishedDataExisted(string publishId) returns (bool) {\n        DataInfoPublished data = mapPublishedData[publishId];\n        if (data.sellerAddr == 0) {\n            return false;\n        }\n        \n        return true;\n    }\n\n    function prepareToBuy(string publishId) {\n        \n    }\n\n    function buyData(string txId) {\n        \n    }\n\n    function SubmitMetaDataIdEncWithBuyer(string txId, bytes encryptedMetaDataId) {\n        \n    }\n\n    function ConfirmDataTruth(string txId, bool truth) {\n        \n    }\n\n}",
  "sourcePath": "/home/waitgordor/project/iscap/demo/contracts/contracts/ScryProtocol.sol",
  "compiler": {
    "name": "solc",
    "version": "0.4.24+commit.e67f0147.Emscripten.clang"
  },
  "schemaVersion": "2.0.1",
  "updatedAt": "2019-01-02T03:11:08.179Z"
}