{
  "contractName": "ScryProtocol",
  "abi": [
    {
      "constant": true,
      "inputs": [],
      "name": "encryptedIdLen",
      "outputs": [
        {
          "name": "",
          "type": "uint256"
        }
      ],
      "payable": false,
      "stateMutability": "view",
      "type": "function"
    },
    {
      "constant": true,
      "inputs": [],
      "name": "transactionSeq",
      "outputs": [
        {
          "name": "",
          "type": "uint256"
        }
      ],
      "payable": false,
      "stateMutability": "view",
      "type": "function"
    },
    {
      "inputs": [],
      "payable": false,
      "stateMutability": "nonpayable",
      "type": "constructor"
    },
    {
      "anonymous": false,
      "inputs": [
        {
          "indexed": false,
          "name": "publishId",
          "type": "string"
        },
        {
          "indexed": false,
          "name": "users",
          "type": "string"
        },
        {
          "indexed": false,
          "name": "despDataId",
          "type": "string"
        }
      ],
      "name": "Published",
      "type": "event"
    },
    {
      "anonymous": false,
      "inputs": [
        {
          "indexed": false,
          "name": "transactionId",
          "type": "uint256"
        },
        {
          "indexed": false,
          "name": "publishId",
          "type": "string"
        },
        {
          "indexed": false,
          "name": "chosenProofIds",
          "type": "string"
        },
        {
          "indexed": false,
          "name": "supportVerify",
          "type": "bool"
        },
        {
          "indexed": false,
          "name": "users",
          "type": "address[]"
        }
      ],
      "name": "TransactionCreated",
      "type": "event"
    },
    {
      "constant": false,
      "inputs": [
        {
          "name": "publishId",
          "type": "string"
        },
        {
          "name": "metaDataIdEncSeller",
          "type": "bytes"
        },
        {
          "name": "proofDataIdList",
          "type": "string"
        },
        {
          "name": "despDataId",
          "type": "string"
        },
        {
          "name": "supportVerify",
          "type": "bool"
        }
      ],
      "name": "publishDataInfo",
      "outputs": [],
      "payable": false,
      "stateMutability": "nonpayable",
      "type": "function"
    },
    {
      "constant": false,
      "inputs": [
        {
          "name": "publishId",
          "type": "string"
        }
      ],
      "name": "prepareToBuy",
      "outputs": [],
      "payable": false,
      "stateMutability": "nonpayable",
      "type": "function"
    },
    {
      "constant": false,
      "inputs": [
        {
          "name": "x",
          "type": "address"
        }
      ],
      "name": "addressToString",
      "outputs": [
        {
          "name": "",
          "type": "string"
        }
      ],
      "payable": false,
      "stateMutability": "nonpayable",
      "type": "function"
    },
    {
      "constant": false,
      "inputs": [
        {
          "name": "txId",
          "type": "string"
        }
      ],
      "name": "buyData",
      "outputs": [],
      "payable": false,
      "stateMutability": "nonpayable",
      "type": "function"
    },
    {
      "constant": false,
      "inputs": [
        {
          "name": "txId",
          "type": "string"
        },
        {
          "name": "encryptedMetaDataId",
          "type": "bytes"
        }
      ],
      "name": "submitMetaDataIdEncWithBuyer",
      "outputs": [],
      "payable": false,
      "stateMutability": "nonpayable",
      "type": "function"
    },
    {
      "constant": false,
      "inputs": [
        {
          "name": "txId",
          "type": "string"
        },
        {
          "name": "truth",
          "type": "bool"
        }
      ],
      "name": "confirmDataTruth",
      "outputs": [],
      "payable": false,
      "stateMutability": "nonpayable",
      "type": "function"
    }
  ],
  "bytecode": "0x60806040526000600255602060035534801561001a57600080fd5b5061148b8061002a6000396000f30060806040526004361061008e576000357c0100000000000000000000000000000000000000000000000000000000900463ffffffff16806304e8859f14610093578063285898701461014257806341a3cf631461016d5780635e57966d14610198578063756eec2d1461025457806397931115146102bd578063d180d67f14610332578063e01e839314610479575b600080fd5b34801561009f57600080fd5b50610140600480360381019080803590602001908201803590602001908080601f0160208091040260200160405190810160405280939291908181526020018383808284378201915050505050509192919290803590602001908201803590602001908080601f01602080910402602001604051908101604052809392919081815260200183838082843782019150505050505091929192905050506104e2565b005b34801561014e57600080fd5b506101576104e6565b6040518082815260200191505060405180910390f35b34801561017957600080fd5b506101826104ec565b6040518082815260200191505060405180910390f35b3480156101a457600080fd5b506101d9600480360381019080803573ffffffffffffffffffffffffffffffffffffffff1690602001909291905050506104f2565b6040518080602001828103825283818151815260200191508051906020019080838360005b838110156102195780820151818401526020810190506101fe565b50505050905090810190601f1680156102465780820380516001836020036101000a031916815260200191505b509250505060405180910390f35b34801561026057600080fd5b506102bb600480360381019080803590602001908201803590602001908080601f01602080910402602001604051908101604052809392919081815260200183838082843782019150505050505091929192905050506105de565b005b3480156102c957600080fd5b50610330600480360381019080803590602001908201803590602001908080601f01602080910402602001604051908101604052809392919081815260200183838082843782019150505050505091929192908035151590602001909291905050506105e1565b005b34801561033e57600080fd5b50610477600480360381019080803590602001908201803590602001908080601f0160208091040260200160405190810160405280939291908181526020018383808284378201915050505050509192919290803590602001908201803590602001908080601f0160208091040260200160405190810160405280939291908181526020018383808284378201915050505050509192919290803590602001908201803590602001908080601f0160208091040260200160405190810160405280939291908181526020018383808284378201915050505050509192919290803590602001908201803590602001908080601f01602080910402602001604051908101604052809392919081815260200183838082843782019150505050505091929192908035151590602001909291905050506105e5565b005b34801561048557600080fd5b506104e0600480360381019080803590602001908201803590602001908080601f01602080910402602001604051908101604052809392919081815260200183838082843782019150505050505091929192905050506108c1565b005b5050565b60035481565b60025481565b606080600060146040519080825280601f01601f19166020018201604052801561052b5781602001602082028038833980820191505090505b509150600090505b60148110156105d4578060130360080260020a8473ffffffffffffffffffffffffffffffffffffffff1681151561056657fe5b047f010000000000000000000000000000000000000000000000000000000000000002828281518110151561059757fe5b9060200101907effffffffffffffffffffffffffffffffffffffffffffffffffffffffffffff1916908160001a9053508080600101915050610533565b8192505050919050565b50565b5050565b606060006105f285611123565b809250819350505060c0604051908101604052808781526020018381526020018281526020018581526020013373ffffffffffffffffffffffffffffffffffffffff1681526020018415158152506000886040518082805190602001908083835b6020831015156106785780518252602082019150602081019050602083039250610653565b6001836020036101000a038019825116818451168082178552505050505050905001915050908152602001604051809103902060008201518160000190805190602001906106c7929190611217565b5060208201518160010190805190602001906106e4929190611297565b5060408201518160020155606082015181600301908051906020019061070b9291906112f7565b5060808201518160040160006101000a81548173ffffffffffffffffffffffffffffffffffffffff021916908373ffffffffffffffffffffffffffffffffffffffff16021790555060a08201518160040160146101000a81548160ff0219169083151502179055509050507f46a08b125611ec320cc1058dd976ee1adea76edb0e29c87708a4ac583d31bd77878560405180806020018060200180602001848103845286818151815260200191508051906020019080838360005b838110156107e15780820151818401526020810190506107c6565b50505050905090810190601f16801561080e5780820380516001836020036101000a031916815260200191505b50848103835260018152602001807f2a00000000000000000000000000000000000000000000000000000000000000815250602001848103825285818151815260200191508051906020019080838360005b8381101561087b578082015181840152602081019050610860565b50505050905090810190601f1680156108a85780820380516001836020036101000a031916815260200191505b509550505050505060405180910390a150505050505050565b6108c9611377565b6000606060006060806000876040518082805190602001908083835b60208310151561090a57805182526020820191506020810190506020830392506108e5565b6001836020036101000a038019825116818451168082178552505050505050905001915050908152602001604051809103902060c06040519081016040529081600082018054600181600116156101000203166002900480601f0160208091040260200160405190810160405280929190818152602001828054600181600116156101000203166002900480156109e25780601f106109b7576101008083540402835291602001916109e2565b820191906000526020600020905b8154815290600101906020018083116109c557829003601f168201915b5050505050815260200160018201805480602002602001604051908101604052809291908181526020016000905b82821015610acc578382906000526020600020018054600181600116156101000203166002900480601f016020809104026020016040519081016040528092919081815260200182805460018160011615610100020316600290048015610ab85780601f10610a8d57610100808354040283529160200191610ab8565b820191906000526020600020905b815481529060010190602001808311610a9b57829003601f168201915b505050505081526020019060010190610a10565b50505050815260200160028201548152602001600382018054600181600116156101000203166002900480601f016020809104026020016040519081016040528092919081815260200182805460018160011615610100020316600290048015610b775780601f10610b4c57610100808354040283529160200191610b77565b820191906000526020600020905b815481529060010190602001808311610b5a57829003601f168201915b505050505081526020016004820160009054906101000a900473ffffffffffffffffffffffffffffffffffffffff1673ffffffffffffffffffffffffffffffffffffffff1673ffffffffffffffffffffffffffffffffffffffff1681526020016004820160149054906101000a900460ff16151515158152505095506000866080015173ffffffffffffffffffffffffffffffffffffffff1614151515610cac576040517f08c379a00000000000000000000000000000000000000000000000000000000081526004018080602001828103825260298152602001807f43616e206e6f7420676574207075626c6973686564206461746120627920707581526020017f626c6973682069642e000000000000000000000000000000000000000000000081525060400191505060405180910390fd5b610cb461118e565b94506003546040519080825280601f01601f191660200182016040528015610ceb5781602001602082028038833980820191505090505b5093506020604051908101604052806000815250935060c06040519081016040528060016007811115610d1a57fe5b81526020013373ffffffffffffffffffffffffffffffffffffffff168152602001876080015173ffffffffffffffffffffffffffffffffffffffff16815260200188815260200185815260200160008152506001600087815260200190815260200160002060008201518160000160006101000a81548160ff02191690836007811115610da357fe5b021790555060208201518160000160016101000a81548173ffffffffffffffffffffffffffffffffffffffff021916908373ffffffffffffffffffffffffffffffffffffffff16021790555060408201518160010160006101000a81548173ffffffffffffffffffffffffffffffffffffffff021916908373ffffffffffffffffffffffffffffffffffffffff1602179055506060820151816002019080519060200190610e529291906112f7565b506080820151816003019080519060200190610e6f929190611217565b5060a082015181600401559050508560a00151151561111a57610e9586604001516111a6565b9250856040015183101515610f12576040517f08c379a000000000000000000000000000000000000000000000000000000000815260040180806020018281038252601c8152602001807f4461746120696e646578206e65656420746f2062652076616c69642e0000000081525060200191505060405180910390fd5b856020015183815181101515610f2457fe5b9060200190602002015191506001604051908082528060200260200182016040528015610f605781602001602082028038833980820191505090505b50905033816000815181101515610f7357fe5b9060200190602002019073ffffffffffffffffffffffffffffffffffffffff16908173ffffffffffffffffffffffffffffffffffffffff16815250507fd4fb54ae81401fab77ece12e85f9f00dd4a2f4c440e3ef476231020aecc67ec48588848960a00151856040518086815260200180602001806020018515151515815260200180602001848103845288818151815260200191508051906020019080838360005b83811015611031578082015181840152602081019050611016565b50505050905090810190601f16801561105e5780820380516001836020036101000a031916815260200191505b50848103835287818151815260200191508051906020019080838360005b8381101561109757808201518184015260208101905061107c565b50505050905090810190601f1680156110c45780820380516001836020036101000a031916815260200191505b50848103825285818151815260200191508051906020019060200280838360005b838110156111005780820151818401526020810190506110e5565b505050509050019850505050505050505060405180910390a15b50505050505050565b606060006060600160405190808252806020026020018201604052801561115e57816020015b60608152602001906001900390816111495790505b5090508381600081518110151561117157fe5b906020019060200201819052508060018090509250925050915091565b60006002600081548092919060010191905055905090565b6000814233604051808381526020018273ffffffffffffffffffffffffffffffffffffffff1673ffffffffffffffffffffffffffffffffffffffff166c010000000000000000000000000281526014019250505060405180910390206001900481151561120f57fe5b069050919050565b828054600181600116156101000203166002900490600052602060002090601f016020900481019282601f1061125857805160ff1916838001178555611286565b82800160010185558215611286579182015b8281111561128557825182559160200191906001019061126a565b5b50905061129391906113c6565b5090565b8280548282559060005260206000209081019282156112e6579160200282015b828111156112e55782518290805190602001906112d59291906112f7565b50916020019190600101906112b7565b5b5090506112f391906113eb565b5090565b828054600181600116156101000203166002900490600052602060002090601f016020900481019282601f1061133857805160ff1916838001178555611366565b82800160010185558215611366579182015b8281111561136557825182559160200191906001019061134a565b5b50905061137391906113c6565b5090565b60c06040519081016040528060608152602001606081526020016000815260200160608152602001600073ffffffffffffffffffffffffffffffffffffffff1681526020016000151581525090565b6113e891905b808211156113e45760008160009055506001016113cc565b5090565b90565b61141491905b8082111561141057600081816114079190611417565b506001016113f1565b5090565b90565b50805460018160011615610100020316600290046000825580601f1061143d575061145c565b601f01602090049060005260206000209081019061145b91906113c6565b5b505600a165627a7a72305820b4fbaa5df2e769199b1ea24571c6815cb93ff8f426e014d345cd697a264aec280029",
  "source": "pragma solidity ^0.4.24;\n\ncontract ScryProtocol {\n    enum TransactionState {Begin, Created, Voted, Purchasing, ReadyForDownload, Payed, Arbitrating, Closed}\n\n    struct DataInfoPublished {\n        bytes metaDataIdEncSeller;\n        string[] proofDataIds;\n        uint numberOfProof;\n        string despDataId;\n        address seller;\n        bool supportVerify;  \n    } \n\n    struct Transaction {\n        TransactionState state;\n        address buyer;\n        address seller;\n        string publishId;\n        bytes meteDataIdEncBuyer;\n        uint buyerDeposit;\n    }\n\n    mapping (string => DataInfoPublished) mapPublishedData;\n    mapping (uint => Transaction) mapTransaction;\n\n    event Published(string publishId, string users, string despDataId);\n    event TransactionCreated(uint transactionId, string publishId, string chosenProofIds, bool supportVerify, address[] users);\n\n    uint public transactionSeq = 0;\n    uint public encryptedIdLen = 32;\n\n    constructor () public {\n    }\n\n    function publishDataInfo(string publishId, bytes metaDataIdEncSeller, string proofDataIdList, string despDataId, bool supportVerify) public {\n        //split string to string array\n        string[] memory proofDataIds;\n        uint proofNum;\n\n        (proofDataIds, proofNum) = splitString(proofDataIdList);\n        mapPublishedData[publishId] = DataInfoPublished(metaDataIdEncSeller, proofDataIds, proofNum, despDataId, msg.sender, supportVerify);\n        \n        //'*' means everyone can subscribe Published event\n        emit Published(publishId, \"*\", despDataId);\n    }\n\n    function isPublishedDataExisted(string publishId) private returns (bool) {\n        DataInfoPublished memory data = mapPublishedData[publishId];\n        if (data.seller == 0) {\n            return false;\n        }\n        \n        return true;\n    }\n\n    function prepareToBuy(string publishId) public {\n        //published data info\n        DataInfoPublished memory data = mapPublishedData[publishId];\n        require(data.seller != 0, \"Can not get published data by publish id.\");\n\n        //create transaction\n        uint txId = getTransactionId();\n        bytes memory metaDataIdEncBuyer = new bytes(encryptedIdLen);\n        metaDataIdEncBuyer = \"\";\n        mapTransaction[txId] = Transaction(TransactionState.Created, msg.sender, data.seller, publishId, metaDataIdEncBuyer, 0);\n\n        //do not support verification\n        if (!data.supportVerify) {\n            //choose proof data randomly for buyer \n            uint index = getRandomNumber(data.numberOfProof);\n            require(index < data.numberOfProof, \"Data index need to be valid.\");\n\n            string memory proofId = data.proofDataIds[index];\n            address[] memory users = new address[](1);\n            users[0] = msg.sender;\n\n            //TransactionCreated event\n            emit TransactionCreated(txId, publishId, proofId, data.supportVerify, users);\n        }\n    }\n\n    function getTransactionId() private returns(uint) {\n        return transactionSeq++;\n    }\n\n    function splitString(string src) private returns (string[], uint) {\n        //split string into string array \n        string[] memory result = new string[](1);\n        result[0] = src;\n        return (result, 1);\n    }\n\n    function getRandomNumber(uint mod) private returns (uint) {\n        return uint(keccak256(now, msg.sender)) % mod;\n    }\n\n    function addressToString(address x) returns (string) {\n        bytes memory b = new bytes(20);\n        for (uint i = 0; i < 20; i++)\n            b[i] = byte(uint8(uint(x) / (2**(8*(19 - i)))));\n        return string(b);\n    }\n\n    function buyData(string txId) {\n        \n    }\n\n    function submitMetaDataIdEncWithBuyer(string txId, bytes encryptedMetaDataId) {\n        \n    }\n\n    function confirmDataTruth(string txId, bool truth) {\n        \n    }\n\n}",
  "sourcePath": "/home/waitgordor/project/iscap/demo/contracts/contracts/ScryProtocol.sol",
  "compiler": {
    "name": "solc",
    "version": "0.4.24+commit.e67f0147.Emscripten.clang"
  },
  "schemaVersion": "2.0.1",
  "updatedAt": "2019-01-05T09:42:00.400Z"
}