{
  "contractName": "ScryProtocol",
  "abi": [
    {
      "inputs": [],
      "payable": false,
      "stateMutability": "nonpayable",
      "type": "constructor"
    },
    {
      "anonymous": false,
      "inputs": [
        {
          "indexed": false,
          "name": "publishId",
          "type": "string"
        },
        {
          "indexed": false,
          "name": "users",
          "type": "string"
        },
        {
          "indexed": false,
          "name": "despDataId",
          "type": "string"
        }
      ],
      "name": "Published",
      "type": "event"
    },
    {
      "constant": false,
      "inputs": [
        {
          "name": "publishId",
          "type": "string"
        },
        {
          "name": "metaDataIdEncSeller",
          "type": "bytes"
        },
        {
          "name": "proofDataId",
          "type": "string"
        },
        {
          "name": "despDataId",
          "type": "string"
        },
        {
          "name": "supportVerify",
          "type": "bool"
        }
      ],
      "name": "publishDataInfo",
      "outputs": [],
      "payable": false,
      "stateMutability": "nonpayable",
      "type": "function"
    },
    {
      "constant": false,
      "inputs": [
        {
          "name": "publishId",
          "type": "string"
        }
      ],
      "name": "isPublishedDataExisted",
      "outputs": [
        {
          "name": "",
          "type": "bool"
        }
      ],
      "payable": false,
      "stateMutability": "nonpayable",
      "type": "function"
    }
  ],
  "bytecode": "0x608060405234801561001057600080fd5b506106e6806100206000396000f30060806040526004361061004c576000357c0100000000000000000000000000000000000000000000000000000000900463ffffffff168063d180d67f14610051578063f1f93e8014610198575b600080fd5b34801561005d57600080fd5b50610196600480360381019080803590602001908201803590602001908080601f0160208091040260200160405190810160405280939291908181526020018383808284378201915050505050509192919290803590602001908201803590602001908080601f0160208091040260200160405190810160405280939291908181526020018383808284378201915050505050509192919290803590602001908201803590602001908080601f0160208091040260200160405190810160405280939291908181526020018383808284378201915050505050509192919290803590602001908201803590602001908080601f0160208091040260200160405190810160405280939291908181526020018383808284378201915050505050509192919290803515159060200190929190505050610219565b005b3480156101a457600080fd5b506101ff600480360381019080803590602001908201803590602001908080601f01602080910402602001604051908101604052809392919081815260200183838082843782019150505050505091929192905050506104ce565b604051808215151515815260200191505060405180910390f35b60a0604051908101604052808581526020018481526020018381526020013373ffffffffffffffffffffffffffffffffffffffff1681526020018215158152506000866040518082805190602001908083835b602083101515610291578051825260208201915060208101905060208303925061026c565b6001836020036101000a038019825116818451168082178552505050505050905001915050908152602001604051809103902060008201518160000190805190602001906102e0929190610595565b5060208201518160010190805190602001906102fd929190610615565b50604082015181600201908051906020019061031a929190610615565b5060608201518160030160006101000a81548173ffffffffffffffffffffffffffffffffffffffff021916908373ffffffffffffffffffffffffffffffffffffffff16021790555060808201518160030160146101000a81548160ff0219169083151502179055509050507f46a08b125611ec320cc1058dd976ee1adea76edb0e29c87708a4ac583d31bd77858360405180806020018060200180602001848103845286818151815260200191508051906020019080838360005b838110156103f05780820151818401526020810190506103d5565b50505050905090810190601f16801561041d5780820380516001836020036101000a031916815260200191505b50848103835260018152602001807f2a00000000000000000000000000000000000000000000000000000000000000815250602001848103825285818151815260200191508051906020019080838360005b8381101561048a57808201518184015260208101905061046f565b50505050905090810190601f1680156104b75780820380516001836020036101000a031916815260200191505b509550505050505060405180910390a15050505050565b6000806000836040518082805190602001908083835b60208310151561050957805182526020820191506020810190506020830392506104e4565b6001836020036101000a0380198251168184511680821785525050505050509050019150509081526020016040518091039020905060008160030160009054906101000a900473ffffffffffffffffffffffffffffffffffffffff1673ffffffffffffffffffffffffffffffffffffffff16141561058a576000915061058f565b600191505b50919050565b828054600181600116156101000203166002900490600052602060002090601f016020900481019282601f106105d657805160ff1916838001178555610604565b82800160010185558215610604579182015b828111156106035782518255916020019190600101906105e8565b5b5090506106119190610695565b5090565b828054600181600116156101000203166002900490600052602060002090601f016020900481019282601f1061065657805160ff1916838001178555610684565b82800160010185558215610684579182015b82811115610683578251825591602001919060010190610668565b5b5090506106919190610695565b5090565b6106b791905b808211156106b357600081600090555060010161069b565b5090565b905600a165627a7a7230582034a009931e962b0f1196a56411bdccb4d64e2be9112c6ea045df8389cce24e5c0029",
  "source": "pragma solidity ^0.4.24;\n\ncontract ScryProtocol {\n\n    struct DataInfoPublished {\n        bytes metaDataIdEncSeller;\n        string proofDataId;\n        string despDataId;\n        address sellerAddr;\n        bool supportVerify;  \n    } \n\n    mapping (string => DataInfoPublished) mapPublishedData;\n\n    event Published(string publishId, string users, string despDataId);\n\n    constructor () public {\n    }\n\n    function publishDataInfo(string publishId, bytes metaDataIdEncSeller, string proofDataId, string despDataId, bool supportVerify) {\n        mapPublishedData[publishId] = DataInfoPublished(metaDataIdEncSeller, proofDataId, despDataId, msg.sender, supportVerify);\n        \n        //'*' means everyone can get despDataId\n        emit Published(publishId, \"*\", despDataId);\n    }\n\n    function isPublishedDataExisted(string publishId) returns (bool) {\n        DataInfoPublished data = mapPublishedData[publishId];\n        if (data.sellerAddr == 0) {\n            return false;\n        }\n        \n        return true;\n    }\n\n}",
  "sourcePath": "/home/waitgordor/project/DataSupplier/contracts/ScryProtocol.sol",
  "compiler": {
    "name": "solc",
    "version": "0.4.24+commit.e67f0147.Emscripten.clang"
  },
  "schemaVersion": "2.0.1",
  "updatedAt": "2018-12-29T03:43:21.477Z"
}