{
  "contractName": "ScryProtocol",
  "abi": [
    {
      "inputs": [
        {
          "name": "_token",
          "type": "address"
        }
      ],
      "payable": false,
      "stateMutability": "nonpayable",
      "type": "constructor"
    },
    {
      "anonymous": false,
      "inputs": [
        {
          "indexed": false,
          "name": "seqNo",
          "type": "string"
        },
        {
          "indexed": false,
          "name": "users",
          "type": "address[]"
        }
      ],
      "name": "RegisterVerifier",
      "type": "event"
    },
    {
      "anonymous": false,
      "inputs": [
        {
          "indexed": false,
          "name": "seqNo",
          "type": "string"
        },
        {
          "indexed": false,
          "name": "publishId",
          "type": "string"
        },
        {
          "indexed": false,
          "name": "price",
          "type": "uint256"
        },
        {
          "indexed": false,
          "name": "despDataId",
          "type": "string"
        },
        {
          "indexed": false,
          "name": "users",
          "type": "address[]"
        }
      ],
      "name": "DataPublish",
      "type": "event"
    },
    {
      "anonymous": false,
      "inputs": [
        {
          "indexed": false,
          "name": "seqNo",
          "type": "string"
        },
        {
          "indexed": false,
          "name": "transactionId",
          "type": "uint256"
        },
        {
          "indexed": false,
          "name": "publishId",
          "type": "string"
        },
        {
          "indexed": false,
          "name": "proofIds",
          "type": "bytes32[]"
        },
        {
          "indexed": false,
          "name": "supportVerify",
          "type": "bool"
        },
        {
          "indexed": false,
          "name": "users",
          "type": "address[]"
        }
      ],
      "name": "TransactionCreate",
      "type": "event"
    },
    {
      "anonymous": false,
      "inputs": [
        {
          "indexed": false,
          "name": "seqNo",
          "type": "string"
        },
        {
          "indexed": false,
          "name": "transactionId",
          "type": "uint256"
        },
        {
          "indexed": false,
          "name": "proofIds",
          "type": "bytes32[]"
        },
        {
          "indexed": false,
          "name": "users",
          "type": "address[]"
        }
      ],
      "name": "VerifiersChosen",
      "type": "event"
    },
    {
      "anonymous": false,
      "inputs": [
        {
          "indexed": false,
          "name": "seqNo",
          "type": "string"
        },
        {
          "indexed": false,
          "name": "transactionId",
          "type": "uint256"
        },
        {
          "indexed": false,
          "name": "judge",
          "type": "bool"
        },
        {
          "indexed": false,
          "name": "comments",
          "type": "string"
        },
        {
          "indexed": false,
          "name": "users",
          "type": "address[]"
        }
      ],
      "name": "Vote",
      "type": "event"
    },
    {
      "anonymous": false,
      "inputs": [
        {
          "indexed": false,
          "name": "seqNo",
          "type": "string"
        },
        {
          "indexed": false,
          "name": "transactionId",
          "type": "uint256"
        },
        {
          "indexed": false,
          "name": "publishId",
          "type": "string"
        },
        {
          "indexed": false,
          "name": "metaDataIdEncSeller",
          "type": "bytes"
        },
        {
          "indexed": false,
          "name": "users",
          "type": "address[]"
        }
      ],
      "name": "Buy",
      "type": "event"
    },
    {
      "anonymous": false,
      "inputs": [
        {
          "indexed": false,
          "name": "seqNo",
          "type": "string"
        },
        {
          "indexed": false,
          "name": "transactionId",
          "type": "uint256"
        },
        {
          "indexed": false,
          "name": "metaDataIdEncBuyer",
          "type": "bytes"
        },
        {
          "indexed": false,
          "name": "users",
          "type": "address[]"
        }
      ],
      "name": "ReadyForDownload",
      "type": "event"
    },
    {
      "anonymous": false,
      "inputs": [
        {
          "indexed": false,
          "name": "seqNo",
          "type": "string"
        },
        {
          "indexed": false,
          "name": "transactionId",
          "type": "uint256"
        },
        {
          "indexed": false,
          "name": "users",
          "type": "address[]"
        }
      ],
      "name": "TransactionClose",
      "type": "event"
    },
    {
      "constant": false,
      "inputs": [
        {
          "name": "seqNo",
          "type": "string"
        }
      ],
      "name": "registerAsVerifier",
      "outputs": [],
      "payable": false,
      "stateMutability": "nonpayable",
      "type": "function"
    },
    {
      "constant": false,
      "inputs": [
        {
          "name": "seqNo",
          "type": "string"
        },
        {
          "name": "publishId",
          "type": "string"
        },
        {
          "name": "price",
          "type": "uint256"
        },
        {
          "name": "metaDataIdEncSeller",
          "type": "bytes"
        },
        {
          "name": "proofDataIds",
          "type": "bytes32[]"
        },
        {
          "name": "despDataId",
          "type": "string"
        },
        {
          "name": "supportVerify",
          "type": "bool"
        }
      ],
      "name": "publishDataInfo",
      "outputs": [],
      "payable": false,
      "stateMutability": "nonpayable",
      "type": "function"
    },
    {
      "constant": false,
      "inputs": [
        {
          "name": "seqNo",
          "type": "string"
        },
        {
          "name": "publishId",
          "type": "string"
        }
      ],
      "name": "createTransaction",
      "outputs": [],
      "payable": false,
      "stateMutability": "nonpayable",
      "type": "function"
    },
    {
      "constant": false,
      "inputs": [
        {
          "name": "seqNo",
          "type": "string"
        },
        {
          "name": "txId",
          "type": "uint256"
        },
        {
          "name": "judge",
          "type": "bool"
        },
        {
          "name": "comments",
          "type": "string"
        }
      ],
      "name": "vote",
      "outputs": [],
      "payable": false,
      "stateMutability": "nonpayable",
      "type": "function"
    },
    {
      "constant": false,
      "inputs": [
        {
          "name": "seqNo",
          "type": "string"
        },
        {
          "name": "txId",
          "type": "uint256"
        }
      ],
      "name": "buyData",
      "outputs": [],
      "payable": false,
      "stateMutability": "nonpayable",
      "type": "function"
    },
    {
      "constant": false,
      "inputs": [
        {
          "name": "seqNo",
          "type": "string"
        },
        {
          "name": "txId",
          "type": "uint256"
        },
        {
          "name": "encryptedMetaDataId",
          "type": "bytes"
        }
      ],
      "name": "submitMetaDataIdEncWithBuyer",
      "outputs": [],
      "payable": false,
      "stateMutability": "nonpayable",
      "type": "function"
    },
    {
      "constant": false,
      "inputs": [
        {
          "name": "seqNo",
          "type": "string"
        },
        {
          "name": "txId",
          "type": "uint256"
        },
        {
          "name": "truth",
          "type": "bool"
        }
      ],
      "name": "confirmDataTruth",
      "outputs": [],
      "payable": false,
      "stateMutability": "nonpayable",
      "type": "function"
    },
    {
      "constant": false,
      "inputs": [
        {
          "name": "deposit",
          "type": "uint256"
        }
      ],
      "name": "setVerifierDepositToken",
      "outputs": [],
      "payable": false,
      "stateMutability": "nonpayable",
      "type": "function"
    },
    {
      "constant": false,
      "inputs": [
        {
          "name": "num",
          "type": "uint8"
        }
      ],
      "name": "setVerifierNum",
      "outputs": [],
      "payable": false,
      "stateMutability": "nonpayable",
      "type": "function"
    },
    {
      "constant": false,
      "inputs": [
        {
          "name": "txId",
          "type": "uint256"
        },
        {
          "name": "to",
          "type": "address"
        },
        {
          "name": "credit",
          "type": "uint8"
        }
      ],
      "name": "creditsToVerifier",
      "outputs": [],
      "payable": false,
      "stateMutability": "nonpayable",
      "type": "function"
    }
  ],
  "bytecode": "0x608060405260008060006101000a81548160ff021916908360ff1602179055506002600060016101000a81548160ff021916908360ff1602179055506127106001556000600260006101000a81548160ff021916908360ff1602179055506005600260016101000a81548160ff021916908360ff16021790555060028060026101000a81548160ff021916908360ff160217905550600060075560206008556000600960006101000a81548173ffffffffffffffffffffffffffffffffffffffff021916908373ffffffffffffffffffffffffffffffffffffffff1602179055506000600a60006101000a81548173ffffffffffffffffffffffffffffffffffffffff021916908373ffffffffffffffffffffffffffffffffffffffff1602179055503480156200012f57600080fd5b50604051602080620047a88339810180604052810190808051906020019092919050505060008173ffffffffffffffffffffffffffffffffffffffff16141515156200017a57600080fd5b33600a60006101000a81548173ffffffffffffffffffffffffffffffffffffffff021916908373ffffffffffffffffffffffffffffffffffffffff16021790555080600960006101000a81548173ffffffffffffffffffffffffffffffffffffffff021916908373ffffffffffffffffffffffffffffffffffffffff16021790555080600b60006101000a81548173ffffffffffffffffffffffffffffffffffffffff021916908373ffffffffffffffffffffffffffffffffffffffff16021790555060a060405190810160405280600073ffffffffffffffffffffffffffffffffffffffff16815260200160008152602001600060ff168152602001600081526020016000151581525060038080548091906001016200029c91906200035d565b815481101515620002a957fe5b906000526020600020906005020160008201518160000160006101000a81548173ffffffffffffffffffffffffffffffffffffffff021916908373ffffffffffffffffffffffffffffffffffffffff1602179055506020820151816001015560408201518160020160006101000a81548160ff021916908360ff1602179055506060820151816003015560808201518160040160006101000a81548160ff0219169083151502179055509050505062000413565b8154818355818111156200038d576005028160050283600052602060002091820191016200038c919062000392565b5b505050565b6200041091905b808211156200040c57600080820160006101000a81549073ffffffffffffffffffffffffffffffffffffffff021916905560018201600090556002820160006101000a81549060ff021916905560038201600090556004820160006101000a81549060ff02191690555060050162000399565b5090565b90565b61438580620004236000396000f3006080604052600436106100a4576000357c0100000000000000000000000000000000000000000000000000000000900463ffffffff168063377caed1146100a95780635a39eba21461015a57806371ab5c0e1461018a5780638ba737ee146101b757806393151dd514610214578063980da40d1461024f5780639a756a99146102b8578063cafb1c28146102fd578063dd16673b14610357578063fecc18b4146103a8575b600080fd5b3480156100b557600080fd5b50610158600480360381019080803590602001908201803590602001919091929391929390803590602001908201803590602001919091929391929390803590602001909291908035906020019082018035906020019190919293919293908035906020019082018035906020019190919293919293908035906020019082018035906020019190919293919293908035151590602001909291905050506103fb565b005b34801561016657600080fd5b50610188600480360381019080803560ff169060200190929190505050610829565b005b34801561019657600080fd5b506101b560048036038101908080359060200190929190505050610932565b005b3480156101c357600080fd5b5061021260048036038101908080359060200190820180359060200191909192939192939080359060200190929190803590602001908201803590602001919091929391929390505050610a27565b005b34801561022057600080fd5b5061024d600480360381019080803590602001908201803590602001919091929391929390505050610e41565b005b34801561025b57600080fd5b506102b6600480360381019080803590602001908201803590602001919091929391929390803590602001909291908035151590602001909291908035906020019082018035906020019190919293919293905050506114e9565b005b3480156102c457600080fd5b506102fb600480360381019080803590602001908201803590602001919091929391929390803590602001909291905050506119bc565b005b34801561030957600080fd5b5061035560048036038101908080359060200190929190803573ffffffffffffffffffffffffffffffffffffffff169060200190929190803560ff169060200190929190505050612242565b005b34801561036357600080fd5b506103a660048036038101908080359060200190820180359060200191909192939192939080359060200190929190803515159060200190929190505050612772565b005b3480156103b457600080fd5b506103f9600480360381019080803590602001908201803590602001919091929391929390803590602001908201803590602001919091929391929390505050612ad0565b005b60606000600160405190808252806020026020018201604052801561042f5781602001602082028038833980820191505090505b509150600082600081518110151561044357fe5b9060200190602002019073ffffffffffffffffffffffffffffffffffffffff16908173ffffffffffffffffffffffffffffffffffffffff168152505060048c8c60405180838380828437820191505092505050908152602001604051809103902090508060050160159054906101000a900460ff1615151561052d576040517f08c379a00000000000000000000000000000000000000000000000000000000081526004018080602001828103825260148152602001807f4475706c6963617465207075626c69736820696400000000000000000000000081525060200191505060405180910390fd5b610100604051908101604052808b81526020018a8a8080601f0160208091040260200160405190810160405280939291908181526020018383808284378201915050505050508152602001888880806020026020016040519081016040528093929190818152602001838360200280828437820191505050505050815260200188889050815260200186868080601f01602080910402602001604051908101604052809392919081815260200183838082843782019150505050505081526020013373ffffffffffffffffffffffffffffffffffffffff16815260200184151581526020016001151581525060048d8d604051808383808284378201915050925050509081526020016040518091039020600082015181600001556020820151816001019080519060200190610664929190613f5f565b506040820151816002019080519060200190610681929190613fdf565b506060820151816003015560808201518160040190805190602001906106a8929190614032565b5060a08201518160050160006101000a81548173ffffffffffffffffffffffffffffffffffffffff021916908373ffffffffffffffffffffffffffffffffffffffff16021790555060c08201518160050160146101000a81548160ff02191690831515021790555060e08201518160050160156101000a81548160ff0219169083151502179055509050507f9d1b954932f5249f38959200c17d585ac2b4897b77acb4c29a8fb4d8473f0e8c8e8e8e8e8e8a8a89604051808060200180602001878152602001806020018060200185810385528d8d82818152602001925080828437820191505085810384528b8b82818152602001925080828437820191505085810383528888828181526020019250808284378201915050858103825286818151815260200191508051906020019060200280838360005b838110156107fc5780820151818401526020810190506107e1565b505050509050019c5050505050505050505050505060405180910390a15050505050505050505050505050565b3373ffffffffffffffffffffffffffffffffffffffff16600a60009054906101000a900473ffffffffffffffffffffffffffffffffffffffff1673ffffffffffffffffffffffffffffffffffffffff16141515610914576040517f08c379a00000000000000000000000000000000000000000000000000000000081526004018080602001828103825260228152602001807f5468652076616c7565206f6e6c792063616e20626520736574206279206f776e81526020017f657200000000000000000000000000000000000000000000000000000000000081525060400191505060405180910390fd5b80600060016101000a81548160ff021916908360ff16021790555050565b3373ffffffffffffffffffffffffffffffffffffffff16600a60009054906101000a900473ffffffffffffffffffffffffffffffffffffffff1673ffffffffffffffffffffffffffffffffffffffff16141515610a1d576040517f08c379a00000000000000000000000000000000000000000000000000000000081526004018080602001828103825260228152602001807f5468652076616c7565206f6e6c792063616e20626520736574206279206f776e81526020017f657200000000000000000000000000000000000000000000000000000000000081525060400191505060405180910390fd5b8060018190555050565b600060606005600086815260200190815260200160002091508160070160009054906101000a900460ff161515610ac6576040517f08c379a000000000000000000000000000000000000000000000000000000000815260040180806020018281038252601a8152602001807f5472616e73616374696f6e20646f6573206e6f7420657869737400000000000081525060200191505060405180910390fd5b3373ffffffffffffffffffffffffffffffffffffffff168260010160009054906101000a900473ffffffffffffffffffffffffffffffffffffffff1673ffffffffffffffffffffffffffffffffffffffff16141515610b8d576040517f08c379a000000000000000000000000000000000000000000000000000000000815260040180806020018281038252600e8152602001807f496e76616c69642073656c6c657200000000000000000000000000000000000081525060200191505060405180910390fd5b60036007811115610b9a57fe5b8260000160009054906101000a900460ff166007811115610bb757fe5b141515610c2c576040517f08c379a00000000000000000000000000000000000000000000000000000000081526004018080602001828103825260198152602001807f496e76616c6964207472616e73616374696f6e2073746174650000000000000081525060200191505060405180910390fd5b8383836004019190610c3f9291906140b2565b5060048260000160006101000a81548160ff02191690836007811115610c6157fe5b02179055506001604051908082528060200260200182016040528015610c965781602001602082028038833980820191505090505b5090508160000160019054906101000a900473ffffffffffffffffffffffffffffffffffffffff16816000815181101515610ccd57fe5b9060200190602002019073ffffffffffffffffffffffffffffffffffffffff16908173ffffffffffffffffffffffffffffffffffffffff16815250507f28eb60ba9df25f12ccee668d0a745b5e455365b717f0867aa76edcffe7430cf587878785600501856040518080602001858152602001806020018060200184810384528989828181526020019250808284378201915050848103835286818154600181600116156101000203166002900481526020019150805460018160011615610100020316600290048015610de25780601f10610db757610100808354040283529160200191610de2565b820191906000526020600020905b815481529060010190602001808311610dc557829003601f168201915b5050848103825285818151815260200191508051906020019060200280838360005b83811015610e1f578082015181840152602081019050610e04565b505050509050019850505050505050505060405180910390a150505050505050565b60006060610e4e33613638565b915060008260000160009054906101000a900473ffffffffffffffffffffffffffffffffffffffff1673ffffffffffffffffffffffffffffffffffffffff16141515610f28576040517f08c379a00000000000000000000000000000000000000000000000000000000081526004018080602001828103825260228152602001807f54686520766572696669657220697320616c726561647920726567697374657281526020017f656400000000000000000000000000000000000000000000000000000000000081525060400191505060405180910390fd5b6000600154111561127557600154600b60009054906101000a900473ffffffffffffffffffffffffffffffffffffffff1673ffffffffffffffffffffffffffffffffffffffff166370a08231336040518263ffffffff167c0100000000000000000000000000000000000000000000000000000000028152600401808273ffffffffffffffffffffffffffffffffffffffff1673ffffffffffffffffffffffffffffffffffffffff168152602001915050602060405180830381600087803b158015610ff357600080fd5b505af1158015611007573d6000803e3d6000fd5b505050506040513d602081101561101d57600080fd5b8101908080519060200190929190505050101515156110a4576040517f08c379a00000000000000000000000000000000000000000000000000000000081526004018080602001828103825260118152602001807f4e6f20656e6f7567682062616c616e636500000000000000000000000000000081525060200191505060405180910390fd5b600b60009054906101000a900473ffffffffffffffffffffffffffffffffffffffff1673ffffffffffffffffffffffffffffffffffffffff166323b872dd33306001546040518463ffffffff167c0100000000000000000000000000000000000000000000000000000000028152600401808473ffffffffffffffffffffffffffffffffffffffff1673ffffffffffffffffffffffffffffffffffffffff1681526020018373ffffffffffffffffffffffffffffffffffffffff1673ffffffffffffffffffffffffffffffffffffffff1681526020018281526020019350505050602060405180830381600087803b15801561119f57600080fd5b505af11580156111b3573d6000803e3d6000fd5b505050506040513d60208110156111c957600080fd5b81019080805190602001909291905050501515611274576040517f08c379a00000000000000000000000000000000000000000000000000000000081526004018080602001828103825260248152602001807f4661696c656420746f207472616e7366657220746f6b656e2066726f6d20636181526020017f6c6c65720000000000000000000000000000000000000000000000000000000081525060400191505060405180910390fd5b5b60a0604051908101604052803373ffffffffffffffffffffffffffffffffffffffff1681526020016001548152602001600260019054906101000a900460ff1660ff168152602001600081526020016001151581525060038080548091906001016112e09190614132565b8154811015156112ec57fe5b906000526020600020906005020160008201518160000160006101000a81548173ffffffffffffffffffffffffffffffffffffffff021916908373ffffffffffffffffffffffffffffffffffffffff1602179055506020820151816001015560408201518160020160006101000a81548160ff021916908360ff1602179055506060820151816003015560808201518160040160006101000a81548160ff02191690831515021790555090505060008081819054906101000a900460ff168092919060010191906101000a81548160ff021916908360ff1602179055505060016040519080825280602002602001820160405280156113fa5781602001602082028038833980820191505090505b5090503381600081518110151561140d57fe5b9060200190602002019073ffffffffffffffffffffffffffffffffffffffff16908173ffffffffffffffffffffffffffffffffffffffff16815250507f476785064b6fb8cce78cd4377a03177c7bac7803ef345a1eaf34d1dbdbf0e86484848360405180806020018060200183810383528686828181526020019250808284378201915050838103825284818151815260200191508051906020019060200280838360005b838110156114cd5780820151818401526020810190506114b2565b505050509050019550505050505060405180910390a150505050565b60008060606005600088815260200190815260200160002092508260070160009054906101000a900460ff161515611589576040517f08c379a000000000000000000000000000000000000000000000000000000000815260040180806020018281038252601a8152602001807f5472616e73616374696f6e20646f6573206e6f7420657869737400000000000081525060200191505060405180910390fd5b61159233613638565b91506116d48260a060405190810160405290816000820160009054906101000a900473ffffffffffffffffffffffffffffffffffffffff1673ffffffffffffffffffffffffffffffffffffffff1673ffffffffffffffffffffffffffffffffffffffff168152602001600182015481526020016002820160009054906101000a900460ff1660ff1660ff168152602001600382015481526020016004820160009054906101000a900460ff161515151581525050846002018054806020026020016040519081016040528092919081815260200182805480156116ca57602002820191906000526020600020905b8160009054906101000a900473ffffffffffffffffffffffffffffffffffffffff1673ffffffffffffffffffffffffffffffffffffffff1681526020019060010190808311611680575b5050505050613719565b1515611748576040517f08c379a00000000000000000000000000000000000000000000000000000000081526004018080602001828103825260108152602001807f496e76616c69642076657269666965720000000000000000000000000000000081525060200191505060405180910390fd5b606060405190810160405280871515815260200186868080601f0160208091040260200160405190810160405280939291908181526020018383808284378201915050505050508152602001600115158152506006600089815260200190815260200160002060003373ffffffffffffffffffffffffffffffffffffffff1673ffffffffffffffffffffffffffffffffffffffff16815260200190815260200160002060008201518160000160006101000a81548160ff0219169083151502179055506020820151816001019080519060200190611827929190614032565b5060408201518160020160006101000a81548160ff02191690831515021790555090505060028360000160006101000a81548160ff0219169083600781111561186c57fe5b02179055508260000160019054906101000a900473ffffffffffffffffffffffffffffffffffffffff168160008151811015156118a557fe5b9060200190602002019073ffffffffffffffffffffffffffffffffffffffff16908173ffffffffffffffffffffffffffffffffffffffff16815250507f6c9b52deb2c6010b3925a2e11bd5a7067f351dfb5f0ece7f1262ccaf599cacd389898989898987604051808060200187815260200186151515158152602001806020018060200184810384528b8b82818152602001925080828437820191505084810383528787828181526020019250808284378201915050848103825285818151815260200191508051906020019060200280838360005b8381101561199657808201518184015260208101905061197b565b505050509050019a505050505050505050505060405180910390a1505050505050505050565b60006119c6614164565b60606005600085815260200190815260200160002092508260070160009054906101000a900460ff161515611a63576040517f08c379a000000000000000000000000000000000000000000000000000000000815260040180806020018281038252601a8152602001807f5472616e73616374696f6e20646f6573206e6f7420657869737400000000000081525060200191505060405180910390fd5b3373ffffffffffffffffffffffffffffffffffffffff168360000160019054906101000a900473ffffffffffffffffffffffffffffffffffffffff1673ffffffffffffffffffffffffffffffffffffffff16141515611b2a576040517f08c379a000000000000000000000000000000000000000000000000000000000815260040180806020018281038252600d8152602001807f496e76616c69642062757965720000000000000000000000000000000000000081525060200191505060405180910390fd5b6004836003016040518082805460018160011615610100020316600290048015611b8b5780601f10611b69576101008083540402835291820191611b8b565b820191906000526020600020905b815481529060010190602001808311611b77575b50509150509081526020016040518091039020610100604051908101604052908160008201548152602001600182018054600181600116156101000203166002900480601f016020809104026020016040519081016040528092919081815260200182805460018160011615610100020316600290048015611c4e5780601f10611c2357610100808354040283529160200191611c4e565b820191906000526020600020905b815481529060010190602001808311611c3157829003601f168201915b5050505050815260200160028201805480602002602001604051908101604052809291908181526020018280548015611caa57602002820191906000526020600020905b81546000191681526020019060010190808311611c92575b5050505050815260200160038201548152602001600482018054600181600116156101000203166002900480601f016020809104026020016040519081016040528092919081815260200182805460018160011615610100020316600290048015611d565780601f10611d2b57610100808354040283529160200191611d56565b820191906000526020600020905b815481529060010190602001808311611d3957829003601f168201915b505050505081526020016005820160009054906101000a900473ffffffffffffffffffffffffffffffffffffffff1673ffffffffffffffffffffffffffffffffffffffff1673ffffffffffffffffffffffffffffffffffffffff1681526020016005820160149054906101000a900460ff161515151581526020016005820160159054906101000a900460ff16151515158152505091508160e001511515611e66576040517f08c379a000000000000000000000000000000000000000000000000000000000815260040180806020018281038252601b8152602001807f5075626c697368206461746120646f6573206e6f74206578697374000000000081525060200191505060405180910390fd5b8160c001511515611f155760016007811115611e7e57fe5b8360000160009054906101000a900460ff166007811115611e9b57fe5b141515611f10576040517f08c379a00000000000000000000000000000000000000000000000000000000081526004018080602001828103825260198152602001807f496e76616c6964207472616e73616374696f6e2073746174650000000000000081525060200191505060405180910390fd5b611fb5565b60026007811115611f2257fe5b8360000160009054906101000a900460ff166007811115611f3f57fe5b141515611fb4576040517f08c379a00000000000000000000000000000000000000000000000000000000081526004018080602001828103825260198152602001807f496e76616c6964207472616e73616374696f6e2073746174650000000000000081525060200191505060405180910390fd5b5b60038360000160006101000a81548160ff02191690836007811115611fd657fe5b0217905550600160405190808252806020026020018201604052801561200b5781602001602082028038833980820191505090505b5090508260010160009054906101000a900473ffffffffffffffffffffffffffffffffffffffff1681600081518110151561204257fe5b9060200190602002019073ffffffffffffffffffffffffffffffffffffffff16908173ffffffffffffffffffffffffffffffffffffffff16815250507feeaf28668d6d8a951d1c5b873c5e94068abdea0145811cbeaece6c309118f3e3868686866003018760050186604051808060200186815260200180602001806020018060200185810385528b8b82818152602001925080828437820191505085810384528881815460018160011615610100020316600290048152602001915080546001816001161561010002031660029004801561215f5780601f106121345761010080835404028352916020019161215f565b820191906000526020600020905b81548152906001019060200180831161214257829003601f168201915b50508581038352878181546001816001161561010002031660029004815260200191508054600181600116156101000203166002900480156121e25780601f106121b7576101008083540402835291602001916121e2565b820191906000526020600020905b8154815290600101906020018083116121c557829003601f168201915b5050858103825286818151815260200191508051906020019060200280838360005b8381101561221f578082015181840152602081019050612204565b505050509050019a505050505050505050505060405180910390a1505050505050565b60008060008473ffffffffffffffffffffffffffffffffffffffff16141515156122d4576040517f08c379a00000000000000000000000000000000000000000000000000000000081526004018080602001828103825260188152602001807f56657269666965722061646472657373206973207a65726f000000000000000081525060200191505060405180910390fd5b600260009054906101000a900460ff1660ff168360ff161015801561230e5750600260019054906101000a900460ff1660ff168360ff1611155b15156123a8576040517f08c379a00000000000000000000000000000000000000000000000000000000081526004018080602001828103825260268152602001807f56616c6964206372656469742073636f70652069732030203c3d20637265646981526020017f74203c3d2035000000000000000000000000000000000000000000000000000081525060400191505060405180910390fd5b6005600086815260200190815260200160002091508160070160009054906101000a900460ff161515612443576040517f08c379a000000000000000000000000000000000000000000000000000000000815260040180806020018281038252601a8152602001807f5472616e73616374696f6e20646f6573206e6f7420657869737400000000000081525060200191505060405180910390fd5b61244c84613638565b905061258e8160a060405190810160405290816000820160009054906101000a900473ffffffffffffffffffffffffffffffffffffffff1673ffffffffffffffffffffffffffffffffffffffff1673ffffffffffffffffffffffffffffffffffffffff168152602001600182015481526020016002820160009054906101000a900460ff1660ff1660ff168152602001600382015481526020016004820160009054906101000a900460ff1615151515815250508360020180548060200260200160405190810160405280929190818152602001828054801561258457602002820191906000526020600020905b8160009054906101000a900473ffffffffffffffffffffffffffffffffffffffff1673ffffffffffffffffffffffffffffffffffffffff168152602001906001019080831161253a575b5050505050613719565b1515612602576040517f08c379a00000000000000000000000000000000000000000000000000000000081526004018080602001828103825260108152602001807f496e76616c69642076657269666965720000000000000000000000000000000081525060200191505060405180910390fd5b80600301600081546001019190508190558360ff1682600301548360020160009054906101000a900460ff1660ff16020181151561263c57fe5b048160020160006101000a81548160ff021916908360ff1602179055506002809054906101000a900460ff1660ff168160020160009054906101000a900460ff1660ff1611151561276b5760008160040160006101000a81548160ff0219169083151502179055506000816001018190555060008081819054906101000a900460ff16809291906001900391906101000a81548160ff021916908360ff1602179055505060016000809054906101000a900460ff1660ff161015151561276a576040517f08c379a00000000000000000000000000000000000000000000000000000000081526004018080602001828103825260168152602001807f496e76616c696420766572696669657220636f756e740000000000000000000081525060200191505060405180910390fd5b5b5050505050565b6000806005600085815260200190815260200160002091508160070160009054906101000a900460ff161515612810576040517f08c379a000000000000000000000000000000000000000000000000000000000815260040180806020018281038252601a8152602001807f5472616e73616374696f6e20646f6573206e6f7420657869737400000000000081525060200191505060405180910390fd5b3373ffffffffffffffffffffffffffffffffffffffff168260000160019054906101000a900473ffffffffffffffffffffffffffffffffffffffff1673ffffffffffffffffffffffffffffffffffffffff161415156128d7576040517f08c379a000000000000000000000000000000000000000000000000000000000815260040180806020018281038252600d8152602001807f496e76616c69642062757965720000000000000000000000000000000000000081525060200191505060405180910390fd5b60048260030160405180828054600181600116156101000203166002900480156129385780601f10612916576101008083540402835291820191612938565b820191906000526020600020905b815481529060010190602001808311612924575b5050915050908152602001604051809103902090508060050160159054906101000a900460ff1615156129d3576040517f08c379a000000000000000000000000000000000000000000000000000000000815260040180806020018281038252601b8152602001807f5075626c697368206461746120646f6573206e6f74206578697374000000000081525060200191505060405180910390fd5b600460078111156129e057fe5b8260000160009054906101000a900460ff1660078111156129fd57fe5b141515612a0957600080fd5b8060050160149054906101000a900460ff161515612a74578215612a3257612a31828261373e565b5b612a6f8287878080601f016020809104026020016040519081016040528093929190818152602001838380828437820191505050505050866139a0565b612ac8565b8215612ac657612a84828261373e565b612ac18287878080601f016020809104026020016040519081016040528093929190818152602001838380828437820191505050505050866139a0565b612ac7565b5b5b505050505050565b612ad8614164565b6000606080606060048787604051808383808284378201915050925050509081526020016040518091039020610100604051908101604052908160008201548152602001600182018054600181600116156101000203166002900480601f016020809104026020016040519081016040528092919081815260200182805460018160011615610100020316600290048015612bb45780601f10612b8957610100808354040283529160200191612bb4565b820191906000526020600020905b815481529060010190602001808311612b9757829003601f168201915b5050505050815260200160028201805480602002602001604051908101604052809291908181526020018280548015612c1057602002820191906000526020600020905b81546000191681526020019060010190808311612bf8575b5050505050815260200160038201548152602001600482018054600181600116156101000203166002900480601f016020809104026020016040519081016040528092919081815260200182805460018160011615610100020316600290048015612cbc5780601f10612c9157610100808354040283529160200191612cbc565b820191906000526020600020905b815481529060010190602001808311612c9f57829003601f168201915b505050505081526020016005820160009054906101000a900473ffffffffffffffffffffffffffffffffffffffff1673ffffffffffffffffffffffffffffffffffffffff1673ffffffffffffffffffffffffffffffffffffffff1681526020016005820160149054906101000a900460ff161515151581526020016005820160159054906101000a900460ff16151515158152505094508460e001511515612dcc576040517f08c379a000000000000000000000000000000000000000000000000000000000815260040180806020018281038252601b8152602001807f5075626c697368206461746120646f6573206e6f74206578697374000000000081525060200191505060405180910390fd5b8460000151600b60009054906101000a900473ffffffffffffffffffffffffffffffffffffffff1673ffffffffffffffffffffffffffffffffffffffff166370a08231336040518263ffffffff167c0100000000000000000000000000000000000000000000000000000000028152600401808273ffffffffffffffffffffffffffffffffffffffff1673ffffffffffffffffffffffffffffffffffffffff168152602001915050602060405180830381600087803b158015612e8e57600080fd5b505af1158015612ea2573d6000803e3d6000fd5b505050506040513d6020811015612eb857600080fd5b810190808051906020019092919050505010151515612f3f576040517f08c379a00000000000000000000000000000000000000000000000000000000081526004018080602001828103825260118152602001807f4e6f20656e6f7567682062616c616e636500000000000000000000000000000081525060200191505060405180910390fd5b600b60009054906101000a900473ffffffffffffffffffffffffffffffffffffffff1673ffffffffffffffffffffffffffffffffffffffff166323b872dd333088600001516040518463ffffffff167c0100000000000000000000000000000000000000000000000000000000028152600401808473ffffffffffffffffffffffffffffffffffffffff1673ffffffffffffffffffffffffffffffffffffffff1681526020018373ffffffffffffffffffffffffffffffffffffffff1673ffffffffffffffffffffffffffffffffffffffff1681526020018281526020019350505050602060405180830381600087803b15801561303c57600080fd5b505af1158015613050573d6000803e3d6000fd5b505050506040513d602081101561306657600080fd5b81019080805190602001909291905050501515613111576040517f08c379a00000000000000000000000000000000000000000000000000000000081526004018080602001828103825260248152602001807f4661696c656420746f207472616e7366657220746f6b656e2066726f6d20636181526020017f6c6c65720000000000000000000000000000000000000000000000000000000081525060400191505060405180910390fd5b613119613b3b565b93506008546040519080825280601f01601f1916602001820160405280156131505781602001602082028038833980820191505090505b5092508460c001511561326757613175600060019054906101000a900460ff16613b53565b91507f9c200a4227ec4e19b5ad9d49dc8b449b7f19d88b7ba8c38e633a05713c6e6b748989868860400151866040518080602001858152602001806020018060200184810384528989828181526020019250808284378201915050848103835286818151815260200191508051906020019060200280838360005b8381101561320b5780820151818401526020810190506131f0565b50505050905001848103825285818151815260200191508051906020019060200280838360005b8381101561324d578082015181840152602081019050613232565b505050509050019850505050505050505060405180910390a15b60016040519080825280602002602001820160405280156132975781602001602082028038833980820191505090505b509050338160008151811015156132aa57fe5b9060200190602002019073ffffffffffffffffffffffffffffffffffffffff16908173ffffffffffffffffffffffffffffffffffffffff16815250507fd16734b3714832ed6453cfd7a0cdc465aeb6058f33ac675bc38176c4c4e109618989868a8a8a604001518b60c001518860405180806020018881526020018060200180602001861515151581526020018060200185810385528d8d82818152602001925080828437820191505085810384528a8a828181526020019250808284378201915050858103835288818151815260200191508051906020019060200280838360005b838110156133a857808201518184015260208101905061338d565b50505050905001858103825286818151815260200191508051906020019060200280838360005b838110156133ea5780820151818401526020810190506133cf565b505050509050019c5050505050505050505050505060405180910390a1610120604051908101604052806001600781111561342157fe5b81526020013373ffffffffffffffffffffffffffffffffffffffff1681526020018660a0015173ffffffffffffffffffffffffffffffffffffffff16815260200183815260200188888080601f01602080910402602001604051908101604052809392919081815260200183838082843782019150505050505081526020018481526020018660200151815260200186600001518152602001600115158152506005600086815260200190815260200160002060008201518160000160006101000a81548160ff021916908360078111156134f857fe5b021790555060208201518160000160016101000a81548173ffffffffffffffffffffffffffffffffffffffff021916908373ffffffffffffffffffffffffffffffffffffffff16021790555060408201518160010160006101000a81548173ffffffffffffffffffffffffffffffffffffffff021916908373ffffffffffffffffffffffffffffffffffffffff16021790555060608201518160020190805190602001906135a79291906141c4565b5060808201518160030190805190602001906135c4929190614032565b5060a08201518160040190805190602001906135e1929190613f5f565b5060c08201518160050190805190602001906135fe929190613f5f565b5060e082015181600601556101008201518160070160006101000a81548160ff021916908315150217905550905050505050505050505050565b600080600090505b6003805490508110156136f2578273ffffffffffffffffffffffffffffffffffffffff1660038281548110151561367357fe5b906000526020600020906005020160000160009054906101000a900473ffffffffffffffffffffffffffffffffffffffff1673ffffffffffffffffffffffffffffffffffffffff1614156136e5576003818154811015156136d057fe5b90600052602060002090600502019150613713565b8080600101915050613640565b6003600081548110151561370257fe5b906000526020600020906005020191505b50919050565b6000826080015180156137365750613735836000015183613e70565b5b905092915050565b806000015482600601541015156139255780600001548260060160008282540392505081905550600b60009054906101000a900473ffffffffffffffffffffffffffffffffffffffff1673ffffffffffffffffffffffffffffffffffffffff1663a9059cbb8260050160009054906101000a900473ffffffffffffffffffffffffffffffffffffffff1683600001546040518363ffffffff167c0100000000000000000000000000000000000000000000000000000000028152600401808373ffffffffffffffffffffffffffffffffffffffff1673ffffffffffffffffffffffffffffffffffffffff16815260200182815260200192505050602060405180830381600087803b15801561385257600080fd5b505af1158015613866573d6000803e3d6000fd5b505050506040513d602081101561387c57600080fd5b8101908080519060200190929190505050151561392057806000015482600601600082825401925050819055506000151561391f576040517f08c379a00000000000000000000000000000000000000000000000000000000081526004018080602001828103825260178152602001807f4661696c656420746f2070617920746f2073656c6c657200000000000000000081525060200191505060405180910390fd5b5b61399c565b6000151561399b576040517f08c379a00000000000000000000000000000000000000000000000000000000081526004018080602001828103825260118152602001807f4c6f77206465706f7369742076616c756500000000000000000000000000000081525060200191505060405180910390fd5b5b5050565b606060078460000160006101000a81548160ff021916908360078111156139c357fe5b021790555060016040519080825280602002602001820160405280156139f85781602001602082028038833980820191505090505b5090506000816000815181101515613a0c57fe5b9060200190602002019073ffffffffffffffffffffffffffffffffffffffff16908173ffffffffffffffffffffffffffffffffffffffff16815250507f784a9feb5a6ecee5d955d1b5e294f2b57d9477164fba686c0bde4a40849f2b0c838383604051808060200184815260200180602001838103835286818151815260200191508051906020019080838360005b83811015613ab6578082015181840152602081019050613a9b565b50505050905090810190601f168015613ae35780820380516001836020036101000a031916815260200191505b50838103825284818151815260200191508051906020019060200280838360005b83811015613b1f578082015181840152602081019050613b04565b505050509050019550505050505060405180910390a150505050565b60006007600081548092919060010191905055905090565b6060806000806000806000809054906101000a900460ff1660ff168760ff16101515613be7576040517f08c379a00000000000000000000000000000000000000000000000000000000081526004018080602001828103825260198152602001807f4e6f20656e6f7567682076616c6964207665726966696572730000000000000081525060200191505060405180910390fd5b8660ff16604051908082528060200260200182016040528015613c195781602001602082028038833980820191505090505b509450600093505b8660ff168460ff161015613e6357600380549050613c43600380549050613eee565b811515613c4c57fe5b069250600383815481101515613c5e57fe5b906000526020600020906005020191508160000160009054906101000a900473ffffffffffffffffffffffffffffffffffffffff1690505b8160040160009054906101000a900460ff161580613cde5750613cdd8260000160009054906101000a900473ffffffffffffffffffffffffffffffffffffffff1686613e70565b5b15613de4576003808054905084600101945084811515613cfa57fe5b06815481101515613d0757fe5b906000526020600020906005020191508073ffffffffffffffffffffffffffffffffffffffff168260000160009054906101000a900473ffffffffffffffffffffffffffffffffffffffff1673ffffffffffffffffffffffffffffffffffffffff1614151515613ddf576040517f08c379a00000000000000000000000000000000000000000000000000000000081526004018080602001828103825260148152602001807f4469736f7264657265642076657269666965727300000000000000000000000081525060200191505060405180910390fd5b613c96565b8160000160009054906101000a900473ffffffffffffffffffffffffffffffffffffffff16858560ff16815181101515613e1a57fe5b9060200190602002019073ffffffffffffffffffffffffffffffffffffffff16908173ffffffffffffffffffffffffffffffffffffffff16815250508380600101945050613c21565b8495505050505050919050565b600080600090505b8251811015613ee2578373ffffffffffffffffffffffffffffffffffffffff168382815181101515613ea657fe5b9060200190602002015173ffffffffffffffffffffffffffffffffffffffff161415613ed55760019150613ee7565b8080600101915050613e78565b600091505b5092915050565b6000814233604051808381526020018273ffffffffffffffffffffffffffffffffffffffff1673ffffffffffffffffffffffffffffffffffffffff166c0100000000000000000000000002815260140192505050604051809103902060019004811515613f5757fe5b069050919050565b828054600181600116156101000203166002900490600052602060002090601f016020900481019282601f10613fa057805160ff1916838001178555613fce565b82800160010185558215613fce579182015b82811115613fcd578251825591602001919060010190613fb2565b5b509050613fdb919061424e565b5090565b828054828255906000526020600020908101928215614021579160200282015b82811115614020578251829060001916905591602001919060010190613fff565b5b50905061402e9190614273565b5090565b828054600181600116156101000203166002900490600052602060002090601f016020900481019282601f1061407357805160ff19168380011785556140a1565b828001600101855582156140a1579182015b828111156140a0578251825591602001919060010190614085565b5b5090506140ae919061424e565b5090565b828054600181600116156101000203166002900490600052602060002090601f016020900481019282601f106140f357803560ff1916838001178555614121565b82800160010185558215614121579182015b82811115614120578235825591602001919060010190614105565b5b50905061412e919061424e565b5090565b81548183558181111561415f5760050281600502836000526020600020918201910161415e9190614298565b5b505050565b610100604051908101604052806000815260200160608152602001606081526020016000815260200160608152602001600073ffffffffffffffffffffffffffffffffffffffff1681526020016000151581526020016000151581525090565b82805482825590600052602060002090810192821561423d579160200282015b8281111561423c5782518260006101000a81548173ffffffffffffffffffffffffffffffffffffffff021916908373ffffffffffffffffffffffffffffffffffffffff160217905550916020019190600101906141e4565b5b50905061424a9190614316565b5090565b61427091905b8082111561426c576000816000905550600101614254565b5090565b90565b61429591905b80821115614291576000816000905550600101614279565b5090565b90565b61431391905b8082111561430f57600080820160006101000a81549073ffffffffffffffffffffffffffffffffffffffff021916905560018201600090556002820160006101000a81549060ff021916905560038201600090556004820160006101000a81549060ff02191690555060050161429e565b5090565b90565b61435691905b8082111561435257600081816101000a81549073ffffffffffffffffffffffffffffffffffffffff02191690555060010161431c565b5090565b905600a165627a7a72305820b48ce11aff8c44a723b122493d03a06c5f4f632ecb67e5b1030756df2f8adf3d0029",
  "source": "pragma solidity ^0.4.24;\n\nimport \"./ScryToken.sol\";\n\ncontract ScryProtocol {\n    enum TransactionState {Begin, Created, Voted, Buying, ReadyForDownload, Arbitrating, Payed, Closed}\n\n    struct DataInfoPublished {\n        uint256 price;\n        bytes metaDataIdEncSeller;\n        bytes32[] proofDataIds;\n        uint256 numberOfProof;\n        string despDataId;\n        address seller;\n        bool supportVerify;\n        bool used;\n    } \n\n    struct TransactionItem {\n        TransactionState state;\n        address buyer;\n        address seller;\n        address[] verifiers;\n        string publishId;\n        bytes meteDataIdEncBuyer;\n        bytes metaDataIdEncSeller;\n        uint256 buyerDeposit;\n        bool used;\n    }\n\n    struct Verifier {\n        address addr;\n        uint256 deposit;\n        uint8 credits;  //credit: 0-5\n        uint256 creditTimes;\n        bool enable;\n    }\n    \n    uint8 validVerifierCount = 0;\n    uint8 verifierNum = 2;\n    uint256 verifierDepositToken = 10000;\n    uint8 creditLow = 0;\n    uint8 creditHigh = 5;\n    uint8 creditThreshold = 2;\n\n    struct VoteResult {\n        bool judge;\n        string comments;\n        bool used;\n    }\n\n    Verifier[] verifiers;\n    mapping (string => DataInfoPublished) mapPublishedData;\n    mapping (uint256 => TransactionItem) mapTransaction;\n    mapping (uint256 => mapping(address => VoteResult)) mapVote;\n\n    event RegisterVerifier(string seqNo, address[] users);\n    event DataPublish(string seqNo, string publishId, uint256 price, string despDataId, address[] users);\n    event TransactionCreate(string seqNo, uint256 transactionId, string publishId, bytes32[] proofIds, bool supportVerify, address[] users);\n    event VerifiersChosen(string seqNo, uint256 transactionId, bytes32[] proofIds, address[] users);\n    event Vote(string seqNo, uint256 transactionId, bool judge, string comments, address[] users);\n    event Buy(string seqNo, uint256 transactionId, string publishId, bytes metaDataIdEncSeller, address[] users);\n    event ReadyForDownload(string seqNo, uint256 transactionId, bytes metaDataIdEncBuyer, address[] users);\n    event TransactionClose(string seqNo, uint256 transactionId, address[] users);\n\n    uint256 transactionSeq = 0;\n    uint256 encryptedIdLen = 32;\n\n    address token_address = 0x0;\n    address owner         = 0x0;\n    ERC20   token;\n\n    constructor (address _token) public {\n        require(_token != 0x0);\n\n        owner = msg.sender;\n        token_address = _token;\n        token = ERC20(_token);\n\n        //the first element used for empty usage\n        verifiers[verifiers.length++] = Verifier(0x00, 0, 0, 0, false);\n    }\n\n    function registerAsVerifier(string seqNo) external {\n        Verifier storage v = getVerifier(msg.sender);\n        require( v.addr == 0x00, \"The verifier is already registered\");\n\n        //deposit\n        if (verifierDepositToken > 0) {\n            require(token.balanceOf(msg.sender) >= verifierDepositToken, \"No enough balance\");        \n            require(token.transferFrom(msg.sender, address(this), verifierDepositToken), \"Failed to transfer token from caller\");\n        }\n        \n        verifiers[verifiers.length++] = Verifier(msg.sender, verifierDepositToken, creditHigh, 0, true);\n        validVerifierCount++;        \n\n        address[] memory users = new address[](1);\n        users[0] = msg.sender;\n        emit RegisterVerifier(seqNo, users);\n    }\n\n    function publishDataInfo(string seqNo, string publishId, uint256 price, bytes metaDataIdEncSeller,\n                                     bytes32[] proofDataIds, string despDataId, bool supportVerify) external {\n        address[] memory users = new address[](1);\n        users[0] = address(0x00);\n\n        DataInfoPublished storage data = mapPublishedData[publishId];\n        require(!data.used, \"Duplicate publish id\");\n\n        mapPublishedData[publishId] = DataInfoPublished(price, metaDataIdEncSeller, proofDataIds, proofDataIds.length, despDataId, msg.sender, supportVerify, true);\n        \n        emit DataPublish(seqNo, publishId, price, despDataId, users);\n    }\n\n    function isPublishedDataExisted(string publishId) internal view returns (bool) {\n        DataInfoPublished storage data = mapPublishedData[publishId];\n        return data.used;\n    }\n\n    function createTransaction(string seqNo, string publishId) external {\n        //published data info\n        DataInfoPublished memory data = mapPublishedData[publishId];\n        require(data.used, \"Publish data does not exist\");\n        require((token.balanceOf(msg.sender)) >= data.price, \"No enough balance\");\n        require(token.transferFrom(msg.sender, address(this), data.price), \"Failed to transfer token from caller\");\n\n        //create transaction\n        uint txId = getTransactionId();\n        bytes memory metaDataIdEncBuyer = new bytes(encryptedIdLen);\n\n        address[] memory selectedVerifiers;\n        if (data.supportVerify) {\n            //choose verifiers randomly\n            selectedVerifiers = chooseVerifiers(verifierNum);\n            emit VerifiersChosen(seqNo, txId,data.proofDataIds, selectedVerifiers);\n        }\n\n        address[] memory users = new address[](1);\n        users[0] = msg.sender;\n        emit TransactionCreate(seqNo, txId, publishId, data.proofDataIds, data.supportVerify, users);\n\n        mapTransaction[txId] = TransactionItem(TransactionState.Created, msg.sender, data.seller, selectedVerifiers,\n                                                publishId, metaDataIdEncBuyer, data.metaDataIdEncSeller, data.price, true);\n    }\n\n    function chooseVerifiers(uint8 num) internal view returns (address[] memory) {\n        require(num < validVerifierCount, \"No enough valid verifiers\");\n        address[] memory chosenVerifiers = new address[](num);\n\n        for (uint8 i = 0; i < num; i++) {\n            uint index = getRandomNumber(verifiers.length) % verifiers.length;\n            Verifier storage v = verifiers[index];\n\n            //loop if invalid verifier was chosen until get valid verifier\n            address vb = v.addr;\n            while (!v.enable || verifierExist(v.addr, chosenVerifiers)) {\n                v = verifiers[(++index) % verifiers.length];\n                require(v.addr != vb, \"Disordered verifiers\");\n            }\n\n            chosenVerifiers[i] = v.addr;\n        }\n\n        return chosenVerifiers;\n    }\n\n    function verifierRegistered(Verifier v, address[] arrayVerifier) pure internal returns (bool) {\n        return (v.enable && verifierExist(v.addr, arrayVerifier));\n    }\n\n    function verifierExist(address v, address[] arrayVerifier) pure internal returns (bool) {\n        for (uint256 i = 0; i < arrayVerifier.length; i++) {\n            if (arrayVerifier[i] == v) {\n                return true;\n            }\n        }\n\n        return false;\n    }\n\n    function getTransactionId() internal returns(uint) {\n        return transactionSeq++;\n    }\n\n    function getRandomNumber(uint mod) internal view returns (uint) {\n        return uint(keccak256(now, msg.sender)) % mod;\n    }\n\n    function vote(string seqNo, uint txId, bool judge, string comments) external {\n        TransactionItem storage txItem = mapTransaction[txId];\n        require(txItem.used, \"Transaction does not exist\");\n\n        Verifier storage verifier = getVerifier(msg.sender);\n        require(verifierRegistered(verifier, txItem.verifiers), \"Invalid verifier\");\n\n        mapVote[txId][msg.sender] = VoteResult(judge, comments, true);\n\n        txItem.state = TransactionState.Voted;\n\n        address[] memory users;\n        users[0] = txItem.buyer;\n        emit Vote(seqNo, txId, judge, comments, users);\n    }\n\n    function buyData(string seqNo, uint256 txId) external {\n        //validate\n        TransactionItem storage txItem = mapTransaction[txId];\n        require(txItem.used, \"Transaction does not exist\");\n        require(txItem.buyer == msg.sender, \"Invalid buyer\");\n\n        DataInfoPublished memory data = mapPublishedData[txItem.publishId];\n        require(data.used, \"Publish data does not exist\");\n\n        if(!data.supportVerify) {\n            require(txItem.state == TransactionState.Created, \"Invalid transaction state\");\n        } else {\n            require(txItem.state == TransactionState.Voted, \"Invalid transaction state\");\n        }\n\n        txItem.state = TransactionState.Buying;\n\n        address[] memory users = new address[](1);\n        users[0] = txItem.seller;\n        emit Buy(seqNo, txId, txItem.publishId, txItem.metaDataIdEncSeller, users);\n    }\n\n    function submitMetaDataIdEncWithBuyer(string seqNo, uint256 txId, bytes encryptedMetaDataId) external {\n        //validate\n        TransactionItem storage txItem = mapTransaction[txId];\n        require(txItem.used, \"Transaction does not exist\");\n        require(txItem.seller == msg.sender, \"Invalid seller\");\n        require(txItem.state == TransactionState.Buying, \"Invalid transaction state\");\n\n        txItem.meteDataIdEncBuyer = encryptedMetaDataId;\n        txItem.state = TransactionState.ReadyForDownload;\n\n        //ReadyForDownload event\n        address[] memory users = new address[](1);\n        users[0] = txItem.buyer;\n        emit ReadyForDownload(seqNo, txId, txItem.metaDataIdEncSeller, users);\n    }\n\n    function confirmDataTruth(string seqNo, uint256 txId, bool truth) external {\n        \n\n        //validate\n        TransactionItem storage txItem = mapTransaction[txId];\n        require(txItem.used, \"Transaction does not exist\");\n        require(txItem.buyer == msg.sender, \"Invalid buyer\");\n\n        DataInfoPublished storage data = mapPublishedData[txItem.publishId];\n        require(data.used, \"Publish data does not exist\");\n\n        require(txItem.state == TransactionState.ReadyForDownload);\n        if (!data.supportVerify) {\n            if(truth) {\n                payToSeller(txItem, data);\n            }\n            \n            closeTransaction(txItem, seqNo, txId);\n        } else {\n            if (truth) {\n                payToSeller(txItem, data);\n                closeTransaction(txItem, seqNo, txId);\n            } else {\n                \n            }\n        }\n    }\n\n    function closeTransaction(TransactionItem storage txItem, string seqNo, uint256 txId) internal {\n        txItem.state = TransactionState.Closed;\n\n        address[] memory users = new address[](1);\n        users[0] = address(0x00);\n        emit TransactionClose(seqNo, txId, users);\n    }\n\n    function payToSeller(TransactionItem storage txItem, DataInfoPublished storage data) internal {\n        if (txItem.buyerDeposit >= data.price) {\n            txItem.buyerDeposit -= data.price;\n\n            if (!token.transfer(data.seller, data.price)) {\n                txItem.buyerDeposit += data.price;\n                require(false, \"Failed to pay to seller\");\n            }\n        } else {\n            require(false, \"Low deposit value\");\n        }\n    }\n\n    function setVerifierDepositToken(uint256 deposit) external {\n        require(owner == msg.sender, \"The value only can be set by owner\");\n        \n        verifierDepositToken = deposit;\n    }\n\n    function setVerifierNum(uint8 num) external {\n        require(owner == msg.sender, \"The value only can be set by owner\");\n        \n        verifierNum = num;\n    }\n\n    function creditsToVerifier(uint256 txId, address to, uint8 credit) external {\n        //validate\n        require(to != 0x00, \"Verifier address is zero\");\n        require(credit >= creditLow && credit <= creditHigh, \"Valid credit scope is 0 <= credit <= 5\");\n\n        TransactionItem storage txItem = mapTransaction[txId];\n        require(txItem.used, \"Transaction does not exist\");\n\n        Verifier storage verifier = getVerifier(to);\n        require(verifierRegistered(verifier, txItem.verifiers), \"Invalid verifier\");\n        \n        verifier.credits = (uint8)((verifier.credits * verifier.creditTimes + credit)/(++verifier.creditTimes));\n\n        //disable verifier and forfeiture deposit while credit <= creditThreshold\n        if (verifier.credits <= creditThreshold) {\n            verifier.enable = false;\n            verifier.deposit = 0;\n            validVerifierCount--;\n            require(validVerifierCount >= 1, \"Invalid verifier count\");\n        }\n    }\n\n    function getVerifier(address v) internal view returns (Verifier storage){\n        for (uint256 i = 0; i < verifiers.length; i++) {\n            if (verifiers[i].addr == v) {\n                return verifiers[i];\n            }\n        }\n\n        return verifiers[0];\n    }\n}",
  "sourcePath": "/home/waitgordor/project/iscap/demo/contracts/contracts/ScryProtocol.sol",
  "compiler": {
    "name": "solc",
    "version": "0.4.24+commit.e67f0147.Emscripten.clang"
  },
  "schemaVersion": "2.0.1",
  "updatedAt": "2019-01-26T09:48:17.100Z"
}