{
  "contractName": "ScryProtocol",
  "abi": [
    {
      "inputs": [
        {
          "name": "_token",
          "type": "address"
        }
      ],
      "payable": false,
      "stateMutability": "nonpayable",
      "type": "constructor"
    },
    {
      "anonymous": false,
      "inputs": [
        {
          "indexed": false,
          "name": "seqNo",
          "type": "string"
        },
        {
          "indexed": false,
          "name": "publishId",
          "type": "string"
        },
        {
          "indexed": false,
          "name": "price",
          "type": "uint256"
        },
        {
          "indexed": false,
          "name": "despDataId",
          "type": "string"
        },
        {
          "indexed": false,
          "name": "users",
          "type": "address[]"
        }
      ],
      "name": "DataPublish",
      "type": "event"
    },
    {
      "anonymous": false,
      "inputs": [
        {
          "indexed": false,
          "name": "seqNo",
          "type": "string"
        },
        {
          "indexed": false,
          "name": "transactionId",
          "type": "uint256"
        },
        {
          "indexed": false,
          "name": "publishId",
          "type": "string"
        },
        {
          "indexed": false,
          "name": "chosenProofIds",
          "type": "bytes32"
        },
        {
          "indexed": false,
          "name": "supportVerify",
          "type": "bool"
        },
        {
          "indexed": false,
          "name": "users",
          "type": "address[]"
        }
      ],
      "name": "TransactionCreate",
      "type": "event"
    },
    {
      "anonymous": false,
      "inputs": [
        {
          "indexed": false,
          "name": "seqNo",
          "type": "string"
        },
        {
          "indexed": false,
          "name": "transactionId",
          "type": "uint256"
        },
        {
          "indexed": false,
          "name": "publishId",
          "type": "string"
        },
        {
          "indexed": false,
          "name": "metaDataIdEncSeller",
          "type": "bytes"
        },
        {
          "indexed": false,
          "name": "users",
          "type": "address[]"
        }
      ],
      "name": "Buy",
      "type": "event"
    },
    {
      "anonymous": false,
      "inputs": [
        {
          "indexed": false,
          "name": "seqNo",
          "type": "string"
        },
        {
          "indexed": false,
          "name": "transactionId",
          "type": "uint256"
        },
        {
          "indexed": false,
          "name": "metaDataIdEncBuyer",
          "type": "bytes"
        },
        {
          "indexed": false,
          "name": "users",
          "type": "address[]"
        }
      ],
      "name": "ReadyForDownload",
      "type": "event"
    },
    {
      "anonymous": false,
      "inputs": [
        {
          "indexed": false,
          "name": "seqNo",
          "type": "string"
        },
        {
          "indexed": false,
          "name": "transactionId",
          "type": "uint256"
        },
        {
          "indexed": false,
          "name": "users",
          "type": "address[]"
        }
      ],
      "name": "TransactionClose",
      "type": "event"
    },
    {
      "constant": false,
      "inputs": [
        {
          "name": "seqNo",
          "type": "string"
        },
        {
          "name": "publishId",
          "type": "string"
        },
        {
          "name": "price",
          "type": "uint256"
        },
        {
          "name": "metaDataIdEncSeller",
          "type": "bytes"
        },
        {
          "name": "proofDataIds",
          "type": "bytes32[]"
        },
        {
          "name": "despDataId",
          "type": "string"
        },
        {
          "name": "supportVerify",
          "type": "bool"
        }
      ],
      "name": "publishDataInfo",
      "outputs": [],
      "payable": false,
      "stateMutability": "nonpayable",
      "type": "function"
    },
    {
      "constant": false,
      "inputs": [
        {
          "name": "seqNo",
          "type": "string"
        },
        {
          "name": "publishId",
          "type": "string"
        }
      ],
      "name": "createTransaction",
      "outputs": [],
      "payable": false,
      "stateMutability": "nonpayable",
      "type": "function"
    },
    {
      "constant": false,
      "inputs": [
        {
          "name": "seqNo",
          "type": "string"
        },
        {
          "name": "txId",
          "type": "uint256"
        }
      ],
      "name": "buyData",
      "outputs": [],
      "payable": false,
      "stateMutability": "nonpayable",
      "type": "function"
    },
    {
      "constant": false,
      "inputs": [
        {
          "name": "seqNo",
          "type": "string"
        },
        {
          "name": "txId",
          "type": "uint256"
        },
        {
          "name": "encryptedMetaDataId",
          "type": "bytes"
        }
      ],
      "name": "submitMetaDataIdEncWithBuyer",
      "outputs": [],
      "payable": false,
      "stateMutability": "nonpayable",
      "type": "function"
    },
    {
      "constant": false,
      "inputs": [
        {
          "name": "seqNo",
          "type": "string"
        },
        {
          "name": "txId",
          "type": "uint256"
        },
        {
          "name": "truth",
          "type": "bool"
        }
      ],
      "name": "confirmDataTruth",
      "outputs": [],
      "payable": false,
      "stateMutability": "nonpayable",
      "type": "function"
    }
  ],
  "bytecode": "0x6080604052600060025560206003556000600460006101000a81548173ffffffffffffffffffffffffffffffffffffffff021916908373ffffffffffffffffffffffffffffffffffffffff1602179055506000600560006101000a81548173ffffffffffffffffffffffffffffffffffffffff021916908373ffffffffffffffffffffffffffffffffffffffff16021790555034801561009e57600080fd5b50604051602080612c4b8339810180604052810190808051906020019092919050505060008173ffffffffffffffffffffffffffffffffffffffff16141515156100e757600080fd5b33600560006101000a81548173ffffffffffffffffffffffffffffffffffffffff021916908373ffffffffffffffffffffffffffffffffffffffff16021790555080600460006101000a81548173ffffffffffffffffffffffffffffffffffffffff021916908373ffffffffffffffffffffffffffffffffffffffff16021790555080600660006101000a81548173ffffffffffffffffffffffffffffffffffffffff021916908373ffffffffffffffffffffffffffffffffffffffff16021790555050612a91806101ba6000396000f30060806040526004361061006d576000357c0100000000000000000000000000000000000000000000000000000000900463ffffffff168063377caed1146100725780638ba737ee146101235780639a756a9914610180578063dd16673b146101c5578063fecc18b414610216575b600080fd5b34801561007e57600080fd5b5061012160048036038101908080359060200190820180359060200191909192939192939080359060200190820180359060200191909192939192939080359060200190929190803590602001908201803590602001919091929391929390803590602001908201803590602001919091929391929390803590602001908201803590602001919091929391929390803515159060200190929190505050610269565b005b34801561012f57600080fd5b5061017e600480360381019080803590602001908201803590602001919091929391929390803590602001909291908035906020019082018035906020019190919293919293905050506108dd565b005b34801561018c57600080fd5b506101c360048036038101908080359060200190820180359060200191909192939192939080359060200190929190505050610cf7565b005b3480156101d157600080fd5b50610214600480360381019080803590602001908201803590602001919091929391929390803590602001909291908035151590602001909291905050506114b5565b005b34801561022257600080fd5b50610267600480360381019080803590602001908201803590602001919091929391929390803590602001908201803590602001919091929391929390505050611d21565b005b60606102736127e8565b60016040519080825280602002602001820160405280156102a35781602001602082028038833980820191505090505b50915060008260008151811015156102b757fe5b9060200190602002019073ffffffffffffffffffffffffffffffffffffffff16908173ffffffffffffffffffffffffffffffffffffffff168152505060008c8c604051808383808284378201915050925050509081526020016040518091039020610100604051908101604052908160008201548152602001600182018054600181600116156101000203166002900480601f0160208091040260200160405190810160405280929190818152602001828054600181600116156101000203166002900480156103c85780601f1061039d576101008083540402835291602001916103c8565b820191906000526020600020905b8154815290600101906020018083116103ab57829003601f168201915b505050505081526020016002820180548060200260200160405190810160405280929190818152602001828054801561042457602002820191906000526020600020905b8154600019168152602001906001019080831161040c575b5050505050815260200160038201548152602001600482018054600181600116156101000203166002900480601f0160208091040260200160405190810160405280929190818152602001828054600181600116156101000203166002900480156104d05780601f106104a5576101008083540402835291602001916104d0565b820191906000526020600020905b8154815290600101906020018083116104b357829003601f168201915b505050505081526020016005820160009054906101000a900473ffffffffffffffffffffffffffffffffffffffff1673ffffffffffffffffffffffffffffffffffffffff1673ffffffffffffffffffffffffffffffffffffffff1681526020016005820160149054906101000a900460ff161515151581526020016005820160159054906101000a900460ff16151515158152505090508060e001511515156105e1576040517f08c379a00000000000000000000000000000000000000000000000000000000081526004018080602001828103825260148152602001807f4475706c6963617465207075626c69736820696400000000000000000000000081525060200191505060405180910390fd5b610100604051908101604052808b81526020018a8a8080601f0160208091040260200160405190810160405280939291908181526020018383808284378201915050505050508152602001888880806020026020016040519081016040528093929190818152602001838360200280828437820191505050505050815260200188889050815260200186868080601f01602080910402602001604051908101604052809392919081815260200183838082843782019150505050505081526020013373ffffffffffffffffffffffffffffffffffffffff16815260200184151581526020016001151581525060008d8d604051808383808284378201915050925050509081526020016040518091039020600082015181600001556020820151816001019080519060200190610718929190612848565b5060408201518160020190805190602001906107359291906128c8565b5060608201518160030155608082015181600401908051906020019061075c92919061291b565b5060a08201518160050160006101000a81548173ffffffffffffffffffffffffffffffffffffffff021916908373ffffffffffffffffffffffffffffffffffffffff16021790555060c08201518160050160146101000a81548160ff02191690831515021790555060e08201518160050160156101000a81548160ff0219169083151502179055509050507f9d1b954932f5249f38959200c17d585ac2b4897b77acb4c29a8fb4d8473f0e8c8e8e8e8e8e8a8a89604051808060200180602001878152602001806020018060200185810385528d8d82818152602001925080828437820191505085810384528b8b82818152602001925080828437820191505085810383528888828181526020019250808284378201915050858103825286818151815260200191508051906020019060200280838360005b838110156108b0578082015181840152602081019050610895565b505050509050019c5050505050505050505050505060405180910390a15050505050505050505050505050565b600060606001600086815260200190815260200160002091508160060160009054906101000a900460ff16151561097c576040517f08c379a000000000000000000000000000000000000000000000000000000000815260040180806020018281038252601a8152602001807f5472616e73616374696f6e20646f6573206e6f7420657869737400000000000081525060200191505060405180910390fd5b3373ffffffffffffffffffffffffffffffffffffffff168260010160009054906101000a900473ffffffffffffffffffffffffffffffffffffffff1673ffffffffffffffffffffffffffffffffffffffff16141515610a43576040517f08c379a000000000000000000000000000000000000000000000000000000000815260040180806020018281038252600e8152602001807f496e76616c69642073656c6c657200000000000000000000000000000000000081525060200191505060405180910390fd5b60036007811115610a5057fe5b8260000160009054906101000a900460ff166007811115610a6d57fe5b141515610ae2576040517f08c379a00000000000000000000000000000000000000000000000000000000081526004018080602001828103825260198152602001807f496e76616c6964207472616e73616374696f6e2073746174650000000000000081525060200191505060405180910390fd5b8383836003019190610af592919061299b565b5060048260000160006101000a81548160ff02191690836007811115610b1757fe5b02179055506001604051908082528060200260200182016040528015610b4c5781602001602082028038833980820191505090505b5090508160000160019054906101000a900473ffffffffffffffffffffffffffffffffffffffff16816000815181101515610b8357fe5b9060200190602002019073ffffffffffffffffffffffffffffffffffffffff16908173ffffffffffffffffffffffffffffffffffffffff16815250507f28eb60ba9df25f12ccee668d0a745b5e455365b717f0867aa76edcffe7430cf587878785600401856040518080602001858152602001806020018060200184810384528989828181526020019250808284378201915050848103835286818154600181600116156101000203166002900481526020019150805460018160011615610100020316600290048015610c985780601f10610c6d57610100808354040283529160200191610c98565b820191906000526020600020905b815481529060010190602001808311610c7b57829003601f168201915b5050848103825285818151815260200191508051906020019060200280838360005b83811015610cd5578082015181840152602081019050610cba565b505050509050019850505050505050505060405180910390a150505050505050565b60606000610d036127e8565b6001600085815260200190815260200160002091508160060160009054906101000a900460ff161515610d9e576040517f08c379a000000000000000000000000000000000000000000000000000000000815260040180806020018281038252601a8152602001807f5472616e73616374696f6e20646f6573206e6f7420657869737400000000000081525060200191505060405180910390fd5b3373ffffffffffffffffffffffffffffffffffffffff168260000160019054906101000a900473ffffffffffffffffffffffffffffffffffffffff1673ffffffffffffffffffffffffffffffffffffffff16141515610e65576040517f08c379a000000000000000000000000000000000000000000000000000000000815260040180806020018281038252600d8152602001807f496e76616c69642062757965720000000000000000000000000000000000000081525060200191505060405180910390fd5b6000826002016040518082805460018160011615610100020316600290048015610ec65780601f10610ea4576101008083540402835291820191610ec6565b820191906000526020600020905b815481529060010190602001808311610eb2575b50509150509081526020016040518091039020610100604051908101604052908160008201548152602001600182018054600181600116156101000203166002900480601f016020809104026020016040519081016040528092919081815260200182805460018160011615610100020316600290048015610f895780601f10610f5e57610100808354040283529160200191610f89565b820191906000526020600020905b815481529060010190602001808311610f6c57829003601f168201915b5050505050815260200160028201805480602002602001604051908101604052809291908181526020018280548015610fe557602002820191906000526020600020905b81546000191681526020019060010190808311610fcd575b5050505050815260200160038201548152602001600482018054600181600116156101000203166002900480601f0160208091040260200160405190810160405280929190818152602001828054600181600116156101000203166002900480156110915780601f1061106657610100808354040283529160200191611091565b820191906000526020600020905b81548152906001019060200180831161107457829003601f168201915b505050505081526020016005820160009054906101000a900473ffffffffffffffffffffffffffffffffffffffff1673ffffffffffffffffffffffffffffffffffffffff1673ffffffffffffffffffffffffffffffffffffffff1681526020016005820160149054906101000a900460ff161515151581526020016005820160159054906101000a900460ff16151515158152505090508060e0015115156111a1576040517f08c379a000000000000000000000000000000000000000000000000000000000815260040180806020018281038252601b8152602001807f5075626c697368206461746120646f6573206e6f74206578697374000000000081525060200191505060405180910390fd5b8060c0015115156112cb57600160078111156111b957fe5b8260000160009054906101000a900460ff1660078111156111d657fe5b14151561124b576040517f08c379a00000000000000000000000000000000000000000000000000000000081526004018080602001828103825260198152602001807f496e76616c6964207472616e73616374696f6e2073746174650000000000000081525060200191505060405180910390fd5b600160405190808252806020026020018201604052801561127b5781602001602082028038833980820191505090505b5092503383600081518110151561128e57fe5b9060200190602002019073ffffffffffffffffffffffffffffffffffffffff16908173ffffffffffffffffffffffffffffffffffffffff16815250505b60038260000160006101000a81548160ff021916908360078111156112ec57fe5b02179055507feeaf28668d6d8a951d1c5b873c5e94068abdea0145811cbeaece6c309118f3e3868686856002018660040188604051808060200186815260200180602001806020018060200185810385528b8b8281815260200192508082843782019150508581038452888181546001816001161561010002031660029004815260200191508054600181600116156101000203166002900480156113d25780601f106113a7576101008083540402835291602001916113d2565b820191906000526020600020905b8154815290600101906020018083116113b557829003601f168201915b50508581038352878181546001816001161561010002031660029004815260200191508054600181600116156101000203166002900480156114555780601f1061142a57610100808354040283529160200191611455565b820191906000526020600020905b81548152906001019060200180831161143857829003601f168201915b5050858103825286818151815260200191508051906020019060200280838360005b83811015611492578082015181840152602081019050611477565b505050509050019a505050505050505050505060405180910390a1505050505050565b606060006114c16127e8565b60016040519080825280602002602001820160405280156114f15781602001602082028038833980820191505090505b5092506001600086815260200190815260200160002091508160060160009054906101000a900460ff16151561158f576040517f08c379a000000000000000000000000000000000000000000000000000000000815260040180806020018281038252601a8152602001807f5472616e73616374696f6e20646f6573206e6f7420657869737400000000000081525060200191505060405180910390fd5b3373ffffffffffffffffffffffffffffffffffffffff168260000160019054906101000a900473ffffffffffffffffffffffffffffffffffffffff1673ffffffffffffffffffffffffffffffffffffffff16141515611656576040517f08c379a000000000000000000000000000000000000000000000000000000000815260040180806020018281038252600d8152602001807f496e76616c69642062757965720000000000000000000000000000000000000081525060200191505060405180910390fd5b60008260020160405180828054600181600116156101000203166002900480156116b75780601f106116955761010080835404028352918201916116b7565b820191906000526020600020905b8154815290600101906020018083116116a3575b50509150509081526020016040518091039020610100604051908101604052908160008201548152602001600182018054600181600116156101000203166002900480601f01602080910402602001604051908101604052809291908181526020018280546001816001161561010002031660029004801561177a5780601f1061174f5761010080835404028352916020019161177a565b820191906000526020600020905b81548152906001019060200180831161175d57829003601f168201915b50505050508152602001600282018054806020026020016040519081016040528092919081815260200182805480156117d657602002820191906000526020600020905b815460001916815260200190600101908083116117be575b5050505050815260200160038201548152602001600482018054600181600116156101000203166002900480601f0160208091040260200160405190810160405280929190818152602001828054600181600116156101000203166002900480156118825780601f1061185757610100808354040283529160200191611882565b820191906000526020600020905b81548152906001019060200180831161186557829003601f168201915b505050505081526020016005820160009054906101000a900473ffffffffffffffffffffffffffffffffffffffff1673ffffffffffffffffffffffffffffffffffffffff1673ffffffffffffffffffffffffffffffffffffffff1681526020016005820160149054906101000a900460ff161515151581526020016005820160159054906101000a900460ff16151515158152505090508060e001511515611992576040517f08c379a000000000000000000000000000000000000000000000000000000000815260040180806020018281038252601b8152602001807f5075626c697368206461746120646f6573206e6f74206578697374000000000081525060200191505060405180910390fd5b8060c001511515611d1857600460078111156119aa57fe5b8260000160009054906101000a900460ff1660078111156119c757fe5b1415156119d357600080fd5b8315611c025780600001518260050154101515611b8a5780600001518260050160008282540392505081905550600660009054906101000a900473ffffffffffffffffffffffffffffffffffffffff1673ffffffffffffffffffffffffffffffffffffffff1663a9059cbb8260a0015183600001516040518363ffffffff167c0100000000000000000000000000000000000000000000000000000000028152600401808373ffffffffffffffffffffffffffffffffffffffff1673ffffffffffffffffffffffffffffffffffffffff16815260200182815260200192505050602060405180830381600087803b158015611acd57600080fd5b505af1158015611ae1573d6000803e3d6000fd5b505050506040513d6020811015611af757600080fd5b81019080805190602001909291905050501515611b855760001515611b84576040517f08c379a00000000000000000000000000000000000000000000000000000000081526004018080602001828103825260178152602001807f4661696c656420746f2070617920746f2073656c6c657200000000000000000081525060200191505060405180910390fd5b5b611c01565b60001515611c00576040517f08c379a00000000000000000000000000000000000000000000000000000000081526004018080602001828103825260118152602001807f4c6f77206465706f7369742076616c756500000000000000000000000000000081525060200191505060405180910390fd5b5b5b60078260000160006101000a81548160ff02191690836007811115611c2357fe5b02179055506000836000815181101515611c3957fe5b9060200190602002019073ffffffffffffffffffffffffffffffffffffffff16908173ffffffffffffffffffffffffffffffffffffffff16815250507f784a9feb5a6ecee5d955d1b5e294f2b57d9477164fba686c0bde4a40849f2b0c8787878660405180806020018481526020018060200183810383528787828181526020019250808284378201915050838103825284818151815260200191508051906020019060200280838360005b83811015611d00578082015181840152602081019050611ce5565b50505050905001965050505050505060405180910390a15b50505050505050565b6060611d2b6127e8565b600060606000806001604051908082528060200260200182016040528015611d625781602001602082028038833980820191505090505b50955033866000815181101515611d7557fe5b9060200190602002019073ffffffffffffffffffffffffffffffffffffffff16908173ffffffffffffffffffffffffffffffffffffffff168152505060008888604051808383808284378201915050925050509081526020016040518091039020610100604051908101604052908160008201548152602001600182018054600181600116156101000203166002900480601f016020809104026020016040519081016040528092919081815260200182805460018160011615610100020316600290048015611e865780601f10611e5b57610100808354040283529160200191611e86565b820191906000526020600020905b815481529060010190602001808311611e6957829003601f168201915b5050505050815260200160028201805480602002602001604051908101604052809291908181526020018280548015611ee257602002820191906000526020600020905b81546000191681526020019060010190808311611eca575b5050505050815260200160038201548152602001600482018054600181600116156101000203166002900480601f016020809104026020016040519081016040528092919081815260200182805460018160011615610100020316600290048015611f8e5780601f10611f6357610100808354040283529160200191611f8e565b820191906000526020600020905b815481529060010190602001808311611f7157829003601f168201915b505050505081526020016005820160009054906101000a900473ffffffffffffffffffffffffffffffffffffffff1673ffffffffffffffffffffffffffffffffffffffff1673ffffffffffffffffffffffffffffffffffffffff1681526020016005820160149054906101000a900460ff161515151581526020016005820160159054906101000a900460ff16151515158152505094508460e00151151561209e576040517f08c379a000000000000000000000000000000000000000000000000000000000815260040180806020018281038252601b8152602001807f5075626c697368206461746120646f6573206e6f74206578697374000000000081525060200191505060405180910390fd5b8460000151600660009054906101000a900473ffffffffffffffffffffffffffffffffffffffff1673ffffffffffffffffffffffffffffffffffffffff166370a08231336040518263ffffffff167c0100000000000000000000000000000000000000000000000000000000028152600401808273ffffffffffffffffffffffffffffffffffffffff1673ffffffffffffffffffffffffffffffffffffffff168152602001915050602060405180830381600087803b15801561216057600080fd5b505af1158015612174573d6000803e3d6000fd5b505050506040513d602081101561218a57600080fd5b810190808051906020019092919050505010151515612211576040517f08c379a00000000000000000000000000000000000000000000000000000000081526004018080602001828103825260118152602001807f4e6f20656e6f7567682062616c616e636500000000000000000000000000000081525060200191505060405180910390fd5b600660009054906101000a900473ffffffffffffffffffffffffffffffffffffffff1673ffffffffffffffffffffffffffffffffffffffff166323b872dd333088600001516040518463ffffffff167c0100000000000000000000000000000000000000000000000000000000028152600401808473ffffffffffffffffffffffffffffffffffffffff1673ffffffffffffffffffffffffffffffffffffffff1681526020018373ffffffffffffffffffffffffffffffffffffffff1673ffffffffffffffffffffffffffffffffffffffff1681526020018281526020019350505050602060405180830381600087803b15801561230e57600080fd5b505af1158015612322573d6000803e3d6000fd5b505050506040513d602081101561233857600080fd5b810190808051906020019092919050505015156123e3576040517f08c379a00000000000000000000000000000000000000000000000000000000081526004018080602001828103825260248152602001807f4661696c656420746f207472616e7366657220746f6b656e2066726f6d20636181526020017f6c6c65720000000000000000000000000000000000000000000000000000000081525060400191505060405180910390fd5b6123eb61275f565b93506003546040519080825280601f01601f1916602001820160405280156124225781602001602082028038833980820191505090505b509250610100604051908101604052806001600781111561243f57fe5b81526020013373ffffffffffffffffffffffffffffffffffffffff1681526020018660a0015173ffffffffffffffffffffffffffffffffffffffff16815260200189898080601f01602080910402602001604051908101604052809392919081815260200183838082843782019150505050505081526020018481526020018660200151815260200186600001518152602001600115158152506001600086815260200190815260200160002060008201518160000160006101000a81548160ff0219169083600781111561251057fe5b021790555060208201518160000160016101000a81548173ffffffffffffffffffffffffffffffffffffffff021916908373ffffffffffffffffffffffffffffffffffffffff16021790555060408201518160010160006101000a81548173ffffffffffffffffffffffffffffffffffffffff021916908373ffffffffffffffffffffffffffffffffffffffff16021790555060608201518160020190805190602001906125bf92919061291b565b5060808201518160030190805190602001906125dc929190612848565b5060a08201518160040190805190602001906125f9929190612848565b5060c0820151816005015560e08201518160060160006101000a81548160ff0219169083151502179055509050508460c0015115156127535784606001516126448660600151612777565b81151561264d57fe5b06915084604001518281518110151561266257fe5b9060200190602002015190507f626f6f0cbcf39ba22ef1c481bf5743596d102baea8fed58505e1255496d5b0a08a8a868b8b868b60c001518d6040518080602001888152602001806020018660001916600019168152602001851515151581526020018060200184810384528c8c82818152602001925080828437820191505084810383528989828181526020019250808284378201915050848103825285818151815260200191508051906020019060200280838360005b8381101561273657808201518184015260208101905061271b565b505050509050019b50505050505050505050505060405180910390a15b50505050505050505050565b60006002600081548092919060010191905055905090565b6000814233604051808381526020018273ffffffffffffffffffffffffffffffffffffffff1673ffffffffffffffffffffffffffffffffffffffff166c01000000000000000000000000028152601401925050506040518091039020600190048115156127e057fe5b069050919050565b610100604051908101604052806000815260200160608152602001606081526020016000815260200160608152602001600073ffffffffffffffffffffffffffffffffffffffff1681526020016000151581526020016000151581525090565b828054600181600116156101000203166002900490600052602060002090601f016020900481019282601f1061288957805160ff19168380011785556128b7565b828001600101855582156128b7579182015b828111156128b657825182559160200191906001019061289b565b5b5090506128c49190612a1b565b5090565b82805482825590600052602060002090810192821561290a579160200282015b828111156129095782518290600019169055916020019190600101906128e8565b5b5090506129179190612a40565b5090565b828054600181600116156101000203166002900490600052602060002090601f016020900481019282601f1061295c57805160ff191683800117855561298a565b8280016001018555821561298a579182015b8281111561298957825182559160200191906001019061296e565b5b5090506129979190612a1b565b5090565b828054600181600116156101000203166002900490600052602060002090601f016020900481019282601f106129dc57803560ff1916838001178555612a0a565b82800160010185558215612a0a579182015b82811115612a095782358255916020019190600101906129ee565b5b509050612a179190612a1b565b5090565b612a3d91905b80821115612a39576000816000905550600101612a21565b5090565b90565b612a6291905b80821115612a5e576000816000905550600101612a46565b5090565b905600a165627a7a723058208277dac277c65de27daa9c171da74eb56557a6f0f8e15dce260c75ca7ff3f3d10029",
  "source": "pragma solidity ^0.4.24;\n\nimport \"./ScryToken.sol\";\n\ncontract ScryProtocol {\n    enum TransactionState {Begin, Created, Voted, Buying, ReadyForDownload, Arbitrating, Payed, Closed}\n    enum ErrorCode {\n        OK,\n        DuplicatePublishId,\n        InvalidParameter,\n        DataNotExist,\n        NoEnoughBalance,\n        FailedTransferFromCaller,\n        TransactionNotExist,\n        InvalidSender,\n        FailedTransferToSeller,\n        InvalidState\n    }\n\n    struct DataInfoPublished {\n        uint256 price;\n        bytes metaDataIdEncSeller;\n        bytes32[] proofDataIds;\n        uint256 numberOfProof;\n        string despDataId;\n        address seller;\n        bool supportVerify;\n        bool used;\n    } \n\n    struct TransactionItem {\n        TransactionState state;\n        address buyer;\n        address seller;\n        string publishId;\n        bytes meteDataIdEncBuyer;\n        bytes metaDataIdEncSeller;\n        uint256 buyerDeposit;\n        bool used;\n    }\n\n    mapping (string => DataInfoPublished) mapPublishedData;\n    mapping (uint => TransactionItem) mapTransaction;\n\n    event DataPublish(string seqNo, string publishId, uint256 price, string despDataId, address[] users);\n    event TransactionCreate(string seqNo, uint256 transactionId, string publishId, bytes32 chosenProofIds, bool supportVerify, address[] users);\n    event Buy(string seqNo, uint256 transactionId, string publishId, bytes metaDataIdEncSeller, address[] users);\n    event ReadyForDownload(string seqNo, uint256 transactionId, bytes metaDataIdEncBuyer, address[] users);\n    event TransactionClose(string seqNo, uint256 transactionId, address[] users);\n\n    uint256 transactionSeq = 0;\n    uint256 encryptedIdLen = 32;\n\n    address token_address = 0x0;\n    address owner         = 0x0;\n    ERC20   token;\n\n    constructor (address _token) public {\n        require(_token != 0x0);\n\n        owner = msg.sender;\n        token_address = _token;\n        token = ERC20(_token);\n    }\n\n\n    function publishDataInfo(string seqNo, string publishId, uint256 price, bytes metaDataIdEncSeller,\n                                     bytes32[] proofDataIds, string despDataId, bool supportVerify) external {\n        address[] memory users = new address[](1);\n        users[0] = address(0x00);\n\n        DataInfoPublished memory data = mapPublishedData[publishId];\n        require(!data.used, \"Duplicate publish id\");\n\n        mapPublishedData[publishId] = DataInfoPublished(price, metaDataIdEncSeller, proofDataIds, proofDataIds.length, despDataId, msg.sender, supportVerify, true);\n        \n        emit DataPublish(seqNo, publishId, price, despDataId, users);\n    }\n\n    function isPublishedDataExisted(string publishId) internal view returns (bool) {\n        DataInfoPublished storage data = mapPublishedData[publishId];\n        return data.used;\n    }\n\n    function createTransaction(string seqNo, string publishId) external {\n        address[] memory users = new address[](1);\n        users[0] = msg.sender;\n\n        //published data info\n        DataInfoPublished memory data = mapPublishedData[publishId];\n        require(data.used, \"Publish data does not exist\");\n        require((token.balanceOf(msg.sender)) >= data.price, \"No enough balance\");\n        require(token.transferFrom(msg.sender, address(this), data.price), \"Failed to transfer token from caller\");\n\n        //create transaction\n        uint txId = getTransactionId();\n        bytes memory metaDataIdEncBuyer = new bytes(encryptedIdLen);\n        mapTransaction[txId] = TransactionItem(TransactionState.Created, msg.sender, data.seller, \n                                                publishId, metaDataIdEncBuyer, data.metaDataIdEncSeller, data.price, true);\n\n        if (!data.supportVerify) {\n            //choose proof data randomly for buyer\n            uint index = getRandomNumber(data.numberOfProof) % data.numberOfProof;\n            bytes32 proofId = data.proofDataIds[index];\n\n            //TransactionCreat event\n            emit TransactionCreate(seqNo, txId, publishId, proofId, data.supportVerify, users);\n        }\n    }\n\n    function getTransactionId() internal returns(uint) {\n        return transactionSeq++;\n    }\n\n    function getRandomNumber(uint mod) internal view returns (uint) {\n        return uint(keccak256(now, msg.sender)) % mod;\n    }\n\n    function buyData(string seqNo, uint256 txId) external {\n        address[] memory users;\n\n        //validate\n        TransactionItem storage txItem = mapTransaction[txId];\n        require(txItem.used, \"Transaction does not exist\");\n        require(txItem.buyer == msg.sender, \"Invalid buyer\");\n\n        DataInfoPublished memory data = mapPublishedData[txItem.publishId];\n        require(data.used, \"Publish data does not exist\");\n\n        if(!data.supportVerify) {\n            require(txItem.state == TransactionState.Created, \"Invalid transaction state\");\n            users = new address[](1);\n            users[0] = msg.sender;\n        }\n\n        txItem.state = TransactionState.Buying;\n\n        emit Buy(seqNo, txId, txItem.publishId, txItem.metaDataIdEncSeller, users);\n    }\n\n    function submitMetaDataIdEncWithBuyer(string seqNo, uint256 txId, bytes encryptedMetaDataId) external {\n        //validate\n        TransactionItem storage txItem = mapTransaction[txId];\n        require(txItem.used, \"Transaction does not exist\");\n        require(txItem.seller == msg.sender, \"Invalid seller\");\n        require(txItem.state == TransactionState.Buying, \"Invalid transaction state\");\n\n        txItem.meteDataIdEncBuyer = encryptedMetaDataId;\n        txItem.state = TransactionState.ReadyForDownload;\n\n        //ReadyForDownload event\n        address[] memory users = new address[](1);\n        users[0] = txItem.buyer;\n        emit ReadyForDownload(seqNo, txId, txItem.metaDataIdEncSeller, users);\n    }\n\n    function confirmDataTruth(string seqNo, uint256 txId, bool truth) external {\n        address[] memory users = new address[](1);\n\n        //validate\n        TransactionItem storage txItem = mapTransaction[txId];\n        require(txItem.used, \"Transaction does not exist\");\n        require(txItem.buyer == msg.sender, \"Invalid buyer\");\n\n        DataInfoPublished memory data = mapPublishedData[txItem.publishId];\n        require(data.used, \"Publish data does not exist\");\n\n        if (!data.supportVerify) {\n            require(txItem.state == TransactionState.ReadyForDownload);\n\n            if(truth) {\n                //pay to seller from contract\n                if (txItem.buyerDeposit >= data.price) {\n                    txItem.buyerDeposit -= data.price;\n                    \n                    if (!token.transfer(data.seller, data.price)) {\n                        require(false, \"Failed to pay to seller\");\n                    }\n                } else {\n                    require(false, \"Low deposit value\");\n                }\n            }\n            \n            txItem.state = TransactionState.Closed;\n\n            //TransactionClose event\n            users[0] = address(0x00);\n            emit TransactionClose(seqNo, txId, users);\n        }\n    }\n}",
  "sourcePath": "/home/waitgordor/project/iscap/demo/contracts/contracts/ScryProtocol.sol",
  "compiler": {
    "name": "solc",
    "version": "0.4.24+commit.e67f0147.Emscripten.clang"
  },
  "schemaVersion": "2.0.1",
  "updatedAt": "2019-01-21T08:31:49.260Z"
}