{
  "contractName": "ScryProtocol",
  "abi": [
    {
      "inputs": [
        {
          "name": "_token",
          "type": "address"
        }
      ],
      "payable": false,
      "stateMutability": "nonpayable",
      "type": "constructor"
    },
    {
      "anonymous": false,
      "inputs": [
        {
          "indexed": false,
          "name": "publishId",
          "type": "string"
        },
        {
          "indexed": false,
          "name": "price",
          "type": "uint256"
        },
        {
          "indexed": false,
          "name": "despDataId",
          "type": "string"
        },
        {
          "indexed": false,
          "name": "boardcast",
          "type": "bool"
        },
        {
          "indexed": false,
          "name": "users",
          "type": "address[]"
        }
      ],
      "name": "Publish",
      "type": "event"
    },
    {
      "anonymous": false,
      "inputs": [
        {
          "indexed": false,
          "name": "transactionId",
          "type": "uint256"
        },
        {
          "indexed": false,
          "name": "publishId",
          "type": "string"
        },
        {
          "indexed": false,
          "name": "chosenProofIds",
          "type": "bytes32"
        },
        {
          "indexed": false,
          "name": "supportVerify",
          "type": "bool"
        },
        {
          "indexed": false,
          "name": "boardcast",
          "type": "bool"
        },
        {
          "indexed": false,
          "name": "users",
          "type": "address[]"
        }
      ],
      "name": "TransactionCreate",
      "type": "event"
    },
    {
      "anonymous": false,
      "inputs": [
        {
          "indexed": false,
          "name": "transactionId",
          "type": "uint256"
        },
        {
          "indexed": false,
          "name": "publishId",
          "type": "string"
        },
        {
          "indexed": false,
          "name": "metaDataIdEncSeller",
          "type": "bytes"
        },
        {
          "indexed": false,
          "name": "boardcast",
          "type": "bool"
        },
        {
          "indexed": false,
          "name": "users",
          "type": "address[]"
        }
      ],
      "name": "Purchase",
      "type": "event"
    },
    {
      "anonymous": false,
      "inputs": [
        {
          "indexed": false,
          "name": "transactionId",
          "type": "uint256"
        },
        {
          "indexed": false,
          "name": "metaDataIdEncBuyer",
          "type": "bytes"
        },
        {
          "indexed": false,
          "name": "boardcast",
          "type": "bool"
        },
        {
          "indexed": false,
          "name": "users",
          "type": "address[]"
        }
      ],
      "name": "ReadyForDownload",
      "type": "event"
    },
    {
      "anonymous": false,
      "inputs": [
        {
          "indexed": false,
          "name": "transactionId",
          "type": "uint256"
        },
        {
          "indexed": false,
          "name": "boardcast",
          "type": "bool"
        },
        {
          "indexed": false,
          "name": "users",
          "type": "address[]"
        }
      ],
      "name": "Close",
      "type": "event"
    },
    {
      "constant": false,
      "inputs": [
        {
          "name": "publishId",
          "type": "string"
        },
        {
          "name": "price",
          "type": "uint256"
        },
        {
          "name": "metaDataIdEncSeller",
          "type": "bytes"
        },
        {
          "name": "proofDataIds",
          "type": "bytes32[]"
        },
        {
          "name": "despDataId",
          "type": "string"
        },
        {
          "name": "supportVerify",
          "type": "bool"
        }
      ],
      "name": "publishDataInfo",
      "outputs": [],
      "payable": false,
      "stateMutability": "nonpayable",
      "type": "function"
    },
    {
      "constant": false,
      "inputs": [
        {
          "name": "publishId",
          "type": "string"
        }
      ],
      "name": "prepareToBuy",
      "outputs": [],
      "payable": false,
      "stateMutability": "nonpayable",
      "type": "function"
    },
    {
      "constant": false,
      "inputs": [
        {
          "name": "txId",
          "type": "uint256"
        }
      ],
      "name": "buyData",
      "outputs": [],
      "payable": false,
      "stateMutability": "nonpayable",
      "type": "function"
    },
    {
      "constant": false,
      "inputs": [
        {
          "name": "txId",
          "type": "uint256"
        },
        {
          "name": "encryptedMetaDataId",
          "type": "bytes"
        }
      ],
      "name": "submitMetaDataIdEncWithBuyer",
      "outputs": [],
      "payable": false,
      "stateMutability": "nonpayable",
      "type": "function"
    },
    {
      "constant": false,
      "inputs": [
        {
          "name": "txId",
          "type": "uint256"
        },
        {
          "name": "truth",
          "type": "bool"
        }
      ],
      "name": "confirmDataTruth",
      "outputs": [],
      "payable": false,
      "stateMutability": "nonpayable",
      "type": "function"
    }
  ],
  "bytecode": "0x6080604052600060025560206003556000600460006101000a81548173ffffffffffffffffffffffffffffffffffffffff021916908373ffffffffffffffffffffffffffffffffffffffff1602179055506000600560006101000a81548173ffffffffffffffffffffffffffffffffffffffff021916908373ffffffffffffffffffffffffffffffffffffffff16021790555034801561009e57600080fd5b506040516020806128a68339810180604052810190808051906020019092919050505060008173ffffffffffffffffffffffffffffffffffffffff16141515156100e757600080fd5b33600560006101000a81548173ffffffffffffffffffffffffffffffffffffffff021916908373ffffffffffffffffffffffffffffffffffffffff16021790555080600460006101000a81548173ffffffffffffffffffffffffffffffffffffffff021916908373ffffffffffffffffffffffffffffffffffffffff16021790555080600660006101000a81548173ffffffffffffffffffffffffffffffffffffffff021916908373ffffffffffffffffffffffffffffffffffffffff160217905550506126ec806101ba6000396000f30060806040526004361061006d576000357c0100000000000000000000000000000000000000000000000000000000900463ffffffff16806330544e691461007257806374f1502b146100b7578063a5b6e55b146100f0578063ca209dce1461023e578063e01e83931461026b575b600080fd5b34801561007e57600080fd5b506100b5600480360381019080803590602001909291908035906020019082018035906020019190919293919293905050506102a6565b005b3480156100c357600080fd5b506100ee600480360381019080803590602001909291908035151590602001909291905050506108e9565b005b3480156100fc57600080fd5b5061023c600480360381019080803590602001908201803590602001908080601f016020809104026020016040519081016040528093929190818152602001838380828437820191505050505050919291929080359060200190929190803590602001908201803590602001908080601f016020809104026020016040519081016040528093929190818152602001838380828437820191505050505050919291929080359060200190820180359060200190808060200260200160405190810160405280939291908181526020018383602002808284378201915050505050509192919290803590602001908201803590602001908080601f0160208091040260200160405190810160405280939291908181526020018383808284378201915050505050509192919290803515159060200190929190505050611214565b005b34801561024a57600080fd5b50610269600480360381019080803590602001909291905050506115bd565b005b34801561027757600080fd5b506102a4600480360381019080803590602001908201803590602001919091929391929390505050611c30565b005b6102ae612444565b60606001600086815260200190815260200160002061010060405190810160405290816000820160009054906101000a900460ff1660078111156102ee57fe5b60078111156102f957fe5b81526020016000820160019054906101000a900473ffffffffffffffffffffffffffffffffffffffff1673ffffffffffffffffffffffffffffffffffffffff1673ffffffffffffffffffffffffffffffffffffffff1681526020016001820160009054906101000a900473ffffffffffffffffffffffffffffffffffffffff1673ffffffffffffffffffffffffffffffffffffffff1673ffffffffffffffffffffffffffffffffffffffff168152602001600282018054600181600116156101000203166002900480601f0160208091040260200160405190810160405280929190818152602001828054600181600116156101000203166002900480156104425780601f1061041757610100808354040283529160200191610442565b820191906000526020600020905b81548152906001019060200180831161042557829003601f168201915b50505050508152602001600382018054600181600116156101000203166002900480601f0160208091040260200160405190810160405280929190818152602001828054600181600116156101000203166002900480156104e45780601f106104b9576101008083540402835291602001916104e4565b820191906000526020600020905b8154815290600101906020018083116104c757829003601f168201915b50505050508152602001600482018054600181600116156101000203166002900480601f0160208091040260200160405190810160405280929190818152602001828054600181600116156101000203166002900480156105865780601f1061055b57610100808354040283529160200191610586565b820191906000526020600020905b81548152906001019060200180831161056957829003601f168201915b50505050508152602001600582015481526020016006820160009054906101000a900460ff1615151515815250509150600115158260e00151151514151561065c576040517f08c379a00000000000000000000000000000000000000000000000000000000081526004018080602001828103825260298152602001807f43616e206e6f7420676574207472616e73616374696f6e206279207472616e7381526020017f616374696f6e206964000000000000000000000000000000000000000000000081525060400191505060405180910390fd5b3373ffffffffffffffffffffffffffffffffffffffff16826040015173ffffffffffffffffffffffffffffffffffffffff16141515610703576040517f08c379a000000000000000000000000000000000000000000000000000000000815260040180806020018281038252600e8152602001807f496e76616c69642073656c6c657200000000000000000000000000000000000081525060200191505060405180910390fd5b83838080601f016020809104026020016040519081016040528093929190818152602001838380828437820191505050505050826080018190525060048260000190600781111561075057fe5b9081600781111561075d57fe5b8152505060016040519080825280602002602001820160405280156107915781602001602082028038833980820191505090505b50905081602001518160008151811015156107a857fe5b9060200190602002019073ffffffffffffffffffffffffffffffffffffffff16908173ffffffffffffffffffffffffffffffffffffffff16815250507f432e20200e274397185e681b58f4ba63a66921d9064407bdf9f97ac5fbe5bf67858360a0015160008460405180858152602001806020018415151515815260200180602001838103835286818151815260200191508051906020019080838360005b83811015610862578082015181840152602081019050610847565b50505050905090810190601f16801561088f5780820380516001836020036101000a031916815260200191505b50838103825284818151815260200191508051906020019060200280838360005b838110156108cb5780820151818401526020810190506108b0565b50505050905001965050505050505060405180910390a15050505050565b6108f1612444565b6108f96124c3565b60606001600086815260200190815260200160002061010060405190810160405290816000820160009054906101000a900460ff16600781111561093957fe5b600781111561094457fe5b81526020016000820160019054906101000a900473ffffffffffffffffffffffffffffffffffffffff1673ffffffffffffffffffffffffffffffffffffffff1673ffffffffffffffffffffffffffffffffffffffff1681526020016001820160009054906101000a900473ffffffffffffffffffffffffffffffffffffffff1673ffffffffffffffffffffffffffffffffffffffff1673ffffffffffffffffffffffffffffffffffffffff168152602001600282018054600181600116156101000203166002900480601f016020809104026020016040519081016040528092919081815260200182805460018160011615610100020316600290048015610a8d5780601f10610a6257610100808354040283529160200191610a8d565b820191906000526020600020905b815481529060010190602001808311610a7057829003601f168201915b50505050508152602001600382018054600181600116156101000203166002900480601f016020809104026020016040519081016040528092919081815260200182805460018160011615610100020316600290048015610b2f5780601f10610b0457610100808354040283529160200191610b2f565b820191906000526020600020905b815481529060010190602001808311610b1257829003601f168201915b50505050508152602001600482018054600181600116156101000203166002900480601f016020809104026020016040519081016040528092919081815260200182805460018160011615610100020316600290048015610bd15780601f10610ba657610100808354040283529160200191610bd1565b820191906000526020600020905b815481529060010190602001808311610bb457829003601f168201915b50505050508152602001600582015481526020016006820160009054906101000a900460ff16151515158152505092506000836020015173ffffffffffffffffffffffffffffffffffffffff1614151515610cba576040517f08c379a00000000000000000000000000000000000000000000000000000000081526004018080602001828103825260298152602001807f43616e206e6f7420676574207472616e73616374696f6e206279207472616e7381526020017f616374696f6e206964000000000000000000000000000000000000000000000081525060400191505060405180910390fd5b3373ffffffffffffffffffffffffffffffffffffffff16836020015173ffffffffffffffffffffffffffffffffffffffff16141515610d61576040517f08c379a000000000000000000000000000000000000000000000000000000000815260040180806020018281038252600d8152602001807f496e76616c69642062757965720000000000000000000000000000000000000081525060200191505060405180910390fd5b600083606001516040518082805190602001908083835b602083101515610d9d5780518252602082019150602081019050602083039250610d78565b6001836020036101000a0380198251168184511680821785525050505050509050019150509081526020016040518091039020610100604051908101604052908160008201548152602001600182018054600181600116156101000203166002900480601f016020809104026020016040519081016040528092919081815260200182805460018160011615610100020316600290048015610e805780601f10610e5557610100808354040283529160200191610e80565b820191906000526020600020905b815481529060010190602001808311610e6357829003601f168201915b5050505050815260200160028201805480602002602001604051908101604052809291908181526020018280548015610edc57602002820191906000526020600020905b81546000191681526020019060010190808311610ec4575b5050505050815260200160038201548152602001600482018054600181600116156101000203166002900480601f016020809104026020016040519081016040528092919081815260200182805460018160011615610100020316600290048015610f885780601f10610f5d57610100808354040283529160200191610f88565b820191906000526020600020905b815481529060010190602001808311610f6b57829003601f168201915b505050505081526020016005820160009054906101000a900473ffffffffffffffffffffffffffffffffffffffff1673ffffffffffffffffffffffffffffffffffffffff1673ffffffffffffffffffffffffffffffffffffffff1681526020016005820160149054906101000a900460ff161515151581526020016005820160159054906101000a900460ff1615151515815250509150600115158360e0015115151415156110c5576040517f08c379a00000000000000000000000000000000000000000000000000000000081526004018080602001828103825260248152602001807f43616e206e6f742067657420646174612062792074784974656d2e7075626c6981526020017f736849640000000000000000000000000000000000000000000000000000000081525060400191505060405180910390fd5b8160c00151151561120d5783156110db576110dc565b5b6007836000019060078111156110ee57fe5b908160078111156110fb57fe5b81525050600160405190808252806020026020018201604052801561112f5781602001602082028038833980820191505090505b509050600081600081518110151561114357fe5b9060200190602002019073ffffffffffffffffffffffffffffffffffffffff16908173ffffffffffffffffffffffffffffffffffffffff16815250507fa332f85d6f38a0976f840537b79ecff1a59e902c9165a1a30d58cc844de47b3185600183604051808481526020018315151515815260200180602001828103825283818151815260200191508051906020019060200280838360005b838110156111f75780820151818401526020810190506111dc565b5050505090500194505050505060405180910390a15b5050505050565b606061010060405190810160405280878152602001868152602001858152602001855181526020018481526020013373ffffffffffffffffffffffffffffffffffffffff1681526020018315158152602001600115158152506000886040518082805190602001908083835b6020831015156112a55780518252602082019150602081019050602083039250611280565b6001836020036101000a03801982511681845116808217855250505050505090500191505090815260200160405180910390206000820151816000015560208201518160010190805190602001906112fe929190612523565b50604082015181600201908051906020019061131b9291906125a3565b506060820151816003015560808201518160040190805190602001906113429291906125f6565b5060a08201518160050160006101000a81548173ffffffffffffffffffffffffffffffffffffffff021916908373ffffffffffffffffffffffffffffffffffffffff16021790555060c08201518160050160146101000a81548160ff02191690831515021790555060e08201518160050160156101000a81548160ff02191690831515021790555090505060016040519080825280602002602001820160405280156113fd5781602001602082028038833980820191505090505b509050600081600081518110151561141157fe5b9060200190602002019073ffffffffffffffffffffffffffffffffffffffff16908173ffffffffffffffffffffffffffffffffffffffff16815250507fb4444d5dac953612a8ced49f3a9a6fa0b1fbf5d2cdad5fcd48179eada2dc518f8787856001856040518080602001868152602001806020018515151515815260200180602001848103845289818151815260200191508051906020019080838360005b838110156114cc5780820151818401526020810190506114b1565b50505050905090810190601f1680156114f95780820380516001836020036101000a031916815260200191505b50848103835287818151815260200191508051906020019080838360005b83811015611532578082015181840152602081019050611517565b50505050905090810190601f16801561155f5780820380516001836020036101000a031916815260200191505b50848103825285818151815260200191508051906020019060200280838360005b8381101561159b578082015181840152602081019050611580565b505050509050019850505050505050505060405180910390a150505050505050565b6115c5612444565b60606001600084815260200190815260200160002061010060405190810160405290816000820160009054906101000a900460ff16600781111561160557fe5b600781111561161057fe5b81526020016000820160019054906101000a900473ffffffffffffffffffffffffffffffffffffffff1673ffffffffffffffffffffffffffffffffffffffff1673ffffffffffffffffffffffffffffffffffffffff1681526020016001820160009054906101000a900473ffffffffffffffffffffffffffffffffffffffff1673ffffffffffffffffffffffffffffffffffffffff1673ffffffffffffffffffffffffffffffffffffffff168152602001600282018054600181600116156101000203166002900480601f0160208091040260200160405190810160405280929190818152602001828054600181600116156101000203166002900480156117595780601f1061172e57610100808354040283529160200191611759565b820191906000526020600020905b81548152906001019060200180831161173c57829003601f168201915b50505050508152602001600382018054600181600116156101000203166002900480601f0160208091040260200160405190810160405280929190818152602001828054600181600116156101000203166002900480156117fb5780601f106117d0576101008083540402835291602001916117fb565b820191906000526020600020905b8154815290600101906020018083116117de57829003601f168201915b50505050508152602001600482018054600181600116156101000203166002900480601f01602080910402602001604051908101604052809291908181526020018280546001816001161561010002031660029004801561189d5780601f106118725761010080835404028352916020019161189d565b820191906000526020600020905b81548152906001019060200180831161188057829003601f168201915b50505050508152602001600582015481526020016006820160009054906101000a900460ff1615151515815250509150600115158260e001511515141515611973576040517f08c379a00000000000000000000000000000000000000000000000000000000081526004018080602001828103825260298152602001807f43616e206e6f7420676574207472616e73616374696f6e206279207472616e7381526020017f616374696f6e206964000000000000000000000000000000000000000000000081525060400191505060405180910390fd5b3373ffffffffffffffffffffffffffffffffffffffff16826020015173ffffffffffffffffffffffffffffffffffffffff16141515611a1a576040517f08c379a000000000000000000000000000000000000000000000000000000000815260040180806020018281038252600d8152602001807f496e76616c69642062757965720000000000000000000000000000000000000081525060200191505060405180910390fd5b600382600001906007811115611a2c57fe5b90816007811115611a3957fe5b815250506001604051908082528060200260200182016040528015611a6d5781602001602082028038833980820191505090505b50905033816000815181101515611a8057fe5b9060200190602002019073ffffffffffffffffffffffffffffffffffffffff16908173ffffffffffffffffffffffffffffffffffffffff16815250507f0fbc46e594df1851f28df5833e566c8c7024e215ebf4a4be8ad1b2a7ee4101168383606001518460a001516000856040518086815260200180602001806020018515151515815260200180602001848103845288818151815260200191508051906020019080838360005b83811015611b43578082015181840152602081019050611b28565b50505050905090810190601f168015611b705780820380516001836020036101000a031916815260200191505b50848103835287818151815260200191508051906020019080838360005b83811015611ba9578082015181840152602081019050611b8e565b50505050905090810190601f168015611bd65780820380516001836020036101000a031916815260200191505b50848103825285818151815260200191508051906020019060200280838360005b83811015611c12578082015181840152602081019050611bf7565b505050509050019850505050505050505060405180910390a1505050565b611c386124c3565b60006060600080606060008888604051808383808284378201915050925050509081526020016040518091039020610100604051908101604052908160008201548152602001600182018054600181600116156101000203166002900480601f016020809104026020016040519081016040528092919081815260200182805460018160011615610100020316600290048015611d165780601f10611ceb57610100808354040283529160200191611d16565b820191906000526020600020905b815481529060010190602001808311611cf957829003601f168201915b5050505050815260200160028201805480602002602001604051908101604052809291908181526020018280548015611d7257602002820191906000526020600020905b81546000191681526020019060010190808311611d5a575b5050505050815260200160038201548152602001600482018054600181600116156101000203166002900480601f016020809104026020016040519081016040528092919081815260200182805460018160011615610100020316600290048015611e1e5780601f10611df357610100808354040283529160200191611e1e565b820191906000526020600020905b815481529060010190602001808311611e0157829003601f168201915b505050505081526020016005820160009054906101000a900473ffffffffffffffffffffffffffffffffffffffff1673ffffffffffffffffffffffffffffffffffffffff1673ffffffffffffffffffffffffffffffffffffffff1681526020016005820160149054906101000a900460ff161515151581526020016005820160159054906101000a900460ff1615151515815250509550600115158660e001511515141515611f5b576040517f08c379a00000000000000000000000000000000000000000000000000000000081526004018080602001828103825260288152602001807f43616e206e6f7420676574207075626c6973686564206461746120627920707581526020017f626c69736820696400000000000000000000000000000000000000000000000081525060400191505060405180910390fd5b611f636123bb565b94506003546040519080825280601f01601f191660200182016040528015611f9a5781602001602082028038833980820191505090505b509350602060405190810160405280600081525093506101006040519081016040528060016007811115611fca57fe5b81526020013373ffffffffffffffffffffffffffffffffffffffff1681526020018760a0015173ffffffffffffffffffffffffffffffffffffffff16815260200189898080601f01602080910402602001604051908101604052809392919081815260200183838082843782019150505050505081526020018581526020018760200151815260200160008152602001600115158152506001600087815260200190815260200160002060008201518160000160006101000a81548160ff0219169083600781111561209857fe5b021790555060208201518160000160016101000a81548173ffffffffffffffffffffffffffffffffffffffff021916908373ffffffffffffffffffffffffffffffffffffffff16021790555060408201518160010160006101000a81548173ffffffffffffffffffffffffffffffffffffffff021916908373ffffffffffffffffffffffffffffffffffffffff16021790555060608201518160020190805190602001906121479291906125f6565b506080820151816003019080519060200190612164929190612523565b5060a0820151816004019080519060200190612181929190612523565b5060c0820151816005015560e08201518160060160006101000a81548160ff0219169083151502179055509050508560c0015115156123b1576121c786606001516123d3565b9250856060015183101515612244576040517f08c379a000000000000000000000000000000000000000000000000000000000815260040180806020018281038252601b8152602001807f4461746120696e646578206e65656420746f2062652076616c6964000000000081525060200191505060405180910390fd5b85604001518381518110151561225657fe5b90602001906020020151915060016040519080825280602002602001820160405280156122925781602001602082028038833980820191505090505b509050338160008151811015156122a557fe5b9060200190602002019073ffffffffffffffffffffffffffffffffffffffff16908173ffffffffffffffffffffffffffffffffffffffff16815250507f18ef72fd77cecc8fd4b61244c6f7bd40148cb71237eaeb896d3cab05825b284f858989858a60c001516000876040518088815260200180602001866000191660001916815260200185151515158152602001841515151581526020018060200183810383528989828181526020019250808284378201915050838103825284818151815260200191508051906020019060200280838360005b8381101561239657808201518184015260208101905061237b565b50505050905001995050505050505050505060405180910390a15b5050505050505050565b60006002600081548092919060010191905055905090565b6000814233604051808381526020018273ffffffffffffffffffffffffffffffffffffffff1673ffffffffffffffffffffffffffffffffffffffff166c010000000000000000000000000281526014019250505060405180910390206001900481151561243c57fe5b069050919050565b610100604051908101604052806000600781111561245e57fe5b8152602001600073ffffffffffffffffffffffffffffffffffffffff168152602001600073ffffffffffffffffffffffffffffffffffffffff168152602001606081526020016060815260200160608152602001600081526020016000151581525090565b610100604051908101604052806000815260200160608152602001606081526020016000815260200160608152602001600073ffffffffffffffffffffffffffffffffffffffff1681526020016000151581526020016000151581525090565b828054600181600116156101000203166002900490600052602060002090601f016020900481019282601f1061256457805160ff1916838001178555612592565b82800160010185558215612592579182015b82811115612591578251825591602001919060010190612576565b5b50905061259f9190612676565b5090565b8280548282559060005260206000209081019282156125e5579160200282015b828111156125e45782518290600019169055916020019190600101906125c3565b5b5090506125f2919061269b565b5090565b828054600181600116156101000203166002900490600052602060002090601f016020900481019282601f1061263757805160ff1916838001178555612665565b82800160010185558215612665579182015b82811115612664578251825591602001919060010190612649565b5b5090506126729190612676565b5090565b61269891905b8082111561269457600081600090555060010161267c565b5090565b90565b6126bd91905b808211156126b95760008160009055506001016126a1565b5090565b905600a165627a7a72305820fdb4ff496b019038badb4d9a6c6adf67768473e30053d544355aaf14320d72120029",
  "source": "pragma solidity ^0.4.24;\n\nimport \"./ScryToken.sol\";\n\ncontract ScryProtocol {\n    enum TransactionState {Begin, Created, Voted, Purchasing, ReadyForDownload, Payed, Arbitrating, Closed}\n\n    struct DataInfoPublished {\n        uint256 price;\n        bytes metaDataIdEncSeller;\n        bytes32[] proofDataIds;\n        uint256 numberOfProof;\n        string despDataId;\n        address seller;\n        bool supportVerify;\n        bool used;\n    } \n\n    struct TransactionItem {\n        TransactionState state;\n        address buyer;\n        address seller;\n        string publishId;\n        bytes meteDataIdEncBuyer;\n        bytes metaDataIdEncSeller;\n        uint256 buyerDeposit;\n        bool used;\n    }\n\n    mapping (string => DataInfoPublished) mapPublishedData;\n    mapping (uint => TransactionItem) mapTransaction;\n\n    event Publish(string publishId, uint256 price, string despDataId, bool boardcast, address[] users);\n    event TransactionCreate(uint256 transactionId, string publishId, bytes32 chosenProofIds, bool supportVerify, bool boardcast, address[] users);\n    event Purchase(uint256 transactionId, string publishId, bytes metaDataIdEncSeller, bool boardcast, address[] users);\n    event ReadyForDownload(uint256 transactionId, bytes metaDataIdEncBuyer, bool boardcast, address[] users);\n    event Close(uint256 transactionId, bool boardcast, address[] users);\n\n    uint256 transactionSeq = 0;\n    uint256 encryptedIdLen = 32;\n\n    address token_address = 0x0;\n    address owner         = 0x0;\n    ERC20   token;\n\n    constructor (address _token) public {\n        require(_token != 0x0);\n\n        owner = msg.sender;\n        token_address = _token;\n        token = ERC20(_token);\n    }\n\n    function publishDataInfo(string publishId, uint256 price, bytes metaDataIdEncSeller, bytes32[] proofDataIds, string despDataId, bool supportVerify) public {\n        mapPublishedData[publishId] = DataInfoPublished(price, metaDataIdEncSeller, proofDataIds, proofDataIds.length, despDataId, msg.sender, supportVerify, true);\n        \n        address[] memory users = new address[](1);\n        users[0] = address(0x00);\n        emit Publish(publishId, price, despDataId, true, users);\n    }\n\n    function isPublishedDataExisted(string publishId) internal view returns (bool) {\n        DataInfoPublished memory data = mapPublishedData[publishId];\n        return data.used;\n    }\n\n    function prepareToBuy(string publishId) external {\n        //published data info\n        DataInfoPublished memory data = mapPublishedData[publishId];\n        require(data.used == true, \"Can not get published data by publish id\");\n\n        //get deposit from msg.sender\n\n\n        //create transaction\n        uint txId = getTransactionId();\n        bytes memory metaDataIdEncBuyer = new bytes(encryptedIdLen);\n        metaDataIdEncBuyer = \"\";\n        mapTransaction[txId] = TransactionItem(TransactionState.Created, msg.sender, data.seller, publishId, metaDataIdEncBuyer, data.metaDataIdEncSeller, 0, true);\n\n        //do not support verification\n        if (!data.supportVerify) {\n            //choose proof data randomly for buyer \n            uint index = getRandomNumber(data.numberOfProof);\n            require(index < data.numberOfProof, \"Data index need to be valid\");\n\n            bytes32 proofId = data.proofDataIds[index];\n\n            address[] memory users = new address[](1);\n            users[0] = msg.sender;\n\n            //TransactionCreat event\n            emit TransactionCreate(txId, publishId, proofId, data.supportVerify, false, users);\n        }\n    }\n\n    function getTransactionId() internal returns(uint) {\n        return transactionSeq++;\n    }\n\n    function getRandomNumber(uint mod) internal view returns (uint) {\n        return uint(keccak256(now, msg.sender)) % mod;\n    }\n\n    function buyData(uint256 txId) external {\n        //validate\n        TransactionItem memory txItem = mapTransaction[txId];\n        require(txItem.used == true, \"Can not get transaction by transaction id\");\n        require(txItem.buyer == msg.sender, \"Invalid buyer\");\n        \n        //set transaction state\n        txItem.state = TransactionState.Purchasing;\n\n        //event\n        address[] memory users = new address[](1);\n        users[0] = msg.sender;\n        emit Purchase(txId, txItem.publishId, txItem.metaDataIdEncSeller, false, users);\n    }\n\n    function submitMetaDataIdEncWithBuyer(uint256 txId, bytes encryptedMetaDataId) external {\n        //validate\n        TransactionItem memory txItem = mapTransaction[txId];\n        require(txItem.used == true, \"Can not get transaction by transaction id\");\n        require(txItem.seller == msg.sender, \"Invalid seller\");\n\n        txItem.meteDataIdEncBuyer = encryptedMetaDataId;\n        txItem.state = TransactionState.ReadyForDownload;\n\n        //ReadyForDownload event\n        address[] memory users = new address[](1);\n        users[0] = txItem.buyer;\n        emit ReadyForDownload(txId, txItem.metaDataIdEncSeller, false, users);   \n    }\n\n    function confirmDataTruth(uint256 txId, bool truth) external {\n        //validate\n        TransactionItem memory txItem = mapTransaction[txId];\n        require(txItem.buyer != 0, \"Can not get transaction by transaction id\");\n        require(txItem.buyer == msg.sender, \"Invalid buyer\");\n\n        DataInfoPublished memory data = mapPublishedData[txItem.publishId];\n        require(txItem.used == true, \"Can not get data by txItem.publishId\");\n        \n\n        if (!data.supportVerify) {\n            if(truth) {\n\n            } else {\n\n            }\n            \n            txItem.state = TransactionState.Closed;\n\n            //Close event\n            address[] memory users = new address[](1);\n            users[0] = address(0x00);\n            emit Close(txId, true, users);            \n        }\n    }\n\n}",
  "sourcePath": "/home/waitgordor/project/iscap/demo/contracts/contracts/ScryProtocol.sol",
  "compiler": {
    "name": "solc",
    "version": "0.4.24+commit.e67f0147.Emscripten.clang"
  },
  "schemaVersion": "2.0.1",
  "updatedAt": "2019-01-10T09:16:39.614Z"
}