{
  "contractName": "ScryProtocol",
  "abi": [
    {
      "inputs": [
        {
          "name": "_token",
          "type": "address"
        }
      ],
      "payable": false,
      "stateMutability": "nonpayable",
      "type": "constructor"
    },
    {
      "anonymous": false,
      "inputs": [
        {
          "indexed": false,
          "name": "successed",
          "type": "bool"
        },
        {
          "indexed": false,
          "name": "seqNo",
          "type": "string"
        },
        {
          "indexed": false,
          "name": "publishId",
          "type": "string"
        },
        {
          "indexed": false,
          "name": "price",
          "type": "uint256"
        },
        {
          "indexed": false,
          "name": "despDataId",
          "type": "string"
        },
        {
          "indexed": false,
          "name": "users",
          "type": "address[]"
        },
        {
          "indexed": false,
          "name": "errorCode",
          "type": "uint8"
        }
      ],
      "name": "DataPublish",
      "type": "event"
    },
    {
      "anonymous": false,
      "inputs": [
        {
          "indexed": false,
          "name": "successed",
          "type": "bool"
        },
        {
          "indexed": false,
          "name": "seqNo",
          "type": "string"
        },
        {
          "indexed": false,
          "name": "transactionId",
          "type": "uint256"
        },
        {
          "indexed": false,
          "name": "publishId",
          "type": "string"
        },
        {
          "indexed": false,
          "name": "chosenProofIds",
          "type": "bytes32"
        },
        {
          "indexed": false,
          "name": "supportVerify",
          "type": "bool"
        },
        {
          "indexed": false,
          "name": "users",
          "type": "address[]"
        },
        {
          "indexed": false,
          "name": "errorCode",
          "type": "uint8"
        }
      ],
      "name": "TransactionCreate",
      "type": "event"
    },
    {
      "anonymous": false,
      "inputs": [
        {
          "indexed": false,
          "name": "successed",
          "type": "bool"
        },
        {
          "indexed": false,
          "name": "seqNo",
          "type": "string"
        },
        {
          "indexed": false,
          "name": "transactionId",
          "type": "uint256"
        },
        {
          "indexed": false,
          "name": "publishId",
          "type": "string"
        },
        {
          "indexed": false,
          "name": "metaDataIdEncSeller",
          "type": "bytes"
        },
        {
          "indexed": false,
          "name": "users",
          "type": "address[]"
        },
        {
          "indexed": false,
          "name": "errorCode",
          "type": "uint8"
        }
      ],
      "name": "Buy",
      "type": "event"
    },
    {
      "anonymous": false,
      "inputs": [
        {
          "indexed": false,
          "name": "successed",
          "type": "bool"
        },
        {
          "indexed": false,
          "name": "seqNo",
          "type": "string"
        },
        {
          "indexed": false,
          "name": "transactionId",
          "type": "uint256"
        },
        {
          "indexed": false,
          "name": "metaDataIdEncBuyer",
          "type": "bytes"
        },
        {
          "indexed": false,
          "name": "users",
          "type": "address[]"
        },
        {
          "indexed": false,
          "name": "errorCode",
          "type": "uint8"
        }
      ],
      "name": "ReadyForDownload",
      "type": "event"
    },
    {
      "anonymous": false,
      "inputs": [
        {
          "indexed": false,
          "name": "successed",
          "type": "bool"
        },
        {
          "indexed": false,
          "name": "seqNo",
          "type": "string"
        },
        {
          "indexed": false,
          "name": "transactionId",
          "type": "uint256"
        },
        {
          "indexed": false,
          "name": "users",
          "type": "address[]"
        },
        {
          "indexed": false,
          "name": "errorCode",
          "type": "uint8"
        }
      ],
      "name": "TransactionClose",
      "type": "event"
    },
    {
      "constant": false,
      "inputs": [
        {
          "name": "seqNo",
          "type": "string"
        },
        {
          "name": "publishId",
          "type": "string"
        },
        {
          "name": "price",
          "type": "uint256"
        },
        {
          "name": "metaDataIdEncSeller",
          "type": "bytes"
        },
        {
          "name": "proofDataIds",
          "type": "bytes32[]"
        },
        {
          "name": "despDataId",
          "type": "string"
        },
        {
          "name": "supportVerify",
          "type": "bool"
        }
      ],
      "name": "publishDataInfo",
      "outputs": [],
      "payable": false,
      "stateMutability": "nonpayable",
      "type": "function"
    },
    {
      "constant": false,
      "inputs": [
        {
          "name": "seqNo",
          "type": "string"
        },
        {
          "name": "publishId",
          "type": "string"
        }
      ],
      "name": "CreateTransaction",
      "outputs": [],
      "payable": false,
      "stateMutability": "nonpayable",
      "type": "function"
    },
    {
      "constant": false,
      "inputs": [
        {
          "name": "seqNo",
          "type": "string"
        },
        {
          "name": "txId",
          "type": "uint256"
        }
      ],
      "name": "buyData",
      "outputs": [],
      "payable": false,
      "stateMutability": "nonpayable",
      "type": "function"
    },
    {
      "constant": false,
      "inputs": [
        {
          "name": "seqNo",
          "type": "string"
        },
        {
          "name": "txId",
          "type": "uint256"
        },
        {
          "name": "encryptedMetaDataId",
          "type": "bytes"
        }
      ],
      "name": "submitMetaDataIdEncWithBuyer",
      "outputs": [],
      "payable": false,
      "stateMutability": "nonpayable",
      "type": "function"
    },
    {
      "constant": false,
      "inputs": [
        {
          "name": "seqNo",
          "type": "string"
        },
        {
          "name": "txId",
          "type": "uint256"
        },
        {
          "name": "truth",
          "type": "bool"
        }
      ],
      "name": "confirmDataTruth",
      "outputs": [],
      "payable": false,
      "stateMutability": "nonpayable",
      "type": "function"
    }
  ],
  "bytecode": "0x6080604052600060025560206003556000600460006101000a81548173ffffffffffffffffffffffffffffffffffffffff021916908373ffffffffffffffffffffffffffffffffffffffff1602179055506000600560006101000a81548173ffffffffffffffffffffffffffffffffffffffff021916908373ffffffffffffffffffffffffffffffffffffffff16021790555034801561009e57600080fd5b506040516020806132008339810180604052810190808051906020019092919050505060008173ffffffffffffffffffffffffffffffffffffffff16141515156100e757600080fd5b33600560006101000a81548173ffffffffffffffffffffffffffffffffffffffff021916908373ffffffffffffffffffffffffffffffffffffffff16021790555080600460006101000a81548173ffffffffffffffffffffffffffffffffffffffff021916908373ffffffffffffffffffffffffffffffffffffffff16021790555080600660006101000a81548173ffffffffffffffffffffffffffffffffffffffff021916908373ffffffffffffffffffffffffffffffffffffffff16021790555050613046806101ba6000396000f30060806040526004361061006d576000357c0100000000000000000000000000000000000000000000000000000000900463ffffffff168063377caed11461007257806379d23f97146101235780638ba737ee146101765780639a756a99146101d3578063dd16673b14610218575b600080fd5b34801561007e57600080fd5b5061012160048036038101908080359060200190820180359060200191909192939192939080359060200190820180359060200191909192939192939080359060200190929190803590602001908201803590602001919091929391929390803590602001908201803590602001919091929391929390803590602001908201803590602001919091929391929390803515159060200190929190505050610269565b005b34801561012f57600080fd5b50610174600480360381019080803590602001908201803590602001919091929391929390803590602001908201803590602001919091929391929390505050610888565b005b34801561018257600080fd5b506101d1600480360381019080803590602001908201803590602001919091929391929390803590602001909291908035906020019082018035906020019190919293919293905050506112c4565b005b3480156101df57600080fd5b50610216600480360381019080803590602001908201803590602001919091929391929390803590602001909291905050506119f5565b005b34801561022457600080fd5b50610267600480360381019080803590602001908201803590602001919091929391929390803590602001909291908035151590602001909291905050506121cb565b005b6060610273612e16565b60016040519080825280602002602001820160405280156102a35781602001602082028038833980820191505090505b50915060008260008151811015156102b757fe5b9060200190602002019073ffffffffffffffffffffffffffffffffffffffff16908173ffffffffffffffffffffffffffffffffffffffff168152505060008c8c604051808383808284378201915050925050509081526020016040518091039020610100604051908101604052908160008201548152602001600182018054600181600116156101000203166002900480601f0160208091040260200160405190810160405280929190818152602001828054600181600116156101000203166002900480156103c85780601f1061039d576101008083540402835291602001916103c8565b820191906000526020600020905b8154815290600101906020018083116103ab57829003601f168201915b505050505081526020016002820180548060200260200160405190810160405280929190818152602001828054801561042457602002820191906000526020600020905b8154600019168152602001906001019080831161040c575b5050505050815260200160038201548152602001600482018054600181600116156101000203166002900480601f0160208091040260200160405190810160405280929190818152602001828054600181600116156101000203166002900480156104d05780601f106104a5576101008083540402835291602001916104d0565b820191906000526020600020905b8154815290600101906020018083116104b357829003601f168201915b505050505081526020016005820160009054906101000a900473ffffffffffffffffffffffffffffffffffffffff1673ffffffffffffffffffffffffffffffffffffffff1673ffffffffffffffffffffffffffffffffffffffff1681526020016005820160149054906101000a900460ff161515151581526020016005820160159054906101000a900460ff16151515158152505090508060e0015115610680577fd5dc88f4bdccf3423a2eccc132639da134562c7961584196ac44fb98acc02ce460008f8f8f8f8f8b8b8a6001604051808b151515158152602001806020018060200188815260200180602001806020018660088111156105ce57fe5b60ff16815260200185810385528e8e82818152602001925080828437820191505085810384528c8c82818152602001925080828437820191505085810383528989828181526020019250808284378201915050858103825287818151815260200191508051906020019060200280838360005b8381101561065c578082015181840152602081019050610641565b505050509050019e50505050505050505050505050505060405180910390a1600080fd5b610100604051908101604052808b81526020018a8a8080601f0160208091040260200160405190810160405280939291908181526020018383808284378201915050505050508152602001888880806020026020016040519081016040528093929190818152602001838360200280828437820191505050505050815260200188889050815260200186868080601f01602080910402602001604051908101604052809392919081815260200183838082843782019150505050505081526020013373ffffffffffffffffffffffffffffffffffffffff16815260200184151581526020016001151581525090507fd5dc88f4bdccf3423a2eccc132639da134562c7961584196ac44fb98acc02ce460018f8f8f8f8f8b8b8a6000604051808b151515158152602001806020018060200188815260200180602001806020018660088111156107cb57fe5b60ff16815260200185810385528e8e82818152602001925080828437820191505085810384528c8c82818152602001925080828437820191505085810383528989828181526020019250808284378201915050858103825287818151815260200191508051906020019060200280838360005b8381101561085957808201518184015260208101905061083e565b505050509050019e50505050505050505050505050505060405180910390a15050505050505050505050505050565b60606000610894612e16565b6000606060008060016040519080825280602002602001820160405280156108cb5781602001602082028038833980820191505090505b509650338760008151811015156108de57fe5b9060200190602002019073ffffffffffffffffffffffffffffffffffffffff16908173ffffffffffffffffffffffffffffffffffffffff16815250506000955060008989604051808383808284378201915050925050509081526020016040518091039020610100604051908101604052908160008201548152602001600182018054600181600116156101000203166002900480601f0160208091040260200160405190810160405280929190818152602001828054600181600116156101000203166002900480156109f35780601f106109c8576101008083540402835291602001916109f3565b820191906000526020600020905b8154815290600101906020018083116109d657829003601f168201915b5050505050815260200160028201805480602002602001604051908101604052809291908181526020018280548015610a4f57602002820191906000526020600020905b81546000191681526020019060010190808311610a37575b5050505050815260200160038201548152602001600482018054600181600116156101000203166002900480601f016020809104026020016040519081016040528092919081815260200182805460018160011615610100020316600290048015610afb5780601f10610ad057610100808354040283529160200191610afb565b820191906000526020600020905b815481529060010190602001808311610ade57829003601f168201915b505050505081526020016005820160009054906101000a900473ffffffffffffffffffffffffffffffffffffffff1673ffffffffffffffffffffffffffffffffffffffff1673ffffffffffffffffffffffffffffffffffffffff1681526020016005820160149054906101000a900460ff161515151581526020016005820160159054906101000a900460ff16151515158152505094508460e001511515610ba65760039550610df7565b8460000151600660009054906101000a900473ffffffffffffffffffffffffffffffffffffffff1673ffffffffffffffffffffffffffffffffffffffff166370a08231336040518263ffffffff167c0100000000000000000000000000000000000000000000000000000000028152600401808273ffffffffffffffffffffffffffffffffffffffff1673ffffffffffffffffffffffffffffffffffffffff168152602001915050602060405180830381600087803b158015610c6857600080fd5b505af1158015610c7c573d6000803e3d6000fd5b505050506040513d6020811015610c9257600080fd5b81019080805190602001909291905050501015610cb25760049550610df6565b600660009054906101000a900473ffffffffffffffffffffffffffffffffffffffff1673ffffffffffffffffffffffffffffffffffffffff166323b872dd333088600001516040518463ffffffff167c0100000000000000000000000000000000000000000000000000000000028152600401808473ffffffffffffffffffffffffffffffffffffffff1673ffffffffffffffffffffffffffffffffffffffff1681526020018373ffffffffffffffffffffffffffffffffffffffff1673ffffffffffffffffffffffffffffffffffffffff1681526020018281526020019350505050602060405180830381600087803b158015610daf57600080fd5b505af1158015610dc3573d6000803e3d6000fd5b505050506040513d6020811015610dd957600080fd5b81019080805190602001909291905050501515610df557600595505b5b5b60006008811115610e0457fe5b866008811115610e1057fe5b141515610f24577f145269b118c1cffcf5a8e7f87ca4fea1efb3b491039abe67ae1404314b0706e860008c8c60008d8d60008c60c001518f8f604051808b1515151581526020018060200189815260200180602001876001026000191681526020018615151515815260200180602001856008811115610e8c57fe5b60ff16815260200184810384528d8d82818152602001925080828437820191505084810383528a8a828181526020019250808284378201915050848103825286818151815260200191508051906020019060200280838360005b83811015610f01578082015181840152602081019050610ee6565b505050509050019d505050505050505050505050505060405180910390a1600080fd5b610f2c612d8d565b93506003546040519080825280601f01601f191660200182016040528015610f635781602001602082028038833980820191505090505b5092506101006040519081016040528060016007811115610f8057fe5b81526020013373ffffffffffffffffffffffffffffffffffffffff1681526020018660a0015173ffffffffffffffffffffffffffffffffffffffff1681526020018a8a8080601f01602080910402602001604051908101604052809392919081815260200183838082843782019150505050505081526020018481526020018660200151815260200186600001518152602001600115158152506001600086815260200190815260200160002060008201518160000160006101000a81548160ff0219169083600781111561105157fe5b021790555060208201518160000160016101000a81548173ffffffffffffffffffffffffffffffffffffffff021916908373ffffffffffffffffffffffffffffffffffffffff16021790555060408201518160010160006101000a81548173ffffffffffffffffffffffffffffffffffffffff021916908373ffffffffffffffffffffffffffffffffffffffff1602179055506060820151816002019080519060200190611100929190612e76565b50608082015181600301908051906020019061111d929190612ef6565b5060a082015181600401908051906020019061113a929190612ef6565b5060c0820151816005015560e08201518160060160006101000a81548160ff0219169083151502179055509050508460c0015115156112b75784606001516111858660600151612da5565b81151561118e57fe5b0691508460400151828151811015156111a357fe5b9060200190602002015190507f145269b118c1cffcf5a8e7f87ca4fea1efb3b491039abe67ae1404314b0706e860018c8c878d8d878c60c001518f8f604051808b15151515815260200180602001898152602001806020018760001916600019168152602001861515151581526020018060200185600881111561122357fe5b60ff16815260200184810384528d8d82818152602001925080828437820191505084810383528a8a828181526020019250808284378201915050848103825286818151815260200191508051906020019060200280838360005b8381101561129857808201518184015260208101905061127d565b505050509050019d505050505050505050505050505060405180910390a15b5050505050505050505050565b606060006112d0612f76565b60016040519080825280602002602001820160405280156113005781602001602082028038833980820191505090505b5092503383600081518110151561131357fe5b9060200190602002019073ffffffffffffffffffffffffffffffffffffffff16908173ffffffffffffffffffffffffffffffffffffffff1681525050600091506001600087815260200190815260200160002061010060405190810160405290816000820160009054906101000a900460ff16600781111561139157fe5b600781111561139c57fe5b81526020016000820160019054906101000a900473ffffffffffffffffffffffffffffffffffffffff1673ffffffffffffffffffffffffffffffffffffffff1673ffffffffffffffffffffffffffffffffffffffff1681526020016001820160009054906101000a900473ffffffffffffffffffffffffffffffffffffffff1673ffffffffffffffffffffffffffffffffffffffff1673ffffffffffffffffffffffffffffffffffffffff168152602001600282018054600181600116156101000203166002900480601f0160208091040260200160405190810160405280929190818152602001828054600181600116156101000203166002900480156114e55780601f106114ba576101008083540402835291602001916114e5565b820191906000526020600020905b8154815290600101906020018083116114c857829003601f168201915b50505050508152602001600382018054600181600116156101000203166002900480601f0160208091040260200160405190810160405280929190818152602001828054600181600116156101000203166002900480156115875780601f1061155c57610100808354040283529160200191611587565b820191906000526020600020905b81548152906001019060200180831161156a57829003601f168201915b50505050508152602001600482018054600181600116156101000203166002900480601f0160208091040260200160405190810160405280929190818152602001828054600181600116156101000203166002900480156116295780601f106115fe57610100808354040283529160200191611629565b820191906000526020600020905b81548152906001019060200180831161160c57829003601f168201915b50505050508152602001600582015481526020016006820160009054906101000a900460ff16151515158152505090508060e00151151561166d57600691506116ac565b3373ffffffffffffffffffffffffffffffffffffffff16816040015173ffffffffffffffffffffffffffffffffffffffff161415156116ab57600791505b5b600060088111156116b957fe5b8260088111156116c557fe5b141515611807577fb0aa5aa154b0ee39a837f53038607cfcf50c327256e6340e8c5cd1a1e948307f60008989898560a001518888604051808815151515815260200180602001868152602001806020018060200185600881111561172557fe5b60ff16815260200184810384528a8a828181526020019250808284378201915050848103835287818151815260200191508051906020019080838360005b8381101561177e578082015181840152602081019050611763565b50505050905090810190601f1680156117ab5780820380516001836020036101000a031916815260200191505b50848103825286818151815260200191508051906020019060200280838360005b838110156117e75780820151818401526020810190506117cc565b505050509050019a505050505050505050505060405180910390a1600080fd5b84848080601f016020809104026020016040519081016040528093929190818152602001838380828437820191505050505050816080018190525060048160000190600781111561185457fe5b9081600781111561186157fe5b81525050806020015183600081518110151561187957fe5b9060200190602002019073ffffffffffffffffffffffffffffffffffffffff16908173ffffffffffffffffffffffffffffffffffffffff16815250507fb0aa5aa154b0ee39a837f53038607cfcf50c327256e6340e8c5cd1a1e948307f60008989898560a001518888604051808815151515815260200180602001868152602001806020018060200185600881111561190e57fe5b60ff16815260200184810384528a8a828181526020019250808284378201915050848103835287818151815260200191508051906020019080838360005b8381101561196757808201518184015260208101905061194c565b50505050905090810190601f1680156119945780820380516001836020036101000a031916815260200191505b50848103825286818151815260200191508051906020019060200280838360005b838110156119d05780820151818401526020810190506119b5565b505050509050019a505050505050505050505060405180910390a15050505050505050565b60606000611a01612f76565b6001604051908082528060200260200182016040528015611a315781602001602082028038833980820191505090505b50925033836000815181101515611a4457fe5b9060200190602002019073ffffffffffffffffffffffffffffffffffffffff16908173ffffffffffffffffffffffffffffffffffffffff1681525050600091506001600085815260200190815260200160002061010060405190810160405290816000820160009054906101000a900460ff166007811115611ac257fe5b6007811115611acd57fe5b81526020016000820160019054906101000a900473ffffffffffffffffffffffffffffffffffffffff1673ffffffffffffffffffffffffffffffffffffffff1673ffffffffffffffffffffffffffffffffffffffff1681526020016001820160009054906101000a900473ffffffffffffffffffffffffffffffffffffffff1673ffffffffffffffffffffffffffffffffffffffff1673ffffffffffffffffffffffffffffffffffffffff168152602001600282018054600181600116156101000203166002900480601f016020809104026020016040519081016040528092919081815260200182805460018160011615610100020316600290048015611c165780601f10611beb57610100808354040283529160200191611c16565b820191906000526020600020905b815481529060010190602001808311611bf957829003601f168201915b50505050508152602001600382018054600181600116156101000203166002900480601f016020809104026020016040519081016040528092919081815260200182805460018160011615610100020316600290048015611cb85780601f10611c8d57610100808354040283529160200191611cb8565b820191906000526020600020905b815481529060010190602001808311611c9b57829003601f168201915b50505050508152602001600482018054600181600116156101000203166002900480601f016020809104026020016040519081016040528092919081815260200182805460018160011615610100020316600290048015611d5a5780601f10611d2f57610100808354040283529160200191611d5a565b820191906000526020600020905b815481529060010190602001808311611d3d57829003601f168201915b50505050508152602001600582015481526020016006820160009054906101000a900460ff16151515158152505090508060e001511515611d9e5760069150611ddd565b3373ffffffffffffffffffffffffffffffffffffffff16816020015173ffffffffffffffffffffffffffffffffffffffff16141515611ddc57600791505b5b60006008811115611dea57fe5b826008811115611df657fe5b141515611fa9577ffbd28edb0bf6b439a93cae175e96837d7e300a722f661b8db83d43009addc12e600087878785606001518660a001518989604051808915151515815260200180602001878152602001806020018060200180602001866008811115611e5f57fe5b60ff16815260200185810385528c8c828181526020019250808284378201915050858103845289818151815260200191508051906020019080838360005b83811015611eb8578082015181840152602081019050611e9d565b50505050905090810190601f168015611ee55780820380516001836020036101000a031916815260200191505b50858103835288818151815260200191508051906020019080838360005b83811015611f1e578082015181840152602081019050611f03565b50505050905090810190601f168015611f4b5780820380516001836020036101000a031916815260200191505b50858103825287818151815260200191508051906020019060200280838360005b83811015611f87578082015181840152602081019050611f6c565b505050509050019c5050505050505050505050505060405180910390a1600080fd5b600381600001906007811115611fbb57fe5b90816007811115611fc857fe5b815250508060400151836000815181101515611fe057fe5b9060200190602002019073ffffffffffffffffffffffffffffffffffffffff16908173ffffffffffffffffffffffffffffffffffffffff16815250507ffbd28edb0bf6b439a93cae175e96837d7e300a722f661b8db83d43009addc12e600187878785606001518660a00151898960405180891515151581526020018060200187815260200180602001806020018060200186600881111561207e57fe5b60ff16815260200185810385528c8c828181526020019250808284378201915050858103845289818151815260200191508051906020019080838360005b838110156120d75780820151818401526020810190506120bc565b50505050905090810190601f1680156121045780820380516001836020036101000a031916815260200191505b50858103835288818151815260200191508051906020019080838360005b8381101561213d578082015181840152602081019050612122565b50505050905090810190601f16801561216a5780820380516001836020036101000a031916815260200191505b50858103825287818151815260200191508051906020019060200280838360005b838110156121a657808201518184015260208101905061218b565b505050509050019c5050505050505050505050505060405180910390a1505050505050565b606060006121d7612f76565b6121df612e16565b600160405190808252806020026020018201604052801561220f5781602001602082028038833980820191505090505b5093503384600081518110151561222257fe5b9060200190602002019073ffffffffffffffffffffffffffffffffffffffff16908173ffffffffffffffffffffffffffffffffffffffff1681525050600092506001600087815260200190815260200160002061010060405190810160405290816000820160009054906101000a900460ff1660078111156122a057fe5b60078111156122ab57fe5b81526020016000820160019054906101000a900473ffffffffffffffffffffffffffffffffffffffff1673ffffffffffffffffffffffffffffffffffffffff1673ffffffffffffffffffffffffffffffffffffffff1681526020016001820160009054906101000a900473ffffffffffffffffffffffffffffffffffffffff1673ffffffffffffffffffffffffffffffffffffffff1673ffffffffffffffffffffffffffffffffffffffff168152602001600282018054600181600116156101000203166002900480601f0160208091040260200160405190810160405280929190818152602001828054600181600116156101000203166002900480156123f45780601f106123c9576101008083540402835291602001916123f4565b820191906000526020600020905b8154815290600101906020018083116123d757829003601f168201915b50505050508152602001600382018054600181600116156101000203166002900480601f0160208091040260200160405190810160405280929190818152602001828054600181600116156101000203166002900480156124965780601f1061246b57610100808354040283529160200191612496565b820191906000526020600020905b81548152906001019060200180831161247957829003601f168201915b50505050508152602001600482018054600181600116156101000203166002900480601f0160208091040260200160405190810160405280929190818152602001828054600181600116156101000203166002900480156125385780601f1061250d57610100808354040283529160200191612538565b820191906000526020600020905b81548152906001019060200180831161251b57829003601f168201915b50505050508152602001600582015481526020016006820160009054906101000a900460ff16151515158152505091508160e00151151561257c57600692506125bb565b3373ffffffffffffffffffffffffffffffffffffffff16826020015173ffffffffffffffffffffffffffffffffffffffff161415156125ba57600792505b5b600060088111156125c857fe5b8360088111156125d457fe5b1415156126a5577f104481cd585fde9e3444abb61f3e026bbd6db607e2d9e47d67b85c93a6cabfa1600089898988886040518087151515158152602001806020018581526020018060200184600881111561262b57fe5b60ff16815260200183810383528888828181526020019250808284378201915050838103825285818151815260200191508051906020019060200280838360005b8381101561268757808201518184015260208101905061266c565b505050509050019850505050505050505060405180910390a1600080fd5b600082606001516040518082805190602001908083835b6020831015156126e157805182526020820191506020810190506020830392506126bc565b6001836020036101000a0380198251168184511680821785525050505050509050019150509081526020016040518091039020610100604051908101604052908160008201548152602001600182018054600181600116156101000203166002900480601f0160208091040260200160405190810160405280929190818152602001828054600181600116156101000203166002900480156127c45780601f10612799576101008083540402835291602001916127c4565b820191906000526020600020905b8154815290600101906020018083116127a757829003601f168201915b505050505081526020016002820180548060200260200160405190810160405280929190818152602001828054801561282057602002820191906000526020600020905b81546000191681526020019060010190808311612808575b5050505050815260200160038201548152602001600482018054600181600116156101000203166002900480601f0160208091040260200160405190810160405280929190818152602001828054600181600116156101000203166002900480156128cc5780601f106128a1576101008083540402835291602001916128cc565b820191906000526020600020905b8154815290600101906020018083116128af57829003601f168201915b505050505081526020016005820160009054906101000a900473ffffffffffffffffffffffffffffffffffffffff1673ffffffffffffffffffffffffffffffffffffffff1673ffffffffffffffffffffffffffffffffffffffff1681526020016005820160149054906101000a900460ff161515151581526020016005820160159054906101000a900460ff16151515158152505090508060e001511515612a39577f104481cd585fde9e3444abb61f3e026bbd6db607e2d9e47d67b85c93a6cabfa16000898989886003604051808715151515815260200180602001858152602001806020018460088111156129bf57fe5b60ff16815260200183810383528888828181526020019250808284378201915050838103825285818151815260200191508051906020019060200280838360005b83811015612a1b578082015181840152602081019050612a00565b505050509050019850505050505050505060405180910390a1600080fd5b8060c001511515612d83578415612c4c5780600001518260c0018181510391508181525050600660009054906101000a900473ffffffffffffffffffffffffffffffffffffffff1673ffffffffffffffffffffffffffffffffffffffff1663a9059cbb8260a0015183600001516040518363ffffffff167c0100000000000000000000000000000000000000000000000000000000028152600401808373ffffffffffffffffffffffffffffffffffffffff1673ffffffffffffffffffffffffffffffffffffffff16815260200182815260200192505050602060405180830381600087803b158015612b2b57600080fd5b505af1158015612b3f573d6000803e3d6000fd5b505050506040513d6020811015612b5557600080fd5b81019080805190602001909291905050501515612c4b5780600001518260c00181815101915081815250507f104481cd585fde9e3444abb61f3e026bbd6db607e2d9e47d67b85c93a6cabfa1600089898988600860405180871515151581526020018060200185815260200180602001846008811115612bd157fe5b60ff16815260200183810383528888828181526020019250808284378201915050838103825285818151815260200191508051906020019060200280838360005b83811015612c2d578082015181840152602081019050612c12565b505050509050019850505050505050505060405180910390a1600080fd5b5b600782600001906007811115612c5e57fe5b90816007811115612c6b57fe5b815250506000846000815181101515612c8057fe5b9060200190602002019073ffffffffffffffffffffffffffffffffffffffff16908173ffffffffffffffffffffffffffffffffffffffff16815250507f104481cd585fde9e3444abb61f3e026bbd6db607e2d9e47d67b85c93a6cabfa1600189898988600060405180871515151581526020018060200185815260200180602001846008811115612d0d57fe5b60ff16815260200183810383528888828181526020019250808284378201915050838103825285818151815260200191508051906020019060200280838360005b83811015612d69578082015181840152602081019050612d4e565b505050509050019850505050505050505060405180910390a15b5050505050505050565b60006002600081548092919060010191905055905090565b6000814233604051808381526020018273ffffffffffffffffffffffffffffffffffffffff1673ffffffffffffffffffffffffffffffffffffffff166c0100000000000000000000000002815260140192505050604051809103902060019004811515612e0e57fe5b069050919050565b610100604051908101604052806000815260200160608152602001606081526020016000815260200160608152602001600073ffffffffffffffffffffffffffffffffffffffff1681526020016000151581526020016000151581525090565b828054600181600116156101000203166002900490600052602060002090601f016020900481019282601f10612eb757805160ff1916838001178555612ee5565b82800160010185558215612ee5579182015b82811115612ee4578251825591602001919060010190612ec9565b5b509050612ef29190612ff5565b5090565b828054600181600116156101000203166002900490600052602060002090601f016020900481019282601f10612f3757805160ff1916838001178555612f65565b82800160010185558215612f65579182015b82811115612f64578251825591602001919060010190612f49565b5b509050612f729190612ff5565b5090565b6101006040519081016040528060006007811115612f9057fe5b8152602001600073ffffffffffffffffffffffffffffffffffffffff168152602001600073ffffffffffffffffffffffffffffffffffffffff168152602001606081526020016060815260200160608152602001600081526020016000151581525090565b61301791905b80821115613013576000816000905550600101612ffb565b5090565b905600a165627a7a72305820cc0b4cafa5605ecc498f31f9bff7c2f3dd7494ad4dca5f195767cb5a2632cb430029",
  "source": "pragma solidity ^0.4.24;\n\nimport \"./ScryToken.sol\";\n\ncontract ScryProtocol {\n    enum TransactionState {Begin, Created, Voted, Buying, ReadyForDownload, Payed, Arbitrating, Closed}\n    enum ErrorCode {\n        OK,\n        DuplicatePublishId,\n        InvalidParameter,\n        DataNotExist,\n        NoEnoughBalance,\n        FailedTransferFromCaller,\n        TransactionNotExist,\n        InvalidSender,\n        FailedTransferToSeller\n    }\n\n    struct DataInfoPublished {\n        uint256 price;\n        bytes metaDataIdEncSeller;\n        bytes32[] proofDataIds;\n        uint256 numberOfProof;\n        string despDataId;\n        address seller;\n        bool supportVerify;\n        bool used;\n    } \n\n    struct TransactionItem {\n        TransactionState state;\n        address buyer;\n        address seller;\n        string publishId;\n        bytes meteDataIdEncBuyer;\n        bytes metaDataIdEncSeller;\n        uint256 buyerDeposit;\n        bool used;\n    }\n\n    mapping (string => DataInfoPublished) mapPublishedData;\n    mapping (uint => TransactionItem) mapTransaction;\n\n    event DataPublish(bool successed, string seqNo, string publishId, uint256 price, string despDataId, address[] users, ErrorCode errorCode);\n    event TransactionCreate(bool successed, string seqNo, uint256 transactionId, string publishId, bytes32 chosenProofIds, bool supportVerify, address[] users, ErrorCode errorCode);\n    event Buy(bool successed, string seqNo, uint256 transactionId, string publishId, bytes metaDataIdEncSeller, address[] users, ErrorCode errorCode);\n    event ReadyForDownload(bool successed, string seqNo, uint256 transactionId, bytes metaDataIdEncBuyer, address[] users, ErrorCode errorCode);\n    event TransactionClose(bool successed, string seqNo, uint256 transactionId, address[] users, ErrorCode errorCode);\n\n    uint256 transactionSeq = 0;\n    uint256 encryptedIdLen = 32;\n\n    address token_address = 0x0;\n    address owner         = 0x0;\n    ERC20   token;\n\n    constructor (address _token) public {\n        require(_token != 0x0);\n\n        owner = msg.sender;\n        token_address = _token;\n        token = ERC20(_token);\n    }\n\n\n    function publishDataInfo(string seqNo, string publishId, uint256 price, bytes metaDataIdEncSeller,\n                                     bytes32[] proofDataIds, string despDataId, bool supportVerify) external {\n        address[] memory users = new address[](1);\n        users[0] = address(0x00);\n\n        DataInfoPublished memory data = mapPublishedData[publishId];\n        if (data.used) {\n            emit DataPublish(false, seqNo, publishId, price, despDataId, users, ErrorCode.DuplicatePublishId);\n            revert();\n        }\n\n        data = DataInfoPublished(price, metaDataIdEncSeller, proofDataIds, proofDataIds.length, despDataId, msg.sender, supportVerify, true);\n        \n        emit DataPublish(true, seqNo, publishId, price, despDataId, users, ErrorCode.OK);\n    }\n\n    function isPublishedDataExisted(string publishId) internal view returns (bool) {\n        DataInfoPublished memory data = mapPublishedData[publishId];\n        return data.used;\n    }\n\n    function CreateTransaction(string seqNo, string publishId) external {\n        address[] memory users = new address[](1);\n        users[0] = msg.sender;\n        ErrorCode errCode = ErrorCode.OK;\n\n        //published data info\n        DataInfoPublished memory data = mapPublishedData[publishId];\n\n        if(!data.used) {\n            errCode = ErrorCode.DataNotExist;\n        } else if(token.balanceOf(msg.sender) < data.price) {\n            errCode = ErrorCode.NoEnoughBalance;\n        } else if (!token.transferFrom(msg.sender, address(this), data.price)) {\n            errCode = ErrorCode.FailedTransferFromCaller;\n        }\n\n        if (errCode != ErrorCode.OK) {\n            emit TransactionCreate(false, seqNo, 0, publishId, 0, data.supportVerify, users, errCode);\n            revert();\n        }\n\n        //create transaction\n        uint txId = getTransactionId();\n        bytes memory metaDataIdEncBuyer = new bytes(encryptedIdLen);\n        mapTransaction[txId] = TransactionItem(TransactionState.Created, msg.sender, data.seller, \n                                                publishId, metaDataIdEncBuyer, data.metaDataIdEncSeller, data.price, true);\n\n        if (!data.supportVerify) {\n            //choose proof data randomly for buyer\n            uint index = getRandomNumber(data.numberOfProof) % data.numberOfProof;\n            bytes32 proofId = data.proofDataIds[index];\n\n            //TransactionCreat event\n            emit TransactionCreate(true, seqNo, txId, publishId, proofId, data.supportVerify, users, errCode);\n        }\n    }\n\n    function getTransactionId() internal returns(uint) {\n        return transactionSeq++;\n    }\n\n    function getRandomNumber(uint mod) internal view returns (uint) {\n        return uint(keccak256(now, msg.sender)) % mod;\n    }\n\n    function buyData(string seqNo, uint256 txId) external {\n        address[] memory users = new address[](1);\n        users[0] = msg.sender;\n        ErrorCode errCode = ErrorCode.OK;\n\n        //validate\n        TransactionItem memory txItem = mapTransaction[txId];\n\n        if (!txItem.used) {\n            errCode = ErrorCode.TransactionNotExist;\n        } else if (txItem.buyer != msg.sender) {\n            errCode = ErrorCode.InvalidSender;\n        } \n\n        if (errCode != ErrorCode.OK) {\n            emit Buy(false, seqNo, txId, txItem.publishId, txItem.metaDataIdEncSeller, users, errCode);\n            revert();\n        }\n\n        txItem.state = TransactionState.Buying;\n        users[0] = txItem.seller;\n        emit Buy(true, seqNo, txId, txItem.publishId, txItem.metaDataIdEncSeller, users, errCode);\n    }\n\n    function submitMetaDataIdEncWithBuyer(string seqNo, uint256 txId, bytes encryptedMetaDataId) external {\n        address[] memory users = new address[](1);\n        users[0] = msg.sender;\n        ErrorCode errCode = ErrorCode.OK;\n\n        //validate\n        TransactionItem memory txItem = mapTransaction[txId];\n        if (!txItem.used) {\n            errCode = ErrorCode.TransactionNotExist;\n        } else if (txItem.seller != msg.sender) {\n            errCode = ErrorCode.InvalidSender;\n        } \n\n        if (errCode != ErrorCode.OK) {\n            emit ReadyForDownload(false, seqNo, txId, txItem.metaDataIdEncSeller, users, errCode);   \n            revert();\n        }\n\n        txItem.meteDataIdEncBuyer = encryptedMetaDataId;\n        txItem.state = TransactionState.ReadyForDownload;\n\n        //ReadyForDownload event\n        users[0] = txItem.buyer;\n        emit ReadyForDownload(false, seqNo, txId, txItem.metaDataIdEncSeller, users, errCode);   \n    }\n\n    function confirmDataTruth(string seqNo, uint256 txId, bool truth) external {\n        address[] memory users = new address[](1);\n        users[0] = msg.sender;\n        ErrorCode errCode = ErrorCode.OK;\n\n        //validate\n        TransactionItem memory txItem = mapTransaction[txId];\n        if (!txItem.used) {\n            errCode = ErrorCode.TransactionNotExist;\n        } else if (txItem.buyer != msg.sender) {\n            errCode = ErrorCode.InvalidSender;\n        } \n\n        if (errCode != ErrorCode.OK) {\n            emit TransactionClose(false, seqNo, txId, users, errCode);\n            revert();\n        }\n\n        DataInfoPublished memory data = mapPublishedData[txItem.publishId];\n        if (!data.used) {\n            emit TransactionClose(false, seqNo, txId, users, ErrorCode.DataNotExist);\n            revert();\n        }\n\n        if (!data.supportVerify) {\n            if(truth) {\n                //pay to seller from contract\n                txItem.buyerDeposit -= data.price;\n                if (!token.transfer(data.seller, data.price)) {\n                    txItem.buyerDeposit += data.price;\n                    emit TransactionClose(false, seqNo, txId, users, ErrorCode.FailedTransferToSeller);\n                    revert();\n                }\n            }\n            \n            txItem.state = TransactionState.Closed;\n\n            //TransactionClose event\n            users[0] = address(0x00);\n            emit TransactionClose(true, seqNo, txId, users, ErrorCode.OK);\n        }\n    }\n}",
  "sourcePath": "/home/waitgordor/project/iscap/demo/contracts/contracts/ScryProtocol.sol",
  "compiler": {
    "name": "solc",
    "version": "0.4.24+commit.e67f0147.Emscripten.clang"
  },
  "schemaVersion": "2.0.1",
  "updatedAt": "2019-01-15T09:47:28.025Z"
}