{
  "contractName": "ScryProtocol",
  "abi": [
    {
      "inputs": [
        {
          "name": "_token",
          "type": "address"
        }
      ],
      "payable": false,
      "stateMutability": "nonpayable",
      "type": "constructor"
    },
    {
      "anonymous": false,
      "inputs": [
        {
          "indexed": false,
          "name": "seqNo",
          "type": "string"
        },
        {
          "indexed": false,
          "name": "users",
          "type": "address[]"
        }
      ],
      "name": "RegisterVerifier",
      "type": "event"
    },
    {
      "anonymous": false,
      "inputs": [
        {
          "indexed": false,
          "name": "seqNo",
          "type": "string"
        },
        {
          "indexed": false,
          "name": "publishId",
          "type": "string"
        },
        {
          "indexed": false,
          "name": "price",
          "type": "uint256"
        },
        {
          "indexed": false,
          "name": "despDataId",
          "type": "string"
        },
        {
          "indexed": false,
          "name": "users",
          "type": "address[]"
        }
      ],
      "name": "DataPublish",
      "type": "event"
    },
    {
      "anonymous": false,
      "inputs": [
        {
          "indexed": false,
          "name": "seqNo",
          "type": "string"
        },
        {
          "indexed": false,
          "name": "transactionId",
          "type": "uint256"
        },
        {
          "indexed": false,
          "name": "publishId",
          "type": "string"
        },
        {
          "indexed": false,
          "name": "proofIds",
          "type": "bytes32[]"
        },
        {
          "indexed": false,
          "name": "supportVerify",
          "type": "bool"
        },
        {
          "indexed": false,
          "name": "users",
          "type": "address[]"
        }
      ],
      "name": "TransactionCreate",
      "type": "event"
    },
    {
      "anonymous": false,
      "inputs": [
        {
          "indexed": false,
          "name": "seqNo",
          "type": "string"
        },
        {
          "indexed": false,
          "name": "transactionId",
          "type": "uint256"
        },
        {
          "indexed": false,
          "name": "proofIds",
          "type": "bytes32[]"
        },
        {
          "indexed": false,
          "name": "users",
          "type": "address[]"
        }
      ],
      "name": "VerifiersChosen",
      "type": "event"
    },
    {
      "anonymous": false,
      "inputs": [
        {
          "indexed": false,
          "name": "seqNo",
          "type": "string"
        },
        {
          "indexed": false,
          "name": "transactionId",
          "type": "uint256"
        },
        {
          "indexed": false,
          "name": "judge",
          "type": "bool"
        },
        {
          "indexed": false,
          "name": "comments",
          "type": "string"
        },
        {
          "indexed": false,
          "name": "users",
          "type": "address[]"
        }
      ],
      "name": "Vote",
      "type": "event"
    },
    {
      "anonymous": false,
      "inputs": [
        {
          "indexed": false,
          "name": "seqNo",
          "type": "string"
        },
        {
          "indexed": false,
          "name": "transactionId",
          "type": "uint256"
        },
        {
          "indexed": false,
          "name": "publishId",
          "type": "string"
        },
        {
          "indexed": false,
          "name": "metaDataIdEncSeller",
          "type": "bytes"
        },
        {
          "indexed": false,
          "name": "users",
          "type": "address[]"
        }
      ],
      "name": "Buy",
      "type": "event"
    },
    {
      "anonymous": false,
      "inputs": [
        {
          "indexed": false,
          "name": "seqNo",
          "type": "string"
        },
        {
          "indexed": false,
          "name": "transactionId",
          "type": "uint256"
        },
        {
          "indexed": false,
          "name": "metaDataIdEncBuyer",
          "type": "bytes"
        },
        {
          "indexed": false,
          "name": "users",
          "type": "address[]"
        }
      ],
      "name": "ReadyForDownload",
      "type": "event"
    },
    {
      "anonymous": false,
      "inputs": [
        {
          "indexed": false,
          "name": "seqNo",
          "type": "string"
        },
        {
          "indexed": false,
          "name": "transactionId",
          "type": "uint256"
        },
        {
          "indexed": false,
          "name": "users",
          "type": "address[]"
        }
      ],
      "name": "ArbitratingBegin",
      "type": "event"
    },
    {
      "anonymous": false,
      "inputs": [
        {
          "indexed": false,
          "name": "seqNo",
          "type": "string"
        },
        {
          "indexed": false,
          "name": "txId",
          "type": "uint256"
        },
        {
          "indexed": false,
          "name": "state",
          "type": "uint8"
        }
      ],
      "name": "Payed",
      "type": "event"
    },
    {
      "anonymous": false,
      "inputs": [
        {
          "indexed": false,
          "name": "seqNo",
          "type": "string"
        },
        {
          "indexed": false,
          "name": "transactionId",
          "type": "uint256"
        },
        {
          "indexed": false,
          "name": "users",
          "type": "address[]"
        }
      ],
      "name": "TransactionClose",
      "type": "event"
    },
    {
      "anonymous": false,
      "inputs": [
        {
          "indexed": false,
          "name": "seqNo",
          "type": "string"
        },
        {
          "indexed": false,
          "name": "verifier",
          "type": "address"
        },
        {
          "indexed": false,
          "name": "users",
          "type": "address[]"
        }
      ],
      "name": "VerifierDisable",
      "type": "event"
    },
    {
      "constant": false,
      "inputs": [
        {
          "name": "seqNo",
          "type": "string"
        }
      ],
      "name": "registerAsVerifier",
      "outputs": [],
      "payable": false,
      "stateMutability": "nonpayable",
      "type": "function"
    },
    {
      "constant": false,
      "inputs": [
        {
          "name": "seqNo",
          "type": "string"
        },
        {
          "name": "publishId",
          "type": "string"
        },
        {
          "name": "price",
          "type": "uint256"
        },
        {
          "name": "metaDataIdEncSeller",
          "type": "bytes"
        },
        {
          "name": "proofDataIds",
          "type": "bytes32[]"
        },
        {
          "name": "despDataId",
          "type": "string"
        },
        {
          "name": "supportVerify",
          "type": "bool"
        }
      ],
      "name": "publishDataInfo",
      "outputs": [],
      "payable": false,
      "stateMutability": "nonpayable",
      "type": "function"
    },
    {
      "constant": false,
      "inputs": [
        {
          "name": "seqNo",
          "type": "string"
        },
        {
          "name": "publishId",
          "type": "string"
        }
      ],
      "name": "createTransaction",
      "outputs": [],
      "payable": false,
      "stateMutability": "nonpayable",
      "type": "function"
    },
    {
      "constant": false,
      "inputs": [
        {
          "name": "seqNo",
          "type": "string"
        },
        {
          "name": "txId",
          "type": "uint256"
        },
        {
          "name": "judge",
          "type": "bool"
        },
        {
          "name": "comments",
          "type": "string"
        }
      ],
      "name": "vote",
      "outputs": [],
      "payable": false,
      "stateMutability": "nonpayable",
      "type": "function"
    },
    {
      "constant": false,
      "inputs": [
        {
          "name": "seqNo",
          "type": "string"
        },
        {
          "name": "txId",
          "type": "uint256"
        }
      ],
      "name": "buyData",
      "outputs": [],
      "payable": false,
      "stateMutability": "nonpayable",
      "type": "function"
    },
    {
      "constant": false,
      "inputs": [
        {
          "name": "seqNo",
          "type": "string"
        },
        {
          "name": "txId",
          "type": "uint256"
        },
        {
          "name": "encryptedMetaDataId",
          "type": "bytes"
        }
      ],
      "name": "submitMetaDataIdEncWithBuyer",
      "outputs": [],
      "payable": false,
      "stateMutability": "nonpayable",
      "type": "function"
    },
    {
      "constant": false,
      "inputs": [
        {
          "name": "seqNo",
          "type": "string"
        },
        {
          "name": "txId",
          "type": "uint256"
        },
        {
          "name": "truth",
          "type": "bool"
        }
      ],
      "name": "confirmDataTruth",
      "outputs": [],
      "payable": false,
      "stateMutability": "nonpayable",
      "type": "function"
    },
    {
      "constant": false,
      "inputs": [
        {
          "name": "seqNo",
          "type": "string"
        },
        {
          "name": "txId",
          "type": "uint256"
        },
        {
          "name": "judge",
          "type": "bool"
        }
      ],
      "name": "arbitrate",
      "outputs": [],
      "payable": false,
      "stateMutability": "nonpayable",
      "type": "function"
    },
    {
      "constant": false,
      "inputs": [
        {
          "name": "deposit",
          "type": "uint256"
        }
      ],
      "name": "setVerifierDepositToken",
      "outputs": [],
      "payable": false,
      "stateMutability": "nonpayable",
      "type": "function"
    },
    {
      "constant": false,
      "inputs": [
        {
          "name": "num",
          "type": "uint8"
        }
      ],
      "name": "setVerifierNum",
      "outputs": [],
      "payable": false,
      "stateMutability": "nonpayable",
      "type": "function"
    },
    {
      "constant": false,
      "inputs": [
        {
          "name": "seqNo",
          "type": "string"
        },
        {
          "name": "txId",
          "type": "uint256"
        },
        {
          "name": "to",
          "type": "address"
        },
        {
          "name": "credit",
          "type": "uint8"
        }
      ],
      "name": "creditsToVerifier",
      "outputs": [],
      "payable": false,
      "stateMutability": "nonpayable",
      "type": "function"
    }
  ],
  "bytecode": "0x608060405260008060006101000a81548160ff021916908360ff1602179055506002600060016101000a81548160ff021916908360ff1602179055506127106001556000600260006101000a81548160ff021916908360ff1602179055506005600260016101000a81548160ff021916908360ff16021790555060028060026101000a81548160ff021916908360ff1602179055506001600260036101000a81548160ff021916908360ff1602179055506000600260046101000a81548160ff021916908360ff16021790555060006009556020600a556000600b60006101000a81548173ffffffffffffffffffffffffffffffffffffffff021916908373ffffffffffffffffffffffffffffffffffffffff1602179055506000600c60006101000a81548173ffffffffffffffffffffffffffffffffffffffff021916908373ffffffffffffffffffffffffffffffffffffffff1602179055503480156200016757600080fd5b5060405160208062005af28339810180604052810190808051906020019092919050505060008173ffffffffffffffffffffffffffffffffffffffff1614151515620001b257600080fd5b33600c60006101000a81548173ffffffffffffffffffffffffffffffffffffffff021916908373ffffffffffffffffffffffffffffffffffffffff16021790555080600b60006101000a81548173ffffffffffffffffffffffffffffffffffffffff021916908373ffffffffffffffffffffffffffffffffffffffff16021790555080600d60006101000a81548173ffffffffffffffffffffffffffffffffffffffff021916908373ffffffffffffffffffffffffffffffffffffffff16021790555060a060405190810160405280600073ffffffffffffffffffffffffffffffffffffffff16815260200160008152602001600060ff16815260200160008152602001600015158152506003808054809190600101620002d4919062000395565b815481101515620002e157fe5b906000526020600020906005020160008201518160000160006101000a81548173ffffffffffffffffffffffffffffffffffffffff021916908373ffffffffffffffffffffffffffffffffffffffff1602179055506020820151816001015560408201518160020160006101000a81548160ff021916908360ff1602179055506060820151816003015560808201518160040160006101000a81548160ff021916908315150217905550905050506200044b565b815481835581811115620003c557600502816005028360005260206000209182019101620003c49190620003ca565b5b505050565b6200044891905b808211156200044457600080820160006101000a81549073ffffffffffffffffffffffffffffffffffffffff021916905560018201600090556002820160006101000a81549060ff021916905560038201600090556004820160006101000a81549060ff021916905550600501620003d1565b5090565b90565b615697806200045b6000396000f3006080604052600436106100af576000357c0100000000000000000000000000000000000000000000000000000000900463ffffffff1680631219bda6146100b4578063377caed1146101265780635a39eba2146101d757806371ab5c0e146102075780638ba737ee1461023457806393151dd514610291578063980da40d146102cc5780639a756a9914610335578063daff11681461037a578063dd16673b146103cb578063fecc18b41461041c575b600080fd5b3480156100c057600080fd5b5061012460048036038101908080359060200190820180359060200191909192939192939080359060200190929190803573ffffffffffffffffffffffffffffffffffffffff169060200190929190803560ff16906020019092919050505061046f565b005b34801561013257600080fd5b506101d560048036038101908080359060200190820180359060200191909192939192939080359060200190820180359060200191909192939192939080359060200190929190803590602001908201803590602001919091929391929390803590602001908201803590602001919091929391929390803590602001908201803590602001919091929391929390803515159060200190929190505050610e8a565b005b3480156101e357600080fd5b50610205600480360381019080803560ff1690602001909291905050506112b8565b005b34801561021357600080fd5b50610232600480360381019080803590602001909291905050506113c1565b005b34801561024057600080fd5b5061028f600480360381019080803590602001908201803590602001919091929391929390803590602001909291908035906020019082018035906020019190919293919293905050506114b6565b005b34801561029d57600080fd5b506102ca6004803603810190808035906020019082018035906020019190919293919293905050506118d0565b005b3480156102d857600080fd5b5061033360048036038101908080359060200190820180359060200191909192939192939080359060200190929190803515159060200190929190803590602001908201803590602001919091929391929390505050611f78565b005b34801561034157600080fd5b50610378600480360381019080803590602001908201803590602001919091929391929390803590602001909291905050506124c8565b005b34801561038657600080fd5b506103c960048036038101908080359060200190820180359060200191909192939192939080359060200190929190803515159060200190929190505050612d4e565b005b3480156103d757600080fd5b5061041a6004803603810190808035906020019082018035906020019190919293919293908035906020019092919080351515906020019092919050505061317c565b005b34801561042857600080fd5b5061046d6004803603810190808035906020019082018035906020019190919293919293908035906020019082018035906020019190919293919293905050506135d6565b005b6000806000806000606060008873ffffffffffffffffffffffffffffffffffffffff1614151515610508576040517f08c379a00000000000000000000000000000000000000000000000000000000081526004018080602001828103825260188152602001807f56657269666965722061646472657373206973207a65726f000000000000000081525060200191505060405180910390fd5b600260009054906101000a900460ff1660ff168760ff16101580156105425750600260019054906101000a900460ff1660ff168760ff1611155b15156105dc576040517f08c379a00000000000000000000000000000000000000000000000000000000081526004018080602001828103825260268152602001807f56616c6964206372656469742073636f70652069732030203c3d20637265646981526020017f74203c3d2035000000000000000000000000000000000000000000000000000081525060400191505060405180910390fd5b600660008a815260200190815260200160002095508560080160009054906101000a900460ff161515610677576040517f08c379a000000000000000000000000000000000000000000000000000000000815260040180806020018281038252601a8152602001807f5472616e73616374696f6e20646f6573206e6f7420657869737400000000000081525060200191505060405180910390fd5b610680886141ed565b945060008560000160009054906101000a900473ffffffffffffffffffffffffffffffffffffffff1673ffffffffffffffffffffffffffffffffffffffff1614151515610735576040517f08c379a00000000000000000000000000000000000000000000000000000000081526004018080602001828103825260178152602001807f566572696669657220646f6573206e6f7420657869737400000000000000000081525060200191505060405180910390fd5b60058660040160405180828054600181600116156101000203166002900480156107965780601f10610774576101008083540402835291820191610796565b820191906000526020600020905b815481529060010190602001808311610782575b5050915050908152602001604051809103902093508360050160159054906101000a900460ff161515610831576040517f08c379a000000000000000000000000000000000000000000000000000000000815260040180806020018281038252601b8152602001807f5075626c697368206461746120646f6573206e6f74206578697374000000000081525060200191505060405180910390fd5b8360050160149054906101000a900460ff1615156108dd576040517f08c379a000000000000000000000000000000000000000000000000000000000815260040180806020018281038252602b8152602001807f546865207472616e73616374696f6e20646f206e6f7420737570706f7274207681526020017f6572696669636174696f6e00000000000000000000000000000000000000000081525060400191505060405180910390fd5b610a1d8560a060405190810160405290816000820160009054906101000a900473ffffffffffffffffffffffffffffffffffffffff1673ffffffffffffffffffffffffffffffffffffffff1673ffffffffffffffffffffffffffffffffffffffff168152602001600182015481526020016002820160009054906101000a900460ff1660ff1660ff168152602001600382015481526020016004820160009054906101000a900460ff16151515158152505087600201805480602002602001604051908101604052809291908181526020018280548015610a1357602002820191906000526020600020905b8160009054906101000a900473ffffffffffffffffffffffffffffffffffffffff1673ffffffffffffffffffffffffffffffffffffffff16815260200190600101908083116109c9575b50505050506142ce565b8093508194505050821515610a9a576040517f08c379a00000000000000000000000000000000000000000000000000000000081526004018080602001828103825260108152602001807f496e76616c69642076657269666965720000000000000000000000000000000081525060200191505060405180910390fd5b8560030182815481101515610aab57fe5b90600052602060002090602091828204019190069054906101000a900460ff16151515610b66576040517f08c379a000000000000000000000000000000000000000000000000000000000815260040180806020018281038252603b8152602001807f54686520766572696669657227732063726564697420696e207468697320747281526020017f616e73616374696f6e20686173206265656e207375626d69746564000000000081525060400191505060405180910390fd5b84600301600081546001019190508190558760ff1686600301548760020160009054906101000a900460ff1660ff160201811515610ba057fe5b048560020160006101000a81548160ff021916908360ff16021790555060018660030183815481101515610bd057fe5b90600052602060002090602091828204019190066101000a81548160ff0219169083151502179055506002809054906101000a900460ff1660ff168560020160009054906101000a900460ff1660ff16111515610e7d5760008560040160006101000a81548160ff0219169083151502179055506000856001018190555060008081819054906101000a900460ff16809291906001900391906101000a81548160ff021916908360ff1602179055505060016000809054906101000a900460ff1660ff1610151515610d0a576040517f08c379a00000000000000000000000000000000000000000000000000000000081526004018080602001828103825260168152602001807f496e76616c696420766572696669657220636f756e740000000000000000000081525060200191505060405180910390fd5b6001604051908082528060200260200182016040528015610d3a5781602001602082028038833980820191505090505b5090506000816000815181101515610d4e57fe5b9060200190602002019073ffffffffffffffffffffffffffffffffffffffff16908173ffffffffffffffffffffffffffffffffffffffff16815250507fd0e2127bc672e5762b6852e277e4d77594e1eecad47e50f41f56d9a87c1f75058b8b8760000160009054906101000a900473ffffffffffffffffffffffffffffffffffffffff168460405180806020018473ffffffffffffffffffffffffffffffffffffffff1673ffffffffffffffffffffffffffffffffffffffff1681526020018060200183810383528787828181526020019250808284378201915050838103825284818151815260200191508051906020019060200280838360005b83811015610e65578082015181840152602081019050610e4a565b50505050905001965050505050505060405180910390a15b5050505050505050505050565b606060006001604051908082528060200260200182016040528015610ebe5781602001602082028038833980820191505090505b5091506000826000815181101515610ed257fe5b9060200190602002019073ffffffffffffffffffffffffffffffffffffffff16908173ffffffffffffffffffffffffffffffffffffffff168152505060058c8c60405180838380828437820191505092505050908152602001604051809103902090508060050160159054906101000a900460ff16151515610fbc576040517f08c379a00000000000000000000000000000000000000000000000000000000081526004018080602001828103825260148152602001807f4475706c6963617465207075626c69736820696400000000000000000000000081525060200191505060405180910390fd5b610100604051908101604052808b81526020018a8a8080601f0160208091040260200160405190810160405280939291908181526020018383808284378201915050505050508152602001888880806020026020016040519081016040528093929190818152602001838360200280828437820191505050505050815260200188889050815260200186868080601f01602080910402602001604051908101604052809392919081815260200183838082843782019150505050505081526020013373ffffffffffffffffffffffffffffffffffffffff16815260200184151581526020016001151581525060058d8d6040518083838082843782019150509250505090815260200160405180910390206000820151816000015560208201518160010190805190602001906110f392919061509e565b50604082015181600201908051906020019061111092919061511e565b50606082015181600301556080820151816004019080519060200190611137929190615171565b5060a08201518160050160006101000a81548173ffffffffffffffffffffffffffffffffffffffff021916908373ffffffffffffffffffffffffffffffffffffffff16021790555060c08201518160050160146101000a81548160ff02191690831515021790555060e08201518160050160156101000a81548160ff0219169083151502179055509050507f9d1b954932f5249f38959200c17d585ac2b4897b77acb4c29a8fb4d8473f0e8c8e8e8e8e8e8a8a89604051808060200180602001878152602001806020018060200185810385528d8d82818152602001925080828437820191505085810384528b8b82818152602001925080828437820191505085810383528888828181526020019250808284378201915050858103825286818151815260200191508051906020019060200280838360005b8381101561128b578082015181840152602081019050611270565b505050509050019c5050505050505050505050505060405180910390a15050505050505050505050505050565b3373ffffffffffffffffffffffffffffffffffffffff16600c60009054906101000a900473ffffffffffffffffffffffffffffffffffffffff1673ffffffffffffffffffffffffffffffffffffffff161415156113a3576040517f08c379a00000000000000000000000000000000000000000000000000000000081526004018080602001828103825260228152602001807f5468652076616c7565206f6e6c792063616e20626520736574206279206f776e81526020017f657200000000000000000000000000000000000000000000000000000000000081525060400191505060405180910390fd5b80600060016101000a81548160ff021916908360ff16021790555050565b3373ffffffffffffffffffffffffffffffffffffffff16600c60009054906101000a900473ffffffffffffffffffffffffffffffffffffffff1673ffffffffffffffffffffffffffffffffffffffff161415156114ac576040517f08c379a00000000000000000000000000000000000000000000000000000000081526004018080602001828103825260228152602001807f5468652076616c7565206f6e6c792063616e20626520736574206279206f776e81526020017f657200000000000000000000000000000000000000000000000000000000000081525060400191505060405180910390fd5b8060018190555050565b600060606006600086815260200190815260200160002091508160080160009054906101000a900460ff161515611555576040517f08c379a000000000000000000000000000000000000000000000000000000000815260040180806020018281038252601a8152602001807f5472616e73616374696f6e20646f6573206e6f7420657869737400000000000081525060200191505060405180910390fd5b3373ffffffffffffffffffffffffffffffffffffffff168260010160009054906101000a900473ffffffffffffffffffffffffffffffffffffffff1673ffffffffffffffffffffffffffffffffffffffff1614151561161c576040517f08c379a000000000000000000000000000000000000000000000000000000000815260040180806020018281038252600e8152602001807f496e76616c69642073656c6c657200000000000000000000000000000000000081525060200191505060405180910390fd5b6003600781111561162957fe5b8260000160009054906101000a900460ff16600781111561164657fe5b1415156116bb576040517f08c379a00000000000000000000000000000000000000000000000000000000081526004018080602001828103825260198152602001807f496e76616c6964207472616e73616374696f6e2073746174650000000000000081525060200191505060405180910390fd5b83838360050191906116ce9291906151f1565b5060048260000160006101000a81548160ff021916908360078111156116f057fe5b021790555060016040519080825280602002602001820160405280156117255781602001602082028038833980820191505090505b5090508160000160019054906101000a900473ffffffffffffffffffffffffffffffffffffffff1681600081518110151561175c57fe5b9060200190602002019073ffffffffffffffffffffffffffffffffffffffff16908173ffffffffffffffffffffffffffffffffffffffff16815250507f28eb60ba9df25f12ccee668d0a745b5e455365b717f0867aa76edcffe7430cf5878787856006018560405180806020018581526020018060200180602001848103845289898281815260200192508082843782019150508481038352868181546001816001161561010002031660029004815260200191508054600181600116156101000203166002900480156118715780601f1061184657610100808354040283529160200191611871565b820191906000526020600020905b81548152906001019060200180831161185457829003601f168201915b5050848103825285818151815260200191508051906020019060200280838360005b838110156118ae578082015181840152602081019050611893565b505050509050019850505050505050505060405180910390a150505050505050565b600060606118dd336141ed565b915060008260000160009054906101000a900473ffffffffffffffffffffffffffffffffffffffff1673ffffffffffffffffffffffffffffffffffffffff161415156119b7576040517f08c379a00000000000000000000000000000000000000000000000000000000081526004018080602001828103825260228152602001807f54686520766572696669657220697320616c726561647920726567697374657281526020017f656400000000000000000000000000000000000000000000000000000000000081525060400191505060405180910390fd5b60006001541115611d0457600154600d60009054906101000a900473ffffffffffffffffffffffffffffffffffffffff1673ffffffffffffffffffffffffffffffffffffffff166370a08231336040518263ffffffff167c0100000000000000000000000000000000000000000000000000000000028152600401808273ffffffffffffffffffffffffffffffffffffffff1673ffffffffffffffffffffffffffffffffffffffff168152602001915050602060405180830381600087803b158015611a8257600080fd5b505af1158015611a96573d6000803e3d6000fd5b505050506040513d6020811015611aac57600080fd5b810190808051906020019092919050505010151515611b33576040517f08c379a00000000000000000000000000000000000000000000000000000000081526004018080602001828103825260118152602001807f4e6f20656e6f7567682062616c616e636500000000000000000000000000000081525060200191505060405180910390fd5b600d60009054906101000a900473ffffffffffffffffffffffffffffffffffffffff1673ffffffffffffffffffffffffffffffffffffffff166323b872dd33306001546040518463ffffffff167c0100000000000000000000000000000000000000000000000000000000028152600401808473ffffffffffffffffffffffffffffffffffffffff1673ffffffffffffffffffffffffffffffffffffffff1681526020018373ffffffffffffffffffffffffffffffffffffffff1673ffffffffffffffffffffffffffffffffffffffff1681526020018281526020019350505050602060405180830381600087803b158015611c2e57600080fd5b505af1158015611c42573d6000803e3d6000fd5b505050506040513d6020811015611c5857600080fd5b81019080805190602001909291905050501515611d03576040517f08c379a00000000000000000000000000000000000000000000000000000000081526004018080602001828103825260248152602001807f4661696c656420746f207472616e7366657220746f6b656e2066726f6d20636181526020017f6c6c65720000000000000000000000000000000000000000000000000000000081525060400191505060405180910390fd5b5b60a0604051908101604052803373ffffffffffffffffffffffffffffffffffffffff1681526020016001548152602001600260019054906101000a900460ff1660ff16815260200160008152602001600115158152506003808054809190600101611d6f9190615271565b815481101515611d7b57fe5b906000526020600020906005020160008201518160000160006101000a81548173ffffffffffffffffffffffffffffffffffffffff021916908373ffffffffffffffffffffffffffffffffffffffff1602179055506020820151816001015560408201518160020160006101000a81548160ff021916908360ff1602179055506060820151816003015560808201518160040160006101000a81548160ff02191690831515021790555090505060008081819054906101000a900460ff168092919060010191906101000a81548160ff021916908360ff160217905550506001604051908082528060200260200182016040528015611e895781602001602082028038833980820191505090505b50905033816000815181101515611e9c57fe5b9060200190602002019073ffffffffffffffffffffffffffffffffffffffff16908173ffffffffffffffffffffffffffffffffffffffff16815250507f476785064b6fb8cce78cd4377a03177c7bac7803ef345a1eaf34d1dbdbf0e86484848360405180806020018060200183810383528686828181526020019250808284378201915050838103825284818151815260200191508051906020019060200280838360005b83811015611f5c578082015181840152602081019050611f41565b505050509050019550505050505060405180910390a150505050565b6000806000806060600660008a815260200190815260200160002094508460080160009054906101000a900460ff16151561201b576040517f08c379a000000000000000000000000000000000000000000000000000000000815260040180806020018281038252601a8152602001807f5472616e73616374696f6e20646f6573206e6f7420657869737400000000000081525060200191505060405180910390fd5b612024336141ed565b91506121668260a060405190810160405290816000820160009054906101000a900473ffffffffffffffffffffffffffffffffffffffff1673ffffffffffffffffffffffffffffffffffffffff1673ffffffffffffffffffffffffffffffffffffffff168152602001600182015481526020016002820160009054906101000a900460ff1660ff1660ff168152602001600382015481526020016004820160009054906101000a900460ff1615151515815250508660020180548060200260200160405190810160405280929190818152602001828054801561215c57602002820191906000526020600020905b8160009054906101000a900473ffffffffffffffffffffffffffffffffffffffff1673ffffffffffffffffffffffffffffffffffffffff1681526020019060010190808311612112575b50505050506142ce565b80945081955050508315156121e3576040517f08c379a00000000000000000000000000000000000000000000000000000000081526004018080602001828103825260108152602001807f496e76616c69642076657269666965720000000000000000000000000000000081525060200191505060405180910390fd5b606060405190810160405280891515815260200188888080601f016020809104026020016040519081016040528093929190818152602001838380828437820191505050505050815260200160011515815250600760008b815260200190815260200160002060003373ffffffffffffffffffffffffffffffffffffffff1673ffffffffffffffffffffffffffffffffffffffff16815260200190815260200160002060008201518160000160006101000a81548160ff02191690831515021790555060208201518160010190805190602001906122c2929190615171565b5060408201518160020160006101000a81548160ff02191690831515021790555090505060028560000160006101000a81548160ff0219169083600781111561230757fe5b02179055506000856003018481548110151561231f57fe5b90600052602060002090602091828204019190066101000a81548160ff02191690831515021790555060016040519080825280602002602001820160405280156123785781602001602082028038833980820191505090505b5090508460000160019054906101000a900473ffffffffffffffffffffffffffffffffffffffff168160008151811015156123af57fe5b9060200190602002019073ffffffffffffffffffffffffffffffffffffffff16908173ffffffffffffffffffffffffffffffffffffffff16815250507f6c9b52deb2c6010b3925a2e11bd5a7067f351dfb5f0ece7f1262ccaf599cacd38b8b8b8b8b8b87604051808060200187815260200186151515158152602001806020018060200184810384528b8b82818152602001925080828437820191505084810383528787828181526020019250808284378201915050848103825285818151815260200191508051906020019060200280838360005b838110156124a0578082015181840152602081019050612485565b505050509050019a505050505050505050505060405180910390a15050505050505050505050565b60006124d26152a3565b60606006600085815260200190815260200160002092508260080160009054906101000a900460ff16151561256f576040517f08c379a000000000000000000000000000000000000000000000000000000000815260040180806020018281038252601a8152602001807f5472616e73616374696f6e20646f6573206e6f7420657869737400000000000081525060200191505060405180910390fd5b3373ffffffffffffffffffffffffffffffffffffffff168360000160019054906101000a900473ffffffffffffffffffffffffffffffffffffffff1673ffffffffffffffffffffffffffffffffffffffff16141515612636576040517f08c379a000000000000000000000000000000000000000000000000000000000815260040180806020018281038252600d8152602001807f496e76616c69642062757965720000000000000000000000000000000000000081525060200191505060405180910390fd5b60058360040160405180828054600181600116156101000203166002900480156126975780601f10612675576101008083540402835291820191612697565b820191906000526020600020905b815481529060010190602001808311612683575b50509150509081526020016040518091039020610100604051908101604052908160008201548152602001600182018054600181600116156101000203166002900480601f01602080910402602001604051908101604052809291908181526020018280546001816001161561010002031660029004801561275a5780601f1061272f5761010080835404028352916020019161275a565b820191906000526020600020905b81548152906001019060200180831161273d57829003601f168201915b50505050508152602001600282018054806020026020016040519081016040528092919081815260200182805480156127b657602002820191906000526020600020905b8154600019168152602001906001019080831161279e575b5050505050815260200160038201548152602001600482018054600181600116156101000203166002900480601f0160208091040260200160405190810160405280929190818152602001828054600181600116156101000203166002900480156128625780601f1061283757610100808354040283529160200191612862565b820191906000526020600020905b81548152906001019060200180831161284557829003601f168201915b505050505081526020016005820160009054906101000a900473ffffffffffffffffffffffffffffffffffffffff1673ffffffffffffffffffffffffffffffffffffffff1673ffffffffffffffffffffffffffffffffffffffff1681526020016005820160149054906101000a900460ff161515151581526020016005820160159054906101000a900460ff16151515158152505091508160e001511515612972576040517f08c379a000000000000000000000000000000000000000000000000000000000815260040180806020018281038252601b8152602001807f5075626c697368206461746120646f6573206e6f74206578697374000000000081525060200191505060405180910390fd5b8160c001511515612a21576001600781111561298a57fe5b8360000160009054906101000a900460ff1660078111156129a757fe5b141515612a1c576040517f08c379a00000000000000000000000000000000000000000000000000000000081526004018080602001828103825260198152602001807f496e76616c6964207472616e73616374696f6e2073746174650000000000000081525060200191505060405180910390fd5b612ac1565b60026007811115612a2e57fe5b8360000160009054906101000a900460ff166007811115612a4b57fe5b141515612ac0576040517f08c379a00000000000000000000000000000000000000000000000000000000081526004018080602001828103825260198152602001807f496e76616c6964207472616e73616374696f6e2073746174650000000000000081525060200191505060405180910390fd5b5b60038360000160006101000a81548160ff02191690836007811115612ae257fe5b02179055506001604051908082528060200260200182016040528015612b175781602001602082028038833980820191505090505b5090508260010160009054906101000a900473ffffffffffffffffffffffffffffffffffffffff16816000815181101515612b4e57fe5b9060200190602002019073ffffffffffffffffffffffffffffffffffffffff16908173ffffffffffffffffffffffffffffffffffffffff16815250507feeaf28668d6d8a951d1c5b873c5e94068abdea0145811cbeaece6c309118f3e3868686866004018760060186604051808060200186815260200180602001806020018060200185810385528b8b828181526020019250808284378201915050858103845288818154600181600116156101000203166002900481526020019150805460018160011615610100020316600290048015612c6b5780601f10612c4057610100808354040283529160200191612c6b565b820191906000526020600020905b815481529060010190602001808311612c4e57829003601f168201915b5050858103835287818154600181600116156101000203166002900481526020019150805460018160011615610100020316600290048015612cee5780601f10612cc357610100808354040283529160200191612cee565b820191906000526020600020905b815481529060010190602001808311612cd157829003601f168201915b5050858103825286818151815260200191508051906020019060200280838360005b83811015612d2b578082015181840152602081019050612d10565b505050509050019a505050505050505050505060405180910390a1505050505050565b6000806000806006600087815260200190815260200160002093508360080160009054906101000a900460ff161515612def576040517f08c379a000000000000000000000000000000000000000000000000000000000815260040180806020018281038252601a8152602001807f5472616e73616374696f6e20646f6573206e6f7420657869737400000000000081525060200191505060405180910390fd5b612e7f336004805480602002602001604051908101604052809291908181526020018280548015612e7557602002820191906000526020600020905b8160009054906101000a900473ffffffffffffffffffffffffffffffffffffffff1673ffffffffffffffffffffffffffffffffffffffff1681526020019060010190808311612e2b575b5050505050614306565b1515612ef3576040517f08c379a00000000000000000000000000000000000000000000000000000000081526004018080602001828103825260128152602001807f496e76616c69642061726269747261746f72000000000000000000000000000081525060200191505060405180910390fd5b6008600087815260200190815260200160002085908060018154018082558091505090600182039060005260206000209060209182820401919006909192909190916101000a81548160ff02191690831515021790555050600260039054906101000a900460ff1660ff166008600088815260200190815260200160002080549050141561317257600091505b600260039054906101000a900460ff1660ff16821015612ff5576008600087815260200190815260200160002082815481101515612fba57fe5b90600052602060002090602091828204019190069054906101000a900460ff1615612fe85782806001019350505b8180600101925050612f80565b6008600087815260200190815260200160002060006130149190615303565b60026001600260039054906101000a900460ff160160ff1681151561303557fe5b0460ff168360ff161015151561304a576130cb565b60058460040160405180828054600181600116156101000203166002900480156130ab5780601f106130895761010080835404028352918201916130ab565b820191906000526020600020905b815481529060010190602001808311613097575b5050915050908152602001604051809103902090506130ca848261438e565b5b60068460000160006101000a81548160ff021916908360078111156130ec57fe5b02179055507f2eef40da5728735b0f67f94d2583a13059f4b17553d714bf814d84790aa104b58888888760000160009054906101000a900460ff16604051808060200184815260200183600781111561314157fe5b60ff168152602001828103825286868281815260200192508082843782019150509550505050505060405180910390a15b5050505050505050565b6000806006600085815260200190815260200160002091508160080160009054906101000a900460ff16151561321a576040517f08c379a000000000000000000000000000000000000000000000000000000000815260040180806020018281038252601a8152602001807f5472616e73616374696f6e20646f6573206e6f7420657869737400000000000081525060200191505060405180910390fd5b3373ffffffffffffffffffffffffffffffffffffffff168260000160019054906101000a900473ffffffffffffffffffffffffffffffffffffffff1673ffffffffffffffffffffffffffffffffffffffff161415156132e1576040517f08c379a000000000000000000000000000000000000000000000000000000000815260040180806020018281038252600d8152602001807f496e76616c69642062757965720000000000000000000000000000000000000081525060200191505060405180910390fd5b60058260040160405180828054600181600116156101000203166002900480156133425780601f10613320576101008083540402835291820191613342565b820191906000526020600020905b81548152906001019060200180831161332e575b5050915050908152602001604051809103902090508060050160159054906101000a900460ff1615156133dd576040517f08c379a000000000000000000000000000000000000000000000000000000000815260040180806020018281038252601b8152602001807f5075626c697368206461746120646f6573206e6f74206578697374000000000081525060200191505060405180910390fd5b600460078111156133ea57fe5b8260000160009054906101000a900460ff16600781111561340757fe5b14151561341357600080fd5b8060050160149054906101000a900460ff16151561347e57821561343c5761343b828261438e565b5b6134798287878080601f016020809104026020016040519081016040528093929190818152602001838380828437820191505050505050866145f0565b6135ce565b82156134d05761348e828261438e565b6134cb8287878080601f016020809104026020016040519081016040528093929190818152602001838380828437820191505050505050866145f0565b6135cd565b60058260000160006101000a81548160ff021916908360078111156134f157fe5b02179055507f9b7cb521faf87f80587668cdb4024143a0c50ba072f648e443d742397a2159af86868660046040518080602001848152602001806020018381038352878782818152602001925080828437820191505083810382528481815481526020019150805480156135ba57602002820191906000526020600020905b8160009054906101000a900473ffffffffffffffffffffffffffffffffffffffff1673ffffffffffffffffffffffffffffffffffffffff1681526020019060010190808311613570575b5050965050505050505060405180910390a15b5b505050505050565b6135de6152a3565b60008060608060608060058989604051808383808284378201915050925050509081526020016040518091039020610100604051908101604052908160008201548152602001600182018054600181600116156101000203166002900480601f0160208091040260200160405190810160405280929190818152602001828054600181600116156101000203166002900480156136bc5780601f10613691576101008083540402835291602001916136bc565b820191906000526020600020905b81548152906001019060200180831161369f57829003601f168201915b505050505081526020016002820180548060200260200160405190810160405280929190818152602001828054801561371857602002820191906000526020600020905b81546000191681526020019060010190808311613700575b5050505050815260200160038201548152602001600482018054600181600116156101000203166002900480601f0160208091040260200160405190810160405280929190818152602001828054600181600116156101000203166002900480156137c45780601f10613799576101008083540402835291602001916137c4565b820191906000526020600020905b8154815290600101906020018083116137a757829003601f168201915b505050505081526020016005820160009054906101000a900473ffffffffffffffffffffffffffffffffffffffff1673ffffffffffffffffffffffffffffffffffffffff1673ffffffffffffffffffffffffffffffffffffffff1681526020016005820160149054906101000a900460ff161515151581526020016005820160159054906101000a900460ff16151515158152505096508660e0015115156138d4576040517f08c379a000000000000000000000000000000000000000000000000000000000815260040180806020018281038252601b8152602001807f5075626c697368206461746120646f6573206e6f74206578697374000000000081525060200191505060405180910390fd5b8660000151600d60009054906101000a900473ffffffffffffffffffffffffffffffffffffffff1673ffffffffffffffffffffffffffffffffffffffff166370a08231336040518263ffffffff167c0100000000000000000000000000000000000000000000000000000000028152600401808273ffffffffffffffffffffffffffffffffffffffff1673ffffffffffffffffffffffffffffffffffffffff168152602001915050602060405180830381600087803b15801561399657600080fd5b505af11580156139aa573d6000803e3d6000fd5b505050506040513d60208110156139c057600080fd5b810190808051906020019092919050505010151515613a47576040517f08c379a00000000000000000000000000000000000000000000000000000000081526004018080602001828103825260118152602001807f4e6f20656e6f7567682062616c616e636500000000000000000000000000000081525060200191505060405180910390fd5b866000015195508660c0015115613a5f576000860195505b600d60009054906101000a900473ffffffffffffffffffffffffffffffffffffffff1673ffffffffffffffffffffffffffffffffffffffff166323b872dd3330896040518463ffffffff167c0100000000000000000000000000000000000000000000000000000000028152600401808473ffffffffffffffffffffffffffffffffffffffff1673ffffffffffffffffffffffffffffffffffffffff1681526020018373ffffffffffffffffffffffffffffffffffffffff1673ffffffffffffffffffffffffffffffffffffffff1681526020018281526020019350505050602060405180830381600087803b158015613b5857600080fd5b505af1158015613b6c573d6000803e3d6000fd5b505050506040513d6020811015613b8257600080fd5b81019080805190602001909291905050501515613c2d576040517f08c379a00000000000000000000000000000000000000000000000000000000081526004018080602001828103825260248152602001807f4661696c656420746f207472616e7366657220746f6b656e2066726f6d20636181526020017f6c6c65720000000000000000000000000000000000000000000000000000000081525060400191505060405180910390fd5b613c3561478b565b9450600a546040519080825280601f01601f191660200182016040528015613c6c5781602001602082028038833980820191505090505b5093508660c0015115613df657613c91600060019054906101000a900460ff166147a3565b9250600060019054906101000a900460ff1660ff16604051908082528060200260200182016040528015613cd45781602001602082028038833980820191505090505b5091507f9c200a4227ec4e19b5ad9d49dc8b449b7f19d88b7ba8c38e633a05713c6e6b748b8b878a60400151876040518080602001858152602001806020018060200184810384528989828181526020019250808284378201915050848103835286818151815260200191508051906020019060200280838360005b83811015613d6b578082015181840152602081019050613d50565b50505050905001848103825285818151815260200191508051906020019060200280838360005b83811015613dad578082015181840152602081019050613d92565b505050509050019850505050505050505060405180910390a1613ddf600260039054906101000a900460ff1684614ac0565b60049080519060200190613df492919061532b565b505b6001604051908082528060200260200182016040528015613e265781602001602082028038833980820191505090505b50905033816000815181101515613e3957fe5b9060200190602002019073ffffffffffffffffffffffffffffffffffffffff16908173ffffffffffffffffffffffffffffffffffffffff16815250507fd16734b3714832ed6453cfd7a0cdc465aeb6058f33ac675bc38176c4c4e109618b8b878c8c8c604001518d60c001518860405180806020018881526020018060200180602001861515151581526020018060200185810385528d8d82818152602001925080828437820191505085810384528a8a828181526020019250808284378201915050858103835288818151815260200191508051906020019060200280838360005b83811015613f37578082015181840152602081019050613f1c565b50505050905001858103825286818151815260200191508051906020019060200280838360005b83811015613f79578082015181840152602081019050613f5e565b505050509050019c5050505050505050505050505060405180910390a16101406040519081016040528060016007811115613fb057fe5b81526020013373ffffffffffffffffffffffffffffffffffffffff1681526020018860a0015173ffffffffffffffffffffffffffffffffffffffff1681526020018481526020018381526020018a8a8080601f01602080910402602001604051908101604052809392919081815260200183838082843782019150505050505081526020018581526020018860200151815260200188600001518152602001600115158152506006600087815260200190815260200160002060008201518160000160006101000a81548160ff0219169083600781111561408d57fe5b021790555060208201518160000160016101000a81548173ffffffffffffffffffffffffffffffffffffffff021916908373ffffffffffffffffffffffffffffffffffffffff16021790555060408201518160010160006101000a81548173ffffffffffffffffffffffffffffffffffffffff021916908373ffffffffffffffffffffffffffffffffffffffff160217905550606082015181600201908051906020019061413c9291906153b5565b50608082015181600301908051906020019061415992919061543f565b5060a0820151816004019080519060200190614176929190615171565b5060c082015181600501908051906020019061419392919061509e565b5060e08201518160060190805190602001906141b092919061509e565b5061010082015181600701556101208201518160080160006101000a81548160ff0219169083151502179055509050505050505050505050505050565b600080600090505b6003805490508110156142a7578273ffffffffffffffffffffffffffffffffffffffff1660038281548110151561422857fe5b906000526020600020906005020160000160009054906101000a900473ffffffffffffffffffffffffffffffffffffffff1673ffffffffffffffffffffffffffffffffffffffff16141561429a5760038181548110151561428557fe5b906000526020600020906005020191506142c8565b80806001019150506141f5565b600360008154811015156142b757fe5b906000526020600020906005020191505b50919050565b6000806000806142e2866000015186614ec9565b8092508193505050856080015180156142f85750815b819350935050509250929050565b6000806000809150600090505b83518160ff16101561438357838160ff1681518110151561433057fe5b9060200190602002015173ffffffffffffffffffffffffffffffffffffffff168573ffffffffffffffffffffffffffffffffffffffff1614156143765760019150614383565b8080600101915050614313565b819250505092915050565b806000015482600701541015156145755780600001548260070160008282540392505081905550600d60009054906101000a900473ffffffffffffffffffffffffffffffffffffffff1673ffffffffffffffffffffffffffffffffffffffff1663a9059cbb8260050160009054906101000a900473ffffffffffffffffffffffffffffffffffffffff1683600001546040518363ffffffff167c0100000000000000000000000000000000000000000000000000000000028152600401808373ffffffffffffffffffffffffffffffffffffffff1673ffffffffffffffffffffffffffffffffffffffff16815260200182815260200192505050602060405180830381600087803b1580156144a257600080fd5b505af11580156144b6573d6000803e3d6000fd5b505050506040513d60208110156144cc57600080fd5b8101908080519060200190929190505050151561457057806000015482600701600082825401925050819055506000151561456f576040517f08c379a00000000000000000000000000000000000000000000000000000000081526004018080602001828103825260178152602001807f4661696c656420746f2070617920746f2073656c6c657200000000000000000081525060200191505060405180910390fd5b5b6145ec565b600015156145eb576040517f08c379a00000000000000000000000000000000000000000000000000000000081526004018080602001828103825260118152602001807f4c6f77206465706f7369742076616c756500000000000000000000000000000081525060200191505060405180910390fd5b5b5050565b606060078460000160006101000a81548160ff0219169083600781111561461357fe5b021790555060016040519080825280602002602001820160405280156146485781602001602082028038833980820191505090505b509050600081600081518110151561465c57fe5b9060200190602002019073ffffffffffffffffffffffffffffffffffffffff16908173ffffffffffffffffffffffffffffffffffffffff16815250507f784a9feb5a6ecee5d955d1b5e294f2b57d9477164fba686c0bde4a40849f2b0c838383604051808060200184815260200180602001838103835286818151815260200191508051906020019080838360005b838110156147065780820151818401526020810190506146eb565b50505050905090810190601f1680156147335780820380516001836020036101000a031916815260200191505b50838103825284818151815260200191508051906020019060200280838360005b8381101561476f578082015181840152602081019050614754565b505050509050019550505050505060405180910390a150505050565b60006009600081548092919060010191905055905090565b6060806000806000806000809054906101000a900460ff1660ff168760ff16101515614837576040517f08c379a00000000000000000000000000000000000000000000000000000000081526004018080602001828103825260198152602001807f4e6f20656e6f7567682076616c6964207665726966696572730000000000000081525060200191505060405180910390fd5b8660ff166040519080825280602002602001820160405280156148695781602001602082028038833980820191505090505b509450600093505b8660ff168460ff161015614ab357600380549050614893600380549050614f52565b81151561489c57fe5b0692506003838154811015156148ae57fe5b906000526020600020906005020191508160000160009054906101000a900473ffffffffffffffffffffffffffffffffffffffff1690505b8160040160009054906101000a900460ff16158061492e575061492d8260000160009054906101000a900473ffffffffffffffffffffffffffffffffffffffff1686614fc3565b5b15614a3457600380805490508460010194508481151561494a57fe5b0681548110151561495757fe5b906000526020600020906005020191508073ffffffffffffffffffffffffffffffffffffffff168260000160009054906101000a900473ffffffffffffffffffffffffffffffffffffffff1673ffffffffffffffffffffffffffffffffffffffff1614151515614a2f576040517f08c379a00000000000000000000000000000000000000000000000000000000081526004018080602001828103825260148152602001807f4469736f7264657265642076657269666965727300000000000000000000000081525060200191505060405180910390fd5b6148e6565b8160000160009054906101000a900473ffffffffffffffffffffffffffffffffffffffff16858560ff16815181101515614a6a57fe5b9060200190602002019073ffffffffffffffffffffffffffffffffffffffff16908173ffffffffffffffffffffffffffffffffffffffff16815250508380600101945050614871565b8495505050505050919050565b6060806060600080614ad06154e5565b6060600080600060019054906101000a900460ff1660ff1660038054905003604051908082528060200260200182016040528015614b1d5781602001602082028038833980820191505090505b5097508a60ff16604051908082528060200260200182016040528015614b525781602001602082028038833980820191505090505b509650600094505b600380549050851015614c7657600385815481101515614b7657fe5b906000526020600020906005020160a060405190810160405290816000820160009054906101000a900473ffffffffffffffffffffffffffffffffffffffff1673ffffffffffffffffffffffffffffffffffffffff1673ffffffffffffffffffffffffffffffffffffffff168152602001600182015481526020016002820160009054906101000a900460ff1660ff1660ff168152602001600382015481526020016004820160009054906101000a900460ff1615151515815250509350614c3e848b614fdf565b15614c6957848887815181101515614c5257fe5b906020019060200201818152505085806001019650505b8480600101955050614b5a565b8a60ff168610151515614cf1576040517f08c379a00000000000000000000000000000000000000000000000000000000081526004018080602001828103825260158152602001807f4e6f20656e6f7567682061726269747261746f7273000000000000000000000081525060200191505060405180910390fd5b85604051908082528060200260200182016040528015614d205781602001602082028038833980820191505090505b5092505b6000861115614ddd5785806001900396505060038887815181101515614d4657fe5b90602001906020020151815481101515614d5c57fe5b906000526020600020906005020160000160009054906101000a900473ffffffffffffffffffffffffffffffffffffffff168387815181101515614d9c57fe5b9060200190602002019073ffffffffffffffffffffffffffffffffffffffff16908173ffffffffffffffffffffffffffffffffffffffff1681525050614d24565b600094505b8a60ff16851015614eb8578251614df98451614f52565b811515614e0257fe5b0691508282815181101515614e1357fe5b9060200190602002015190505b614e2a8188614306565b15614e605782835183600101935083811515614e4257fe5b06815181101515614e4f57fe5b906020019060200201519050614e20565b808786815181101515614e6f57fe5b9060200190602002019073ffffffffffffffffffffffffffffffffffffffff16908173ffffffffffffffffffffffffffffffffffffffff16815250508480600101955050614de2565b869850505050505050505092915050565b60008060008090505b8351811015614f3f578473ffffffffffffffffffffffffffffffffffffffff168482815181101515614f0057fe5b9060200190602002015173ffffffffffffffffffffffffffffffffffffffff161415614f325760018192509250614f4a565b8080600101915050614ed2565b600080809050925092505b509250929050565b6000814233604051808381526020018273ffffffffffffffffffffffffffffffffffffffff1673ffffffffffffffffffffffffffffffffffffffff166c0100000000000000000000000002815260140192505050604051809103902060019004811515614fbb57fe5b069050919050565b600080614fd08484614ec9565b50809150508091505092915050565b600080600060019150600090505b83518160ff16101561506157838160ff1681518110151561500a57fe5b9060200190602002015173ffffffffffffffffffffffffffffffffffffffff16856000015173ffffffffffffffffffffffffffffffffffffffff1614156150545760009150615061565b8080600101915050614fed565b81801561506f575084608001515b80156150945750600260049054906101000a900460ff1660ff16856040015160ff1610155b9250505092915050565b828054600181600116156101000203166002900490600052602060002090601f016020900481019282601f106150df57805160ff191683800117855561510d565b8280016001018555821561510d579182015b8281111561510c5782518255916020019190600101906150f1565b5b50905061511a9190615530565b5090565b828054828255906000526020600020908101928215615160579160200282015b8281111561515f57825182906000191690559160200191906001019061513e565b5b50905061516d9190615555565b5090565b828054600181600116156101000203166002900490600052602060002090601f016020900481019282601f106151b257805160ff19168380011785556151e0565b828001600101855582156151e0579182015b828111156151df5782518255916020019190600101906151c4565b5b5090506151ed9190615530565b5090565b828054600181600116156101000203166002900490600052602060002090601f016020900481019282601f1061523257803560ff1916838001178555615260565b82800160010185558215615260579182015b8281111561525f578235825591602001919060010190615244565b5b50905061526d9190615530565b5090565b81548183558181111561529e5760050281600502836000526020600020918201910161529d919061557a565b5b505050565b610100604051908101604052806000815260200160608152602001606081526020016000815260200160608152602001600073ffffffffffffffffffffffffffffffffffffffff1681526020016000151581526020016000151581525090565b50805460008255601f0160209004906000526020600020908101906153289190615530565b50565b8280548282559060005260206000209081019282156153a4579160200282015b828111156153a35782518260006101000a81548173ffffffffffffffffffffffffffffffffffffffff021916908373ffffffffffffffffffffffffffffffffffffffff1602179055509160200191906001019061534b565b5b5090506153b191906155f8565b5090565b82805482825590600052602060002090810192821561542e579160200282015b8281111561542d5782518260006101000a81548173ffffffffffffffffffffffffffffffffffffffff021916908373ffffffffffffffffffffffffffffffffffffffff160217905550916020019190600101906153d5565b5b50905061543b91906155f8565b5090565b82805482825590600052602060002090601f016020900481019282156154d45791602002820160005b838211156154a557835183826101000a81548160ff0219169083151502179055509260200192600101602081600001049283019260010302615468565b80156154d25782816101000a81549060ff02191690556001016020816000010492830192600103026154a5565b505b5090506154e1919061563b565b5090565b60a060405190810160405280600073ffffffffffffffffffffffffffffffffffffffff16815260200160008152602001600060ff168152602001600081526020016000151581525090565b61555291905b8082111561554e576000816000905550600101615536565b5090565b90565b61557791905b8082111561557357600081600090555060010161555b565b5090565b90565b6155f591905b808211156155f157600080820160006101000a81549073ffffffffffffffffffffffffffffffffffffffff021916905560018201600090556002820160006101000a81549060ff021916905560038201600090556004820160006101000a81549060ff021916905550600501615580565b5090565b90565b61563891905b8082111561563457600081816101000a81549073ffffffffffffffffffffffffffffffffffffffff0219169055506001016155fe565b5090565b90565b61566891905b8082111561566457600081816101000a81549060ff021916905550600101615641565b5090565b905600a165627a7a72305820eee7f99bbe5768391db3a98f5691bb7d1c28a866db770b7ddcefc8a7eccdc52b0029",
  "source": "pragma solidity ^0.4.24;\n\nimport \"./ScryToken.sol\";\n\ncontract ScryProtocol {\n    enum TransactionState {Begin, Created, Voted, Buying, ReadyForDownload, Arbitrating, Payed, Closed}\n\n    struct DataInfoPublished {\n        uint256 price;\n        bytes metaDataIdEncSeller;\n        bytes32[] proofDataIds;\n        uint256 numberOfProof;\n        string despDataId;\n        address seller;\n        bool supportVerify;\n        bool used;\n    }\n\n    struct TransactionItem {\n        TransactionState state;\n        address buyer;\n        address seller;\n        address[] verifiers;\n        bool[] creditGived;\n        string publishId;\n        bytes meteDataIdEncBuyer;\n        bytes metaDataIdEncSeller;\n        uint256 buyerDeposit;\n        bool used;\n    }\n\n    struct Verifier {\n        address addr;\n        uint256 deposit;\n        uint8 credits;  //credit: 0-5\n        uint256 creditTimes;\n        bool enable;\n    }\n\n    uint8 validVerifierCount = 0;\n    uint8 verifierNum = 2;\n    uint256 verifierDepositToken = 10000;\n    uint8 creditLow = 0;\n    uint8 creditHigh = 5;\n    uint8 creditThreshold = 2;\n    uint8 arbitratorNum = 1;        \n    uint8 arbitrateCredit = 0;      \n\n    struct VoteResult {\n        bool judge;\n        string comments;\n        bool used;\n    }\n\n    Verifier[] verifiers;\n    address[] selectedArbitrators;\n    mapping (string => DataInfoPublished) mapPublishedData;\n    mapping (uint256 => TransactionItem) mapTransaction;\n    mapping (uint256 => mapping(address => VoteResult)) mapVote;\n    mapping (uint256 => bool[]) mapCount;\n\n    event RegisterVerifier(string seqNo, address[] users);\n    event DataPublish(string seqNo, string publishId, uint256 price, string despDataId, address[] users);\n    event TransactionCreate(string seqNo, uint256 transactionId, string publishId, bytes32[] proofIds, bool supportVerify, address[] users);\n    event VerifiersChosen(string seqNo, uint256 transactionId, bytes32[] proofIds, address[] users);\n    event Vote(string seqNo, uint256 transactionId, bool judge, string comments, address[] users);\n    event Buy(string seqNo, uint256 transactionId, string publishId, bytes metaDataIdEncSeller, address[] users);\n    event ReadyForDownload(string seqNo, uint256 transactionId, bytes metaDataIdEncBuyer, address[] users);\n    event ArbitratingBegin(string seqNo,uint256 transactionId, address[] users);\n    event Payed(string seqNo,uint256 txId,TransactionState state);\n    event TransactionClose(string seqNo, uint256 transactionId, address[] users);\n    event VerifierDisable(string seqNo, address verifier, address[] users);\n\n    uint256 transactionSeq = 0;\n    uint256 encryptedIdLen = 32;\n\n    address token_address = 0x0;\n    address owner         = 0x0;\n    ERC20   token;\n\n    constructor (address _token) public {\n        require(_token != 0x0);\n\n        owner = msg.sender;\n        token_address = _token;\n        token = ERC20(_token);\n\n        //the first element used for empty usage\n        verifiers[verifiers.length++] = Verifier(0x00, 0, 0, 0, false);\n    }\n\n    function registerAsVerifier(string seqNo) external {\n        Verifier storage v = getVerifier(msg.sender);\n        require( v.addr == 0x00, \"The verifier is already registered\");\n\n        //deposit\n        if (verifierDepositToken > 0) {\n            require(token.balanceOf(msg.sender) >= verifierDepositToken, \"No enough balance\");\n            require(token.transferFrom(msg.sender, address(this), verifierDepositToken), \"Failed to transfer token from caller\");\n        }\n\n        verifiers[verifiers.length++] = Verifier(msg.sender, verifierDepositToken, creditHigh, 0, true);\n        validVerifierCount++;\n\n        address[] memory users = new address[](1);\n        users[0] = msg.sender;\n        emit RegisterVerifier(seqNo, users);\n    }\n\n    function publishDataInfo(string seqNo, string publishId, uint256 price, bytes metaDataIdEncSeller,\n        bytes32[] proofDataIds, string despDataId, bool supportVerify) external {\n        address[] memory users = new address[](1);\n        users[0] = address(0x00);\n\n        DataInfoPublished storage data = mapPublishedData[publishId];\n        require(!data.used, \"Duplicate publish id\");\n\n        mapPublishedData[publishId] = DataInfoPublished(price, metaDataIdEncSeller, proofDataIds, proofDataIds.length, despDataId, msg.sender, supportVerify, true);\n\n        emit DataPublish(seqNo, publishId, price, despDataId, users);\n    }\n\n    function isPublishedDataExisted(string publishId) internal view returns (bool) {\n        DataInfoPublished storage data = mapPublishedData[publishId];\n        return data.used;\n    }\n\n    function createTransaction(string seqNo, string publishId) external {\n        //published data info\n        DataInfoPublished memory data = mapPublishedData[publishId];\n        require(data.used, \"Publish data does not exist\");\n        require((token.balanceOf(msg.sender)) >= data.price, \"No enough balance\");\n        uint256 fee = data.price;\n        if (data.supportVerify) {\n            fee += 0;   // should add the tokens which for awarding verifiers and arbitrators.\n        }\n        require(token.transferFrom(msg.sender, address(this), fee), \"Failed to transfer token from caller\");\n\n        //create transaction\n        uint txId = getTransactionId();\n        bytes memory metaDataIdEncBuyer = new bytes(encryptedIdLen);\n\n        address[] memory selectedVerifiers;\n        bool[] memory creditGived;\n        if (data.supportVerify) {\n            //choose verifiers randomly\n            selectedVerifiers = chooseVerifiers(verifierNum);\n            creditGived = new bool[](verifierNum);\n            emit VerifiersChosen(seqNo, txId,data.proofDataIds, selectedVerifiers);\n\n            selectedArbitrators = chooseArbitrators(arbitratorNum, selectedVerifiers);\n        }\n\n        address[] memory users = new address[](1);\n        users[0] = msg.sender;\n        emit TransactionCreate(seqNo, txId, publishId, data.proofDataIds, data.supportVerify, users);\n\n        mapTransaction[txId] = TransactionItem(TransactionState.Created, msg.sender, data.seller, selectedVerifiers, creditGived,\n            publishId, metaDataIdEncBuyer, data.metaDataIdEncSeller, data.price, true);\n    }\n\n    function chooseVerifiers(uint8 num) internal view returns (address[] memory) {\n        require(num < validVerifierCount, \"No enough valid verifiers\");\n        address[] memory chosenVerifiers = new address[](num);\n\n        for (uint8 i = 0; i < num; i++) {\n            uint index = getRandomNumber(verifiers.length) % verifiers.length;\n            Verifier storage v = verifiers[index];\n\n            //loop if invalid verifier was chosen until get valid verifier\n            address vb = v.addr;\n            while (!v.enable || verifierExist(v.addr, chosenVerifiers)) {\n                v = verifiers[(++index) % verifiers.length];\n                require(v.addr != vb, \"Disordered verifiers\");\n            }\n\n            chosenVerifiers[i] = v.addr;\n        }\n\n        return chosenVerifiers;\n    }\n\n    function verifierValid(Verifier v, address[] arr) pure internal returns (bool, uint256) {\n        bool exist;\n        uint256 index;\n\n        (exist, index) = getVerifierIndex(v.addr, arr);\n        return (v.enable && exist, index);\n    }\n\n    function verifierExist(address addr, address[] arr) pure internal returns (bool) {\n        bool exist;\n        (exist, ) = getVerifierIndex(addr, arr);\n\n        return exist;\n    }\n\n    function getVerifierIndex(address verifier, address[] arrayVerifier) pure internal returns (bool, uint256) {\n        for (uint256 i = 0; i < arrayVerifier.length; i++) {\n            if (arrayVerifier[i] == verifier) {\n                return (true, i);\n            }\n        }\n\n        return (false, 0);\n    }\n\n    function getTransactionId() internal returns(uint) {\n        return transactionSeq++;\n    }\n\n    function getRandomNumber(uint mod) internal view returns (uint) {\n        return uint(keccak256(now, msg.sender)) % mod;\n    }\n\n    function vote(string seqNo, uint txId, bool judge, string comments) external {\n        TransactionItem storage txItem = mapTransaction[txId];\n        require(txItem.used, \"Transaction does not exist\");\n\n        bool valid;\n        uint256 index;\n        Verifier storage verifier = getVerifier(msg.sender);\n        (valid, index) = verifierValid(verifier, txItem.verifiers);\n        require(valid, \"Invalid verifier\");\n\n        mapVote[txId][msg.sender] = VoteResult(judge, comments, true);\n\n        txItem.state = TransactionState.Voted;\n        txItem.creditGived[index] = false;\n\n        address[] memory users = new address[](1);\n        users[0] = txItem.buyer;\n        emit Vote(seqNo, txId, judge, comments, users);\n    }\n\n    function chooseArbitrators(uint8 num, address[] vs) internal view returns (address[] memory) {\n        uint256[] memory shortlistIndex = new uint256[](verifiers.length - verifierNum);\n        address[] memory chosenArbitrators = new address[](num);\n        uint256 count;\n\n        for (uint256 i = 0;i < verifiers.length;i++) {\n            Verifier memory a = verifiers[i];\n            if (arbitratorValid(a,vs)) {\n                shortlistIndex[count] = i;\n                count++;\n            }\n        }\n        require(count >= num, \"No enough arbitrators\");\n\n        address[] memory shortlist = new address[](count);\n        while (count > 0) {\n            count--;\n            shortlist[count] = verifiers[shortlistIndex[count]].addr;\n        }\n\n        for (i = 0;i < num;i++) {\n            uint index = getRandomNumber(shortlist.length) % shortlist.length;\n            address ad = shortlist[index];\n            while (arbitratorExist(ad,chosenArbitrators)) {\n                ad = shortlist[(++index) % shortlist.length];\n            }\n            chosenArbitrators[i] = ad;\n        }\n\n        return chosenArbitrators;\n    }\n\n    function arbitratorValid(Verifier a, address[] vs) internal view returns (bool) {\n        bool notVerifier = true;\n        for (uint8 i = 0;i < vs.length;i++) {\n            if (a.addr == vs[i]) {\n                notVerifier = false;\n                break;\n            }\n        }\n        return notVerifier && a.enable && (a.credits >= arbitrateCredit);\n    }\n\n    function arbitratorExist(address ad, address[] addrs) internal pure returns (bool) {\n        bool exist = false;\n        for (uint8 i = 0;i < addrs.length;i++) {\n            if (ad == addrs[i]) {\n                exist = true;\n                break;\n            }\n        }\n        return exist;\n    }\n\n    function buyData(string seqNo, uint256 txId) external {\n        //validate\n        TransactionItem storage txItem = mapTransaction[txId];\n        require(txItem.used, \"Transaction does not exist\");\n        require(txItem.buyer == msg.sender, \"Invalid buyer\");\n\n        DataInfoPublished memory data = mapPublishedData[txItem.publishId];\n        require(data.used, \"Publish data does not exist\");\n\n        if(!data.supportVerify) {\n            require(txItem.state == TransactionState.Created, \"Invalid transaction state\");\n        } else {\n            require(txItem.state == TransactionState.Voted, \"Invalid transaction state\");\n        }\n\n        txItem.state = TransactionState.Buying;\n\n        address[] memory users = new address[](1);\n        users[0] = txItem.seller;\n        emit Buy(seqNo, txId, txItem.publishId, txItem.metaDataIdEncSeller, users);\n    }\n\n    function submitMetaDataIdEncWithBuyer(string seqNo, uint256 txId, bytes encryptedMetaDataId) external {\n        //validate\n        TransactionItem storage txItem = mapTransaction[txId];\n        require(txItem.used, \"Transaction does not exist\");\n        require(txItem.seller == msg.sender, \"Invalid seller\");\n        require(txItem.state == TransactionState.Buying, \"Invalid transaction state\");\n\n        txItem.meteDataIdEncBuyer = encryptedMetaDataId;\n        txItem.state = TransactionState.ReadyForDownload;\n\n        //ReadyForDownload event\n        address[] memory users = new address[](1);\n        users[0] = txItem.buyer;\n        emit ReadyForDownload(seqNo, txId, txItem.metaDataIdEncSeller, users);\n    }\n\n    function confirmDataTruth(string seqNo, uint256 txId, bool truth) external {\n        //validate\n        TransactionItem storage txItem = mapTransaction[txId];\n        require(txItem.used, \"Transaction does not exist\");\n        require(txItem.buyer == msg.sender, \"Invalid buyer\");\n\n        DataInfoPublished storage data = mapPublishedData[txItem.publishId];\n        require(data.used, \"Publish data does not exist\");\n\n        require(txItem.state == TransactionState.ReadyForDownload);\n        if (!data.supportVerify) {\n            if(truth) {\n                payToSeller(txItem, data);\n            }\n\n            closeTransaction(txItem, seqNo, txId);\n        } else {\n            if (truth) {\n                payToSeller(txItem, data);\n                closeTransaction(txItem, seqNo, txId);\n            } else {\n                txItem.state = TransactionState.Arbitrating;\n                emit ArbitratingBegin(seqNo,txId,selectedArbitrators);\n            }\n\n        }\n    }\n\n    function arbitrate(string seqNo,uint txId,bool judge) external {\n        TransactionItem storage txItem = mapTransaction[txId];\n        require(txItem.used, \"Transaction does not exist\");\n\n        require(arbitratorExist(msg.sender, selectedArbitrators), \"Invalid arbitrator\");\n\n        mapCount[txId].push(judge);\n        if (mapCount[txId].length == arbitratorNum) {\n            // reward arbitrators,transfer tokens to selectedArbitrators.\n            uint8 truth;\n            for (uint256 i = 0;i < arbitratorNum;i++) {\n                if (mapCount[txId][i]) {\n                    truth++;\n                }\n            }\n            delete mapCount[txId];\n            if (!(truth >= (arbitratorNum+1)/2)) {\n                // return tokens to buyer.\n            }else {\n                DataInfoPublished storage data = mapPublishedData[txItem.publishId];\n                payToSeller(txItem, data);\n            }\n\n            txItem.state = TransactionState.Payed;\n            emit Payed(seqNo, txId, txItem.state);\n        }\n    }\n\n    function closeTransaction(TransactionItem storage txItem, string seqNo, uint256 txId) internal {\n        txItem.state = TransactionState.Closed;\n\n        address[] memory users = new address[](1);\n        users[0] = address(0x00);\n        emit TransactionClose(seqNo, txId, users);\n    }\n\n    function payToSeller(TransactionItem storage txItem, DataInfoPublished storage data) internal {\n        if (txItem.buyerDeposit >= data.price) {\n            txItem.buyerDeposit -= data.price;\n\n            if (!token.transfer(data.seller, data.price)) {\n                txItem.buyerDeposit += data.price;\n                require(false, \"Failed to pay to seller\");\n            }\n        } else {\n            require(false, \"Low deposit value\");\n        }\n    }\n\n    function setVerifierDepositToken(uint256 deposit) external {\n        require(owner == msg.sender, \"The value only can be set by owner\");\n\n        verifierDepositToken = deposit;\n    }\n\n    function setVerifierNum(uint8 num) external {\n        require(owner == msg.sender, \"The value only can be set by owner\");\n\n        verifierNum = num;\n    }\n\n    function creditsToVerifier(string seqNo, uint256 txId, address to, uint8 credit) external {\n        //validate\n        require(to != 0x00, \"Verifier address is zero\");\n        require(credit >= creditLow && credit <= creditHigh, \"Valid credit scope is 0 <= credit <= 5\");\n\n        TransactionItem storage txItem = mapTransaction[txId];\n        require(txItem.used, \"Transaction does not exist\");\n\n        Verifier storage verifier = getVerifier(to);\n        require(verifier.addr != 0x00, \"Verifier does not exist\");\n\n        DataInfoPublished storage data = mapPublishedData[txItem.publishId];\n        require(data.used, \"Publish data does not exist\");\n        require(data.supportVerify, \"The transaction do not support verification\");\n\n        bool valid;\n        uint256 index;\n        (valid, index) = verifierValid(verifier, txItem.verifiers);\n        require(valid, \"Invalid verifier\");\n        require(!txItem.creditGived[index], \"The verifier's credit in this transaction has been submited\");\n\n        verifier.credits = (uint8)((verifier.credits * verifier.creditTimes + credit)/(++verifier.creditTimes));\n        txItem.creditGived[index] = true;\n\n        //disable verifier and forfeiture deposit while credit <= creditThreshold\n        if (verifier.credits <= creditThreshold) {\n            verifier.enable = false;\n            verifier.deposit = 0;\n            validVerifierCount--;\n            require(validVerifierCount >= 1, \"Invalid verifier count\");\n\n            address[] memory users = new address[](1);\n            users[0] = address(0x00);\n            emit VerifierDisable(seqNo, verifier.addr, users);\n        }\n    }\n\n    function getVerifier(address v) internal view returns (Verifier storage){\n        for (uint256 i = 0; i < verifiers.length; i++) {\n            if (verifiers[i].addr == v) {\n                return verifiers[i];\n            }\n        }\n\n        return verifiers[0];\n    }\n}",
  "sourcePath": "/home/waitgordor/project/iscap2/iscap/demo/src/contracts/contracts/ScryProtocol.sol",
  "compiler": {
    "name": "solc",
    "version": "0.4.24+commit.e67f0147.Emscripten.clang"
  },
  "schemaVersion": "2.0.1",
  "updatedAt": "2019-02-22T07:46:17.378Z"
}