{
  "contractName": "ScryProtocol",
  "abi": [
    {
      "inputs": [
        {
          "name": "_token",
          "type": "address"
        }
      ],
      "payable": false,
      "stateMutability": "nonpayable",
      "type": "constructor"
    },
    {
      "anonymous": false,
      "inputs": [
        {
          "indexed": false,
          "name": "seqNo",
          "type": "string"
        },
        {
          "indexed": false,
          "name": "users",
          "type": "address[]"
        }
      ],
      "name": "RegisterVerifier",
      "type": "event"
    },
    {
      "anonymous": false,
      "inputs": [
        {
          "indexed": false,
          "name": "seqNo",
          "type": "string"
        },
        {
          "indexed": false,
          "name": "publishId",
          "type": "string"
        },
        {
          "indexed": false,
          "name": "price",
          "type": "uint256"
        },
        {
          "indexed": false,
          "name": "despDataId",
          "type": "string"
        },
        {
          "indexed": false,
          "name": "users",
          "type": "address[]"
        }
      ],
      "name": "DataPublish",
      "type": "event"
    },
    {
      "anonymous": false,
      "inputs": [
        {
          "indexed": false,
          "name": "seqNo",
          "type": "string"
        },
        {
          "indexed": false,
          "name": "transactionId",
          "type": "uint256"
        },
        {
          "indexed": false,
          "name": "publishId",
          "type": "string"
        },
        {
          "indexed": false,
          "name": "proofIds",
          "type": "bytes32[]"
        },
        {
          "indexed": false,
          "name": "supportVerify",
          "type": "bool"
        },
        {
          "indexed": false,
          "name": "users",
          "type": "address[]"
        }
      ],
      "name": "TransactionCreate",
      "type": "event"
    },
    {
      "anonymous": false,
      "inputs": [
        {
          "indexed": false,
          "name": "seqNo",
          "type": "string"
        },
        {
          "indexed": false,
          "name": "transactionId",
          "type": "uint256"
        },
        {
          "indexed": false,
          "name": "proofIds",
          "type": "bytes32[]"
        },
        {
          "indexed": false,
          "name": "users",
          "type": "address[]"
        }
      ],
      "name": "VerifiersChosen",
      "type": "event"
    },
    {
      "anonymous": false,
      "inputs": [
        {
          "indexed": false,
          "name": "seqNo",
          "type": "string"
        },
        {
          "indexed": false,
          "name": "transactionId",
          "type": "uint256"
        },
        {
          "indexed": false,
          "name": "judge",
          "type": "bool"
        },
        {
          "indexed": false,
          "name": "comments",
          "type": "string"
        },
        {
          "indexed": false,
          "name": "users",
          "type": "address[]"
        }
      ],
      "name": "Vote",
      "type": "event"
    },
    {
      "anonymous": false,
      "inputs": [
        {
          "indexed": false,
          "name": "seqNo",
          "type": "string"
        },
        {
          "indexed": false,
          "name": "transactionId",
          "type": "uint256"
        },
        {
          "indexed": false,
          "name": "publishId",
          "type": "string"
        },
        {
          "indexed": false,
          "name": "metaDataIdEncSeller",
          "type": "bytes"
        },
        {
          "indexed": false,
          "name": "users",
          "type": "address[]"
        }
      ],
      "name": "Buy",
      "type": "event"
    },
    {
      "anonymous": false,
      "inputs": [
        {
          "indexed": false,
          "name": "seqNo",
          "type": "string"
        },
        {
          "indexed": false,
          "name": "transactionId",
          "type": "uint256"
        },
        {
          "indexed": false,
          "name": "metaDataIdEncBuyer",
          "type": "bytes"
        },
        {
          "indexed": false,
          "name": "users",
          "type": "address[]"
        }
      ],
      "name": "ReadyForDownload",
      "type": "event"
    },
    {
      "anonymous": false,
      "inputs": [
        {
          "indexed": false,
          "name": "seqNo",
          "type": "string"
        },
        {
          "indexed": false,
          "name": "transactionId",
          "type": "uint256"
        },
        {
          "indexed": false,
          "name": "users",
          "type": "address[]"
        }
      ],
      "name": "ArbitratingBegin",
      "type": "event"
    },
    {
      "anonymous": false,
      "inputs": [
        {
          "indexed": false,
          "name": "seqNo",
          "type": "string"
        },
        {
          "indexed": false,
          "name": "txId",
          "type": "uint256"
        },
        {
          "indexed": false,
          "name": "state",
          "type": "uint8"
        }
      ],
      "name": "Payed",
      "type": "event"
    },
    {
      "anonymous": false,
      "inputs": [
        {
          "indexed": false,
          "name": "seqNo",
          "type": "string"
        },
        {
          "indexed": false,
          "name": "transactionId",
          "type": "uint256"
        },
        {
          "indexed": false,
          "name": "users",
          "type": "address[]"
        }
      ],
      "name": "TransactionClose",
      "type": "event"
    },
    {
      "anonymous": false,
      "inputs": [
        {
          "indexed": false,
          "name": "seqNo",
          "type": "string"
        },
        {
          "indexed": false,
          "name": "verifier",
          "type": "address"
        },
        {
          "indexed": false,
          "name": "users",
          "type": "address[]"
        }
      ],
      "name": "VerifierDisable",
      "type": "event"
    },
    {
      "constant": false,
      "inputs": [
        {
          "name": "seqNo",
          "type": "string"
        }
      ],
      "name": "registerAsVerifier",
      "outputs": [],
      "payable": false,
      "stateMutability": "nonpayable",
      "type": "function"
    },
    {
      "constant": false,
      "inputs": [
        {
          "name": "seqNo",
          "type": "string"
        },
        {
          "name": "publishId",
          "type": "string"
        },
        {
          "name": "price",
          "type": "uint256"
        },
        {
          "name": "metaDataIdEncSeller",
          "type": "bytes"
        },
        {
          "name": "proofDataIds",
          "type": "bytes32[]"
        },
        {
          "name": "despDataId",
          "type": "string"
        },
        {
          "name": "supportVerify",
          "type": "bool"
        }
      ],
      "name": "publishDataInfo",
      "outputs": [],
      "payable": false,
      "stateMutability": "nonpayable",
      "type": "function"
    },
    {
      "constant": false,
      "inputs": [
        {
          "name": "seqNo",
          "type": "string"
        },
        {
          "name": "publishId",
          "type": "string"
        }
      ],
      "name": "createTransaction",
      "outputs": [],
      "payable": false,
      "stateMutability": "nonpayable",
      "type": "function"
    },
    {
      "constant": false,
      "inputs": [
        {
          "name": "seqNo",
          "type": "string"
        },
        {
          "name": "txId",
          "type": "uint256"
        },
        {
          "name": "judge",
          "type": "bool"
        },
        {
          "name": "comments",
          "type": "string"
        }
      ],
      "name": "vote",
      "outputs": [],
      "payable": false,
      "stateMutability": "nonpayable",
      "type": "function"
    },
    {
      "constant": false,
      "inputs": [
        {
          "name": "seqNo",
          "type": "string"
        },
        {
          "name": "txId",
          "type": "uint256"
        }
      ],
      "name": "buyData",
      "outputs": [],
      "payable": false,
      "stateMutability": "nonpayable",
      "type": "function"
    },
    {
      "constant": false,
      "inputs": [
        {
          "name": "seqNo",
          "type": "string"
        },
        {
          "name": "txId",
          "type": "uint256"
        },
        {
          "name": "encryptedMetaDataId",
          "type": "bytes"
        }
      ],
      "name": "submitMetaDataIdEncWithBuyer",
      "outputs": [],
      "payable": false,
      "stateMutability": "nonpayable",
      "type": "function"
    },
    {
      "constant": false,
      "inputs": [
        {
          "name": "seqNo",
          "type": "string"
        },
        {
          "name": "txId",
          "type": "uint256"
        },
        {
          "name": "truth",
          "type": "bool"
        }
      ],
      "name": "confirmDataTruth",
      "outputs": [],
      "payable": false,
      "stateMutability": "nonpayable",
      "type": "function"
    },
    {
      "constant": false,
      "inputs": [
        {
          "name": "seqNo",
          "type": "string"
        },
        {
          "name": "txId",
          "type": "uint256"
        },
        {
          "name": "judge",
          "type": "bool"
        }
      ],
      "name": "arbitrate",
      "outputs": [],
      "payable": false,
      "stateMutability": "nonpayable",
      "type": "function"
    },
    {
      "constant": false,
      "inputs": [
        {
          "name": "deposit",
          "type": "uint256"
        }
      ],
      "name": "setVerifierDepositToken",
      "outputs": [],
      "payable": false,
      "stateMutability": "nonpayable",
      "type": "function"
    },
    {
      "constant": false,
      "inputs": [
        {
          "name": "num",
          "type": "uint8"
        }
      ],
      "name": "setVerifierNum",
      "outputs": [],
      "payable": false,
      "stateMutability": "nonpayable",
      "type": "function"
    },
    {
      "constant": false,
      "inputs": [
        {
          "name": "bonus",
          "type": "uint256"
        }
      ],
      "name": "setVerifierBonus",
      "outputs": [],
      "payable": false,
      "stateMutability": "nonpayable",
      "type": "function"
    },
    {
      "constant": false,
      "inputs": [
        {
          "name": "seqNo",
          "type": "string"
        },
        {
          "name": "txId",
          "type": "uint256"
        },
        {
          "name": "to",
          "type": "address"
        },
        {
          "name": "credit",
          "type": "uint8"
        }
      ],
      "name": "creditsToVerifier",
      "outputs": [],
      "payable": false,
      "stateMutability": "nonpayable",
      "type": "function"
    }
  ],
  "bytecode": "0x608060405260008060006101000a81548160ff021916908360ff1602179055506002600060016101000a81548160ff021916908360ff16021790555061271060015561012c6002556000600360006101000a81548160ff021916908360ff1602179055506005600360016101000a81548160ff021916908360ff1602179055506002600360026101000a81548160ff021916908360ff16021790555060016003806101000a81548160ff021916908360ff1602179055506000600360046101000a81548160ff021916908360ff1602179055506000600a556020600b556000600c60006101000a81548173ffffffffffffffffffffffffffffffffffffffff021916908373ffffffffffffffffffffffffffffffffffffffff1602179055506000600d60006101000a81548173ffffffffffffffffffffffffffffffffffffffff021916908373ffffffffffffffffffffffffffffffffffffffff1602179055503480156200016d57600080fd5b5060405160208062005efe8339810180604052810190808051906020019092919050505060008173ffffffffffffffffffffffffffffffffffffffff1614151515620001b857600080fd5b33600d60006101000a81548173ffffffffffffffffffffffffffffffffffffffff021916908373ffffffffffffffffffffffffffffffffffffffff16021790555080600c60006101000a81548173ffffffffffffffffffffffffffffffffffffffff021916908373ffffffffffffffffffffffffffffffffffffffff16021790555080600e60006101000a81548173ffffffffffffffffffffffffffffffffffffffff021916908373ffffffffffffffffffffffffffffffffffffffff16021790555060a060405190810160405280600073ffffffffffffffffffffffffffffffffffffffff16815260200160008152602001600060ff16815260200160008152602001600015158152506004808054809190600101620002da91906200039b565b815481101515620002e757fe5b906000526020600020906005020160008201518160000160006101000a81548173ffffffffffffffffffffffffffffffffffffffff021916908373ffffffffffffffffffffffffffffffffffffffff1602179055506020820151816001015560408201518160020160006101000a81548160ff021916908360ff1602179055506060820151816003015560808201518160040160006101000a81548160ff0219169083151502179055509050505062000451565b815481835581811115620003cb57600502816005028360005260206000209182019101620003ca9190620003d0565b5b505050565b6200044e91905b808211156200044a57600080820160006101000a81549073ffffffffffffffffffffffffffffffffffffffff021916905560018201600090556002820160006101000a81549060ff021916905560038201600090556004820160006101000a81549060ff021916905550600501620003d7565b5090565b90565b615a9d80620004616000396000f3006080604052600436106100ba576000357c0100000000000000000000000000000000000000000000000000000000900463ffffffff1680631219bda6146100bf578063377caed1146101315780635a39eba2146101e257806371ab5c0e146102125780638ba737ee1461023f57806393151dd51461029c578063980da40d146102d75780639a756a9914610340578063a129886c14610385578063daff1168146103b2578063dd16673b14610403578063fecc18b414610454575b600080fd5b3480156100cb57600080fd5b5061012f60048036038101908080359060200190820180359060200191909192939192939080359060200190929190803573ffffffffffffffffffffffffffffffffffffffff169060200190929190803560ff1690602001909291905050506104a7565b005b34801561013d57600080fd5b506101e060048036038101908080359060200190820180359060200191909192939192939080359060200190820180359060200191909192939192939080359060200190929190803590602001908201803590602001919091929391929390803590602001908201803590602001919091929391929390803590602001908201803590602001919091929391929390803515159060200190929190505050610ec3565b005b3480156101ee57600080fd5b50610210600480360381019080803560ff1690602001909291905050506112f1565b005b34801561021e57600080fd5b5061023d600480360381019080803590602001909291905050506113fa565b005b34801561024b57600080fd5b5061029a600480360381019080803590602001908201803590602001919091929391929390803590602001909291908035906020019082018035906020019190919293919293905050506114ef565b005b3480156102a857600080fd5b506102d5600480360381019080803590602001908201803590602001919091929391929390505050611909565b005b3480156102e357600080fd5b5061033e60048036038101908080359060200190820180359060200191909192939192939080359060200190929190803515159060200190929190803590602001908201803590602001919091929391929390505050611fb1565b005b34801561034c57600080fd5b506103836004803603810190808035906020019082018035906020019190919293919293908035906020019092919050505061252f565b005b34801561039157600080fd5b506103b060048036038101908080359060200190929190505050612db5565b005b3480156103be57600080fd5b5061040160048036038101908080359060200190820180359060200191909192939192939080359060200190929190803515159060200190929190505050612eaa565b005b34801561040f57600080fd5b50610452600480360381019080803590602001908201803590602001919091929391929390803590602001909291908035151590602001909291905050506132d5565b005b34801561046057600080fd5b506104a560048036038101908080359060200190820180359060200191909192939192939080359060200190820180359060200191909192939192939050505061372f565b005b6000806000806000606060008873ffffffffffffffffffffffffffffffffffffffff1614151515610540576040517f08c379a00000000000000000000000000000000000000000000000000000000081526004018080602001828103825260188152602001807f56657269666965722061646472657373206973207a65726f000000000000000081525060200191505060405180910390fd5b600360009054906101000a900460ff1660ff168760ff161015801561057a5750600360019054906101000a900460ff1660ff168760ff1611155b1515610614576040517f08c379a00000000000000000000000000000000000000000000000000000000081526004018080602001828103825260268152602001807f56616c6964206372656469742073636f70652069732030203c3d20637265646981526020017f74203c3d2035000000000000000000000000000000000000000000000000000081525060400191505060405180910390fd5b600760008a815260200190815260200160002095508560090160009054906101000a900460ff1615156106af576040517f08c379a000000000000000000000000000000000000000000000000000000000815260040180806020018281038252601a8152602001807f5472616e73616374696f6e20646f6573206e6f7420657869737400000000000081525060200191505060405180910390fd5b6106b888614369565b945060008560000160009054906101000a900473ffffffffffffffffffffffffffffffffffffffff1673ffffffffffffffffffffffffffffffffffffffff161415151561076d576040517f08c379a00000000000000000000000000000000000000000000000000000000081526004018080602001828103825260178152602001807f566572696669657220646f6573206e6f7420657869737400000000000000000081525060200191505060405180910390fd5b60068660040160405180828054600181600116156101000203166002900480156107ce5780601f106107ac5761010080835404028352918201916107ce565b820191906000526020600020905b8154815290600101906020018083116107ba575b5050915050908152602001604051809103902093508360050160159054906101000a900460ff161515610869576040517f08c379a000000000000000000000000000000000000000000000000000000000815260040180806020018281038252601b8152602001807f5075626c697368206461746120646f6573206e6f74206578697374000000000081525060200191505060405180910390fd5b8360050160149054906101000a900460ff161515610915576040517f08c379a000000000000000000000000000000000000000000000000000000000815260040180806020018281038252602b8152602001807f546865207472616e73616374696f6e20646f206e6f7420737570706f7274207681526020017f6572696669636174696f6e00000000000000000000000000000000000000000081525060400191505060405180910390fd5b610a558560a060405190810160405290816000820160009054906101000a900473ffffffffffffffffffffffffffffffffffffffff1673ffffffffffffffffffffffffffffffffffffffff1673ffffffffffffffffffffffffffffffffffffffff168152602001600182015481526020016002820160009054906101000a900460ff1660ff1660ff168152602001600382015481526020016004820160009054906101000a900460ff16151515158152505087600201805480602002602001604051908101604052809291908181526020018280548015610a4b57602002820191906000526020600020905b8160009054906101000a900473ffffffffffffffffffffffffffffffffffffffff1673ffffffffffffffffffffffffffffffffffffffff1681526020019060010190808311610a01575b505050505061444a565b8093508194505050821515610ad2576040517f08c379a00000000000000000000000000000000000000000000000000000000081526004018080602001828103825260108152602001807f496e76616c69642076657269666965720000000000000000000000000000000081525060200191505060405180910390fd5b8560030182815481101515610ae357fe5b90600052602060002090602091828204019190069054906101000a900460ff16151515610b9e576040517f08c379a000000000000000000000000000000000000000000000000000000000815260040180806020018281038252603b8152602001807f54686520766572696669657227732063726564697420696e207468697320747281526020017f616e73616374696f6e20686173206265656e207375626d69746564000000000081525060400191505060405180910390fd5b84600301600081546001019190508190558760ff1686600301548760020160009054906101000a900460ff1660ff160201811515610bd857fe5b048560020160006101000a81548160ff021916908360ff16021790555060018660030183815481101515610c0857fe5b90600052602060002090602091828204019190066101000a81548160ff021916908315150217905550600360029054906101000a900460ff1660ff168560020160009054906101000a900460ff1660ff16111515610eb65760008560040160006101000a81548160ff0219169083151502179055506000856001018190555060008081819054906101000a900460ff16809291906001900391906101000a81548160ff021916908360ff1602179055505060016000809054906101000a900460ff1660ff1610151515610d43576040517f08c379a00000000000000000000000000000000000000000000000000000000081526004018080602001828103825260168152602001807f496e76616c696420766572696669657220636f756e740000000000000000000081525060200191505060405180910390fd5b6001604051908082528060200260200182016040528015610d735781602001602082028038833980820191505090505b5090506000816000815181101515610d8757fe5b9060200190602002019073ffffffffffffffffffffffffffffffffffffffff16908173ffffffffffffffffffffffffffffffffffffffff16815250507fd0e2127bc672e5762b6852e277e4d77594e1eecad47e50f41f56d9a87c1f75058b8b8760000160009054906101000a900473ffffffffffffffffffffffffffffffffffffffff168460405180806020018473ffffffffffffffffffffffffffffffffffffffff1673ffffffffffffffffffffffffffffffffffffffff1681526020018060200183810383528787828181526020019250808284378201915050838103825284818151815260200191508051906020019060200280838360005b83811015610e9e578082015181840152602081019050610e83565b50505050905001965050505050505060405180910390a15b5050505050505050505050565b606060006001604051908082528060200260200182016040528015610ef75781602001602082028038833980820191505090505b5091506000826000815181101515610f0b57fe5b9060200190602002019073ffffffffffffffffffffffffffffffffffffffff16908173ffffffffffffffffffffffffffffffffffffffff168152505060068c8c60405180838380828437820191505092505050908152602001604051809103902090508060050160159054906101000a900460ff16151515610ff5576040517f08c379a00000000000000000000000000000000000000000000000000000000081526004018080602001828103825260148152602001807f4475706c6963617465207075626c69736820696400000000000000000000000081525060200191505060405180910390fd5b610100604051908101604052808b81526020018a8a8080601f0160208091040260200160405190810160405280939291908181526020018383808284378201915050505050508152602001888880806020026020016040519081016040528093929190818152602001838360200280828437820191505050505050815260200188889050815260200186868080601f01602080910402602001604051908101604052809392919081815260200183838082843782019150505050505081526020013373ffffffffffffffffffffffffffffffffffffffff16815260200184151581526020016001151581525060068d8d60405180838380828437820191505092505050908152602001604051809103902060008201518160000155602082015181600101908051906020019061112c9291906154a4565b506040820151816002019080519060200190611149929190615524565b50606082015181600301556080820151816004019080519060200190611170929190615577565b5060a08201518160050160006101000a81548173ffffffffffffffffffffffffffffffffffffffff021916908373ffffffffffffffffffffffffffffffffffffffff16021790555060c08201518160050160146101000a81548160ff02191690831515021790555060e08201518160050160156101000a81548160ff0219169083151502179055509050507f9d1b954932f5249f38959200c17d585ac2b4897b77acb4c29a8fb4d8473f0e8c8e8e8e8e8e8a8a89604051808060200180602001878152602001806020018060200185810385528d8d82818152602001925080828437820191505085810384528b8b82818152602001925080828437820191505085810383528888828181526020019250808284378201915050858103825286818151815260200191508051906020019060200280838360005b838110156112c45780820151818401526020810190506112a9565b505050509050019c5050505050505050505050505060405180910390a15050505050505050505050505050565b3373ffffffffffffffffffffffffffffffffffffffff16600d60009054906101000a900473ffffffffffffffffffffffffffffffffffffffff1673ffffffffffffffffffffffffffffffffffffffff161415156113dc576040517f08c379a00000000000000000000000000000000000000000000000000000000081526004018080602001828103825260228152602001807f5468652076616c7565206f6e6c792063616e20626520736574206279206f776e81526020017f657200000000000000000000000000000000000000000000000000000000000081525060400191505060405180910390fd5b80600060016101000a81548160ff021916908360ff16021790555050565b3373ffffffffffffffffffffffffffffffffffffffff16600d60009054906101000a900473ffffffffffffffffffffffffffffffffffffffff1673ffffffffffffffffffffffffffffffffffffffff161415156114e5576040517f08c379a00000000000000000000000000000000000000000000000000000000081526004018080602001828103825260228152602001807f5468652076616c7565206f6e6c792063616e20626520736574206279206f776e81526020017f657200000000000000000000000000000000000000000000000000000000000081525060400191505060405180910390fd5b8060018190555050565b600060606007600086815260200190815260200160002091508160090160009054906101000a900460ff16151561158e576040517f08c379a000000000000000000000000000000000000000000000000000000000815260040180806020018281038252601a8152602001807f5472616e73616374696f6e20646f6573206e6f7420657869737400000000000081525060200191505060405180910390fd5b3373ffffffffffffffffffffffffffffffffffffffff168260010160009054906101000a900473ffffffffffffffffffffffffffffffffffffffff1673ffffffffffffffffffffffffffffffffffffffff16141515611655576040517f08c379a000000000000000000000000000000000000000000000000000000000815260040180806020018281038252600e8152602001807f496e76616c69642073656c6c657200000000000000000000000000000000000081525060200191505060405180910390fd5b6003600781111561166257fe5b8260000160009054906101000a900460ff16600781111561167f57fe5b1415156116f4576040517f08c379a00000000000000000000000000000000000000000000000000000000081526004018080602001828103825260198152602001807f496e76616c6964207472616e73616374696f6e2073746174650000000000000081525060200191505060405180910390fd5b83838360050191906117079291906155f7565b5060048260000160006101000a81548160ff0219169083600781111561172957fe5b0217905550600160405190808252806020026020018201604052801561175e5781602001602082028038833980820191505090505b5090508160000160019054906101000a900473ffffffffffffffffffffffffffffffffffffffff1681600081518110151561179557fe5b9060200190602002019073ffffffffffffffffffffffffffffffffffffffff16908173ffffffffffffffffffffffffffffffffffffffff16815250507f28eb60ba9df25f12ccee668d0a745b5e455365b717f0867aa76edcffe7430cf5878787856006018560405180806020018581526020018060200180602001848103845289898281815260200192508082843782019150508481038352868181546001816001161561010002031660029004815260200191508054600181600116156101000203166002900480156118aa5780601f1061187f576101008083540402835291602001916118aa565b820191906000526020600020905b81548152906001019060200180831161188d57829003601f168201915b5050848103825285818151815260200191508051906020019060200280838360005b838110156118e75780820151818401526020810190506118cc565b505050509050019850505050505050505060405180910390a150505050505050565b6000606061191633614369565b915060008260000160009054906101000a900473ffffffffffffffffffffffffffffffffffffffff1673ffffffffffffffffffffffffffffffffffffffff161415156119f0576040517f08c379a00000000000000000000000000000000000000000000000000000000081526004018080602001828103825260228152602001807f54686520766572696669657220697320616c726561647920726567697374657281526020017f656400000000000000000000000000000000000000000000000000000000000081525060400191505060405180910390fd5b60006001541115611d3d57600154600e60009054906101000a900473ffffffffffffffffffffffffffffffffffffffff1673ffffffffffffffffffffffffffffffffffffffff166370a08231336040518263ffffffff167c0100000000000000000000000000000000000000000000000000000000028152600401808273ffffffffffffffffffffffffffffffffffffffff1673ffffffffffffffffffffffffffffffffffffffff168152602001915050602060405180830381600087803b158015611abb57600080fd5b505af1158015611acf573d6000803e3d6000fd5b505050506040513d6020811015611ae557600080fd5b810190808051906020019092919050505010151515611b6c576040517f08c379a00000000000000000000000000000000000000000000000000000000081526004018080602001828103825260118152602001807f4e6f20656e6f7567682062616c616e636500000000000000000000000000000081525060200191505060405180910390fd5b600e60009054906101000a900473ffffffffffffffffffffffffffffffffffffffff1673ffffffffffffffffffffffffffffffffffffffff166323b872dd33306001546040518463ffffffff167c0100000000000000000000000000000000000000000000000000000000028152600401808473ffffffffffffffffffffffffffffffffffffffff1673ffffffffffffffffffffffffffffffffffffffff1681526020018373ffffffffffffffffffffffffffffffffffffffff1673ffffffffffffffffffffffffffffffffffffffff1681526020018281526020019350505050602060405180830381600087803b158015611c6757600080fd5b505af1158015611c7b573d6000803e3d6000fd5b505050506040513d6020811015611c9157600080fd5b81019080805190602001909291905050501515611d3c576040517f08c379a00000000000000000000000000000000000000000000000000000000081526004018080602001828103825260248152602001807f4661696c656420746f207472616e7366657220746f6b656e2066726f6d20636181526020017f6c6c65720000000000000000000000000000000000000000000000000000000081525060400191505060405180910390fd5b5b60a0604051908101604052803373ffffffffffffffffffffffffffffffffffffffff1681526020016001548152602001600360019054906101000a900460ff1660ff16815260200160008152602001600115158152506004808054809190600101611da89190615677565b815481101515611db457fe5b906000526020600020906005020160008201518160000160006101000a81548173ffffffffffffffffffffffffffffffffffffffff021916908373ffffffffffffffffffffffffffffffffffffffff1602179055506020820151816001015560408201518160020160006101000a81548160ff021916908360ff1602179055506060820151816003015560808201518160040160006101000a81548160ff02191690831515021790555090505060008081819054906101000a900460ff168092919060010191906101000a81548160ff021916908360ff160217905550506001604051908082528060200260200182016040528015611ec25781602001602082028038833980820191505090505b50905033816000815181101515611ed557fe5b9060200190602002019073ffffffffffffffffffffffffffffffffffffffff16908173ffffffffffffffffffffffffffffffffffffffff16815250507f476785064b6fb8cce78cd4377a03177c7bac7803ef345a1eaf34d1dbdbf0e86484848360405180806020018060200183810383528686828181526020019250808284378201915050838103825284818151815260200191508051906020019060200280838360005b83811015611f95578082015181840152602081019050611f7a565b505050509050019550505050505060405180910390a150505050565b6000806000806060600760008a815260200190815260200160002094508460090160009054906101000a900460ff161515612054576040517f08c379a000000000000000000000000000000000000000000000000000000000815260040180806020018281038252601a8152602001807f5472616e73616374696f6e20646f6573206e6f7420657869737400000000000081525060200191505060405180910390fd5b61205d33614369565b915061219f8260a060405190810160405290816000820160009054906101000a900473ffffffffffffffffffffffffffffffffffffffff1673ffffffffffffffffffffffffffffffffffffffff1673ffffffffffffffffffffffffffffffffffffffff168152602001600182015481526020016002820160009054906101000a900460ff1660ff1660ff168152602001600382015481526020016004820160009054906101000a900460ff1615151515815250508660020180548060200260200160405190810160405280929190818152602001828054801561219557602002820191906000526020600020905b8160009054906101000a900473ffffffffffffffffffffffffffffffffffffffff1673ffffffffffffffffffffffffffffffffffffffff168152602001906001019080831161214b575b505050505061444a565b809450819550505083151561221c576040517f08c379a00000000000000000000000000000000000000000000000000000000081526004018080602001828103825260108152602001807f496e76616c69642076657269666965720000000000000000000000000000000081525060200191505060405180910390fd5b606060405190810160405280891515815260200188888080601f016020809104026020016040519081016040528093929190818152602001838380828437820191505050505050815260200160011515815250600860008b815260200190815260200160002060003373ffffffffffffffffffffffffffffffffffffffff1673ffffffffffffffffffffffffffffffffffffffff16815260200190815260200160002060008201518160000160006101000a81548160ff02191690831515021790555060208201518160010190805190602001906122fb929190615577565b5060408201518160020160006101000a81548160ff02191690831515021790555090505060028560000160006101000a81548160ff0219169083600781111561234057fe5b02179055506000856003018481548110151561235857fe5b90600052602060002090602091828204019190066101000a81548160ff0219169083151502179055506123af858360000160009054906101000a900473ffffffffffffffffffffffffffffffffffffffff16614482565b60016040519080825280602002602001820160405280156123df5781602001602082028038833980820191505090505b5090508460000160019054906101000a900473ffffffffffffffffffffffffffffffffffffffff1681600081518110151561241657fe5b9060200190602002019073ffffffffffffffffffffffffffffffffffffffff16908173ffffffffffffffffffffffffffffffffffffffff16815250507f6c9b52deb2c6010b3925a2e11bd5a7067f351dfb5f0ece7f1262ccaf599cacd38b8b8b8b8b8b87604051808060200187815260200186151515158152602001806020018060200184810384528b8b82818152602001925080828437820191505084810383528787828181526020019250808284378201915050848103825285818151815260200191508051906020019060200280838360005b838110156125075780820151818401526020810190506124ec565b505050509050019a505050505050505050505060405180910390a15050505050505050505050565b60006125396156a9565b60606007600085815260200190815260200160002092508260090160009054906101000a900460ff1615156125d6576040517f08c379a000000000000000000000000000000000000000000000000000000000815260040180806020018281038252601a8152602001807f5472616e73616374696f6e20646f6573206e6f7420657869737400000000000081525060200191505060405180910390fd5b3373ffffffffffffffffffffffffffffffffffffffff168360000160019054906101000a900473ffffffffffffffffffffffffffffffffffffffff1673ffffffffffffffffffffffffffffffffffffffff1614151561269d576040517f08c379a000000000000000000000000000000000000000000000000000000000815260040180806020018281038252600d8152602001807f496e76616c69642062757965720000000000000000000000000000000000000081525060200191505060405180910390fd5b60068360040160405180828054600181600116156101000203166002900480156126fe5780601f106126dc5761010080835404028352918201916126fe565b820191906000526020600020905b8154815290600101906020018083116126ea575b50509150509081526020016040518091039020610100604051908101604052908160008201548152602001600182018054600181600116156101000203166002900480601f0160208091040260200160405190810160405280929190818152602001828054600181600116156101000203166002900480156127c15780601f10612796576101008083540402835291602001916127c1565b820191906000526020600020905b8154815290600101906020018083116127a457829003601f168201915b505050505081526020016002820180548060200260200160405190810160405280929190818152602001828054801561281d57602002820191906000526020600020905b81546000191681526020019060010190808311612805575b5050505050815260200160038201548152602001600482018054600181600116156101000203166002900480601f0160208091040260200160405190810160405280929190818152602001828054600181600116156101000203166002900480156128c95780601f1061289e576101008083540402835291602001916128c9565b820191906000526020600020905b8154815290600101906020018083116128ac57829003601f168201915b505050505081526020016005820160009054906101000a900473ffffffffffffffffffffffffffffffffffffffff1673ffffffffffffffffffffffffffffffffffffffff1673ffffffffffffffffffffffffffffffffffffffff1681526020016005820160149054906101000a900460ff161515151581526020016005820160159054906101000a900460ff16151515158152505091508160e0015115156129d9576040517f08c379a000000000000000000000000000000000000000000000000000000000815260040180806020018281038252601b8152602001807f5075626c697368206461746120646f6573206e6f74206578697374000000000081525060200191505060405180910390fd5b8160c001511515612a8857600160078111156129f157fe5b8360000160009054906101000a900460ff166007811115612a0e57fe5b141515612a83576040517f08c379a00000000000000000000000000000000000000000000000000000000081526004018080602001828103825260198152602001807f496e76616c6964207472616e73616374696f6e2073746174650000000000000081525060200191505060405180910390fd5b612b28565b60026007811115612a9557fe5b8360000160009054906101000a900460ff166007811115612ab257fe5b141515612b27576040517f08c379a00000000000000000000000000000000000000000000000000000000081526004018080602001828103825260198152602001807f496e76616c6964207472616e73616374696f6e2073746174650000000000000081525060200191505060405180910390fd5b5b60038360000160006101000a81548160ff02191690836007811115612b4957fe5b02179055506001604051908082528060200260200182016040528015612b7e5781602001602082028038833980820191505090505b5090508260010160009054906101000a900473ffffffffffffffffffffffffffffffffffffffff16816000815181101515612bb557fe5b9060200190602002019073ffffffffffffffffffffffffffffffffffffffff16908173ffffffffffffffffffffffffffffffffffffffff16815250507feeaf28668d6d8a951d1c5b873c5e94068abdea0145811cbeaece6c309118f3e3868686866004018760060186604051808060200186815260200180602001806020018060200185810385528b8b828181526020019250808284378201915050858103845288818154600181600116156101000203166002900481526020019150805460018160011615610100020316600290048015612cd25780601f10612ca757610100808354040283529160200191612cd2565b820191906000526020600020905b815481529060010190602001808311612cb557829003601f168201915b5050858103835287818154600181600116156101000203166002900481526020019150805460018160011615610100020316600290048015612d555780601f10612d2a57610100808354040283529160200191612d55565b820191906000526020600020905b815481529060010190602001808311612d3857829003601f168201915b5050858103825286818151815260200191508051906020019060200280838360005b83811015612d92578082015181840152602081019050612d77565b505050509050019a505050505050505050505060405180910390a1505050505050565b3373ffffffffffffffffffffffffffffffffffffffff16600d60009054906101000a900473ffffffffffffffffffffffffffffffffffffffff1673ffffffffffffffffffffffffffffffffffffffff16141515612ea0576040517f08c379a00000000000000000000000000000000000000000000000000000000081526004018080602001828103825260228152602001807f5468652076616c7565206f6e6c792063616e20626520736574206279206f776e81526020017f657200000000000000000000000000000000000000000000000000000000000081525060400191505060405180910390fd5b8060028190555050565b6000806000806007600087815260200190815260200160002093508360090160009054906101000a900460ff161515612f4b576040517f08c379a000000000000000000000000000000000000000000000000000000000815260040180806020018281038252601a8152602001807f5472616e73616374696f6e20646f6573206e6f7420657869737400000000000081525060200191505060405180910390fd5b612fdb336005805480602002602001604051908101604052809291908181526020018280548015612fd157602002820191906000526020600020905b8160009054906101000a900473ffffffffffffffffffffffffffffffffffffffff1673ffffffffffffffffffffffffffffffffffffffff1681526020019060010190808311612f87575b50505050506146e6565b151561304f576040517f08c379a00000000000000000000000000000000000000000000000000000000081526004018080602001828103825260128152602001807f496e76616c69642061726269747261746f72000000000000000000000000000081525060200191505060405180910390fd5b6009600087815260200190815260200160002085908060018154018082558091505090600182039060005260206000209060209182820401919006909192909190916101000a81548160ff021916908315150217905550506003809054906101000a900460ff1660ff16600960008881526020019081526020016000208054905014156132cb57600091505b6003809054906101000a900460ff1660ff1682101561314f57600960008781526020019081526020016000208281548110151561311457fe5b90600052602060002090602091828204019190069054906101000a900460ff16156131425782806001019350505b81806001019250506130db565b60096000878152602001908152602001600020600061316e9190615709565b600260016003809054906101000a900460ff160160ff1681151561318e57fe5b0460ff168360ff16101515156131a357613224565b60068460040160405180828054600181600116156101000203166002900480156132045780601f106131e2576101008083540402835291820191613204565b820191906000526020600020905b8154815290600101906020018083116131f0575b505091505090815260200160405180910390209050613223848261476e565b5b60068460000160006101000a81548160ff0219169083600781111561324557fe5b02179055507f2eef40da5728735b0f67f94d2583a13059f4b17553d714bf814d84790aa104b58888888760000160009054906101000a900460ff16604051808060200184815260200183600781111561329a57fe5b60ff168152602001828103825286868281815260200192508082843782019150509550505050505060405180910390a15b5050505050505050565b6000806007600085815260200190815260200160002091508160090160009054906101000a900460ff161515613373576040517f08c379a000000000000000000000000000000000000000000000000000000000815260040180806020018281038252601a8152602001807f5472616e73616374696f6e20646f6573206e6f7420657869737400000000000081525060200191505060405180910390fd5b3373ffffffffffffffffffffffffffffffffffffffff168260000160019054906101000a900473ffffffffffffffffffffffffffffffffffffffff1673ffffffffffffffffffffffffffffffffffffffff1614151561343a576040517f08c379a000000000000000000000000000000000000000000000000000000000815260040180806020018281038252600d8152602001807f496e76616c69642062757965720000000000000000000000000000000000000081525060200191505060405180910390fd5b600682600401604051808280546001816001161561010002031660029004801561349b5780601f1061347957610100808354040283529182019161349b565b820191906000526020600020905b815481529060010190602001808311613487575b5050915050908152602001604051809103902090508060050160159054906101000a900460ff161515613536576040517f08c379a000000000000000000000000000000000000000000000000000000000815260040180806020018281038252601b8152602001807f5075626c697368206461746120646f6573206e6f74206578697374000000000081525060200191505060405180910390fd5b6004600781111561354357fe5b8260000160009054906101000a900460ff16600781111561356057fe5b14151561356c57600080fd5b8060050160149054906101000a900460ff1615156135d757821561359557613594828261476e565b5b6135d28287878080601f016020809104026020016040519081016040528093929190818152602001838380828437820191505050505050866149f6565b613727565b8215613629576135e7828261476e565b6136248287878080601f016020809104026020016040519081016040528093929190818152602001838380828437820191505050505050866149f6565b613726565b60058260000160006101000a81548160ff0219169083600781111561364a57fe5b02179055507f9b7cb521faf87f80587668cdb4024143a0c50ba072f648e443d742397a2159af868686600560405180806020018481526020018060200183810383528787828181526020019250808284378201915050838103825284818154815260200191508054801561371357602002820191906000526020600020905b8160009054906101000a900473ffffffffffffffffffffffffffffffffffffffff1673ffffffffffffffffffffffffffffffffffffffff16815260200190600101908083116136c9575b5050965050505050505060405180910390a15b5b505050505050565b6137376156a9565b60008060608060608060068989604051808383808284378201915050925050509081526020016040518091039020610100604051908101604052908160008201548152602001600182018054600181600116156101000203166002900480601f0160208091040260200160405190810160405280929190818152602001828054600181600116156101000203166002900480156138155780601f106137ea57610100808354040283529160200191613815565b820191906000526020600020905b8154815290600101906020018083116137f857829003601f168201915b505050505081526020016002820180548060200260200160405190810160405280929190818152602001828054801561387157602002820191906000526020600020905b81546000191681526020019060010190808311613859575b5050505050815260200160038201548152602001600482018054600181600116156101000203166002900480601f01602080910402602001604051908101604052809291908181526020018280546001816001161561010002031660029004801561391d5780601f106138f25761010080835404028352916020019161391d565b820191906000526020600020905b81548152906001019060200180831161390057829003601f168201915b505050505081526020016005820160009054906101000a900473ffffffffffffffffffffffffffffffffffffffff1673ffffffffffffffffffffffffffffffffffffffff1673ffffffffffffffffffffffffffffffffffffffff1681526020016005820160149054906101000a900460ff161515151581526020016005820160159054906101000a900460ff16151515158152505096508660e001511515613a2d576040517f08c379a000000000000000000000000000000000000000000000000000000000815260040180806020018281038252601b8152602001807f5075626c697368206461746120646f6573206e6f74206578697374000000000081525060200191505060405180910390fd5b8660000151600e60009054906101000a900473ffffffffffffffffffffffffffffffffffffffff1673ffffffffffffffffffffffffffffffffffffffff166370a08231336040518263ffffffff167c0100000000000000000000000000000000000000000000000000000000028152600401808273ffffffffffffffffffffffffffffffffffffffff1673ffffffffffffffffffffffffffffffffffffffff168152602001915050602060405180830381600087803b158015613aef57600080fd5b505af1158015613b03573d6000803e3d6000fd5b505050506040513d6020811015613b1957600080fd5b810190808051906020019092919050505010151515613ba0576040517f08c379a00000000000000000000000000000000000000000000000000000000081526004018080602001828103825260118152602001807f4e6f20656e6f7567682062616c616e636500000000000000000000000000000081525060200191505060405180910390fd5b866000015195508660c0015115613bcd57600060019054906101000a900460ff1660ff1660025402860195505b600e60009054906101000a900473ffffffffffffffffffffffffffffffffffffffff1673ffffffffffffffffffffffffffffffffffffffff166323b872dd3330896040518463ffffffff167c0100000000000000000000000000000000000000000000000000000000028152600401808473ffffffffffffffffffffffffffffffffffffffff1673ffffffffffffffffffffffffffffffffffffffff1681526020018373ffffffffffffffffffffffffffffffffffffffff1673ffffffffffffffffffffffffffffffffffffffff1681526020018281526020019350505050602060405180830381600087803b158015613cc657600080fd5b505af1158015613cda573d6000803e3d6000fd5b505050506040513d6020811015613cf057600080fd5b81019080805190602001909291905050501515613d9b576040517f08c379a00000000000000000000000000000000000000000000000000000000081526004018080602001828103825260248152602001807f4661696c656420746f207472616e7366657220746f6b656e2066726f6d20636181526020017f6c6c65720000000000000000000000000000000000000000000000000000000081525060400191505060405180910390fd5b613da3614b91565b9450600b546040519080825280601f01601f191660200182016040528015613dda5781602001602082028038833980820191505090505b5093508660c0015115613f6357613dff600060019054906101000a900460ff16614ba9565b9250600060019054906101000a900460ff1660ff16604051908082528060200260200182016040528015613e425781602001602082028038833980820191505090505b5091507f9c200a4227ec4e19b5ad9d49dc8b449b7f19d88b7ba8c38e633a05713c6e6b748b8b878a60400151876040518080602001858152602001806020018060200184810384528989828181526020019250808284378201915050848103835286818151815260200191508051906020019060200280838360005b83811015613ed9578082015181840152602081019050613ebe565b50505050905001848103825285818151815260200191508051906020019060200280838360005b83811015613f1b578082015181840152602081019050613f00565b505050509050019850505050505050505060405180910390a1613f4c6003809054906101000a900460ff1684614ec6565b60059080519060200190613f61929190615731565b505b6001604051908082528060200260200182016040528015613f935781602001602082028038833980820191505090505b50905033816000815181101515613fa657fe5b9060200190602002019073ffffffffffffffffffffffffffffffffffffffff16908173ffffffffffffffffffffffffffffffffffffffff16815250507fd16734b3714832ed6453cfd7a0cdc465aeb6058f33ac675bc38176c4c4e109618b8b878c8c8c604001518d60c001518860405180806020018881526020018060200180602001861515151581526020018060200185810385528d8d82818152602001925080828437820191505085810384528a8a828181526020019250808284378201915050858103835288818151815260200191508051906020019060200280838360005b838110156140a4578082015181840152602081019050614089565b50505050905001858103825286818151815260200191508051906020019060200280838360005b838110156140e65780820151818401526020810190506140cb565b505050509050019c5050505050505050505050505060405180910390a1610160604051908101604052806001600781111561411d57fe5b81526020013373ffffffffffffffffffffffffffffffffffffffff1681526020018860a0015173ffffffffffffffffffffffffffffffffffffffff1681526020018481526020018381526020018a8a8080601f0160208091040260200160405190810160405280939291908181526020018383808284378201915050505050508152602001858152602001886020015181526020018781526020016002548152602001600115158152506007600087815260200190815260200160002060008201518160000160006101000a81548160ff021916908360078111156141fe57fe5b021790555060208201518160000160016101000a81548173ffffffffffffffffffffffffffffffffffffffff021916908373ffffffffffffffffffffffffffffffffffffffff16021790555060408201518160010160006101000a81548173ffffffffffffffffffffffffffffffffffffffff021916908373ffffffffffffffffffffffffffffffffffffffff16021790555060608201518160020190805190602001906142ad9291906157bb565b5060808201518160030190805190602001906142ca929190615845565b5060a08201518160040190805190602001906142e7929190615577565b5060c08201518160050190805190602001906143049291906154a4565b5060e08201518160060190805190602001906143219291906154a4565b50610100820151816007015561012082015181600801556101408201518160090160006101000a81548160ff0219169083151502179055509050505050505050505050505050565b600080600090505b600480549050811015614423578273ffffffffffffffffffffffffffffffffffffffff166004828154811015156143a457fe5b906000526020600020906005020160000160009054906101000a900473ffffffffffffffffffffffffffffffffffffffff1673ffffffffffffffffffffffffffffffffffffffff1614156144165760048181548110151561440157fe5b90600052602060002090600502019150614444565b8080600101915050614371565b6004600081548110151561443357fe5b906000526020600020906005020191505b50919050565b60008060008061445e8660000151866152cf565b8092508193505050856080015180156144745750815b819350935050509250929050565b816008015482600701541015156146455781600801548260070160008282540392505081905550600e60009054906101000a900473ffffffffffffffffffffffffffffffffffffffff1673ffffffffffffffffffffffffffffffffffffffff1663a9059cbb8284600801546040518363ffffffff167c0100000000000000000000000000000000000000000000000000000000028152600401808373ffffffffffffffffffffffffffffffffffffffff1673ffffffffffffffffffffffffffffffffffffffff16815260200182815260200192505050602060405180830381600087803b15801561457257600080fd5b505af1158015614586573d6000803e3d6000fd5b505050506040513d602081101561459c57600080fd5b8101908080519060200190929190505050151561464057816008015482600701600082825401925050819055506000151561463f576040517f08c379a00000000000000000000000000000000000000000000000000000000081526004018080602001828103825260198152602001807f4661696c656420746f2070617920746f2076657269666965720000000000000081525060200191505060405180910390fd5b5b6146e2565b600015156146e1576040517f08c379a00000000000000000000000000000000000000000000000000000000081526004018080602001828103825260288152602001807f4c6f77206465706f7369742076616c756520666f7220706179696e6720746f2081526020017f766572696669657200000000000000000000000000000000000000000000000081525060400191505060405180910390fd5b5b5050565b6000806000809150600090505b83518160ff16101561476357838160ff1681518110151561471057fe5b9060200190602002015173ffffffffffffffffffffffffffffffffffffffff168573ffffffffffffffffffffffffffffffffffffffff1614156147565760019150614763565b80806001019150506146f3565b819250505092915050565b806000015482600701541015156149555780600001548260070160008282540392505081905550600e60009054906101000a900473ffffffffffffffffffffffffffffffffffffffff1673ffffffffffffffffffffffffffffffffffffffff1663a9059cbb8260050160009054906101000a900473ffffffffffffffffffffffffffffffffffffffff1683600001546040518363ffffffff167c0100000000000000000000000000000000000000000000000000000000028152600401808373ffffffffffffffffffffffffffffffffffffffff1673ffffffffffffffffffffffffffffffffffffffff16815260200182815260200192505050602060405180830381600087803b15801561488257600080fd5b505af1158015614896573d6000803e3d6000fd5b505050506040513d60208110156148ac57600080fd5b8101908080519060200190929190505050151561495057806000015482600701600082825401925050819055506000151561494f576040517f08c379a00000000000000000000000000000000000000000000000000000000081526004018080602001828103825260178152602001807f4661696c656420746f2070617920746f2073656c6c657200000000000000000081525060200191505060405180910390fd5b5b6149f2565b600015156149f1576040517f08c379a00000000000000000000000000000000000000000000000000000000081526004018080602001828103825260268152602001807f4c6f77206465706f7369742076616c756520666f7220706179696e6720746f2081526020017f73656c6c6572000000000000000000000000000000000000000000000000000081525060400191505060405180910390fd5b5b5050565b606060078460000160006101000a81548160ff02191690836007811115614a1957fe5b02179055506001604051908082528060200260200182016040528015614a4e5781602001602082028038833980820191505090505b5090506000816000815181101515614a6257fe5b9060200190602002019073ffffffffffffffffffffffffffffffffffffffff16908173ffffffffffffffffffffffffffffffffffffffff16815250507f784a9feb5a6ecee5d955d1b5e294f2b57d9477164fba686c0bde4a40849f2b0c838383604051808060200184815260200180602001838103835286818151815260200191508051906020019080838360005b83811015614b0c578082015181840152602081019050614af1565b50505050905090810190601f168015614b395780820380516001836020036101000a031916815260200191505b50838103825284818151815260200191508051906020019060200280838360005b83811015614b75578082015181840152602081019050614b5a565b505050509050019550505050505060405180910390a150505050565b6000600a600081548092919060010191905055905090565b6060806000806000806000809054906101000a900460ff1660ff168760ff16101515614c3d576040517f08c379a00000000000000000000000000000000000000000000000000000000081526004018080602001828103825260198152602001807f4e6f20656e6f7567682076616c6964207665726966696572730000000000000081525060200191505060405180910390fd5b8660ff16604051908082528060200260200182016040528015614c6f5781602001602082028038833980820191505090505b509450600093505b8660ff168460ff161015614eb957600480549050614c99600480549050615358565b811515614ca257fe5b069250600483815481101515614cb457fe5b906000526020600020906005020191508160000160009054906101000a900473ffffffffffffffffffffffffffffffffffffffff1690505b8160040160009054906101000a900460ff161580614d345750614d338260000160009054906101000a900473ffffffffffffffffffffffffffffffffffffffff16866153c9565b5b15614e3a576004808054905084600101945084811515614d5057fe5b06815481101515614d5d57fe5b906000526020600020906005020191508073ffffffffffffffffffffffffffffffffffffffff168260000160009054906101000a900473ffffffffffffffffffffffffffffffffffffffff1673ffffffffffffffffffffffffffffffffffffffff1614151515614e35576040517f08c379a00000000000000000000000000000000000000000000000000000000081526004018080602001828103825260148152602001807f4469736f7264657265642076657269666965727300000000000000000000000081525060200191505060405180910390fd5b614cec565b8160000160009054906101000a900473ffffffffffffffffffffffffffffffffffffffff16858560ff16815181101515614e7057fe5b9060200190602002019073ffffffffffffffffffffffffffffffffffffffff16908173ffffffffffffffffffffffffffffffffffffffff16815250508380600101945050614c77565b8495505050505050919050565b6060806060600080614ed66158eb565b6060600080600060019054906101000a900460ff1660ff1660048054905003604051908082528060200260200182016040528015614f235781602001602082028038833980820191505090505b5097508a60ff16604051908082528060200260200182016040528015614f585781602001602082028038833980820191505090505b509650600094505b60048054905085101561507c57600485815481101515614f7c57fe5b906000526020600020906005020160a060405190810160405290816000820160009054906101000a900473ffffffffffffffffffffffffffffffffffffffff1673ffffffffffffffffffffffffffffffffffffffff1673ffffffffffffffffffffffffffffffffffffffff168152602001600182015481526020016002820160009054906101000a900460ff1660ff1660ff168152602001600382015481526020016004820160009054906101000a900460ff1615151515815250509350615044848b6153e5565b1561506f5784888781518110151561505857fe5b906020019060200201818152505085806001019650505b8480600101955050614f60565b8a60ff1686101515156150f7576040517f08c379a00000000000000000000000000000000000000000000000000000000081526004018080602001828103825260158152602001807f4e6f20656e6f7567682061726269747261746f7273000000000000000000000081525060200191505060405180910390fd5b856040519080825280602002602001820160405280156151265781602001602082028038833980820191505090505b5092505b60008611156151e3578580600190039650506004888781518110151561514c57fe5b9060200190602002015181548110151561516257fe5b906000526020600020906005020160000160009054906101000a900473ffffffffffffffffffffffffffffffffffffffff1683878151811015156151a257fe5b9060200190602002019073ffffffffffffffffffffffffffffffffffffffff16908173ffffffffffffffffffffffffffffffffffffffff168152505061512a565b600094505b8a60ff168510156152be5782516151ff8451615358565b81151561520857fe5b069150828281518110151561521957fe5b9060200190602002015190505b61523081886146e6565b15615266578283518360010193508381151561524857fe5b0681518110151561525557fe5b906020019060200201519050615226565b80878681518110151561527557fe5b9060200190602002019073ffffffffffffffffffffffffffffffffffffffff16908173ffffffffffffffffffffffffffffffffffffffff168152505084806001019550506151e8565b869850505050505050505092915050565b60008060008090505b8351811015615345578473ffffffffffffffffffffffffffffffffffffffff16848281518110151561530657fe5b9060200190602002015173ffffffffffffffffffffffffffffffffffffffff1614156153385760018192509250615350565b80806001019150506152d8565b600080809050925092505b509250929050565b6000814233604051808381526020018273ffffffffffffffffffffffffffffffffffffffff1673ffffffffffffffffffffffffffffffffffffffff166c01000000000000000000000000028152601401925050506040518091039020600190048115156153c157fe5b069050919050565b6000806153d684846152cf565b50809150508091505092915050565b600080600060019150600090505b83518160ff16101561546757838160ff1681518110151561541057fe5b9060200190602002015173ffffffffffffffffffffffffffffffffffffffff16856000015173ffffffffffffffffffffffffffffffffffffffff16141561545a5760009150615467565b80806001019150506153f3565b818015615475575084608001515b801561549a5750600360049054906101000a900460ff1660ff16856040015160ff1610155b9250505092915050565b828054600181600116156101000203166002900490600052602060002090601f016020900481019282601f106154e557805160ff1916838001178555615513565b82800160010185558215615513579182015b828111156155125782518255916020019190600101906154f7565b5b5090506155209190615936565b5090565b828054828255906000526020600020908101928215615566579160200282015b82811115615565578251829060001916905591602001919060010190615544565b5b509050615573919061595b565b5090565b828054600181600116156101000203166002900490600052602060002090601f016020900481019282601f106155b857805160ff19168380011785556155e6565b828001600101855582156155e6579182015b828111156155e55782518255916020019190600101906155ca565b5b5090506155f39190615936565b5090565b828054600181600116156101000203166002900490600052602060002090601f016020900481019282601f1061563857803560ff1916838001178555615666565b82800160010185558215615666579182015b8281111561566557823582559160200191906001019061564a565b5b5090506156739190615936565b5090565b8154818355818111156156a4576005028160050283600052602060002091820191016156a39190615980565b5b505050565b610100604051908101604052806000815260200160608152602001606081526020016000815260200160608152602001600073ffffffffffffffffffffffffffffffffffffffff1681526020016000151581526020016000151581525090565b50805460008255601f01602090049060005260206000209081019061572e9190615936565b50565b8280548282559060005260206000209081019282156157aa579160200282015b828111156157a95782518260006101000a81548173ffffffffffffffffffffffffffffffffffffffff021916908373ffffffffffffffffffffffffffffffffffffffff16021790555091602001919060010190615751565b5b5090506157b791906159fe565b5090565b828054828255906000526020600020908101928215615834579160200282015b828111156158335782518260006101000a81548173ffffffffffffffffffffffffffffffffffffffff021916908373ffffffffffffffffffffffffffffffffffffffff160217905550916020019190600101906157db565b5b50905061584191906159fe565b5090565b82805482825590600052602060002090601f016020900481019282156158da5791602002820160005b838211156158ab57835183826101000a81548160ff021916908315150217905550926020019260010160208160000104928301926001030261586e565b80156158d85782816101000a81549060ff02191690556001016020816000010492830192600103026158ab565b505b5090506158e79190615a41565b5090565b60a060405190810160405280600073ffffffffffffffffffffffffffffffffffffffff16815260200160008152602001600060ff168152602001600081526020016000151581525090565b61595891905b8082111561595457600081600090555060010161593c565b5090565b90565b61597d91905b80821115615979576000816000905550600101615961565b5090565b90565b6159fb91905b808211156159f757600080820160006101000a81549073ffffffffffffffffffffffffffffffffffffffff021916905560018201600090556002820160006101000a81549060ff021916905560038201600090556004820160006101000a81549060ff021916905550600501615986565b5090565b90565b615a3e91905b80821115615a3a57600081816101000a81549073ffffffffffffffffffffffffffffffffffffffff021916905550600101615a04565b5090565b90565b615a6e91905b80821115615a6a57600081816101000a81549060ff021916905550600101615a47565b5090565b905600a165627a7a72305820b7275f52b3cbedea3c8d351735df22b9fe0bdfd5d3ef2f214f3c6a699d386bb60029",
  "source": "pragma solidity ^0.4.24;\n\nimport \"./ScryToken.sol\";\n\ncontract ScryProtocol {\n    enum TransactionState {Begin, Created, Voted, Buying, ReadyForDownload, Arbitrating, Payed, Closed}\n\n    struct DataInfoPublished {\n        uint256 price;\n        bytes metaDataIdEncSeller;\n        bytes32[] proofDataIds;\n        uint256 numberOfProof;\n        string despDataId;\n        address seller;\n        bool supportVerify;\n        bool used;\n    }\n\n    struct TransactionItem {\n        TransactionState state;\n        address buyer;\n        address seller;\n        address[] verifiers;\n        bool[] creditGived;\n        string publishId;\n        bytes meteDataIdEncBuyer;\n        bytes metaDataIdEncSeller;\n        uint256 buyerDeposit;\n        uint256 verifierBonus;\n        bool used;\n    }\n\n    struct Verifier {\n        address addr;\n        uint256 deposit;\n        uint8 credits;  //credit: 0-5\n        uint256 creditTimes;\n        bool enable;\n    }\n\n    uint8 validVerifierCount = 0;\n    uint8 verifierNum = 2;\n    uint256 verifierDepositToken = 10000;\n    uint256 verifierBonus = 300;\n    uint8 creditLow = 0;\n    uint8 creditHigh = 5;\n    uint8 creditThreshold = 2;\n    uint8 arbitratorNum = 1;        \n    uint8 arbitrateCredit = 0;      \n\n    struct VoteResult {\n        bool judge;\n        string comments;\n        bool used;\n    }\n\n    Verifier[] verifiers;\n    address[] selectedArbitrators;\n    mapping (string => DataInfoPublished) mapPublishedData;\n    mapping (uint256 => TransactionItem) mapTransaction;\n    mapping (uint256 => mapping(address => VoteResult)) mapVote;\n    mapping (uint256 => bool[]) mapCount;\n\n    event RegisterVerifier(string seqNo, address[] users);\n    event DataPublish(string seqNo, string publishId, uint256 price, string despDataId, address[] users);\n    event TransactionCreate(string seqNo, uint256 transactionId, string publishId, bytes32[] proofIds, bool supportVerify, address[] users);\n    event VerifiersChosen(string seqNo, uint256 transactionId, bytes32[] proofIds, address[] users);\n    event Vote(string seqNo, uint256 transactionId, bool judge, string comments, address[] users);\n    event Buy(string seqNo, uint256 transactionId, string publishId, bytes metaDataIdEncSeller, address[] users);\n    event ReadyForDownload(string seqNo, uint256 transactionId, bytes metaDataIdEncBuyer, address[] users);\n    event ArbitratingBegin(string seqNo,uint256 transactionId, address[] users);\n    event Payed(string seqNo,uint256 txId,TransactionState state);\n    event TransactionClose(string seqNo, uint256 transactionId, address[] users);\n    event VerifierDisable(string seqNo, address verifier, address[] users);\n\n    uint256 transactionSeq = 0;\n    uint256 encryptedIdLen = 32;\n\n    address token_address = 0x0;\n    address owner         = 0x0;\n    ERC20   token;\n\n    constructor (address _token) public {\n        require(_token != 0x0);\n\n        owner = msg.sender;\n        token_address = _token;\n        token = ERC20(_token);\n\n        //the first element used for empty usage\n        verifiers[verifiers.length++] = Verifier(0x00, 0, 0, 0, false);\n    }\n\n    function registerAsVerifier(string seqNo) external {\n        Verifier storage v = getVerifier(msg.sender);\n        require( v.addr == 0x00, \"The verifier is already registered\");\n\n        //deposit\n        if (verifierDepositToken > 0) {\n            require(token.balanceOf(msg.sender) >= verifierDepositToken, \"No enough balance\");\n            require(token.transferFrom(msg.sender, address(this), verifierDepositToken), \"Failed to transfer token from caller\");\n        }\n\n        verifiers[verifiers.length++] = Verifier(msg.sender, verifierDepositToken, creditHigh, 0, true);\n        validVerifierCount++;\n\n        address[] memory users = new address[](1);\n        users[0] = msg.sender;\n        emit RegisterVerifier(seqNo, users);\n    }\n\n    function publishDataInfo(string seqNo, string publishId, uint256 price, bytes metaDataIdEncSeller,\n        bytes32[] proofDataIds, string despDataId, bool supportVerify) external {\n        address[] memory users = new address[](1);\n        users[0] = address(0x00);\n\n        DataInfoPublished storage data = mapPublishedData[publishId];\n        require(!data.used, \"Duplicate publish id\");\n\n        mapPublishedData[publishId] = DataInfoPublished(price, metaDataIdEncSeller, proofDataIds, proofDataIds.length, despDataId, msg.sender, supportVerify, true);\n\n        emit DataPublish(seqNo, publishId, price, despDataId, users);\n    }\n\n    function isPublishedDataExisted(string publishId) internal view returns (bool) {\n        DataInfoPublished storage data = mapPublishedData[publishId];\n        return data.used;\n    }\n\n    function createTransaction(string seqNo, string publishId) external {\n        //published data info\n        DataInfoPublished memory data = mapPublishedData[publishId];\n        require(data.used, \"Publish data does not exist\");\n        require((token.balanceOf(msg.sender)) >= data.price, \"No enough balance\");\n        uint256 fee = data.price;\n        if (data.supportVerify) {\n            fee += verifierBonus * verifierNum;   // should add the tokens which for awarding verifiers and arbitrators.\n        }\n        require(token.transferFrom(msg.sender, address(this), fee), \"Failed to transfer token from caller\");\n\n        //create transaction\n        uint txId = getTransactionId();\n        bytes memory metaDataIdEncBuyer = new bytes(encryptedIdLen);\n\n        address[] memory selectedVerifiers;\n        bool[] memory creditGived;\n        if (data.supportVerify) {\n            //choose verifiers randomly\n            selectedVerifiers = chooseVerifiers(verifierNum);\n            creditGived = new bool[](verifierNum);\n            emit VerifiersChosen(seqNo, txId,data.proofDataIds, selectedVerifiers);\n\n            selectedArbitrators = chooseArbitrators(arbitratorNum, selectedVerifiers);\n        }\n\n        address[] memory users = new address[](1);\n        users[0] = msg.sender;\n        emit TransactionCreate(seqNo, txId, publishId, data.proofDataIds, data.supportVerify, users);\n\n        mapTransaction[txId] = TransactionItem(TransactionState.Created, msg.sender, data.seller, selectedVerifiers, creditGived,\n            publishId, metaDataIdEncBuyer, data.metaDataIdEncSeller, fee, verifierBonus, true);\n    }\n\n    function chooseVerifiers(uint8 num) internal view returns (address[] memory) {\n        require(num < validVerifierCount, \"No enough valid verifiers\");\n        address[] memory chosenVerifiers = new address[](num);\n\n        for (uint8 i = 0; i < num; i++) {\n            uint index = getRandomNumber(verifiers.length) % verifiers.length;\n            Verifier storage v = verifiers[index];\n\n            //loop if invalid verifier was chosen until get valid verifier\n            address vb = v.addr;\n            while (!v.enable || verifierExist(v.addr, chosenVerifiers)) {\n                v = verifiers[(++index) % verifiers.length];\n                require(v.addr != vb, \"Disordered verifiers\");\n            }\n\n            chosenVerifiers[i] = v.addr;\n        }\n\n        return chosenVerifiers;\n    }\n\n    function verifierValid(Verifier v, address[] arr) pure internal returns (bool, uint256) {\n        bool exist;\n        uint256 index;\n\n        (exist, index) = getVerifierIndex(v.addr, arr);\n        return (v.enable && exist, index);\n    }\n\n    function verifierExist(address addr, address[] arr) pure internal returns (bool) {\n        bool exist;\n        (exist, ) = getVerifierIndex(addr, arr);\n\n        return exist;\n    }\n\n    function getVerifierIndex(address verifier, address[] arrayVerifier) pure internal returns (bool, uint256) {\n        for (uint256 i = 0; i < arrayVerifier.length; i++) {\n            if (arrayVerifier[i] == verifier) {\n                return (true, i);\n            }\n        }\n\n        return (false, 0);\n    }\n\n    function getTransactionId() internal returns(uint) {\n        return transactionSeq++;\n    }\n\n    function getRandomNumber(uint mod) internal view returns (uint) {\n        return uint(keccak256(now, msg.sender)) % mod;\n    }\n\n    function vote(string seqNo, uint txId, bool judge, string comments) external {\n        TransactionItem storage txItem = mapTransaction[txId];\n        require(txItem.used, \"Transaction does not exist\");\n\n        bool valid;\n        uint256 index;\n        Verifier storage verifier = getVerifier(msg.sender);\n        (valid, index) = verifierValid(verifier, txItem.verifiers);\n        require(valid, \"Invalid verifier\");\n\n        mapVote[txId][msg.sender] = VoteResult(judge, comments, true);\n\n        txItem.state = TransactionState.Voted;\n        txItem.creditGived[index] = false;\n\n        payToVerifier(txItem, verifier.addr);\n\n        address[] memory users = new address[](1);\n        users[0] = txItem.buyer;\n        emit Vote(seqNo, txId, judge, comments, users);\n    }\n\n    function chooseArbitrators(uint8 num, address[] vs) internal view returns (address[] memory) {\n        uint256[] memory shortlistIndex = new uint256[](verifiers.length - verifierNum);\n        address[] memory chosenArbitrators = new address[](num);\n        uint256 count;\n\n        for (uint256 i = 0;i < verifiers.length;i++) {\n            Verifier memory a = verifiers[i];\n            if (arbitratorValid(a,vs)) {\n                shortlistIndex[count] = i;\n                count++;\n            }\n        }\n        require(count >= num, \"No enough arbitrators\");\n\n        address[] memory shortlist = new address[](count);\n        while (count > 0) {\n            count--;\n            shortlist[count] = verifiers[shortlistIndex[count]].addr;\n        }\n\n        for (i = 0;i < num;i++) {\n            uint index = getRandomNumber(shortlist.length) % shortlist.length;\n            address ad = shortlist[index];\n            while (arbitratorExist(ad,chosenArbitrators)) {\n                ad = shortlist[(++index) % shortlist.length];\n            }\n            chosenArbitrators[i] = ad;\n        }\n\n        return chosenArbitrators;\n    }\n\n    function arbitratorValid(Verifier a, address[] vs) internal view returns (bool) {\n        bool notVerifier = true;\n        for (uint8 i = 0;i < vs.length;i++) {\n            if (a.addr == vs[i]) {\n                notVerifier = false;\n                break;\n            }\n        }\n        return notVerifier && a.enable && (a.credits >= arbitrateCredit);\n    }\n\n    function arbitratorExist(address ad, address[] addrs) internal pure returns (bool) {\n        bool exist = false;\n        for (uint8 i = 0;i < addrs.length;i++) {\n            if (ad == addrs[i]) {\n                exist = true;\n                break;\n            }\n        }\n        return exist;\n    }\n\n    function buyData(string seqNo, uint256 txId) external {\n        //validate\n        TransactionItem storage txItem = mapTransaction[txId];\n        require(txItem.used, \"Transaction does not exist\");\n        require(txItem.buyer == msg.sender, \"Invalid buyer\");\n\n        DataInfoPublished memory data = mapPublishedData[txItem.publishId];\n        require(data.used, \"Publish data does not exist\");\n\n        if(!data.supportVerify) {\n            require(txItem.state == TransactionState.Created, \"Invalid transaction state\");\n        } else {\n            require(txItem.state == TransactionState.Voted, \"Invalid transaction state\");\n        }\n\n        txItem.state = TransactionState.Buying;\n\n        address[] memory users = new address[](1);\n        users[0] = txItem.seller;\n        emit Buy(seqNo, txId, txItem.publishId, txItem.metaDataIdEncSeller, users);\n    }\n\n    function submitMetaDataIdEncWithBuyer(string seqNo, uint256 txId, bytes encryptedMetaDataId) external {\n        //validate\n        TransactionItem storage txItem = mapTransaction[txId];\n        require(txItem.used, \"Transaction does not exist\");\n        require(txItem.seller == msg.sender, \"Invalid seller\");\n        require(txItem.state == TransactionState.Buying, \"Invalid transaction state\");\n\n        txItem.meteDataIdEncBuyer = encryptedMetaDataId;\n        txItem.state = TransactionState.ReadyForDownload;\n\n        //ReadyForDownload event\n        address[] memory users = new address[](1);\n        users[0] = txItem.buyer;\n        emit ReadyForDownload(seqNo, txId, txItem.metaDataIdEncSeller, users);\n    }\n\n    function confirmDataTruth(string seqNo, uint256 txId, bool truth) external {\n        //validate\n        TransactionItem storage txItem = mapTransaction[txId];\n        require(txItem.used, \"Transaction does not exist\");\n        require(txItem.buyer == msg.sender, \"Invalid buyer\");\n\n        DataInfoPublished storage data = mapPublishedData[txItem.publishId];\n        require(data.used, \"Publish data does not exist\");\n\n        require(txItem.state == TransactionState.ReadyForDownload);\n        if (!data.supportVerify) {\n            if(truth) {\n                payToSeller(txItem, data);\n            }\n\n            closeTransaction(txItem, seqNo, txId);\n        } else {\n            if (truth) {\n                payToSeller(txItem, data);\n                closeTransaction(txItem, seqNo, txId);\n            } else {\n                txItem.state = TransactionState.Arbitrating;\n                emit ArbitratingBegin(seqNo,txId,selectedArbitrators);\n            }\n\n        }\n    }\n\n    function arbitrate(string seqNo,uint txId,bool judge) external {\n        TransactionItem storage txItem = mapTransaction[txId];\n        require(txItem.used, \"Transaction does not exist\");\n\n        require(arbitratorExist(msg.sender, selectedArbitrators), \"Invalid arbitrator\");\n\n        mapCount[txId].push(judge);\n        if (mapCount[txId].length == arbitratorNum) {\n            // reward arbitrators,transfer tokens to selectedArbitrators.\n            uint8 truth;\n            for (uint256 i = 0;i < arbitratorNum;i++) {\n                if (mapCount[txId][i]) {\n                    truth++;\n                }\n            }\n            delete mapCount[txId];\n            if (!(truth >= (arbitratorNum+1)/2)) {\n                // return tokens to buyer.\n            }else {\n                DataInfoPublished storage data = mapPublishedData[txItem.publishId];\n                payToSeller(txItem, data);\n            }\n\n            txItem.state = TransactionState.Payed;\n            emit Payed(seqNo, txId, txItem.state);\n        }\n    }\n\n    function closeTransaction(TransactionItem storage txItem, string seqNo, uint256 txId) internal {\n        txItem.state = TransactionState.Closed;\n\n        address[] memory users = new address[](1);\n        users[0] = address(0x00);\n        emit TransactionClose(seqNo, txId, users);\n    }\n\n    function payToVerifier(TransactionItem storage txItem, address verifier) internal {\n        if (txItem.buyerDeposit >= txItem.verifierBonus) {\n            txItem.buyerDeposit -= txItem.verifierBonus;\n\n            if (!token.transfer(verifier, txItem.verifierBonus)) {\n                txItem.buyerDeposit += txItem.verifierBonus;\n                require(false, \"Failed to pay to verifier\");\n            }\n        } else {\n            require(false, \"Low deposit value for paying to verifier\");\n        }\n    }\n\n    function payToSeller(TransactionItem storage txItem, DataInfoPublished storage data) internal {\n        if (txItem.buyerDeposit >= data.price) {\n            txItem.buyerDeposit -= data.price;\n\n            if (!token.transfer(data.seller, data.price)) {\n                txItem.buyerDeposit += data.price;\n                require(false, \"Failed to pay to seller\");\n            }\n        } else {\n            require(false, \"Low deposit value for paying to seller\");\n        }\n    }\n\n    function setVerifierDepositToken(uint256 deposit) external {\n        require(owner == msg.sender, \"The value only can be set by owner\");\n\n        verifierDepositToken = deposit;\n    }\n\n    function setVerifierNum(uint8 num) external {\n        require(owner == msg.sender, \"The value only can be set by owner\");\n\n        verifierNum = num;\n    }\n\n    function setVerifierBonus(uint256 bonus) external {\n        require(owner == msg.sender, \"The value only can be set by owner\");\n\n        verifierBonus = bonus;\n    }    \n\n    function creditsToVerifier(string seqNo, uint256 txId, address to, uint8 credit) external {\n        //validate\n        require(to != 0x00, \"Verifier address is zero\");\n        require(credit >= creditLow && credit <= creditHigh, \"Valid credit scope is 0 <= credit <= 5\");\n\n        TransactionItem storage txItem = mapTransaction[txId];\n        require(txItem.used, \"Transaction does not exist\");\n\n        Verifier storage verifier = getVerifier(to);\n        require(verifier.addr != 0x00, \"Verifier does not exist\");\n\n        DataInfoPublished storage data = mapPublishedData[txItem.publishId];\n        require(data.used, \"Publish data does not exist\");\n        require(data.supportVerify, \"The transaction do not support verification\");\n\n        bool valid;\n        uint256 index;\n        (valid, index) = verifierValid(verifier, txItem.verifiers);\n        require(valid, \"Invalid verifier\");\n        require(!txItem.creditGived[index], \"The verifier's credit in this transaction has been submited\");\n\n        verifier.credits = (uint8)((verifier.credits * verifier.creditTimes + credit)/(++verifier.creditTimes));\n        txItem.creditGived[index] = true;\n\n        //disable verifier and forfeiture deposit while credit <= creditThreshold\n        if (verifier.credits <= creditThreshold) {\n            verifier.enable = false;\n            verifier.deposit = 0;\n            validVerifierCount--;\n            require(validVerifierCount >= 1, \"Invalid verifier count\");\n\n            address[] memory users = new address[](1);\n            users[0] = address(0x00);\n            emit VerifierDisable(seqNo, verifier.addr, users);\n        }\n    }\n\n    function getVerifier(address v) internal view returns (Verifier storage){\n        for (uint256 i = 0; i < verifiers.length; i++) {\n            if (verifiers[i].addr == v) {\n                return verifiers[i];\n            }\n        }\n\n        return verifiers[0];\n    }\n}",
  "sourcePath": "/home/waitgordor/project/goproject/src/github.com/scryinfo/iscap/demo/src/contracts/contracts/ScryProtocol.sol",
  "compiler": {
    "name": "solc",
    "version": "0.4.24+commit.e67f0147.Emscripten.clang"
  },
  "schemaVersion": "2.0.1",
  "updatedAt": "2019-03-05T09:42:05.477Z"
}