{
  "contractName": "ScryProtocol",
  "abi": [
    {
      "inputs": [
        {
          "name": "_token",
          "type": "address"
        }
      ],
      "payable": false,
      "stateMutability": "nonpayable",
      "type": "constructor"
    },
    {
      "anonymous": false,
      "inputs": [
        {
          "indexed": false,
          "name": "seqNo",
          "type": "string"
        },
        {
          "indexed": false,
          "name": "users",
          "type": "address[]"
        }
      ],
      "name": "RegisterVerifier",
      "type": "event"
    },
    {
      "anonymous": false,
      "inputs": [
        {
          "indexed": false,
          "name": "seqNo",
          "type": "string"
        },
        {
          "indexed": false,
          "name": "publishId",
          "type": "string"
        },
        {
          "indexed": false,
          "name": "price",
          "type": "uint256"
        },
        {
          "indexed": false,
          "name": "despDataId",
          "type": "string"
        },
        {
          "indexed": false,
          "name": "users",
          "type": "address[]"
        }
      ],
      "name": "DataPublish",
      "type": "event"
    },
    {
      "anonymous": false,
      "inputs": [
        {
          "indexed": false,
          "name": "seqNo",
          "type": "string"
        },
        {
          "indexed": false,
          "name": "transactionId",
          "type": "uint256"
        },
        {
          "indexed": false,
          "name": "publishId",
          "type": "string"
        },
        {
          "indexed": false,
          "name": "proofIds",
          "type": "bytes32[]"
        },
        {
          "indexed": false,
          "name": "supportVerify",
          "type": "bool"
        },
        {
          "indexed": false,
          "name": "users",
          "type": "address[]"
        }
      ],
      "name": "TransactionCreate",
      "type": "event"
    },
    {
      "anonymous": false,
      "inputs": [
        {
          "indexed": false,
          "name": "seqNo",
          "type": "string"
        },
        {
          "indexed": false,
          "name": "transactionId",
          "type": "uint256"
        },
        {
          "indexed": false,
          "name": "proofIds",
          "type": "bytes32[]"
        },
        {
          "indexed": false,
          "name": "users",
          "type": "address[]"
        }
      ],
      "name": "VerifiersChosen",
      "type": "event"
    },
    {
      "anonymous": false,
      "inputs": [
        {
          "indexed": false,
          "name": "seqNo",
          "type": "string"
        },
        {
          "indexed": false,
          "name": "transactionId",
          "type": "uint256"
        },
        {
          "indexed": false,
          "name": "judge",
          "type": "bool"
        },
        {
          "indexed": false,
          "name": "comments",
          "type": "string"
        },
        {
          "indexed": false,
          "name": "users",
          "type": "address[]"
        }
      ],
      "name": "Vote",
      "type": "event"
    },
    {
      "anonymous": false,
      "inputs": [
        {
          "indexed": false,
          "name": "seqNo",
          "type": "string"
        },
        {
          "indexed": false,
          "name": "transactionId",
          "type": "uint256"
        },
        {
          "indexed": false,
          "name": "publishId",
          "type": "string"
        },
        {
          "indexed": false,
          "name": "metaDataIdEncSeller",
          "type": "bytes"
        },
        {
          "indexed": false,
          "name": "users",
          "type": "address[]"
        }
      ],
      "name": "Buy",
      "type": "event"
    },
    {
      "anonymous": false,
      "inputs": [
        {
          "indexed": false,
          "name": "seqNo",
          "type": "string"
        },
        {
          "indexed": false,
          "name": "transactionId",
          "type": "uint256"
        },
        {
          "indexed": false,
          "name": "metaDataIdEncBuyer",
          "type": "bytes"
        },
        {
          "indexed": false,
          "name": "users",
          "type": "address[]"
        }
      ],
      "name": "ReadyForDownload",
      "type": "event"
    },
    {
      "anonymous": false,
      "inputs": [
        {
          "indexed": false,
          "name": "seqNo",
          "type": "string"
        },
        {
          "indexed": false,
          "name": "transactionId",
          "type": "uint256"
        },
        {
          "indexed": false,
          "name": "users",
          "type": "address[]"
        }
      ],
      "name": "TransactionClose",
      "type": "event"
    },
    {
      "anonymous": false,
      "inputs": [
        {
          "indexed": false,
          "name": "seqNo",
          "type": "string"
        },
        {
          "indexed": false,
          "name": "verifier",
          "type": "address"
        },
        {
          "indexed": false,
          "name": "users",
          "type": "address[]"
        }
      ],
      "name": "VerifierDisable",
      "type": "event"
    },
    {
      "constant": false,
      "inputs": [
        {
          "name": "seqNo",
          "type": "string"
        }
      ],
      "name": "registerAsVerifier",
      "outputs": [],
      "payable": false,
      "stateMutability": "nonpayable",
      "type": "function"
    },
    {
      "constant": false,
      "inputs": [
        {
          "name": "seqNo",
          "type": "string"
        },
        {
          "name": "publishId",
          "type": "string"
        },
        {
          "name": "price",
          "type": "uint256"
        },
        {
          "name": "metaDataIdEncSeller",
          "type": "bytes"
        },
        {
          "name": "proofDataIds",
          "type": "bytes32[]"
        },
        {
          "name": "despDataId",
          "type": "string"
        },
        {
          "name": "supportVerify",
          "type": "bool"
        }
      ],
      "name": "publishDataInfo",
      "outputs": [],
      "payable": false,
      "stateMutability": "nonpayable",
      "type": "function"
    },
    {
      "constant": false,
      "inputs": [
        {
          "name": "seqNo",
          "type": "string"
        },
        {
          "name": "publishId",
          "type": "string"
        }
      ],
      "name": "createTransaction",
      "outputs": [],
      "payable": false,
      "stateMutability": "nonpayable",
      "type": "function"
    },
    {
      "constant": false,
      "inputs": [
        {
          "name": "seqNo",
          "type": "string"
        },
        {
          "name": "txId",
          "type": "uint256"
        },
        {
          "name": "judge",
          "type": "bool"
        },
        {
          "name": "comments",
          "type": "string"
        }
      ],
      "name": "vote",
      "outputs": [],
      "payable": false,
      "stateMutability": "nonpayable",
      "type": "function"
    },
    {
      "constant": false,
      "inputs": [
        {
          "name": "seqNo",
          "type": "string"
        },
        {
          "name": "txId",
          "type": "uint256"
        }
      ],
      "name": "buyData",
      "outputs": [],
      "payable": false,
      "stateMutability": "nonpayable",
      "type": "function"
    },
    {
      "constant": false,
      "inputs": [
        {
          "name": "seqNo",
          "type": "string"
        },
        {
          "name": "txId",
          "type": "uint256"
        },
        {
          "name": "encryptedMetaDataId",
          "type": "bytes"
        }
      ],
      "name": "submitMetaDataIdEncWithBuyer",
      "outputs": [],
      "payable": false,
      "stateMutability": "nonpayable",
      "type": "function"
    },
    {
      "constant": false,
      "inputs": [
        {
          "name": "seqNo",
          "type": "string"
        },
        {
          "name": "txId",
          "type": "uint256"
        },
        {
          "name": "truth",
          "type": "bool"
        }
      ],
      "name": "confirmDataTruth",
      "outputs": [],
      "payable": false,
      "stateMutability": "nonpayable",
      "type": "function"
    },
    {
      "constant": false,
      "inputs": [
        {
          "name": "deposit",
          "type": "uint256"
        }
      ],
      "name": "setVerifierDepositToken",
      "outputs": [],
      "payable": false,
      "stateMutability": "nonpayable",
      "type": "function"
    },
    {
      "constant": false,
      "inputs": [
        {
          "name": "num",
          "type": "uint8"
        }
      ],
      "name": "setVerifierNum",
      "outputs": [],
      "payable": false,
      "stateMutability": "nonpayable",
      "type": "function"
    },
    {
      "constant": false,
      "inputs": [
        {
          "name": "seqNo",
          "type": "string"
        },
        {
          "name": "txId",
          "type": "uint256"
        },
        {
          "name": "to",
          "type": "address"
        },
        {
          "name": "credit",
          "type": "uint8"
        }
      ],
      "name": "creditsToVerifier",
      "outputs": [],
      "payable": false,
      "stateMutability": "nonpayable",
      "type": "function"
    }
  ],
  "bytecode": "0x608060405260008060006101000a81548160ff021916908360ff1602179055506002600060016101000a81548160ff021916908360ff1602179055506127106001556000600260006101000a81548160ff021916908360ff1602179055506005600260016101000a81548160ff021916908360ff16021790555060028060026101000a81548160ff021916908360ff160217905550600060075560206008556000600960006101000a81548173ffffffffffffffffffffffffffffffffffffffff021916908373ffffffffffffffffffffffffffffffffffffffff1602179055506000600a60006101000a81548173ffffffffffffffffffffffffffffffffffffffff021916908373ffffffffffffffffffffffffffffffffffffffff1602179055503480156200012f57600080fd5b5060405160208062004ea28339810180604052810190808051906020019092919050505060008173ffffffffffffffffffffffffffffffffffffffff16141515156200017a57600080fd5b33600a60006101000a81548173ffffffffffffffffffffffffffffffffffffffff021916908373ffffffffffffffffffffffffffffffffffffffff16021790555080600960006101000a81548173ffffffffffffffffffffffffffffffffffffffff021916908373ffffffffffffffffffffffffffffffffffffffff16021790555080600b60006101000a81548173ffffffffffffffffffffffffffffffffffffffff021916908373ffffffffffffffffffffffffffffffffffffffff16021790555060a060405190810160405280600073ffffffffffffffffffffffffffffffffffffffff16815260200160008152602001600060ff168152602001600081526020016000151581525060038080548091906001016200029c91906200035d565b815481101515620002a957fe5b906000526020600020906005020160008201518160000160006101000a81548173ffffffffffffffffffffffffffffffffffffffff021916908373ffffffffffffffffffffffffffffffffffffffff1602179055506020820151816001015560408201518160020160006101000a81548160ff021916908360ff1602179055506060820151816003015560808201518160040160006101000a81548160ff0219169083151502179055509050505062000413565b8154818355818111156200038d576005028160050283600052602060002091820191016200038c919062000392565b5b505050565b6200041091905b808211156200040c57600080820160006101000a81549073ffffffffffffffffffffffffffffffffffffffff021916905560018201600090556002820160006101000a81549060ff021916905560038201600090556004820160006101000a81549060ff02191690555060050162000399565b5090565b90565b614a7f80620004236000396000f3006080604052600436106100a4576000357c0100000000000000000000000000000000000000000000000000000000900463ffffffff1680631219bda6146100a9578063377caed11461011b5780635a39eba2146101cc57806371ab5c0e146101fc5780638ba737ee1461022957806393151dd514610286578063980da40d146102c15780639a756a991461032a578063dd16673b1461036f578063fecc18b4146103c0575b600080fd5b3480156100b557600080fd5b5061011960048036038101908080359060200190820180359060200191909192939192939080359060200190929190803573ffffffffffffffffffffffffffffffffffffffff169060200190929190803560ff169060200190929190505050610413565b005b34801561012757600080fd5b506101ca60048036038101908080359060200190820180359060200191909192939192939080359060200190820180359060200191909192939192939080359060200190929190803590602001908201803590602001919091929391929390803590602001908201803590602001919091929391929390803590602001908201803590602001919091929391929390803515159060200190929190505050610e2e565b005b3480156101d857600080fd5b506101fa600480360381019080803560ff16906020019092919050505061125c565b005b34801561020857600080fd5b5061022760048036038101908080359060200190929190505050611365565b005b34801561023557600080fd5b506102846004803603810190808035906020019082018035906020019190919293919293908035906020019092919080359060200190820180359060200191909192939192939050505061145a565b005b34801561029257600080fd5b506102bf600480360381019080803590602001908201803590602001919091929391929390505050611874565b005b3480156102cd57600080fd5b5061032860048036038101908080359060200190820180359060200191909192939192939080359060200190929190803515159060200190929190803590602001908201803590602001919091929391929390505050611f1c565b005b34801561033657600080fd5b5061036d6004803603810190808035906020019082018035906020019190919293919293908035906020019092919050505061246c565b005b34801561037b57600080fd5b506103be60048036038101908080359060200190820180359060200191909192939192939080359060200190929190803515159060200190929190505050612cf2565b005b3480156103cc57600080fd5b50610411600480360381019080803590602001908201803590602001919091929391929390803590602001908201803590602001919091929391929390505050613050565b005b6000806000806000606060008873ffffffffffffffffffffffffffffffffffffffff16141515156104ac576040517f08c379a00000000000000000000000000000000000000000000000000000000081526004018080602001828103825260188152602001807f56657269666965722061646472657373206973207a65726f000000000000000081525060200191505060405180910390fd5b600260009054906101000a900460ff1660ff168760ff16101580156104e65750600260019054906101000a900460ff1660ff168760ff1611155b1515610580576040517f08c379a00000000000000000000000000000000000000000000000000000000081526004018080602001828103825260268152602001807f56616c6964206372656469742073636f70652069732030203c3d20637265646981526020017f74203c3d2035000000000000000000000000000000000000000000000000000081525060400191505060405180910390fd5b600560008a815260200190815260200160002095508560080160009054906101000a900460ff16151561061b576040517f08c379a000000000000000000000000000000000000000000000000000000000815260040180806020018281038252601a8152602001807f5472616e73616374696f6e20646f6573206e6f7420657869737400000000000081525060200191505060405180910390fd5b61062488613c22565b945060008560000160009054906101000a900473ffffffffffffffffffffffffffffffffffffffff1673ffffffffffffffffffffffffffffffffffffffff16141515156106d9576040517f08c379a00000000000000000000000000000000000000000000000000000000081526004018080602001828103825260178152602001807f566572696669657220646f6573206e6f7420657869737400000000000000000081525060200191505060405180910390fd5b600486600401604051808280546001816001161561010002031660029004801561073a5780601f1061071857610100808354040283529182019161073a565b820191906000526020600020905b815481529060010190602001808311610726575b5050915050908152602001604051809103902093508360050160159054906101000a900460ff1615156107d5576040517f08c379a000000000000000000000000000000000000000000000000000000000815260040180806020018281038252601b8152602001807f5075626c697368206461746120646f6573206e6f74206578697374000000000081525060200191505060405180910390fd5b8360050160149054906101000a900460ff161515610881576040517f08c379a000000000000000000000000000000000000000000000000000000000815260040180806020018281038252602b8152602001807f546865207472616e73616374696f6e20646f206e6f7420737570706f7274207681526020017f6572696669636174696f6e00000000000000000000000000000000000000000081525060400191505060405180910390fd5b6109c18560a060405190810160405290816000820160009054906101000a900473ffffffffffffffffffffffffffffffffffffffff1673ffffffffffffffffffffffffffffffffffffffff1673ffffffffffffffffffffffffffffffffffffffff168152602001600182015481526020016002820160009054906101000a900460ff1660ff1660ff168152602001600382015481526020016004820160009054906101000a900460ff161515151581525050876002018054806020026020016040519081016040528092919081815260200182805480156109b757602002820191906000526020600020905b8160009054906101000a900473ffffffffffffffffffffffffffffffffffffffff1673ffffffffffffffffffffffffffffffffffffffff168152602001906001019080831161096d575b5050505050613d03565b8093508194505050821515610a3e576040517f08c379a00000000000000000000000000000000000000000000000000000000081526004018080602001828103825260108152602001807f496e76616c69642076657269666965720000000000000000000000000000000081525060200191505060405180910390fd5b8560030182815481101515610a4f57fe5b90600052602060002090602091828204019190069054906101000a900460ff16151515610b0a576040517f08c379a000000000000000000000000000000000000000000000000000000000815260040180806020018281038252603b8152602001807f54686520766572696669657227732063726564697420696e207468697320747281526020017f616e73616374696f6e20686173206265656e207375626d69746564000000000081525060400191505060405180910390fd5b84600301600081546001019190508190558760ff1686600301548760020160009054906101000a900460ff1660ff160201811515610b4457fe5b048560020160006101000a81548160ff021916908360ff16021790555060018660030183815481101515610b7457fe5b90600052602060002090602091828204019190066101000a81548160ff0219169083151502179055506002809054906101000a900460ff1660ff168560020160009054906101000a900460ff1660ff16111515610e215760008560040160006101000a81548160ff0219169083151502179055506000856001018190555060008081819054906101000a900460ff16809291906001900391906101000a81548160ff021916908360ff1602179055505060016000809054906101000a900460ff1660ff1610151515610cae576040517f08c379a00000000000000000000000000000000000000000000000000000000081526004018080602001828103825260168152602001807f496e76616c696420766572696669657220636f756e740000000000000000000081525060200191505060405180910390fd5b6001604051908082528060200260200182016040528015610cde5781602001602082028038833980820191505090505b5090506000816000815181101515610cf257fe5b9060200190602002019073ffffffffffffffffffffffffffffffffffffffff16908173ffffffffffffffffffffffffffffffffffffffff16815250507fd0e2127bc672e5762b6852e277e4d77594e1eecad47e50f41f56d9a87c1f75058b8b8760000160009054906101000a900473ffffffffffffffffffffffffffffffffffffffff168460405180806020018473ffffffffffffffffffffffffffffffffffffffff1673ffffffffffffffffffffffffffffffffffffffff1681526020018060200183810383528787828181526020019250808284378201915050838103825284818151815260200191508051906020019060200280838360005b83811015610e09578082015181840152602081019050610dee565b50505050905001965050505050505060405180910390a15b5050505050505050505050565b606060006001604051908082528060200260200182016040528015610e625781602001602082028038833980820191505090505b5091506000826000815181101515610e7657fe5b9060200190602002019073ffffffffffffffffffffffffffffffffffffffff16908173ffffffffffffffffffffffffffffffffffffffff168152505060048c8c60405180838380828437820191505092505050908152602001604051809103902090508060050160159054906101000a900460ff16151515610f60576040517f08c379a00000000000000000000000000000000000000000000000000000000081526004018080602001828103825260148152602001807f4475706c6963617465207075626c69736820696400000000000000000000000081525060200191505060405180910390fd5b610100604051908101604052808b81526020018a8a8080601f0160208091040260200160405190810160405280939291908181526020018383808284378201915050505050508152602001888880806020026020016040519081016040528093929190818152602001838360200280828437820191505050505050815260200188889050815260200186868080601f01602080910402602001604051908101604052809392919081815260200183838082843782019150505050505081526020013373ffffffffffffffffffffffffffffffffffffffff16815260200184151581526020016001151581525060048d8d604051808383808284378201915050925050509081526020016040518091039020600082015181600001556020820151816001019080519060200190611097929190614583565b5060408201518160020190805190602001906110b4929190614603565b506060820151816003015560808201518160040190805190602001906110db929190614656565b5060a08201518160050160006101000a81548173ffffffffffffffffffffffffffffffffffffffff021916908373ffffffffffffffffffffffffffffffffffffffff16021790555060c08201518160050160146101000a81548160ff02191690831515021790555060e08201518160050160156101000a81548160ff0219169083151502179055509050507f9d1b954932f5249f38959200c17d585ac2b4897b77acb4c29a8fb4d8473f0e8c8e8e8e8e8e8a8a89604051808060200180602001878152602001806020018060200185810385528d8d82818152602001925080828437820191505085810384528b8b82818152602001925080828437820191505085810383528888828181526020019250808284378201915050858103825286818151815260200191508051906020019060200280838360005b8381101561122f578082015181840152602081019050611214565b505050509050019c5050505050505050505050505060405180910390a15050505050505050505050505050565b3373ffffffffffffffffffffffffffffffffffffffff16600a60009054906101000a900473ffffffffffffffffffffffffffffffffffffffff1673ffffffffffffffffffffffffffffffffffffffff16141515611347576040517f08c379a00000000000000000000000000000000000000000000000000000000081526004018080602001828103825260228152602001807f5468652076616c7565206f6e6c792063616e20626520736574206279206f776e81526020017f657200000000000000000000000000000000000000000000000000000000000081525060400191505060405180910390fd5b80600060016101000a81548160ff021916908360ff16021790555050565b3373ffffffffffffffffffffffffffffffffffffffff16600a60009054906101000a900473ffffffffffffffffffffffffffffffffffffffff1673ffffffffffffffffffffffffffffffffffffffff16141515611450576040517f08c379a00000000000000000000000000000000000000000000000000000000081526004018080602001828103825260228152602001807f5468652076616c7565206f6e6c792063616e20626520736574206279206f776e81526020017f657200000000000000000000000000000000000000000000000000000000000081525060400191505060405180910390fd5b8060018190555050565b600060606005600086815260200190815260200160002091508160080160009054906101000a900460ff1615156114f9576040517f08c379a000000000000000000000000000000000000000000000000000000000815260040180806020018281038252601a8152602001807f5472616e73616374696f6e20646f6573206e6f7420657869737400000000000081525060200191505060405180910390fd5b3373ffffffffffffffffffffffffffffffffffffffff168260010160009054906101000a900473ffffffffffffffffffffffffffffffffffffffff1673ffffffffffffffffffffffffffffffffffffffff161415156115c0576040517f08c379a000000000000000000000000000000000000000000000000000000000815260040180806020018281038252600e8152602001807f496e76616c69642073656c6c657200000000000000000000000000000000000081525060200191505060405180910390fd5b600360078111156115cd57fe5b8260000160009054906101000a900460ff1660078111156115ea57fe5b14151561165f576040517f08c379a00000000000000000000000000000000000000000000000000000000081526004018080602001828103825260198152602001807f496e76616c6964207472616e73616374696f6e2073746174650000000000000081525060200191505060405180910390fd5b83838360050191906116729291906146d6565b5060048260000160006101000a81548160ff0219169083600781111561169457fe5b021790555060016040519080825280602002602001820160405280156116c95781602001602082028038833980820191505090505b5090508160000160019054906101000a900473ffffffffffffffffffffffffffffffffffffffff1681600081518110151561170057fe5b9060200190602002019073ffffffffffffffffffffffffffffffffffffffff16908173ffffffffffffffffffffffffffffffffffffffff16815250507f28eb60ba9df25f12ccee668d0a745b5e455365b717f0867aa76edcffe7430cf5878787856006018560405180806020018581526020018060200180602001848103845289898281815260200192508082843782019150508481038352868181546001816001161561010002031660029004815260200191508054600181600116156101000203166002900480156118155780601f106117ea57610100808354040283529160200191611815565b820191906000526020600020905b8154815290600101906020018083116117f857829003601f168201915b5050848103825285818151815260200191508051906020019060200280838360005b83811015611852578082015181840152602081019050611837565b505050509050019850505050505050505060405180910390a150505050505050565b6000606061188133613c22565b915060008260000160009054906101000a900473ffffffffffffffffffffffffffffffffffffffff1673ffffffffffffffffffffffffffffffffffffffff1614151561195b576040517f08c379a00000000000000000000000000000000000000000000000000000000081526004018080602001828103825260228152602001807f54686520766572696669657220697320616c726561647920726567697374657281526020017f656400000000000000000000000000000000000000000000000000000000000081525060400191505060405180910390fd5b60006001541115611ca857600154600b60009054906101000a900473ffffffffffffffffffffffffffffffffffffffff1673ffffffffffffffffffffffffffffffffffffffff166370a08231336040518263ffffffff167c0100000000000000000000000000000000000000000000000000000000028152600401808273ffffffffffffffffffffffffffffffffffffffff1673ffffffffffffffffffffffffffffffffffffffff168152602001915050602060405180830381600087803b158015611a2657600080fd5b505af1158015611a3a573d6000803e3d6000fd5b505050506040513d6020811015611a5057600080fd5b810190808051906020019092919050505010151515611ad7576040517f08c379a00000000000000000000000000000000000000000000000000000000081526004018080602001828103825260118152602001807f4e6f20656e6f7567682062616c616e636500000000000000000000000000000081525060200191505060405180910390fd5b600b60009054906101000a900473ffffffffffffffffffffffffffffffffffffffff1673ffffffffffffffffffffffffffffffffffffffff166323b872dd33306001546040518463ffffffff167c0100000000000000000000000000000000000000000000000000000000028152600401808473ffffffffffffffffffffffffffffffffffffffff1673ffffffffffffffffffffffffffffffffffffffff1681526020018373ffffffffffffffffffffffffffffffffffffffff1673ffffffffffffffffffffffffffffffffffffffff1681526020018281526020019350505050602060405180830381600087803b158015611bd257600080fd5b505af1158015611be6573d6000803e3d6000fd5b505050506040513d6020811015611bfc57600080fd5b81019080805190602001909291905050501515611ca7576040517f08c379a00000000000000000000000000000000000000000000000000000000081526004018080602001828103825260248152602001807f4661696c656420746f207472616e7366657220746f6b656e2066726f6d20636181526020017f6c6c65720000000000000000000000000000000000000000000000000000000081525060400191505060405180910390fd5b5b60a0604051908101604052803373ffffffffffffffffffffffffffffffffffffffff1681526020016001548152602001600260019054906101000a900460ff1660ff16815260200160008152602001600115158152506003808054809190600101611d139190614756565b815481101515611d1f57fe5b906000526020600020906005020160008201518160000160006101000a81548173ffffffffffffffffffffffffffffffffffffffff021916908373ffffffffffffffffffffffffffffffffffffffff1602179055506020820151816001015560408201518160020160006101000a81548160ff021916908360ff1602179055506060820151816003015560808201518160040160006101000a81548160ff02191690831515021790555090505060008081819054906101000a900460ff168092919060010191906101000a81548160ff021916908360ff160217905550506001604051908082528060200260200182016040528015611e2d5781602001602082028038833980820191505090505b50905033816000815181101515611e4057fe5b9060200190602002019073ffffffffffffffffffffffffffffffffffffffff16908173ffffffffffffffffffffffffffffffffffffffff16815250507f476785064b6fb8cce78cd4377a03177c7bac7803ef345a1eaf34d1dbdbf0e86484848360405180806020018060200183810383528686828181526020019250808284378201915050838103825284818151815260200191508051906020019060200280838360005b83811015611f00578082015181840152602081019050611ee5565b505050509050019550505050505060405180910390a150505050565b6000806000806060600560008a815260200190815260200160002094508460080160009054906101000a900460ff161515611fbf576040517f08c379a000000000000000000000000000000000000000000000000000000000815260040180806020018281038252601a8152602001807f5472616e73616374696f6e20646f6573206e6f7420657869737400000000000081525060200191505060405180910390fd5b611fc833613c22565b915061210a8260a060405190810160405290816000820160009054906101000a900473ffffffffffffffffffffffffffffffffffffffff1673ffffffffffffffffffffffffffffffffffffffff1673ffffffffffffffffffffffffffffffffffffffff168152602001600182015481526020016002820160009054906101000a900460ff1660ff1660ff168152602001600382015481526020016004820160009054906101000a900460ff1615151515815250508660020180548060200260200160405190810160405280929190818152602001828054801561210057602002820191906000526020600020905b8160009054906101000a900473ffffffffffffffffffffffffffffffffffffffff1673ffffffffffffffffffffffffffffffffffffffff16815260200190600101908083116120b6575b5050505050613d03565b8094508195505050831515612187576040517f08c379a00000000000000000000000000000000000000000000000000000000081526004018080602001828103825260108152602001807f496e76616c69642076657269666965720000000000000000000000000000000081525060200191505060405180910390fd5b606060405190810160405280891515815260200188888080601f016020809104026020016040519081016040528093929190818152602001838380828437820191505050505050815260200160011515815250600660008b815260200190815260200160002060003373ffffffffffffffffffffffffffffffffffffffff1673ffffffffffffffffffffffffffffffffffffffff16815260200190815260200160002060008201518160000160006101000a81548160ff0219169083151502179055506020820151816001019080519060200190612266929190614656565b5060408201518160020160006101000a81548160ff02191690831515021790555090505060028560000160006101000a81548160ff021916908360078111156122ab57fe5b0217905550600085600301848154811015156122c357fe5b90600052602060002090602091828204019190066101000a81548160ff021916908315150217905550600160405190808252806020026020018201604052801561231c5781602001602082028038833980820191505090505b5090508460000160019054906101000a900473ffffffffffffffffffffffffffffffffffffffff1681600081518110151561235357fe5b9060200190602002019073ffffffffffffffffffffffffffffffffffffffff16908173ffffffffffffffffffffffffffffffffffffffff16815250507f6c9b52deb2c6010b3925a2e11bd5a7067f351dfb5f0ece7f1262ccaf599cacd38b8b8b8b8b8b87604051808060200187815260200186151515158152602001806020018060200184810384528b8b82818152602001925080828437820191505084810383528787828181526020019250808284378201915050848103825285818151815260200191508051906020019060200280838360005b83811015612444578082015181840152602081019050612429565b505050509050019a505050505050505050505060405180910390a15050505050505050505050565b6000612476614788565b60606005600085815260200190815260200160002092508260080160009054906101000a900460ff161515612513576040517f08c379a000000000000000000000000000000000000000000000000000000000815260040180806020018281038252601a8152602001807f5472616e73616374696f6e20646f6573206e6f7420657869737400000000000081525060200191505060405180910390fd5b3373ffffffffffffffffffffffffffffffffffffffff168360000160019054906101000a900473ffffffffffffffffffffffffffffffffffffffff1673ffffffffffffffffffffffffffffffffffffffff161415156125da576040517f08c379a000000000000000000000000000000000000000000000000000000000815260040180806020018281038252600d8152602001807f496e76616c69642062757965720000000000000000000000000000000000000081525060200191505060405180910390fd5b600483600401604051808280546001816001161561010002031660029004801561263b5780601f1061261957610100808354040283529182019161263b565b820191906000526020600020905b815481529060010190602001808311612627575b50509150509081526020016040518091039020610100604051908101604052908160008201548152602001600182018054600181600116156101000203166002900480601f0160208091040260200160405190810160405280929190818152602001828054600181600116156101000203166002900480156126fe5780601f106126d3576101008083540402835291602001916126fe565b820191906000526020600020905b8154815290600101906020018083116126e157829003601f168201915b505050505081526020016002820180548060200260200160405190810160405280929190818152602001828054801561275a57602002820191906000526020600020905b81546000191681526020019060010190808311612742575b5050505050815260200160038201548152602001600482018054600181600116156101000203166002900480601f0160208091040260200160405190810160405280929190818152602001828054600181600116156101000203166002900480156128065780601f106127db57610100808354040283529160200191612806565b820191906000526020600020905b8154815290600101906020018083116127e957829003601f168201915b505050505081526020016005820160009054906101000a900473ffffffffffffffffffffffffffffffffffffffff1673ffffffffffffffffffffffffffffffffffffffff1673ffffffffffffffffffffffffffffffffffffffff1681526020016005820160149054906101000a900460ff161515151581526020016005820160159054906101000a900460ff16151515158152505091508160e001511515612916576040517f08c379a000000000000000000000000000000000000000000000000000000000815260040180806020018281038252601b8152602001807f5075626c697368206461746120646f6573206e6f74206578697374000000000081525060200191505060405180910390fd5b8160c0015115156129c5576001600781111561292e57fe5b8360000160009054906101000a900460ff16600781111561294b57fe5b1415156129c0576040517f08c379a00000000000000000000000000000000000000000000000000000000081526004018080602001828103825260198152602001807f496e76616c6964207472616e73616374696f6e2073746174650000000000000081525060200191505060405180910390fd5b612a65565b600260078111156129d257fe5b8360000160009054906101000a900460ff1660078111156129ef57fe5b141515612a64576040517f08c379a00000000000000000000000000000000000000000000000000000000081526004018080602001828103825260198152602001807f496e76616c6964207472616e73616374696f6e2073746174650000000000000081525060200191505060405180910390fd5b5b60038360000160006101000a81548160ff02191690836007811115612a8657fe5b02179055506001604051908082528060200260200182016040528015612abb5781602001602082028038833980820191505090505b5090508260010160009054906101000a900473ffffffffffffffffffffffffffffffffffffffff16816000815181101515612af257fe5b9060200190602002019073ffffffffffffffffffffffffffffffffffffffff16908173ffffffffffffffffffffffffffffffffffffffff16815250507feeaf28668d6d8a951d1c5b873c5e94068abdea0145811cbeaece6c309118f3e3868686866004018760060186604051808060200186815260200180602001806020018060200185810385528b8b828181526020019250808284378201915050858103845288818154600181600116156101000203166002900481526020019150805460018160011615610100020316600290048015612c0f5780601f10612be457610100808354040283529160200191612c0f565b820191906000526020600020905b815481529060010190602001808311612bf257829003601f168201915b5050858103835287818154600181600116156101000203166002900481526020019150805460018160011615610100020316600290048015612c925780601f10612c6757610100808354040283529160200191612c92565b820191906000526020600020905b815481529060010190602001808311612c7557829003601f168201915b5050858103825286818151815260200191508051906020019060200280838360005b83811015612ccf578082015181840152602081019050612cb4565b505050509050019a505050505050505050505060405180910390a1505050505050565b6000806005600085815260200190815260200160002091508160080160009054906101000a900460ff161515612d90576040517f08c379a000000000000000000000000000000000000000000000000000000000815260040180806020018281038252601a8152602001807f5472616e73616374696f6e20646f6573206e6f7420657869737400000000000081525060200191505060405180910390fd5b3373ffffffffffffffffffffffffffffffffffffffff168260000160019054906101000a900473ffffffffffffffffffffffffffffffffffffffff1673ffffffffffffffffffffffffffffffffffffffff16141515612e57576040517f08c379a000000000000000000000000000000000000000000000000000000000815260040180806020018281038252600d8152602001807f496e76616c69642062757965720000000000000000000000000000000000000081525060200191505060405180910390fd5b6004826004016040518082805460018160011615610100020316600290048015612eb85780601f10612e96576101008083540402835291820191612eb8565b820191906000526020600020905b815481529060010190602001808311612ea4575b5050915050908152602001604051809103902090508060050160159054906101000a900460ff161515612f53576040517f08c379a000000000000000000000000000000000000000000000000000000000815260040180806020018281038252601b8152602001807f5075626c697368206461746120646f6573206e6f74206578697374000000000081525060200191505060405180910390fd5b60046007811115612f6057fe5b8260000160009054906101000a900460ff166007811115612f7d57fe5b141515612f8957600080fd5b8060050160149054906101000a900460ff161515612ff4578215612fb257612fb18282613d3b565b5b612fef8287878080601f01602080910402602001604051908101604052809392919081815260200183838082843782019150505050505086613f9d565b613048565b8215613046576130048282613d3b565b6130418287878080601f01602080910402602001604051908101604052809392919081815260200183838082843782019150505050505086613f9d565b613047565b5b5b505050505050565b613058614788565b600060608060608060048888604051808383808284378201915050925050509081526020016040518091039020610100604051908101604052908160008201548152602001600182018054600181600116156101000203166002900480601f0160208091040260200160405190810160405280929190818152602001828054600181600116156101000203166002900480156131355780601f1061310a57610100808354040283529160200191613135565b820191906000526020600020905b81548152906001019060200180831161311857829003601f168201915b505050505081526020016002820180548060200260200160405190810160405280929190818152602001828054801561319157602002820191906000526020600020905b81546000191681526020019060010190808311613179575b5050505050815260200160038201548152602001600482018054600181600116156101000203166002900480601f01602080910402602001604051908101604052809291908181526020018280546001816001161561010002031660029004801561323d5780601f106132125761010080835404028352916020019161323d565b820191906000526020600020905b81548152906001019060200180831161322057829003601f168201915b505050505081526020016005820160009054906101000a900473ffffffffffffffffffffffffffffffffffffffff1673ffffffffffffffffffffffffffffffffffffffff1673ffffffffffffffffffffffffffffffffffffffff1681526020016005820160149054906101000a900460ff161515151581526020016005820160159054906101000a900460ff16151515158152505095508560e00151151561334d576040517f08c379a000000000000000000000000000000000000000000000000000000000815260040180806020018281038252601b8152602001807f5075626c697368206461746120646f6573206e6f74206578697374000000000081525060200191505060405180910390fd5b8560000151600b60009054906101000a900473ffffffffffffffffffffffffffffffffffffffff1673ffffffffffffffffffffffffffffffffffffffff166370a08231336040518263ffffffff167c0100000000000000000000000000000000000000000000000000000000028152600401808273ffffffffffffffffffffffffffffffffffffffff1673ffffffffffffffffffffffffffffffffffffffff168152602001915050602060405180830381600087803b15801561340f57600080fd5b505af1158015613423573d6000803e3d6000fd5b505050506040513d602081101561343957600080fd5b8101908080519060200190929190505050101515156134c0576040517f08c379a00000000000000000000000000000000000000000000000000000000081526004018080602001828103825260118152602001807f4e6f20656e6f7567682062616c616e636500000000000000000000000000000081525060200191505060405180910390fd5b600b60009054906101000a900473ffffffffffffffffffffffffffffffffffffffff1673ffffffffffffffffffffffffffffffffffffffff166323b872dd333089600001516040518463ffffffff167c0100000000000000000000000000000000000000000000000000000000028152600401808473ffffffffffffffffffffffffffffffffffffffff1673ffffffffffffffffffffffffffffffffffffffff1681526020018373ffffffffffffffffffffffffffffffffffffffff1673ffffffffffffffffffffffffffffffffffffffff1681526020018281526020019350505050602060405180830381600087803b1580156135bd57600080fd5b505af11580156135d1573d6000803e3d6000fd5b505050506040513d60208110156135e757600080fd5b81019080805190602001909291905050501515613692576040517f08c379a00000000000000000000000000000000000000000000000000000000081526004018080602001828103825260248152602001807f4661696c656420746f207472616e7366657220746f6b656e2066726f6d20636181526020017f6c6c65720000000000000000000000000000000000000000000000000000000081525060400191505060405180910390fd5b61369a614138565b94506008546040519080825280601f01601f1916602001820160405280156136d15781602001602082028038833980820191505090505b5093508560c001511561382c576136f6600060019054906101000a900460ff16614150565b9250600060019054906101000a900460ff1660ff166040519080825280602002602001820160405280156137395781602001602082028038833980820191505090505b5091507f9c200a4227ec4e19b5ad9d49dc8b449b7f19d88b7ba8c38e633a05713c6e6b748a8a878960400151876040518080602001858152602001806020018060200184810384528989828181526020019250808284378201915050848103835286818151815260200191508051906020019060200280838360005b838110156137d05780820151818401526020810190506137b5565b50505050905001848103825285818151815260200191508051906020019060200280838360005b838110156138125780820151818401526020810190506137f7565b505050509050019850505050505050505060405180910390a15b600160405190808252806020026020018201604052801561385c5781602001602082028038833980820191505090505b5090503381600081518110151561386f57fe5b9060200190602002019073ffffffffffffffffffffffffffffffffffffffff16908173ffffffffffffffffffffffffffffffffffffffff16815250507fd16734b3714832ed6453cfd7a0cdc465aeb6058f33ac675bc38176c4c4e109618a8a878b8b8b604001518c60c001518860405180806020018881526020018060200180602001861515151581526020018060200185810385528d8d82818152602001925080828437820191505085810384528a8a828181526020019250808284378201915050858103835288818151815260200191508051906020019060200280838360005b8381101561396d578082015181840152602081019050613952565b50505050905001858103825286818151815260200191508051906020019060200280838360005b838110156139af578082015181840152602081019050613994565b505050509050019c5050505050505050505050505060405180910390a161014060405190810160405280600160078111156139e657fe5b81526020013373ffffffffffffffffffffffffffffffffffffffff1681526020018760a0015173ffffffffffffffffffffffffffffffffffffffff16815260200184815260200183815260200189898080601f01602080910402602001604051908101604052809392919081815260200183838082843782019150505050505081526020018581526020018760200151815260200187600001518152602001600115158152506005600087815260200190815260200160002060008201518160000160006101000a81548160ff02191690836007811115613ac357fe5b021790555060208201518160000160016101000a81548173ffffffffffffffffffffffffffffffffffffffff021916908373ffffffffffffffffffffffffffffffffffffffff16021790555060408201518160010160006101000a81548173ffffffffffffffffffffffffffffffffffffffff021916908373ffffffffffffffffffffffffffffffffffffffff1602179055506060820151816002019080519060200190613b729291906147e8565b506080820151816003019080519060200190613b8f929190614872565b5060a0820151816004019080519060200190613bac929190614656565b5060c0820151816005019080519060200190613bc9929190614583565b5060e0820151816006019080519060200190613be6929190614583565b5061010082015181600701556101208201518160080160006101000a81548160ff02191690831515021790555090505050505050505050505050565b600080600090505b600380549050811015613cdc578273ffffffffffffffffffffffffffffffffffffffff16600382815481101515613c5d57fe5b906000526020600020906005020160000160009054906101000a900473ffffffffffffffffffffffffffffffffffffffff1673ffffffffffffffffffffffffffffffffffffffff161415613ccf57600381815481101515613cba57fe5b90600052602060002090600502019150613cfd565b8080600101915050613c2a565b60036000815481101515613cec57fe5b906000526020600020906005020191505b50919050565b600080600080613d1786600001518661446d565b809250819350505085608001518015613d2d5750815b819350935050509250929050565b80600001548260070154101515613f225780600001548260070160008282540392505081905550600b60009054906101000a900473ffffffffffffffffffffffffffffffffffffffff1673ffffffffffffffffffffffffffffffffffffffff1663a9059cbb8260050160009054906101000a900473ffffffffffffffffffffffffffffffffffffffff1683600001546040518363ffffffff167c0100000000000000000000000000000000000000000000000000000000028152600401808373ffffffffffffffffffffffffffffffffffffffff1673ffffffffffffffffffffffffffffffffffffffff16815260200182815260200192505050602060405180830381600087803b158015613e4f57600080fd5b505af1158015613e63573d6000803e3d6000fd5b505050506040513d6020811015613e7957600080fd5b81019080805190602001909291905050501515613f1d578060000154826007016000828254019250508190555060001515613f1c576040517f08c379a00000000000000000000000000000000000000000000000000000000081526004018080602001828103825260178152602001807f4661696c656420746f2070617920746f2073656c6c657200000000000000000081525060200191505060405180910390fd5b5b613f99565b60001515613f98576040517f08c379a00000000000000000000000000000000000000000000000000000000081526004018080602001828103825260118152602001807f4c6f77206465706f7369742076616c756500000000000000000000000000000081525060200191505060405180910390fd5b5b5050565b606060078460000160006101000a81548160ff02191690836007811115613fc057fe5b02179055506001604051908082528060200260200182016040528015613ff55781602001602082028038833980820191505090505b509050600081600081518110151561400957fe5b9060200190602002019073ffffffffffffffffffffffffffffffffffffffff16908173ffffffffffffffffffffffffffffffffffffffff16815250507f784a9feb5a6ecee5d955d1b5e294f2b57d9477164fba686c0bde4a40849f2b0c838383604051808060200184815260200180602001838103835286818151815260200191508051906020019080838360005b838110156140b3578082015181840152602081019050614098565b50505050905090810190601f1680156140e05780820380516001836020036101000a031916815260200191505b50838103825284818151815260200191508051906020019060200280838360005b8381101561411c578082015181840152602081019050614101565b505050509050019550505050505060405180910390a150505050565b60006007600081548092919060010191905055905090565b6060806000806000806000809054906101000a900460ff1660ff168760ff161015156141e4576040517f08c379a00000000000000000000000000000000000000000000000000000000081526004018080602001828103825260198152602001807f4e6f20656e6f7567682076616c6964207665726966696572730000000000000081525060200191505060405180910390fd5b8660ff166040519080825280602002602001820160405280156142165781602001602082028038833980820191505090505b509450600093505b8660ff168460ff161015614460576003805490506142406003805490506144f6565b81151561424957fe5b06925060038381548110151561425b57fe5b906000526020600020906005020191508160000160009054906101000a900473ffffffffffffffffffffffffffffffffffffffff1690505b8160040160009054906101000a900460ff1615806142db57506142da8260000160009054906101000a900473ffffffffffffffffffffffffffffffffffffffff1686614567565b5b156143e15760038080549050846001019450848115156142f757fe5b0681548110151561430457fe5b906000526020600020906005020191508073ffffffffffffffffffffffffffffffffffffffff168260000160009054906101000a900473ffffffffffffffffffffffffffffffffffffffff1673ffffffffffffffffffffffffffffffffffffffff16141515156143dc576040517f08c379a00000000000000000000000000000000000000000000000000000000081526004018080602001828103825260148152602001807f4469736f7264657265642076657269666965727300000000000000000000000081525060200191505060405180910390fd5b614293565b8160000160009054906101000a900473ffffffffffffffffffffffffffffffffffffffff16858560ff1681518110151561441757fe5b9060200190602002019073ffffffffffffffffffffffffffffffffffffffff16908173ffffffffffffffffffffffffffffffffffffffff1681525050838060010194505061421e565b8495505050505050919050565b60008060008090505b83518110156144e3578473ffffffffffffffffffffffffffffffffffffffff1684828151811015156144a457fe5b9060200190602002015173ffffffffffffffffffffffffffffffffffffffff1614156144d657600181925092506144ee565b8080600101915050614476565b600080809050925092505b509250929050565b6000814233604051808381526020018273ffffffffffffffffffffffffffffffffffffffff1673ffffffffffffffffffffffffffffffffffffffff166c010000000000000000000000000281526014019250505060405180910390206001900481151561455f57fe5b069050919050565b600080614574848461446d565b50809150508091505092915050565b828054600181600116156101000203166002900490600052602060002090601f016020900481019282601f106145c457805160ff19168380011785556145f2565b828001600101855582156145f2579182015b828111156145f15782518255916020019190600101906145d6565b5b5090506145ff9190614918565b5090565b828054828255906000526020600020908101928215614645579160200282015b82811115614644578251829060001916905591602001919060010190614623565b5b509050614652919061493d565b5090565b828054600181600116156101000203166002900490600052602060002090601f016020900481019282601f1061469757805160ff19168380011785556146c5565b828001600101855582156146c5579182015b828111156146c45782518255916020019190600101906146a9565b5b5090506146d29190614918565b5090565b828054600181600116156101000203166002900490600052602060002090601f016020900481019282601f1061471757803560ff1916838001178555614745565b82800160010185558215614745579182015b82811115614744578235825591602001919060010190614729565b5b5090506147529190614918565b5090565b815481835581811115614783576005028160050283600052602060002091820191016147829190614962565b5b505050565b610100604051908101604052806000815260200160608152602001606081526020016000815260200160608152602001600073ffffffffffffffffffffffffffffffffffffffff1681526020016000151581526020016000151581525090565b828054828255906000526020600020908101928215614861579160200282015b828111156148605782518260006101000a81548173ffffffffffffffffffffffffffffffffffffffff021916908373ffffffffffffffffffffffffffffffffffffffff16021790555091602001919060010190614808565b5b50905061486e91906149e0565b5090565b82805482825590600052602060002090601f016020900481019282156149075791602002820160005b838211156148d857835183826101000a81548160ff021916908315150217905550926020019260010160208160000104928301926001030261489b565b80156149055782816101000a81549060ff02191690556001016020816000010492830192600103026148d8565b505b5090506149149190614a23565b5090565b61493a91905b8082111561493657600081600090555060010161491e565b5090565b90565b61495f91905b8082111561495b576000816000905550600101614943565b5090565b90565b6149dd91905b808211156149d957600080820160006101000a81549073ffffffffffffffffffffffffffffffffffffffff021916905560018201600090556002820160006101000a81549060ff021916905560038201600090556004820160006101000a81549060ff021916905550600501614968565b5090565b90565b614a2091905b80821115614a1c57600081816101000a81549073ffffffffffffffffffffffffffffffffffffffff0219169055506001016149e6565b5090565b90565b614a5091905b80821115614a4c57600081816101000a81549060ff021916905550600101614a29565b5090565b905600a165627a7a72305820af6f539f966c148a33ce3ec46151808c84e8e64919269e68ca7be45a5cda29790029",
  "source": "pragma solidity ^0.4.24;\n\nimport \"./ScryToken.sol\";\n\ncontract ScryProtocol {\n    enum TransactionState {Begin, Created, Voted, Buying, ReadyForDownload, Arbitrating, Payed, Closed}\n\n    struct DataInfoPublished {\n        uint256 price;\n        bytes metaDataIdEncSeller;\n        bytes32[] proofDataIds;\n        uint256 numberOfProof;\n        string despDataId;\n        address seller;\n        bool supportVerify;\n        bool used;\n    } \n\n    struct TransactionItem {\n        TransactionState state;\n        address buyer;\n        address seller;\n        address[] verifiers;\n        bool[] creditGived; \n        string publishId;\n        bytes meteDataIdEncBuyer;\n        bytes metaDataIdEncSeller;\n        uint256 buyerDeposit;\n        bool used;\n    }\n\n    struct Verifier {\n        address addr;\n        uint256 deposit;\n        uint8 credits;  //credit: 0-5\n        uint256 creditTimes;\n        bool enable;\n    }\n    \n    uint8 validVerifierCount = 0;\n    uint8 verifierNum = 2;\n    uint256 verifierDepositToken = 10000;\n    uint8 creditLow = 0;\n    uint8 creditHigh = 5;\n    uint8 creditThreshold = 2;\n\n    struct VoteResult {\n        bool judge;\n        string comments;\n        bool used;\n    }\n\n    Verifier[] verifiers;\n    mapping (string => DataInfoPublished) mapPublishedData;\n    mapping (uint256 => TransactionItem) mapTransaction;\n    mapping (uint256 => mapping(address => VoteResult)) mapVote;\n\n    event RegisterVerifier(string seqNo, address[] users);\n    event DataPublish(string seqNo, string publishId, uint256 price, string despDataId, address[] users);\n    event TransactionCreate(string seqNo, uint256 transactionId, string publishId, bytes32[] proofIds, bool supportVerify, address[] users);\n    event VerifiersChosen(string seqNo, uint256 transactionId, bytes32[] proofIds, address[] users);\n    event Vote(string seqNo, uint256 transactionId, bool judge, string comments, address[] users);\n    event Buy(string seqNo, uint256 transactionId, string publishId, bytes metaDataIdEncSeller, address[] users);\n    event ReadyForDownload(string seqNo, uint256 transactionId, bytes metaDataIdEncBuyer, address[] users);\n    event TransactionClose(string seqNo, uint256 transactionId, address[] users);\n    event VerifierDisable(string seqNo, address verifier, address[] users);\n\n    uint256 transactionSeq = 0;\n    uint256 encryptedIdLen = 32;\n\n    address token_address = 0x0;\n    address owner         = 0x0;\n    ERC20   token;\n\n    constructor (address _token) public {\n        require(_token != 0x0);\n\n        owner = msg.sender;\n        token_address = _token;\n        token = ERC20(_token);\n\n        //the first element used for empty usage\n        verifiers[verifiers.length++] = Verifier(0x00, 0, 0, 0, false);\n    }\n\n    function registerAsVerifier(string seqNo) external {\n        Verifier storage v = getVerifier(msg.sender);\n        require( v.addr == 0x00, \"The verifier is already registered\");\n\n        //deposit\n        if (verifierDepositToken > 0) {\n            require(token.balanceOf(msg.sender) >= verifierDepositToken, \"No enough balance\");\n            require(token.transferFrom(msg.sender, address(this), verifierDepositToken), \"Failed to transfer token from caller\");\n        }\n        \n        verifiers[verifiers.length++] = Verifier(msg.sender, verifierDepositToken, creditHigh, 0, true);\n        validVerifierCount++;\n\n        address[] memory users = new address[](1);\n        users[0] = msg.sender;\n        emit RegisterVerifier(seqNo, users);\n    }\n\n    function publishDataInfo(string seqNo, string publishId, uint256 price, bytes metaDataIdEncSeller,\n                                     bytes32[] proofDataIds, string despDataId, bool supportVerify) external {\n        address[] memory users = new address[](1);\n        users[0] = address(0x00);\n\n        DataInfoPublished storage data = mapPublishedData[publishId];\n        require(!data.used, \"Duplicate publish id\");\n\n        mapPublishedData[publishId] = DataInfoPublished(price, metaDataIdEncSeller, proofDataIds, proofDataIds.length, despDataId, msg.sender, supportVerify, true);\n        \n        emit DataPublish(seqNo, publishId, price, despDataId, users);\n    }\n\n    function isPublishedDataExisted(string publishId) internal view returns (bool) {\n        DataInfoPublished storage data = mapPublishedData[publishId];\n        return data.used;\n    }\n\n    function createTransaction(string seqNo, string publishId) external {\n        //published data info\n        DataInfoPublished memory data = mapPublishedData[publishId];\n        require(data.used, \"Publish data does not exist\");\n        require((token.balanceOf(msg.sender)) >= data.price, \"No enough balance\");\n        require(token.transferFrom(msg.sender, address(this), data.price), \"Failed to transfer token from caller\");\n\n        //create transaction\n        uint txId = getTransactionId();\n        bytes memory metaDataIdEncBuyer = new bytes(encryptedIdLen);\n\n        address[] memory selectedVerifiers;\n        bool[] memory creditGived;\n        if (data.supportVerify) {\n            //choose verifiers randomly\n            selectedVerifiers = chooseVerifiers(verifierNum);\n            creditGived = new bool[](verifierNum);\n            emit VerifiersChosen(seqNo, txId,data.proofDataIds, selectedVerifiers);\n        }\n\n        address[] memory users = new address[](1);\n        users[0] = msg.sender;\n        emit TransactionCreate(seqNo, txId, publishId, data.proofDataIds, data.supportVerify, users);\n\n        mapTransaction[txId] = TransactionItem(TransactionState.Created, msg.sender, data.seller, selectedVerifiers, creditGived,\n                                                publishId, metaDataIdEncBuyer, data.metaDataIdEncSeller, data.price, true);\n    }\n\n    function chooseVerifiers(uint8 num) internal view returns (address[] memory) {\n        require(num < validVerifierCount, \"No enough valid verifiers\");\n        address[] memory chosenVerifiers = new address[](num);\n\n        for (uint8 i = 0; i < num; i++) {\n            uint index = getRandomNumber(verifiers.length) % verifiers.length;\n            Verifier storage v = verifiers[index];\n\n            //loop if invalid verifier was chosen until get valid verifier\n            address vb = v.addr;\n            while (!v.enable || verifierExist(v.addr, chosenVerifiers)) {\n                v = verifiers[(++index) % verifiers.length];\n                require(v.addr != vb, \"Disordered verifiers\");\n            }\n\n            chosenVerifiers[i] = v.addr;\n        }\n\n        return chosenVerifiers;\n    }\n\n    function verifierValid(Verifier v, address[] arr) pure internal returns (bool, uint256) {\n        bool exist;\n        uint256 index;\n\n        (exist, index) = getVerifierIndex(v.addr, arr);\n        return (v.enable && exist, index);\n    }\n    \n    function verifierExist(address addr, address[] arr) pure internal returns (bool) {\n        bool exist;\n        (exist, ) = getVerifierIndex(addr, arr);\n\n        return exist;\n    }\n\n    function getVerifierIndex(address verifier, address[] arrayVerifier) pure internal returns (bool, uint256) {\n        for (uint256 i = 0; i < arrayVerifier.length; i++) {\n            if (arrayVerifier[i] == verifier) {\n                return (true, i);\n            }\n        }\n\n        return (false, 0);\n    }\n\n    function getTransactionId() internal returns(uint) {\n        return transactionSeq++;\n    }\n\n    function getRandomNumber(uint mod) internal view returns (uint) {\n        return uint(keccak256(now, msg.sender)) % mod;\n    }\n\n    function vote(string seqNo, uint txId, bool judge, string comments) external {\n        TransactionItem storage txItem = mapTransaction[txId];\n        require(txItem.used, \"Transaction does not exist\");\n\n        bool valid;\n        uint256 index;\n        Verifier storage verifier = getVerifier(msg.sender);\n        (valid, index) = verifierValid(verifier, txItem.verifiers);\n        require(valid, \"Invalid verifier\");\n\n        mapVote[txId][msg.sender] = VoteResult(judge, comments, true);\n\n        txItem.state = TransactionState.Voted;\n        txItem.creditGived[index] = false;\n\n        address[] memory users = new address[](1);\n        users[0] = txItem.buyer;\n        emit Vote(seqNo, txId, judge, comments, users);\n    }\n\n    function buyData(string seqNo, uint256 txId) external {\n        //validate\n        TransactionItem storage txItem = mapTransaction[txId];\n        require(txItem.used, \"Transaction does not exist\");\n        require(txItem.buyer == msg.sender, \"Invalid buyer\");\n\n        DataInfoPublished memory data = mapPublishedData[txItem.publishId];\n        require(data.used, \"Publish data does not exist\");\n\n        if(!data.supportVerify) {\n            require(txItem.state == TransactionState.Created, \"Invalid transaction state\");\n        } else {\n            require(txItem.state == TransactionState.Voted, \"Invalid transaction state\");\n        }\n\n        txItem.state = TransactionState.Buying;\n\n        address[] memory users = new address[](1);\n        users[0] = txItem.seller;\n        emit Buy(seqNo, txId, txItem.publishId, txItem.metaDataIdEncSeller, users);\n    }\n\n    function submitMetaDataIdEncWithBuyer(string seqNo, uint256 txId, bytes encryptedMetaDataId) external {\n        //validate\n        TransactionItem storage txItem = mapTransaction[txId];\n        require(txItem.used, \"Transaction does not exist\");\n        require(txItem.seller == msg.sender, \"Invalid seller\");\n        require(txItem.state == TransactionState.Buying, \"Invalid transaction state\");\n\n        txItem.meteDataIdEncBuyer = encryptedMetaDataId;\n        txItem.state = TransactionState.ReadyForDownload;\n\n        //ReadyForDownload event\n        address[] memory users = new address[](1);\n        users[0] = txItem.buyer;\n        emit ReadyForDownload(seqNo, txId, txItem.metaDataIdEncSeller, users);\n    }\n\n    function confirmDataTruth(string seqNo, uint256 txId, bool truth) external {\n        //validate\n        TransactionItem storage txItem = mapTransaction[txId];\n        require(txItem.used, \"Transaction does not exist\");\n        require(txItem.buyer == msg.sender, \"Invalid buyer\");\n\n        DataInfoPublished storage data = mapPublishedData[txItem.publishId];\n        require(data.used, \"Publish data does not exist\");\n\n        require(txItem.state == TransactionState.ReadyForDownload);\n        if (!data.supportVerify) {\n            if(truth) {\n                payToSeller(txItem, data);\n            }\n            \n            closeTransaction(txItem, seqNo, txId);\n        } else {\n            if (truth) {\n                payToSeller(txItem, data);\n                closeTransaction(txItem, seqNo, txId);\n            } else {\n                \n            }\n        }\n    }\n\n    function closeTransaction(TransactionItem storage txItem, string seqNo, uint256 txId) internal {\n        txItem.state = TransactionState.Closed;\n\n        address[] memory users = new address[](1);\n        users[0] = address(0x00);\n        emit TransactionClose(seqNo, txId, users);\n    }\n\n    function payToSeller(TransactionItem storage txItem, DataInfoPublished storage data) internal {\n        if (txItem.buyerDeposit >= data.price) {\n            txItem.buyerDeposit -= data.price;\n\n            if (!token.transfer(data.seller, data.price)) {\n                txItem.buyerDeposit += data.price;\n                require(false, \"Failed to pay to seller\");\n            }\n        } else {\n            require(false, \"Low deposit value\");\n        }\n    }\n\n    function setVerifierDepositToken(uint256 deposit) external {\n        require(owner == msg.sender, \"The value only can be set by owner\");\n        \n        verifierDepositToken = deposit;\n    }\n\n    function setVerifierNum(uint8 num) external {\n        require(owner == msg.sender, \"The value only can be set by owner\");\n        \n        verifierNum = num;\n    }\n\n    function creditsToVerifier(string seqNo, uint256 txId, address to, uint8 credit) external {\n        //validate\n        require(to != 0x00, \"Verifier address is zero\");\n        require(credit >= creditLow && credit <= creditHigh, \"Valid credit scope is 0 <= credit <= 5\");\n\n        TransactionItem storage txItem = mapTransaction[txId];\n        require(txItem.used, \"Transaction does not exist\");\n\n        Verifier storage verifier = getVerifier(to);\n        require(verifier.addr != 0x00, \"Verifier does not exist\");\n\n        DataInfoPublished storage data = mapPublishedData[txItem.publishId];\n        require(data.used, \"Publish data does not exist\");\n        require(data.supportVerify, \"The transaction do not support verification\");\n\n        bool valid;\n        uint256 index;\n        (valid, index) = verifierValid(verifier, txItem.verifiers);\n        require(valid, \"Invalid verifier\");\n        require(!txItem.creditGived[index], \"The verifier's credit in this transaction has been submited\");    \n        \n        verifier.credits = (uint8)((verifier.credits * verifier.creditTimes + credit)/(++verifier.creditTimes));\n        txItem.creditGived[index] = true;\n        \n        //disable verifier and forfeiture deposit while credit <= creditThreshold\n        if (verifier.credits <= creditThreshold) {\n            verifier.enable = false;\n            verifier.deposit = 0;\n            validVerifierCount--;\n            require(validVerifierCount >= 1, \"Invalid verifier count\");\n            \n            address[] memory users = new address[](1);\n            users[0] = address(0x00);\n            emit VerifierDisable(seqNo, verifier.addr, users);\n        }\n    }\n\n    function getVerifier(address v) internal view returns (Verifier storage){\n        for (uint256 i = 0; i < verifiers.length; i++) {\n            if (verifiers[i].addr == v) {\n                return verifiers[i];\n            }\n        }\n\n        return verifiers[0];\n    }\n}",
  "sourcePath": "/home/waitgordor/project/iscap2/iscap/demo/src/contracts/contracts/ScryProtocol.sol",
  "compiler": {
    "name": "solc",
    "version": "0.4.24+commit.e67f0147.Emscripten.clang"
  },
  "schemaVersion": "2.0.1",
  "updatedAt": "2019-02-13T08:27:49.214Z"
}